:020000040800F2
:10000000700700209D010008D51900086B12000838
:10001000D1190008830500087D1B000800000000BE
:10002000000000000000000000000000B11A0008FD
:100030008705000800000000111A0008B31A000824
:10004000B7010008B7010008B7010008B7010008B0
:10005000B7010008B7010008B7010008B7010008A0
:10006000B7010008B7010008B7010008B701000890
:10007000B7010008B7010008B7010008B701000880
:10008000B7010008B7010008B7010008B701000870
:10009000B7010008B7010008B7010008B701000860
:1000A000B7010008B7010008B7010008B701000850
:1000B000B7010008B7010008B7010008B701000840
:1000C000B7010008B7010008B7010008B701000830
:1000D000B7010008B7010008B7010008B701000820
:1000E000B7010008B7010008B7010008B701000810
:1000F000B7010008B7010008B7010008B701000800
:10010000B7010008B7010008B7010008B7010008EF
:10011000B7010008B7010008B7010008B7010008DF
:10012000B7010008B7010008B7010008B7010008CF
:10013000B7010008B7010008B7010008B7010008BF
:10014000B7010008B7010008B7010008B7010008AF
:10015000B7010008B7010008B7010008B70100089F
:10016000B7010008B7010008B7010008B70100088F
:10017000B7010008B7010008B7010008000000003F
:10018000B7010008B7010008DFF80CD000F0ACF9A7
:1001900000480047A11B0008700700200648804760
:1001A00006480047FEE7FEE7FEE7FEE7FEE7FEE75C
:1001B000FEE7FEE7FEE7FEE72D1B000889010008C9
:1001C0002DE9FE4F804681EA0300C00F0C460090E7
:1001D00021F0004123F00045B8EB0200A94105D20F
:1001E0004046214690461C460B46024623F00040FE
:1001F000104347D0270DC7F30A00C3F30A510290FA
:10020000401A019040286BDAC3F3130040F4801BBE
:100210000098924620B10023D2EB030A63EB0B0B4C
:1002200001985946C0F14002504600F0A7F8064632
:100230000D4650465946019A00F0AFF810EB080001
:100240006141002487EA115284EAE7731A4340D0DF
:10025000009A62B3019A012A4FEA075215DC001B8B
:1002600061EB02014FF0004202EA0752CDE9004281
:10027000001C41F5801132462B4600F0E6F803B031
:1002800000F045B840462146F9E7001B61EB02014A
:10029000001C41F5801300185B412018A2F50017DF
:1002A00047EB030140EAD570B6196D4111E06D08C6
:1002B0004FEA360645EAC0754FEA0752001B61EB6C
:1002C0000201001C41F5801149084FEA3000001975
:1002D000514132462B4603B000F01CB800F0A6B8DE
:1002E0000098012240000023D0EB020263EBE07390
:1002F000009821464FEAE074B8EB000061EB04017E
:10030000E9E783F000435BE781F0004158E730BC48
:10031000BDE8C08F30BCBDE8C04FFFF7DFBF00F0C5
:10032000004230F000400AD0C10D01F56071C0F309
:10033000160042EA0151C2084007114370470020ED
:100340000146704701F0004330B421F0004150EA0B
:10035000010206D00A0DA2F56072C1F31301002A52
:1003600002DC30BC00207047440F44EAC104C100E5
:10037000E01830BC00EBC25000F021B8202A04DBAA
:10038000203A00FA02F1002070479140C2F12003A8
:1003900020FA03F3194390407047202A06DBCB175D
:1003A000203A41FA02F043EAE07306E041FA02F330
:1003B000D040C2F1200291400843194670470029FD
:1003C000A8BF7047401C490008BF20F001007047DB
:1003D00010B4B0FA80FC00FA0CF050EA010404BF3B
:1003E00010BC704749B1CCF1200421FA04F411FA91
:1003F0000CF118BF012121430843A3EB0C01CB1DD5
:100400004FEA00614FEA102042BF002010BC704745
:1004100000EBC35010440029A4BF10BC7047401C1F
:10042000490008BF20F0010010BC704710B5141E31
:1004300073F1000408DA401C41F1000192185B419D
:100440001A4301D120F0010010BD2DE9F04D924674
:100450009B4611B1B1FA81F202E0B0FA80F220328B
:100460009046FFF78BFF04460F4640EA0A0041EA38
:100470000B0153465A46084313D0114653EA010074
:1004800019D0C8F14002504600F040F805460E462B
:10049000504659464246FFF771FF084305D00120F8
:1004A00004E020463946BDE8F08D0020054346EAC9
:1004B000E0762C4337430A986305E40AA0EB080072
:1004C0000022FD0A44EA47540A3002D500200146C2
:1004D000E9E7010510196941DDE90845001969419D
:1004E000BDE8F04DA2E70000064C074D06E0E068CD
:1004F00040F0010394E8070098471034AC42F6D36B
:10050000FFF746FE5C3000087C300008202A04DB40
:10051000203A21FA02F00021704721FA02F3D0407C
:10052000C2F12002914008431946704770B58C18FB
:1005300010F8015B15F0070301D110F8013B2A11F7
:1005400006D110F8012B03E010F8016B01F8016BE4
:100550005B1EF9D12B0705D40023521E0DD401F8E0
:10056000013BFAE710F8013BCB1A921C03E013F8A9
:10057000015B01F8015B521EF9D5A142D8D30020DE
:1005800070BD00BFFEE7704770B5044600F014F977
:1005900006462546681C00B16D1C00BF00F00CF932
:1005A000801BA842FAD370BD78B503460022E5E06F
:1005B000012696400D6805EA0604002C7DD04D68A2
:1005C000022D02D04D68122D13D1D60803F120055B
:1005D00055F826005507EE0E0F25B540A8435607DF
:1005E000F60E0D69B5402843D60803F1200545F8FD
:1005F0002600186856000325B540A8430D7905F07C
:1006000003055600B540284318604D68012D08D0F9
:100610004D68022D05D04D68112D02D04D68122D68
:1006200013D1986856000325B540A8435600CD68FD
:10063000B54028439860586801259540A8430D7936
:10064000C5F300159540284358600D7905F0030562
:10065000032D09D1D86A01259540A8430D79C5F32A
:10066000C00595402843D862D86856000325B54098
:10067000A84356008D68B5402843D8604D6805F002
:100680008055B5F1805F78D100BF3F4D2D6E45F0AC
:1006900001053D4E356635462D6E05F00105009588
:1006A00000BF00BF4FEAB635960855F826009507FB
:1006B0002E0F0F25B540A84300E05EE0B3F1904F48
:1006C00001D100251EE0314DAB4201D1012519E0D9
:1006D0002F4DAB4201D1022514E02E4DAB4201D18A
:1006E00003250FE02C4DAB4201D104250AE02B4D30
:1006F000AB4201D1052505E0294DAB4201D10625CC
:1007000000E007259607360FB5402843254D96088B
:1007100045F82600244D2868A0434D6805F480352F
:10072000B5F5803F00D120431F4D28602D1D28685E
:10073000A0434D6805F40035B5F5003F00D12043D6
:10074000194D2D1D28602D1D2868A0434D6805F406
:100750008015B5F5801F00D12043134D0835286062
:100760002D1D2868A0434D6805F40015B5F5001F40
:1007700000D120430C4D0C352860521C0D68D5402B
:10078000002D7FF415AF78BD001002400004004832
:1007900000080048000C0048001000480014004801
:1007A0000018004808000140000401400AB18161BE
:1007B00000E0816270470000014800687047000057
:1007C0006803002002480068401C01490860704727
:1007D0006803002010B50024032000F065F8002015
:1007E00000F008F808B1012401E000F01BF82046F1
:1007F00010BD000070B504460025094800684FF49C
:100800007A71B0FBF1F6304600F011FD08B1012518
:1008100004E000222146501E00F005F8284670BD75
:100820000000002070472DE9F05F80460D46164617
:10083000002701F0D1F8074639462A46334601F031
:100840000700C0F1070ABAF1040F02D94FF0040AF9
:1008500001E0C0F1070AD14600F1040ABAF1070F1E
:1008600002D24FF0000A01E0A0F1030AD4464FF093
:10087000010A0AFA09FAAAF1010A0AEA020A0AFABC
:100880000CFA4FF0010B0BFA0CFBABF1010B0BEA6E
:10089000030B4AEA0B042146404601F0A5F800F09C
:1008A00000B830BCBDE8C09F00BF00F00702064B97
:1008B00019684FF6FF031940044B0B4343EA02212A
:1008C000014B196000BF70470CED00E00000FA0515
:1008D0000246B2F5007F2AD11D48006800F4C060CE
:1008E000B0F5007F32D01A48006820F4C06040F4B0
:1008F0000070174B18601748006832235843164B96
:10090000B0FBF3F0411C00E0491E1148406900F4BF
:100910008060B0F5806F01D10029F5D10C484069A5
:1009200000F48060B0F5806F10D103207047084854
:10093000006800F4C060B0F5806F07D0044800681C
:1009400020F4C06040F48060014B18600020EDE7A7
:10095000007000400000002040420F000248006884
:1009600000F4C06070470000007000402DE9F041C5
:1009700004460D4614B90120BDE8F08155480068D1
:1009800000F00700A8420ED25248006820F007008D
:100990002843504908600846006800F00700A84254
:1009A00001D00120E8E7207800F00100002840D0C5
:1009B0006068032806D14848006800F00070D8B984
:1009C0000120D9E76068022806D14348006800F496
:1009D000003088B90120CFE7606830B93E48006830
:1009E00000F0020040B90120C6E73B48006800F46F
:1009F000806008B90120BFE73748806820F0030015
:100A00006168084334498860FFF7D6FE064608E06F
:100A1000FFF7D2FE801B41F28831884201D90320C2
:100A2000AAE72D48806800F00C006168B0EB810FE8
:100A3000EED1207800F00200022807D12648806815
:100A400020F0F000A168084323498860214800682D
:100A500000F00700A8420ED91E48006820F00700E9
:100A600028431C4908600846006800F00700A842B7
:100A700001D0012080E7207800F00400042807D18D
:100A80001548806820F4E060E168084312498860F6
:100A9000207800F00800082808D10F48806820F46A
:100AA0006050216940EAC1000B49886000F020F8DD
:100AB00009498968C1F30311084A515C01F01F011B
:100AC000C840074908600020FFF794FE07463846F3
:100AD00052E700000020024000100240A41D000860
:100AE000000000200148006870470000000000205E
:100AF0002DE9F04100240020DFF800C1DCF808C037
:100B00000CF00C01DFF8F4C0DCF80CC00CF00307AB
:100B100019B10C291ED1012F1CD1DFF8E0C0DCF87F
:100B200000C00CF0080CBCF1000F06D1DFF8CCC0FF
:100B3000DCF894C0CCF3032405E0DFF8C0C0DCF897
:100B400000C0CCF30314DFF8B8C05CF8244041B90E
:100B5000204606E0042901D12A4802E0082900D1F4
:100B600029480C2947D1DFF894C0DCF80CC00CF000
:100B70000305DFF888C0DCF80CC0CCF3021C0CF1D4
:100B80000103012D1FD0022D02D0032D1AD10CE03C
:100B9000DFF870C0BCFBF3FCDFF86080D8F80C8095
:100BA000C8F306280CFB08F218E0DFF85CC0BCFBB9
:100BB000F3FCDFF84880D8F80C80C8F306280CFB5B
:100BC00008F20BE000BFB4FBF3FCDFF83080D8F88C
:100BD0000C80C8F306280CFB08F200BF00BFDFF84A
:100BE0001CC0DCF80CC0CCF3416C0CF1010C4FEADA
:100BF0004C06B2FBF6F0BDE8F081000000100240A8
:100C0000BC1D00080024F40000127A002DE9F8430E
:100C1000044614B90120BDE8F883F848806800F064
:100C20000C06F648C06800F00307207800F01000BA
:100C3000102875D11EB10C2E74D1012F72D1EF483E
:100C4000006800F0020018B1A06908B90120E2E7CD
:100C5000EA48216A006800F0080020B1E74800680F
:100C600000F0F00005E0E5489430006800F47060A2
:100C7000000981421FD9206A00F0CCFE08B1012092
:100C8000C9E700BFDD48006840F00800DB490860A4
:100C90000846006820F0F000216A0843D749086040
:100CA00000BF0846406820F47F40E16940EA012027
:100CB000D24948601EE000BFD048006840F00800FC
:100CC000CE4908600846006820F0F000216A084319
:100CD000CA49086000BF0846406820F47F40E169C7
:100CE00040EA0120C5494860206A00F093FE08B13F
:100CF000012090E7FFF7FCFEC0498968C1F30311AA
:100D0000BF4A515C01F01F01C840BE490860002085
:100D1000FFF770FD8046B8F1000F4ED040467AE7ED
:100D20004BE0FFE7A06980B3B448006840F00100E1
:100D3000B2490860FFF740FD054606E0FFF73CFDBD
:100D4000401B022801D9032065E7AC48006800F089
:100D500002000028F2D000BFA848006840F0080058
:100D6000A64908600846006820F0F000216A0843A0
:100D7000A249086000BF0846406820F47F40E1694E
:100D800040EA01209D49486017E0FFE79B48006862
:100D900020F0010099490860FFF70EFD054606E0C6
:100DA000FFF70AFD401B022801D9032033E79348CF
:100DB000006800F002000028F2D1207800F0010065
:100DC00000285CD0082E03D00C2E0AD1032F08D1A6
:100DD0008A48006800F4003088B3606878BB01205E
:100DE00019E700BF6068B0F5803F06D1834800680E
:100DF00040F48030814908601AE06068B0F5A02FA7
:100E00000BD17E48006840F480207C490860084689
:100E1000006840F4803008600AE07848006820F4F8
:100E20008030764908600846006820F48020086019
:100E300000BF606890B1FFF7BFFC054607E01EE009
:100E4000FFF7BAFC401B642801D90320E3E66B4896
:100E5000006800F400300028F2D010E0FFF7ACFC8E
:100E6000054606E0FFF7A8FC401B642801D90320D3
:100E7000D1E66248006800F400300028F2D1207802
:100E800000F00200022852D1042E03D00C2E14D1FF
:100E9000022F12D15948006800F4806018B1E06850
:100EA00008B90120B7E65548406820F0F850217C89
:100EB00040EA01605149486039E0E06800B34F48BA
:100EC000006840F480704D490860FFF775FC0546E6
:100ED00006E0FFF771FC401B022801D903209AE6C7
:100EE0004648006800F480600028F2D0434840681B
:100EF00020F0F850217C40EA01604049486016E04B
:100F00003E48006820F480703C490860FFF754FCBC
:100F1000054606E0FFF750FC401B022801D90320DC
:100F200079E63648006800F480600028F2D1207825
:100F300000F00800082836D16069D0B12F489430FD
:100F4000006840F001002D49C1F89400FFF734FC1F
:100F5000054606E0FFF730FC401B022801D90320BC
:100F600059E626489430006800F002000028F1D0CD
:100F700019E022489430006820F001001F49C1F8B0
:100F80009400FFF719FC054606E0FFF715FC401B2F
:100F9000022801D903203EE618489430006800F08A
:100FA00002000028F1D1207800F00400042870D15C
:100FB0004FF000091148806D00F0805078B900BFF3
:100FC0000E48806D40F080500C4988650846806D61
:100FD00000F08050009000BF00BF4FF001090A48A8
:100FE000006800F48070F0B90748006840F4807031
:100FF00005490860FFF7E0FB05460EE000100240DF
:10100000A41D00080000002000700040FFF7D4FB82
:10101000401B022801D90320FDE57748006800F451
:1010200080700028F2D000BFA068012808D1734862
:10103000006840F0010071499039C1F8900021E04A
:10104000A06805280FD16D48006840F004006B4986
:101050009039C1F890000846D0F8900040F00100A7
:10106000C1F890000EE06548006820F00100634977
:101070009039C1F890000846D0F8900020F00400A4
:10108000C1F8900000BFA068A0B1FFF795FB05462E
:1010900009E02EE0FFF790FB401B41F288318842C7
:1010A00001D90320B7E55548006800F00200002888
:1010B000F0D012E0FFF780FB054608E0FFF77CFB6D
:1010C000401B41F28831884201D90320A3E54B48F7
:1010D000006800F002000028F0D1B9F1010F07D13B
:1010E00046489038806D20F080504449903988659A
:1010F00000BFA06AE8B30C2E7AD0A06A02284FD1B4
:101100003E489038006820F080703C499039086073
:10111000FFF752FB054606E0FFF74EFB401B022897
:1011200001D9032077E535489038006800F0007059
:101130000028F1D1206B401E0101606B41EA0020C4
:10114000E16A0843218F0122C2EB510140EA41517B
:101150003C20005DC2EB500041EA406027499039D5
:10116000C8600846006840F0807008600846C068A3
:1011700000E03FE040F08070C860FFF71DFB0546CF
:1011800006E0FFF719FB401B022801D9032042E5C6
:101190001A489038006800F000700028F1D029E06B
:1011A00016489038006820F0807014499039086023
:1011B0000846C06820F00300C8600846C0681049AF
:1011C00008400E499039C860FFF7F6FA054607E077
:1011D000FFF7F2FA401B022802D903201BE507E0C3
:1011E00006489038006800F000700028F0D101E057
:1011F000012010E500200EE5007000409010024034
:10120000FFFFEEFE042808D14FF0E021096941F00C
:1012100004014FF0E022116107E04FF0E02109697D
:1012200021F004014FF0E02211617047704770B562
:1012300004462546681EB0F1807F01D301200FE0EF
:10124000681E4FF0E02148610F214FF0FF3000F0A1
:10125000CBFB00204FF0E0218861072008610020CF
:1012600070BD10B5FFF7E2FF10BD00BFFEE72DE92E
:10127000F04104460D4616461F462A2000F0E0F9CC
:10128000601C00F0BDF9701C00F0BAF92B2000F0D2
:10129000D7F905F11A0000F0B3F907F11A0000F0D0
:1012A000AFF92C2000F0CCF9BDE8F08170B506460E
:1012B0004F239F2200210846FFF7D9FF002408E0B2
:1012C000002503E0304600F09BF96D1C502DF9D34A
:1012D000641CA02CF4D370BD70B504460D461646B0
:1012E0002B46224629462046FFF7C1FF304600F034
:1012F00087F970BD2DE9F84F05460F4616469A4608
:10130000DDF828B00095902D01D8402F01D900F0CC
:1013100059B8A6F12000C6B207F10F03EA1D3946FD
:101320002846FFF7A4FFBAF1000F25D1002420E0E2
:1013300004EB0610214911F800904FF0000811E06D
:1013400009F0010018B1584600F05AF903E01C48B2
:10135000006800F055F94FEA69096D1C08F10100B9
:1013600000F0FF08B8F1080FEADB009D7F1C601C4D
:10137000C4B2102CDCDB1FE000241BE004EB0610E1
:101380000E4911F800904FF000080EE009F001003E
:1013900028B1391905EB08005A46FFF79DFF4FEABF
:1013A000690908F1010000F0FF08B8F1080FEDDB52
:1013B000601CC4B2102CE1DB00BFA8E7EC1D0008E4
:1013C0006403002018BCBDE8E08F00002DE9F05F49
:1013D00081468A4693461C46102C00D1194D202C7C
:1013E00000D1194D0AEB0400431E09EB0400421E14
:1013F00051464846FFF73BFF04FB04F0C11700EBE2
:101400005171C1F3C7080BFB0855002715E00026F2
:101410000EE028780121B140084018B10A9800F088
:10142000EFF803E00948006800F0EAF8701CC6B263
:10143000082EEEDB6D1C781CC7B24745E7DB00F0D9
:1014400007B800008402002004000020640300208C
:1014500030BCBDE8C09F2DE9F84F06468A4690464D
:101460001D46DDF828904FF0000B00242FE0281BCC
:10147000401EC1B20A2000F089FCB8FBF0F00A213E
:10148000B0FBF1F201FB1207BBF1000F10D1681E97
:10149000A0420DDD57B9082101FB04600023202282
:1014A0005146CDF80090FFF725FF0EE04FF0010BFD
:1014B00007F13001CAB2082101FB04600023514644
:1014C000CDF80090FFF716FF00BF601CC4B2AC421D
:1014D000CDDB00F000B818BCBDE8E08F2DE9F04F7F
:1014E0002DED028B81B006468946B0EE408A144647
:1014F0001F464FF0000B9FED1E0A28EE000ABCEEBF
:10150000C00A10EE10AA00252AE0601B401EC1B2DE
:101510000A2000F03BFCBAFBF0F00A21B0FBF1F22C
:1015200001FB1208A01EA8420DD1A11E082202FB39
:10153000016000232E2249460097FFF7DBFE681C5E
:10154000C5B2601CC4B208F13001CAB2082101FB67
:101550000560002349460097FFF7CCFE681CC5B222
:10156000A542D2DB01B0BDEC028B00F003B8000055
:101570000000C84230BCBDE8C08F00002DE9F0413A
:1015800005460E461746984643463A463146284693
:10159000FFF76DFE00240CE0012101EB4401074A36
:1015A000505C00F03FF8054911F8140000F03AF8DB
:1015B000641CB4F5C86FEFDBBDE8F081DC230008E4
:1015C000F8B505460E4614461F4615E0902D01D984
:1015D00000251036402E06D90020054606464FF459
:1015E0007840FFF763FE00972278002331462846B3
:1015F000FFF780FE0835641C20780028E6D1F8BD8E
:1016000010B50446012220210548FFF7CFF8C4F3A6
:10161000072000F023F8E0B200F020F810BD000031
:101620000004004810B50446012220210348FFF7BA
:10163000BDF8204600F012F810BD0000000400487C
:1016400010B50446002220210348FFF7AFF82046DA
:1016500000F004F810BD00000004004870B5044616
:10166000002210214FF09040FFF7A0F800251FE066
:10167000002220214FF09040FFF798F804F08000FE
:1016800030B1012280214FF09040FFF78FF805E044
:10169000002280214FF09040FFF788F8012220219E
:1016A0004FF09040FFF782F86006040E681CC5B248
:1016B000082DDDDB012210214FF09040FFF776F876
:1016C00070BD000000B587B000BFBD48C06C40F0E1
:1016D0008000BB49C8640846C06C00F080000190DF
:1016E00000BF00BF00BF0846C06C40F00100C864E6
:1016F0000846C06C00F00100019000BF00BF00BFB1
:101700000846C06C40F00400C8640846C06C00F095
:101710000400019000BF00BF00BF0846C06C40F04D
:101720000800C8640846C06C00F00800019000BFC3
:1017300000BF00BF0846C06C40F00200C864084605
:10174000C06C00F00200019000BF00BF0122B02178
:101750004FF09040FFF72AF8012211039948FFF754
:1017600025F8012204219848FFF720F80122E02102
:101770009648FFF71BF8B0200290012003900490D8
:101780000220059002A94FF09040FEF70DFF4FF4A4
:10179000805002900120039004900220059002A93D
:1017A0008848FEF701FF0420029001200390049076
:1017B0000220059002A98448FEF7F6FEE020029080
:1017C0000120039004900220059002A97F48FEF7B3
:1017D000EBFE002204217C48FEF7E8FFC820FEF75C
:1017E000D3FE012204217848FEF7E0FFC820FEF76F
:1017F000CBFE1120FFF724FF6420FEF7C5FE212059
:10180000FFF71EFFB120FFF71BFF0520FFF70AFFC0
:101810003A20FFF707FF3A20FFF704FFB220FFF757
:101820000FFF0520FFF7FEFE3A20FFF7FBFE3A20F0
:10183000FFF7F8FEB320FFF703FF0520FFF7F2FEE6
:101840003A20FFF7EFFE3A20FFF7ECFE0520FFF706
:10185000E9FE3A20FFF7E6FE3A20FFF7E3FEB42068
:10186000FFF7EEFE0320FFF7DDFEC020FFF7E8FEE6
:101870006220FFF7D7FE0220FFF7D4FE0420FFF717
:10188000D1FEC120FFF7DCFEC020FFF7CBFEC22057
:10189000FFF7D6FE0D20FFF7C5FE0020FFF7C2FEC2
:1018A000C320FFF7CDFE8D20FFF7BCFE6A20FFF7B7
:1018B000B9FEC420FFF7C4FE8D20FFF7B3FEEE2073
:1018C000FFF7B0FEC520FFF7BBFE0E20FFF7AAFE14
:1018D000E020FFF7B5FE1020FFF7A4FE0E20FFF773
:1018E000A1FE0220FFF79EFE0320FFF79BFE0E20C5
:1018F000FFF798FE0720FFF795FE0220FFF792FE04
:101900000720FFF78FFE0A20FFF78CFE1220FFF75B
:1019100089FE2720FFF786FE3720FFF783FE002091
:10192000FFF780FE0D20FFF77DFE0E20FFF77AFE09
:101930001020FFF777FEE120FFF782FE1020FFF76F
:1019400071FE0E20FFF76EFE0320FFF76BFE0320F3
:10195000FFF768FE0F20FFF765FE0620FFF762FE27
:101960000220FFF75FFE0820FFF75CFE0A20FFF76A
:1019700059FE1320FFF756FE2620FFF753FE3620B0
:10198000FFF750FE0020FFF74DFE0D20FFF74AFE47
:101990000E20FFF747FE1020FFF744FE3A20FFF726
:1019A0004FFE0520FFF73EFE3620FFF749FE782068
:1019B000FFF738FE2920FFF743FE07B000BD000007
:1019C0000010024000080048000C004800040048D5
:1019D00000BFFEE77047000002480068C0F3022025
:1019E000704700000CED00E010B5002807DA0A0788
:1019F000140E054A00F00F031B1FD45403E00A071E
:101A0000130E024A135410BD18ED00E000E400E08C
:101A100070470000F8B5044600262348806D00F0AA
:101A2000805018B1FEF79AFF054616E000BF1E4829
:101A3000806D40F080501C4988650846806D00F03C
:101A40008050009000BF00BFFEF788FF0546164893
:101A5000806D20F0805014498865B5F5007F07D16E
:101A6000802C10D9A02C01D902260CE001260AE016
:101A7000802C01D9032606E0802C01D1022602E049
:101A8000702C00D101260948006820F0070030437F
:101A9000064908600846006800F00700B04201D01F
:101AA0000120F8BD0020FCE70010024000200240A9
:101AB000704710B5FEF786FEFFF7D3FB10BD10B5DB
:101AC00096B0012006900004079002201090032198
:101AD0001191012112911421139102211491159158
:101AE00006A8FFF793F80F20019003200290002032
:101AF000039004900590042101A8FEF737FF4FF4EE
:101B00000070FEF7E5FEFEF7EDFF4FF47A71B0FBD3
:101B1000F1F42046FFF78BFB0420FFF773FB002254
:101B20001146501EFEF77FFE16B010BD104800682B
:101B300040F470000E4908600E48006840F0010053
:101B40000C49086000208860084600680A4908407F
:101B5000084908608814C8600846006820F480209E
:101B6000086000208861C803014980390860704717
:101B700088ED00E000100240FFFFF6EA00BFFEE73C
:101B800002E008C8121F08C1002AFAD17047704746
:101B9000002001E001C1121F002AFBD170470000A4
:101BA0002DED068B82B09FED6C0AB0EE408AFEF7F9
:101BB00011FEFFF784FFFFF785FD4FF6FF70FFF77B
:101BC00075FB4FF6FF706549086000224FF48051A5
:101BD0006348FEF7EBFDBDE04FF478402023002280
:101BE000114600901C20FFF7F1FB4FF478402023B2
:101BF0000122002100903C20FFF7E8FB4FF47840E1
:101C000020230222002100905C20FFF7DFFB4FF42D
:101C1000784010230022282100901420FFF7D6FBE3
:101C20004FF4784010230122282100902420FFF750
:101C3000CDFB4FF47840102302222821009034205D
:101C4000FFF7C4FB4FF478401023032228210090B3
:101C50004420FFF7BBFB4FF47840102304222821D7
:101C600000905420FFF7B2FB4FF478401023052278
:101C7000282100906420FFF7A9FB4FF4784010233F
:101C80000622282100907420FFF7A0FB4FF4784330
:101C900034A23C210020FFF793FC4FF47843052247
:101CA000B0EE480A3C216820FFF718FC18EE100A35
:101CB000FEF735FB41EC1A0B9FED2E0B53EC102B6E
:101CC000FEF77EFA41EC190BFEF73CFB08EE100A1A
:101CD0004FF47A70FEF758FC4FF6FF70FFF7E6FA04
:101CE0004FF4784325A200210A20FFF769FC4FF446
:101CF00078400323A022002100904620FFF7ABFB91
:101D00004FF478431FA214210A20FFF759FC4FF427
:101D1000784002235022142100904620FFF79BFBBD
:101D200000240DE004EB8401272303EBC10204EB44
:101D30008401C8004F232821FFF720FC601CC4B297
:101D4000042CEFDB4FF47A70FEF71EFC4FF6FF70A9
:101D5000FFF7ACFA40E70000000000006403002039
:101D600000080048302E393620544654205350493C
:101D7000000000007B14AE47E17A843F4C43445F8F
:101D8000573A00004C43445F483A000010B5024601
:101D9000012000E050430B1EA1F10104E1B2F9D192
:101DA00010BD00000000000000000000010203045C
:101DB000060708090000000001020304A0860100D4
:101DC000400D0300801A060000350C0040420F0051
:101DD00080841E0000093D0000127A000024F400F7
:101DE00000366E010048E801006CDC0200000000D3
:101DF00000000000000000000000000000000008DB
:101E000008080808080800001818000000486C249A
:101E1000120000000000000000000000000000248C
:101E200024247F1212127F12121200000000081CDC
:101E30002A2A0A0C1828282A2A1C0808000000222E
:101E4000251515152A585454542200000000000C82
:101E50001212120A76252911916E0000000606045E
:101E600003000000000000000000000000402010FF
:101E70001008080808080810102040000002040894
:101E800008101010101010080804020000000000D4
:101E900008086B1C1C6B0808000000000000000014
:101EA000080808087F080808080000000000000073
:101EB000000000000000000006060403000000000F
:101EC00000000000FE000000000000000000000014
:101ED0000000000000000000060600000000804036
:101EE000402020101008080404020200000000181E
:101EF00024424242424242422418000000000008AC
:101F00000E08080808080808083E00000000003C09
:101F10004242422020100804427E00000000003CA3
:101F20004242201820404042221C000000000020B5
:101F30003028242422227E20207800000000007E09
:101F40000202021A26404042221C00000000003813
:101F50002402021A26424242241800000000007E99
:101F60002222101008080808080800000000003CA1
:101F70004242422418244242423C00000000001821
:101F80002442424264584040241C000000000000EB
:101F900000001818000000001818000000000000E1
:101FA00000000008000000000008080400000040D5
:101FB0002010080402040810204000000000000067
:101FC00000007F0000007F00000000000000000211
:101FD0000408102040201008040200000000003C0B
:101FE0004242464020101000181800000000001C5B
:101FF000225A555555552D42221C0000000000085C
:1020000008181414243C224242E700000000001F7C
:102010002222221E22424242221F00000000007C97
:102020004242010101010142221C00000000001F88
:102030002242424242424242221F00000000003F30
:102040004212121E12120242423F00000000003FE4
:102050004212121E12120202020700000000003C8F
:102060002222010101712122221C0000000000E750
:10207000424242427E42424242E700000000003EAD
:102080000808080808080808083E00000000007C4E
:1020900010101010101010101010110F0000007709
:1020A00022120A0E0A1212222277000000000007F4
:1020B0000202020202020202427F000000000077D8
:1020C000363636362A2A2A2A2A6B0000000000E318
:1020D00046464A4A52525262624700000000001CC3
:1020E0002241414141414141221C00000000003F8A
:1020F000424242423E020202020700000000001C6F
:102100002241414141414D53321C60000000003FDB
:102110004242423E1212222242C700000000007CCE
:102120004242020418204042423E00000000007F6C
:102130004908080808080808081C0000000000E713
:102140004242424242424242423C0000000000E71A
:102150004242222424141418080800000000006BD6
:10216000494949495555362222220000000000E71E
:10217000422424181818242442E7000000000077A5
:102180002222141408080808081C00000000007E21
:102190002120101008040442423F00000078080883
:1021A0000808080808080808080878000000020263
:1021B000040408080810102020204040001E1010C1
:1021C000101010101010101010101E0000384400D5
:1021D00000000000000000000000000000000000FF
:1021E0000000000000000000000000FF00060800E2
:1021F00000000000000000000000000000000000DF
:102200000000003C4278444242FC00000000000311
:102210000202021A26424242261A00000000000072
:102220000000003844020202443800000000006050
:10223000404040784442424264D800000000000020
:102240000000003C427E0202423C0000000000F020
:102250008808087E08080808083E00000000000002
:102260000000007C22221C023C42423C0000000391
:102270000202023A4642424242E700000000000CDD
:102280000C00000E08080808083E0000000000309E
:1022900030000038202020202020221E00000003D3
:1022A00002020272120A1612227700000000000ECB
:1022B0000808080808080808083E00000000000098
:1022C0000000007F9292929292B7000000000000FE
:1022D0000000003B4642424242E70000000000008E
:1022E0000000003C42424242423C0000000000002C
:1022F0000000001B26424242221E0207000000008E
:102300000000007844424242447840E0000000006F
:10231000000000774C040404041F000000000000CB
:102320000000007C42023C40423E000000000000F1
:102330000008083E080808080830000000000000F7
:10234000000000634242424262DC000000000000E4
:10235000000000E7422424140808000000000000E8
:10236000000000EB49495555222200000000000002
:102370000000007624181818246E000000000000E9
:10238000000000E742242414180808070000000099
:102390000000007E22100808447E000000C02020BB
:1023A00020202010202020202020C00010101010FD
:1023B0001010101010101010101010100006080847
:1023C0000808081008080808080806000C32C200AF
:1023D000000000000000000000000000FFFFFFFF01
:1023E000FFFFFFFFFFFFFFFFFFFFFFFFFFFFFFFFFD
:1023F000FFFFFFFFFFFFFFFFBEF77DEFBAD6B6B5C9
:10240000F39CB294B39CB29434A5F7BDFBDE7DEF90
:10241000FFFFFFFFFFFFFFFFFFFFFFFFFFFFFFFFCC
:10242000FFFFFFFFFFFFFFFFFFFFFFFFFFFFFFFFBC
:10243000FFFFFFFFFFFFFFFFFFFFFFFFFFFFFFFFAC
:10244000FFFFFFFFBEF7FBDEF39CCB5AC739042129
:10245000821042104210410883184529C7390C6385
:1024600075AD3CE7BEF7FFFFFFFFFFFFFFFFFFFF7C
:10247000FFFFFFFFFFFFFFFFFFFFFFFFFFFFFFFF6C
:10248000FFFFFFFFFFFFFFFFFFFFFFFFFFFFFFFF5C
:10249000FFFF3CE7B2940842C3188210042145298B
:1024A00086318631863186314529042182104108E2
:1024B000C3180842F39C3CE7FFFFFFFFFFFFFFFF4D
:1024C000FFFFFFFFFFFFFFFFFFFFFFFFFFFFFFFF1C
:1024D000FFFFFFFFFFFFFFFFFFFFFFFFFFFFFFFF0C
:1024E000FBDE0C63C318C3184529C73908420842EC
:1024F0000842084208420842C739C7398631863146
:10250000042141088210CB5ABAD6FFFFFFFFFFFF1C
:10251000FFFFFFFFFFFFFFFFFFFFFFFFFFFFFFFFCB
:10252000FFFFFFFFFFFFFFFFFFFFFFFFFFFFFBDEE0
:10253000CB5A82104529C73908420842094A494AFC
:10254000494A494A494A494A0842C739C739C739F5
:102550008631452983180000C84138C6FFFFFFFFB8
:10256000FFFFFFFFFFFFFFFFFFFFFFFFFFFFFFFF7B
:10257000FFFFFFFFFFFFFFFFFFFFFFFF7DEF8E73FA
:1025800082104529C7390842094A8A523084CF7BD4
:102590008A52494A4A52494ACB5ACF7B0C63084275
:1025A000C73986314529C3180000494ABAD6FFFF0A
:1025B000FFFFFFFFFFFFFFFFFFFFFFFFFFFFFFFF2B
:1025C000FFFFFFFFFFFFFFFFFFFFFFFFF39CC318AD
:1025D0000421C7390842494A494A72947DEF7DEF88
:1025E000B2944A52494A8A5275ADBEF7BAD64D6B7B
:1025F000C739C73986314529C3184108CF7B7CE7E5
:10260000FFFFFFFFFFFFFFFFFFFFFFFFFFFFFFFFDA
:10261000FFFFFFFFFFFFFFFFFFFFBAD60842821058
:10262000C7390842494A494A8E73FBDEFFFFBEF7AD
:10263000BAD68E73084230843CE77DEFFFFFB6B513
:10264000494AC73986314529042141084529B6B58B
:10265000FFFFFFFFFFFFFFFFFFFFFFFFFFFFFFFF8A
:10266000FFFFFFFFFFFFFFFFBEF7718C4108452909
:102670000842494A494A4A52B294BEF7BEF7B29458
:10268000CF7BCF7B494AB6B5F39C0C6338C6BAD62C
:102690000C638739C73986314529C318410830840E
:1026A0007DEFFFFFFFFFFFFFFFFFFFFFFFFFFFFFCC
:1026B000FFFFFFFFFFFFFFFF3CE7CB5A4108C73991
:1026C0000842494A4A528A52F39CFFFF7DEFC739BC
:1026D000C3180C63CB5AB6B5B294CB5A75ADFAD6C3
:1026E0004D6B8739C73986314529042141088A5203
:1026F00079CEFFFFFFFFFFFFFFFFFFFFFFFFFFFFA1
:10270000FFFFFFFFFFFFFFFF38C686310421C841EE
:10271000494A494A4A52494AB18CBEF7BEF7B29477
:10272000CF7BCF7B494A74A57DEF7CE7BEF779CE9E
:102730000C63C739C73986314529042182104529E0
:1027400075ADBEF7FFFFFFFFFFFFFFFFFFFFFFFFBE
:10275000FFFFFFFFFFFFFFFF34A582108631084215
:10276000494A494A8A52494A4D6BBAD6FFFFFFFF90
:1027700079CE0D63C739CF7B7DEFFFFFFFFF75ADCE
:1027800008428631C739863145294529C318C318FF
:10279000B2947DEFFFFFFFFFFFFFFFFFFFFFFFFF93
:1027A000FFFFFFFFFFFFBEF7B28C4108C7390842A9
:1027B000494A494A8A528A524A4AD07B7AC67BBEE3
:1027C000906BC9398831C939B384BBC6F8B5CC5AC6
:1027D0008631C739C739863145294529C420410882
:1027E00030843CE7FFFFFFFFFFFFFFFFFFFFFFFF1E
:1027F000FFFFFFFFFFFF3CE78A4AC310C7390842CB
:10280000494A494A4A4A4A42093A084A096B497BB5
:10281000C67A05834683C57AC672097B485A8731D2
:102820008821882986318631452945290421410896
:102830004A4ABAD6FFFFFFFFFFFFFFFFFFFFFFFF80
:10284000FFFFFFFFFFFFF7C582500541C729084280
:10285000494A4A42494A097B889BC6B321D4A0DC35
:10286000E1E461ED61ED21EDA0E420DC80CB43AB40
:10287000C482065A47214629452904290419821091
:102880008218F39C7DEFFFFFFFFFFFFFFFFFFFFFBD
:10289000FFFFFFFF7DEF4D9300A082B8C7310932E3
:1028A000494A867A43C36BEDF4F6EBFD20FD20FD2B
:1028B00060FDA0FDA0FD60FD60FD20FDE0FCA0FC32
:1028C00060F4C1DB839AC54945290419C4208238C4
:1028D0000050CB6ABAD6FFFFFFFFFFFFFFFFFFFFED
:1028E000FFFFFFFFFBEE04A100C000F0C3A0C84142
:1028F0004942059B20FCA4FC69FDE8FD63FD20FD29
:1029000060FD60FD60FD20FD20FDE0FCE0FCA0FC22
:1029100060FC20FC41D3C5494519C4388268418810
:102920000070495A79CEFFFFFFFFFFFFFFFFFFFF57
:10293000FFFFFFFFFBF682C000D086C146F141C811
:10294000457989528862866AC67AC4BBE1FC60FD1B
:1029500060FDA0FDA0FD60FD60FDE0FC60E4039370
:102960008472446AC5414529C35841A8409800B0C3
:1029700000600C6B79CEFFFFFFFFFFFFFFFFFFFF43
:10298000FFFF7DEFCE83828800F8C4D80CF38AFA6B
:1029900082E882B04569C7510842083A865A839B4B
:1029A000A2BC22CD21CDA1C422B4C47A063A862984
:1029B00045290531C450419000C000A800A000A8DE
:1029C00000304A4ABAD6FFFFFFFFFFFFFFFFFFFFBD
:1029D0007DEF8E73C318053982A800F8C3F84DFB4C
:1029E0004DFBC7F9C3F082D8C3B00481456146519D
:1029F000864986494641454145414541054904616D
:102A0000829041B000D000C800A800A800B841588A
:102A100082108210B294BEF7FFFFFFFFFFFFBEF7E8
:102A2000CF7B8210042186298641049940E841F831
:102A300086F9CBFA49FA82F800F800F000E841D8AC
:102A400041D041C041C041C041C041C800D000E0B8
:102A500000E000D800D000B800A841888248821069
:102A600082100000452979CEFFFFFFFFBEF7F39CDF
:102A70008210C31845298631C731307CF3DC86E1EA
:102A800000F000F841F841F800F800F800F800F80C
:102A900000F800F800F800F800F800F800E800E09E
:102AA00000E000D800C841A08A9A0C63041182108B
:102AB0008210410800004D6B7DEFFFFFFBDE0842F6
:102AC0004210452986318631494A38BEFFFF38D643
:102AD00086A900C800E000F000F800F800F800F84F
:102AE00000F800F800F800F800F000F000E800E05E
:102AF00000D0C3988A8AB2A4BAC6F7B50842410882
:102B00008210410800004529F7BDFFFF718C410884
:102B100004214529863186310C633CE7FFFF79D6D5
:102B200046B900E042C882A882B041D882E882F06B
:102B300041E841E841E841F041E841D804C1089248
:102B40004D8B34A5FBC6FBD6BACE3CE73084C31808
:102B50004108410800004108CF7B7DEF494A000051
:102B600004214529463186313084FFFFFFF7F7DD28
:102B700009DA83F801F042C08298499AF3B4F3CCA1
:102B800071BC8EBB8EBB30BC71BCF3BCB6BDFBCE82
:102B9000BEE77DE73BDFBAD679CEFBDE75AD863189
:102BA0004108410800000000494AFBDE04214108B9
:102BB0000421452945298739B294FFFFBEF734DD4A
:102BC0000CEB09FA00F001D800D88BD27DE7FFFFAB
:102BD000FFFFFFFFFFFFFFFFFFFFFFFFFFFFBEFF46
:102BE0007DEFFBDEFBDEBAD679CEBAD678C6C73922
:102BF0000000410800000000C73979CE00008210B3
:102C0000C318042105298631B39CFFFFFFF775DD4A
:102C1000C7E9C7F901F801F000E849E2FBEEFFFF60
:102C2000FFFFFFFFFFFFFFFFFFFFFFFFFFFFBEF7FD
:102C30007DEFFBDEFBDEBAD679CEBAD6B9CE08423E
:102C40000000000000000000C73938C600008210F4
:102C500082100421042145293084FFFFFFFF38DE64
:102C6000C4D000F001F800F800F008D2FBE6FFFF46
:102C7000FFFFFFFFFFFFFFFFFFFFFFFFFFFFBEF7AD
:102C80007DEFFBDEBAD679CE79CEBAD679CEC7390A
:102C90004108000000000000863138C60000000036
:102CA000C318CB5A8631C318CB5A7DEFFFFF7DEF97
:102CB000CFBBC3B041D041D082B84DB37DE7FFFF59
:102CC000FFFFFFFFFFFFFFFFFFFFFFFFBEF7BEF7A6
:102CD0003DEFFBDEBAD679CE79CEFAD6F7BD042128
:102CE0008631042100000000863138C68631C318C1
:102CF000CB5A75ADCF7B41088631F7BDFFFFFFFF93
:102D0000BEEF74B5309C309C72A4BBD6FFFFFFFFB2
:102D1000FFFFFFFFFFFFFFFFFFFFFFFFBEF77DEF9E
:102D20003CE7FBDEBAD679CE79CE3CE7718C8108E0
:102D30000C63CF7B821000008A5238C675AD718C4F
:102D4000B6B53CE7FBDEC7390000CF73FFFFFFFFDE
:102D5000FFFFFFFFFFFFFFFFFFFFFFFFFFFFFFFF83
:102D6000FFFFFFFFFFFFFFFFFFFFBEF77DEF7DEFE0
:102D70003BDFFAD679CE79CEFBDEB9CEC739C42097
:102D8000718CBAD6718CCB5AB294BAD6FFFF7DEF54
:102D90007DEFFFFFFFFFB6B54629051975A5FFFFBB
:102DA000FFFFFFFFFFFFFFFFFFFFFFFFFFFFFFFF33
:102DB000FFFFFFFFFFFFFFFFFFFFBEF77DEF3CE7D9
:102DC000FBDEBAD679CEBAD6FCDE4E6342080C637F
:102DD000F7BDBEF7FFFFFBDEFBDEBEF7FFFFFFFF29
:102DE000FFFFFFFFFFFFFFFFF49C04210521B6A5B5
:102DF000FFFFFFFFFFFFFFFFFFFFFFFFFFFFFFFFE3
:102E0000FFFFFFFFFFFFBEF7BEF77DEF3CE7FBDEF6
:102E1000BAD679CEFBDEBBD6D17383188639349D02
:102E2000BDEFFFFFFFFFFFFFFFFFFFFFFFFFFFFF04
:102E3000FFFFFFFFBEFF35D6EBCC43B34051051972
:102E4000F58CBEEFFFFFFFFFFFFFFFFFFFFFFFFF60
:102E5000FFFFBEF7BEF77DEF7DEF3CE7FBDEBADE9E
:102E6000BAD63CDF3ABE4F63824940A323B4CC8339
:102E70003ABEFFFFFFFFFFFFFFFFFFFFFFFFFFFF68
:102E8000FFFFBFF7B5BD829220F4A0FC60E4408252
:102E900084418F6B77AD3DE7FFFFFFFFFEFFBEF77D
:102EA000BEF7BEF77DEF7DEF3CE7FBDEFBDE3DE7E7
:102EB000BBCE369D0B6B416A60C420FE60F5008B73
:102EC000C76A38C6BEF7FFFFFFFFFFFFFFFFFFFF28
:102ED000FFFF7DEF4B7B80B2A0FCA0FCE0FCE0FCA0
:102EE000C0CBC18A45624D6BB394F7BD3DDFFFF7A0
:102EF000FFFFBEF77DEF7DEF7DE73DDFBAC675A52D
:102F00008D7B847A40B3E0ECE0FDE0FD60F520E5E8
:102F1000A0D40A6BFBDEFFFFFFFFFFFFFFFFFFFFF9
:102F2000FFFF7DEFCC9340EB60FCA0FCE0FC20FDBC
:102F300060FD20F5A0D4C0BB429B458B6B9CAE9C32
:102F4000718CB394339D34A5F2A4F0B4CA9B049B56
:102F500040BB20E420FDA0FDA0FDE0FDE0FDE0FD84
:102F600020C4885A38BEFFFFFFFFFFFFFFFFFFFFAF
:102F7000FFFFFFFF78D646AB40DB20F460FCA0FCEF
:102F8000E0FC60FDA0FD60FD20F5A0DCC0B3C051F9
:102F900086290D638F7B0D5BC741018200C3C0E3AF
:102FA00060FCA0FCE0FCE0FC60F560F520E5809BA7
:102FB0008662308479CEFFFFFFFFFFFFFFFFFFFF38
:102FC000FFFFFFFFFFFF38C62D9C059343A382B38D
:102FD000C2BBC2BB22B482A34293C37A85620B6395
:102FE0007184B6B579CE79C6B5AD70944A8B068337
:102FF0000493049B439B439B4393048308738D7307
:10300000B39479CE7DEFFFFFFFFFFFFFFFFFFFFFD0
:10301000FFFFFFFFFFFFFFFF3CDF38BE75B533A5A5
:1030200033A5F39CF39CF39CF394F39C35A5F8BD76
:10303000FBDEBEF7FFFFFFFFFFFF7EEFBBD6F8BD55
:10304000B6AD75AD34A5339D349D35A5B7AD79C604
:103050003CE7BEF7FFFFFFFFFFFFFFFF7C300008EC
:10306000000000206C0300002C050008203200083E
:103070006C03002004040000901B000811A3093D0C
:103080002A8004FA0104080D1A1080010CF0FFFFD9
:103090000F308001040419246A070C091248091032
:1030A0000401131A011914FFFF011A03082904E986
:1030B0000C3381812A0304261CFCFFFF3F1A400BBE
:1030C0005AC0282AC00C49041BFFFF4C22411A0495
:1030D00068230E711B07815A14010760100B010E43
:1030E0001898011C04E001181927F11A08C4231FBD
:1030F000304A0C046809100C30FE3F0C3004106993
:10310000041BC00C281E0D3030060E049C0C301021
:10311000044B188604101208060D300C860D30067C
:10312000EE0F3002FC0D30015B0CF040193C2A0F11
:10313000081A109ED1299019CB4908890417E0FF7D
:10314000FF0360C009130409161C59181A01042949
:10315000441A08045A100419F8130138041780FFA0
:103160001F2603C0FFFF071A8004293D3260321872
:103170001A0C135A030419A41C800108045E1CFCD9
:10318000FFFF3F100928041AFC0432E062405A8015
:10319000026DFC1F841002290C69184DF80F0808F5
:1031A00004128023FF7F290C490E2D8410A2204594
:1031B000280FFE3F0220F22702200220FA2F2221B0
:1031C000022809122912290A2E02201AC95E99081A
:1031D000165080408040195213FE1F120812042C12
:1031E00002800162697829021AA0A518161008B891
:1031F000080F0908090808BF0808091C092C080A53
:1032000078CA1179012A04023CC87F3F08180BA82C
:103210003F18210C110B12080A0E860A8A116460ED
:040000050800018965
:00000001FF
