:1000000012C02BC02AC029C028C027C026C025C0C6
:1000100024C023C022C021C020C01FC01EC01DC0DC
:100020001CC01BC01AC011241FBECFE5D4E0DEBF28
:10003000CDBF12E0A0E6B0E0EAE5F6E002C0059030
:100040000D92A83EB107D9F712E0A8EEB2E001C0C8
:100050001D92A43FB107E1F71DC2D2CF0000089561
:10006000CF93DF93009721F0EC01F8DF2197E9F7B8
:10007000DF91CF91089583E794E0CC9797FFFDCF70
:100080000895CF93DF93009721F0EC01F4DF2197DF
:10009000E9F7DF91CF910895982FC298662311F464
:1000A000C09801C0C09A9FB9779BFECFC29A0895AD
:1000B000CF93DF9360E08CE0EFDF60E080E8ECDF7F
:1000C000C7EFD1E061E080E0E7DF2197D7FFFACF0B
:1000D000DF91CF910895C498C1DFC49AC298BEDF62
:1000E000C29ABCDF60E081E2D7DF60E088ECD4DF59
:1000F00060E086E0D1DF60E083E1CEDF60E080E2B7
:10010000CBDFD6DF60E08CE0C7DFC29808951F9395
:10011000182F862F60E08064BFDF60E0812F806849
:10012000BBDF1F9108951F93CF93DF93182F1052B9
:10013000C0E0D0E0812F9927FC01EE0FFF1FEE0FEA
:10014000FF1FE80FF91FE80FF91FEC0FFD1FE05A22
:10015000FF4F61E08081A0DF2196C630D10550F3CA
:10016000DF91CF911F9108951F93CF93DF93182FA5
:100170001052C0E0D0E0812F9927FC01EE0FFF1F45
:10018000EE0FFF1FE80FF91FE80FF91FEC0FFD1F1F
:10019000E05AFF4F808161E080957EDF2196C63076
:1001A000D10548F3DF91CF911F910895CF93DF934D
:1001B000EA01ADDF8881882329F08991B4DF888145
:1001C0008823D9F7DF91CF910895CF93DF93EA0188
:1001D0009EDF8881882329F08991C6DF8881882362
:1001E000D9F7DF91CF91089560E08DE055DF089554
:1001F00060E08CE051DF0895009741F09C018AEFA8
:1002000090E00197F1F721503040C9F7089584EA52
:1002100086BF06B607FEFDCF80EC83B984E886BFB3
:1002200006B607FEFDCF90E024E8E92FFF27E65150
:10023000FD4F808183B926BF06B607FEFDCF9F5FC5
:10024000953098F384E986BF089584EA86BF06B6A0
:1002500007FEFDCF81EC83B984E886BF06B607FEB2
:10026000FDCF90E024E826BF06B607FEFDCFE92FBC
:10027000FF27E151FD4F83B180839F5F953098F355
:1002800084E986BF0895EF92FF920F931F93CF9357
:10029000DF93CDB7DEB725970FB6F894DEBF0FBE5C
:1002A000CDBF2091F0028091EF028F739927982F94
:1002B0008827820F911D9C01442737FD4095542FBC
:1002C0008091EC0284FF17C0CA01B90122E530E039
:1002D00040E050E075D1DC01CB01BC01CD012AE04A
:1002E00030E040E050E097D179018A018FE19FEF43
:1002F000AFEFBFEF16C0CA01B90122E530E040E020
:1003000050E05ED1DC01CB01BC01CD012AE030E040
:1003100040E050E080D179018A0181EE90E0A0E0D8
:10032000B0E0E80EF91E0A1F1B1FC801B70120EA42
:1003300036E841E050E06FD1DA01C9012983882312
:1003400019F480E2898302C0205D2983C801B701C6
:1003500020E137E240E050E05ED1CA01B9012AE075
:1003600030E040E050E057D1DC01CB01805D8A8372
:10037000C801B70128EE33E040E050E04CD1CA019B
:10038000B9012AE030E040E050E045D1DC01CB018A
:10039000805D8B83C801B70124E630E040E050E087
:1003A0003AD1CA01B9012AE030E040E050E033D14F
:1003B000DC01CB01805D8C83C801B7012AE030E00D
:1003C00040E050E028D1CA01B9012AE030E040E025
:1003D00050E021D1DC01CB01805D8D8348E852E003
:1003E00062E080E0E3DE89819EDE8A819CDE8B8193
:1003F0009ADE4AE852E062E089E1D8DE8C8193DE41
:100400008D8191DE4CE852E062E08BE2CFDE2596F2
:100410000FB6F894DEBF0FBECDBFDF91CF911F9115
:100420000F91FF90EF9008950F931F930091F202A8
:1004300002950F7048E852E060E08CE3B7DE1AE006
:10044000802F612FDCD0DBD0892F805D6CDE802F88
:10045000612FD5D0892F805D66DE1F910F910895A1
:100460009FEF97BB98BB80EE81BB92BB14BA95BB44
:1004700084E690E006DE8CE080B984E086BF8DE9FA
:1004800081BF87B38D6387BB709A8DB180658DB94D
:1004900022DE0895CFE5D4E0DEBFCDBFE1DF2FE659
:1004A0002093EA0293E99093EB0280E28093EC02BE
:1004B00080E98093ED021092EE022093EF02909378
:1004C000F00241E952E06091EE02862F6FDE4BE9C7
:1004D00052E062E080E06ADED6DE45EA52E065E0A6
:1004E00080E073DE4CEA52E065E080E36EDE8399E3
:1004F0001CC084E190E0C5DD839917C0839BFECFCB
:1005000043EB52E064E080E051DE8091EC028F77B3
:100510008093EC027CDE4EEB52E064E080E046DE4D
:100520001092E80281E08093E90282991CC084E184
:1005300090E0A7DD829917C0829BFECF4DEC52E080
:1005400064E080E033DE8091EC0280688093EC020E
:100550005EDE48ED52E064E080E028DE81E08093DA
:10056000E8028093E9028091E902882309F4BFCF71
:100570006CDE8091EF0286FF10C08091E802882334
:1005800029F089E68093EA028AED04C083E780932C
:10059000EA0284E68093EB023ADE8091EF0287FF65
:1005A000A6CF71DE41DF8091EF028F73806480936C
:1005B000EA028091F0028093EB021092E90297CF59
:1005C000629FD001739FF001829FE00DF11D649F37
:1005D000E00DF11D929FF00D839FF00D749FF00DC3
:1005E000659FF00D9927729FB00DE11DF91F639F64
:1005F000B00DE11DF91FBD01CF0111240895991B14
:1006000079E004C0991F961708F0961B881F7A9509
:10061000C9F780950895A1E21A2EAA1BBB1BFD0104
:100620000DC0AA1FBB1FEE1FFF1FA217B307E407D1
:10063000F50720F0A21BB30BE40BF50B661F771F29
:10064000881F991F1A9469F7609570958095909509
:0A0650009B01AC01BD01CF0108952C
:10065A000000000000000000002F0000000007005A
:10066A00070000147F147F1400242A7F2A120062D4
:10067A006408132300364955225000000503000080
:10068A0000001C224100000041221C000014083E08
:10069A0008140008083E0808000000A060000008CE
:1006AA000808080800006060000000201008040222
:1006BA00003E5149453E0000427F400000426151E0
:1006CA004946002141454B31001814127F1000277A
:1006DA0045454539003C4A4949300001710905033D
:1006EA0000364949493600064949291E000036366E
:1006FA0000000000563600000008142241000014D1
:10070A0014141414000041221408000201510906AD
:10071A0000324959513E007C1211127C007F49492E
:10072A004936003E41414122007F4141221C007F5F
:10073A0049494941007F09090901003E4149497A6D
:10074A00007F0808087F0000417F410000204041E7
:10075A003F01007F08142241007F40404040007F53
:10076A00020C027F007F0408107F003E4141413E97
:10077A00007F09090906003E4151215E007F0919DF
:10078A0029460046494949310001017F0101003FDC
:10079A004040403F001F2040201F003F4038403F5C
:1007AA0000631408146300070870080700615149C0
:1007BA00454300007F41410000552A552A55000053
:1007CA0041417F00000402010204004040404040D1
:1007DA00000001020400002054545478007F484469
:1007EA00443800384444442000384444487F0038A0
:1007FA005454541800087E0901020018A4A4A47CC9
:10080A00007F080404780000447D40000040808492
:10081A007D00007F102844000000417F4000007CDA
:10082A0004180478007C08040478003844444438E6
:10083A0000FC242424180018242418FC007C080432
:10084A00040800485454542000043F444020003C0B
:10085A004040207C001C2040201C003C4030403C92
:10086A00004428102844001CA0A0A07C0044645422
:10087A004C4414141414141420002E00204D487AE9
:10088A0000464D2053544552454F00202039392EF9
:10089A00314D687A002020555020200020444F57BF
:1008AA004E20004B45593120707265737300736591
:1008BA0061726368696E6720646F776E004B455991
:1008CA003220707265737300736561726368696E52
:0808DA0067207570202000006A
:00000001FF
