:020000040800F2
:10000000C00A002095100008D9030008DB0300088F
:10001000DF030008E3030008E70300080000000016
:10002000000000000000000000000000EB030008DA
:10003000ED03000800000000EF030008F1030008D2
:10004000AF100008AF100008AF100008AF10000894
:10005000AF100008AF100008AF100008AF10000884
:10006000AF100008AF100008AF100008AF10000874
:10007000AF100008AF100008AF100008AF10000864
:10008000AF100008AF100008AF100008AF10000854
:10009000AF100008AF100008AF100008AF10000844
:1000A000AF100008AF100008AF100008AF10000834
:1000B000AF100008AF100008AF100008AF10000824
:1000C000AF100008AF100008AF100008AF10000814
:1000D000AF1000080B100008AF100008AF100008A8
:1000E000AF100008AF100008AF100008AF100008F4
:1000F000AF100008AF100008AF100008AF100008E4
:10010000AF100008AF100008AF100008AF100008D3
:10011000AF100008AF100008AF100008AF100008C3
:10012000AF100008AF100008AF100008AF100008B3
:1001300000F002F800F05AF80AA090E8000C82449F
:100140008344AAF10107DA4501D100F04FF8AFF27C
:10015000090EBAE80F0013F0010F18BFFB1A43F0A5
:100160000103184794340000B43400000A444FF0EF
:10017000000C10F8013B13F0070408BF10F8014B06
:100180001D1108BF10F8015B641E05D010F8016B4B
:10019000641E01F8016BF9D113F0080F1EBF10F8AF
:1001A000014BAD1C0C1B09D16D1E58BF01F801CBD2
:1001B000FAD505E014F8016B01F8016B6D1EF9D555
:1001C0009142D6D37047000000230024002500266A
:1001D000103A28BF78C1FBD8520728BF30C148BFAA
:1001E0000B6070471FB51FBD10B510BD01F069FD54
:1001F0001146FFF7F7FF00F009F801F087FD03B49F
:10020000FFF7F2FF03BC00F0A5FE000008B54FF0B9
:10021000000900F035FE00F070FA00F0DBF94FF64F
:10022000FF7000F0A4FB4FF6FF705F4908600020EC
:100230005E490860B7E04FF4784020230022114661
:1002400000901C2000F0A9FB4FF4784020230122ED
:10025000002100903C2000F0A0FB4FF478402023C8
:100260000222002100905C2000F097FB4FF47840C0
:100270001023002228210090142000F08EFB4FF460
:1002800078401023012228210090242000F085FBD3
:100290004FF478401023022228210090342000F0EF
:1002A0007CFB4FF478401023032228210090442047
:1002B00000F073FB4FF478401023042228210090B3
:1002C000542000F06AFB4FF47840102305222821C7
:1002D0000090642000F061FB4FF478401023062268
:1002E00028210090742000F058FB4FF4784330A28E
:1002F0003C21002000F0ECFC4FF4784005234A46F6
:100300003C210090682000F04EFD484601F024FF9B
:1003100007462B4A2B4B01F039FD054601F004FD41
:1003200081464FF47A7000F0E8FD4FF6FF7000F060
:100330001EFB4FF4784324A200210A2000F0C8FCE1
:100340004FF478400323A02200210090462000F0C3
:10035000EAFC4FF478431EA214210A2000F0B8FCF6
:100360004FF478400223502214210090462000F0E0
:10037000DAFC00240DE004EB8401272303EBC10227
:1003800004EB8401C8004F23282100F051FD601CBC
:10039000C4B2042CEFDB4FF47A7000F0AEFD4FF6E0
:1003A000FF7000F0E4FA46E77403002094812142D4
:1003B000302E393620544654205350490000000056
:1003C0007B14AE47E17A843F4C43445F573A0000C8
:1003D0004C43445F483A0000704700BFFEE700BF4F
:1003E000FEE700BFFEE700BFFEE7704770477047BB
:1003F000704700000CB50020019000906C48006828
:1004000040F480306A49086000BF6948006800F421
:10041000003000900198401C0190009818B9019894
:10042000B0F5A06FF1D16248006800F4003010B15F
:100430000120009001E0002000900098012843D1A5
:100440005C48006840F010005A490860084600689F
:1004500020F0030008600846006840F002000860D1
:10046000534840685249486008464068486008461A
:10047000406840F4806048600846406820F47C1082
:1004800048600846406840F4E81048600846006844
:1004900040F08070086000BF4548006800F00070C0
:1004A0000028F9D04248406820F0030040494860E5
:1004B0000846406840F00200486000BF3C48406881
:1004C00000F00C000828F9D10CBD10B5FFF792FF21
:1004D00010BD10B53648006840F00100344908608E
:1004E0000846406834490840314948600846006879
:1004F000324908402E4908600846006820F48020F0
:1005000008600846406820F4FE0048604FF41F0071
:100510008860FFF7DAFF4FF000602949086010BDDE
:1005200010B5002100200022214B5B6803F00C0174
:1005300021B1042906D0082928D107E0214B224CFB
:10054000236027E01F4B204C236023E0184B5B689F
:1005500003F47010164B5B6803F48032022303EB44
:10056000904022B9194B4343174C23600DE0104BC8
:100570005B6803F4003323B1144B4343124C2360F4
:1005800003E0104B4343104C236003E00D4B0E4C33
:10059000236000BF00BF064B5B68C3F303130C4C22
:1005A000E15C094B1B68CB40074C236010BD000089
:1005B00000100240002002400000FFF8FFFFF6FE9E
:1005C00008ED00E000127A000000002000093D0064
:1005D0000400002008B50121482001F005F9202081
:1005E000ADF8000010208DF8030003208DF8020004
:1005F0006946094800F03CFE2021074800F0E5FE6E
:100600002020ADF800006946044800F031FE2021AA
:10061000024800F0DAFE08BD000C0140001801405D
:1006200070B504460221FA4800F0D1FE002519E019
:100630004FF48051F74800F0CAFE04F0800020B16A
:100640002021F34800F0C1FE03E02021F04800F033
:10065000BEFE4FF48051EF4800F0B7FE6006040E76
:10066000681CC5B2082DE3DB0221E94800F0ADFEAD
:1006700070BD10B504464FF40041E54800F0A5FEFA
:100680002046FFF7CDFF10BD10B504464FF40041E2
:10069000DF4800F09AFEC4F30720FFF7C1FFE0B285
:1006A000FFF7BEFF10BD10B504464FF40041D84817
:1006B00000F08DFE2046FFF7B3FF10BD2DE9F0419D
:1006C00004460D4616461F462A20FFF7ECFF601C25
:1006D000FFF7DAFF701CFFF7D7FF2B20FFF7E3FFD0
:1006E00005F11A00FFF7D0FF07F11A00FFF7CCFF62
:1006F0002C20FFF7D8FFBDE8F08108B501214FF4A9
:10070000B07001F071F84FF48050ADF80000102087
:100710008DF8030003208DF802006946BD4800F003
:10072000A7FD4FF48051BB4800F04FFE48F2320065
:10073000ADF8000010208DF8030003208DF80200B2
:100740006946B34800F094FD48F23201B04800F029
:100750003CFE4FF4A060ADF8000010208DF80300BF
:1007600003208DF802006946AB4800F081FD4FF48C
:10077000A061A94800F029FE1021A54800F027FE3D
:10078000C82000F0BAFB1021A14800F01EFEC820CE
:1007900000F0B3FB4FF480719F4800F016FEC820B4
:1007A00000F0ABFB1120FFF77EFF642000F0A5FBFB
:1007B0002120FFF778FFB120FFF775FF0520FFF735
:1007C00058FF3A20FFF755FF3A20FFF752FFB220BB
:1007D000FFF769FF0520FFF74CFF3A20FFF749FFBD
:1007E0003A20FFF746FFB320FFF75DFF0520FFF734
:1007F00040FF3A20FFF73DFF3A20FFF73AFF052080
:10080000FFF737FF3A20FFF734FF3A20FFF731FFB9
:10081000B420FFF748FF0320FFF72BFFC020FFF7AE
:1008200042FF6220FFF725FF0220FFF722FF04208E
:10083000FFF71FFFC120FFF736FFC020FFF719FFAA
:10084000C220FFF730FF0D20FFF713FF0020FFF756
:1008500010FFC320FFF727FF8D20FFF70AFF6A2054
:10086000FFF707FFC420FFF71EFF8D20FFF701FFF2
:10087000EE20FFF7FEFEC520FFF715FF0E20FFF765
:10088000F8FEE020FFF70FFF1020FFF7F2FE0E202A
:10089000FFF7EFFE0220FFF7ECFE0320FFF7E9FE73
:1008A0000E20FFF7E6FE0720FFF7E3FE0220FFF72A
:1008B000E0FE0720FFF7DDFE0A20FFF7DAFE122038
:1008C000FFF7D7FE2720FFF7D4FE3720FFF7D1FE32
:1008D0000020FFF7CEFE0D20FFF7CBFE0E20FFF726
:1008E000C8FE1020FFF7C5FEE120FFF7DCFE102058
:1008F000FFF7BFFE0E20FFF7BCFE0320FFF7B9FE97
:100900000320FFF7B6FE0F20FFF7B3FE0620FFF728
:10091000B0FE0220FFF7ADFE0820FFF7AAFE0A2076
:10092000FFF7A7FE1320FFF7A4FE2620FFF7A1FE86
:100930003620FFF79EFE0020FFF79BFE0D20FFF7FD
:1009400098FE0E20FFF795FE1020FFF792FE3A204A
:10095000FFF7A9FE0520FFF78CFE3620FFF7A3FE68
:100960007820FFF786FE2920FFF79DFE08BD70B5B1
:1009700006464F239F2200210846FFF79FFE0024D2
:1009800008E0002503E03046FFF77EFE6D1C502D89
:10099000F9D3641CA02CF4D370BD2DE9F05F81461F
:1009A0008A4693461C46102C00D11C4D202C00D1A9
:1009B0001B4D0AEB0400431E09EB0400421E514686
:1009C0004846FFF77BFE04FB04F0C11700EB5171B2
:1009D000C1F3C7080BFB0855002715E000260EE001
:1009E00028780121B140084018B10A98FFF74CFE61
:1009F00003E00C480068FFF747FE701CC6B2082EE3
:100A0000EEDB6D1C781CC7B24745E7DBBDE8F09F05
:100A10000014014000200140001801409402002011
:100A2000140000207403002070B504460D461646DD
:100A30002B46224629462046FFF740FE3046FFF768
:100A400023FE70BD2DE9F04704460D4616461F46AD
:100A5000DDF820A03B46324629462046FFF72EFE11
:100A6000A8460AE0A14604E05046FFF70DFE09F152
:100A70000109B145F8D908F10108B845F2D9BDE836
:100A8000F087F8B504460D461646691E601E6B1CBD
:100A9000621C0096FFF7D6FFF8BD2DE9FF4F85B029
:100AA00081468A460020039083460798A0EB0904FC
:100AB0000898A0EB0A06CDF80890CDF804A0002C09
:100AC00001DD012705E00CB9002702E04FF0FF37F8
:100AD0006442002E02DD4FF0010806E016B94FF027
:100AE000000802E04FF0FF386642B44201DD2546BF
:100AF00000E03546002004901BE0129ADDE9011069
:100B0000FFF792FF039820440390B3440398A84250
:100B100005DD0398401B0390029838440290AB45D2
:100B200004DDABEB050B0198404401900498401C98
:100B30000490691C04988842DFD309B0BDE8F08FA7
:100B40002DE9F84305460E4617469846089C33465D
:100B50003A46314628460094FFF79FFF43462A460F
:100B6000314628460094FFF798FF43463A464146EF
:100B700028460094FFF791FF43463A4631463846EF
:100B80000094FFF78AFFBDE8F8832DE9F047064699
:100B90000F46904699460025444631E0791B301BAC
:100BA0004A46FFF741FF791B30194A46FFF73CFFE1
:100BB0003919701B4A46FFF737FF391B701B4A462D
:100BC000FFF732FF791930194A46FFF72DFF391B1D
:100BD00070194A46FFF728FF391970194A46FFF77E
:100BE00023FF7919301B4A46FFF71EFF6D1C05FBDA
:100BF00005F004FB040108FB08F0814200DD641EDF
:100C0000A542CBDDBDE8F0872DE9F84F05460F463C
:100C100016469A46DDF828B00095902D01D8402F51
:100C200001D9BDE8F88FA6F12000C6B207F10F0385
:100C3000EA1D39462846FFF741FDBAF1000F25D1DC
:100C4000002420E004EB0610894911F800904FF0D1
:100C5000000811E009F0010018B15846FFF714FD33
:100C600003E084480068FFF70FFD4FEA69096D1C37
:100C700008F1010000F0FF08B8F1080FEADB009D61
:100C80007F1C601CC4B2102CDCDB1FE000241BE0C6
:100C900004EB0610764911F800904FF000080EE0C2
:100CA00009F0010028B1391905EB08005A46FFF791
:100CB000BBFE4FEA690908F1010000F0FF08B8F136
:100CC000080FEDDB601CC4B2102CE1DB00BFA8E70D
:100CD000F8B505460E4614461F4615E0902D01D97D
:100CE00000251036402E06D90020054606464FF452
:100CF0007840FFF73CFE00972278002331462846D3
:100D0000FFF782FF0835641C20780028E6D1F8BD83
:100D100010B50246012000E050430B1EA1F1010472
:100D2000E1B2F9D110BD2DE9F84F06468A4690464A
:100D30001D46DDF828904FF0000B00242FE0281B03
:100D4000401EC1B20A20FFF7E3FFB8FBF0F00A2112
:100D5000B0FBF1F201FB1207BBF1000F10D1681ECE
:100D6000A0420DDD57B9082101FB046000232022B9
:100D70005146CDF80090FFF747FF0EE04FF0010B12
:100D800007F13001CAB2082101FB0460002351467B
:100D9000CDF80090FFF738FF00BF601CC4B2AC4232
:100DA000CDDBBDE8F88F2DE9FC5F06468A46174685
:100DB0001C46DDF83080002001902F49384601F0B4
:100DC00017FA009001F0F4F9834600252CE0601B2F
:100DD000401EC1B20A20FFF79BFFBBFBF0F00A21C7
:100DE000B0FBF1F201FB1209A01EA8420ED1A11E18
:100DF000082202FB016000232E225146CDF800801C
:100E0000FFF702FF681CC5B2601CC4B209F13001D3
:100E1000CAB2082101FB056000235146CDF80080CD
:100E2000FFF7F2FE681CC5B2A542D0DBBDE8FC9F0F
:100E30002DE9F04105460E461746984643463A4688
:100E400031462846FFF73AFC00240CE0012101EB73
:100E500044010A4A505CFFF70CFC084911F81400E1
:100E6000FFF707FC641CB4F5C86FEFDBBDE8F08149
:100E700088230008740300200000C8427829000875
:100E800010B56FF0040000F074F92E4800682E4988
:100E9000B0FBF1F02D4908700846007800EB4001E6
:100EA000C1EBC0104FF6FF7101EAC000284908806D
:100EB00010BD0146254A12784A434FF0E0235A619B
:100EC00000229A611A46126942F001021A6100BFBB
:100ED0004FF0E022106900F001021AB100F48032F4
:100EE000002AF5D04FF0E022126922F001024FF003
:100EF000E0231A6100229A6170470146144A128861
:100F00004A434FF0E0235A6100229A611A4612695F
:100F100042F001021A6100BF4FF0E022106900F0B8
:100F200001021AB100F48032002AF5D04FF0E0221D
:100F3000126922F001024FF0E0231A6100229A6147
:100F4000704700000000002000127A0078030020A3
:100F50007A030020014600BF704700BF494A12884B
:100F600002F04002002AF9D0C2B2464B1B1D1A8083
:100F7000704710B586B00446012144F2050000F028
:100F800033FC4FF40070ADF8140003208DF8160008
:100F900018208DF8170005A93B4800F069F94FF4B7
:100FA0008060ADF8140004208DF8170005A93648BC
:100FB00000F05EF925208DF8000003208DF8010077
:100FC0008DF8020001208DF80300684600F087F8D4
:100FD00001940020ADF80800ADF80A00ADF80C004F
:100FE000ADF810000C20ADF80E0001A9254800F066
:100FF000A2FC012240F22551224800F034FD0121DB
:10100000204800F024FD06B010BD10B540F2255177
:101010001C4800F00DFE10B31A4800F089FDC4B260
:101020001A48008800F40040C8B91848008800F445
:10103000804060B10A2C03D000201449088020E0D1
:101040001248008840F400401049088019E00D2C37
:1010500006D10E48008840F480400C49088010E01A
:101060000A480088C0F30D0009490C54074800885D
:10107000401C0649088008460088C72801DD00207A
:10108000088010BD003801400008014080030020A6
:10109000980300200948804709480047FEE7FEE71B
:1010A000FEE7FEE7FEE7FEE7FEE7FEE7FEE7FEE718
:1010B00004480549054A064B70470000D304000860
:1010C00031010008C0040020C00A0020C006002032
:1010D000C006002031490143314A1160704770B5A4
:1010E000002100230F22C47804B32D4C246804F49B
:1010F000E064C4F5E064210AC1F10403CA40447805
:1011000004FA03F18478144021430901254C067840
:10111000A155047804F01F050124AC4005786D1139
:10112000AD0005F1E025C5F8004109E0047804F0C0
:101130001F050124AC401C4D0678761145F8264069
:1011400070BD1A4A0A400243154B1B1F1A607047B4
:1011500039B1134A121D12680243114B1B1D1A604C
:1011600006E00F4A121D126882430D4B1B1D1A60C8
:101170007047042808D14FF0E021096941F00401CB
:101180004FF0E022116107E04FF0E021096921F002
:1011900004014FF0E0221161704700000000FA05E1
:1011A0000CED00E000E400E080E100E080FFFF1FC4
:1011B00010B50446CC48844208D10121042000F037
:1011C0002DFB0021042000F029FB46E0C7488442A3
:1011D00008D10121082000F021FB0021082000F0A7
:1011E0001DFB3AE0C248844208D10121102000F0E2
:1011F00015FB0021102000F011FB2EE0BD488442B9
:1012000008D10121202000F009FB0021202000F05E
:1012100005FB22E0B848844208D10121402000F0BB
:10122000FDFA0021402000F0F9FA16E0B3488442AC
:1012300008D10121802000F0F1FA0021802000F087
:10124000EDFA0AE0AE48844207D10121801500F092
:10125000E5FA0021A01500F0E1FA10BD10B501215A
:10126000084600F0DBFA0021012000F0D7FA10BD9B
:101270002DE9F0410246002500260020002300242D
:10128000002791F803C00CF00F0591F803C00CF093
:10129000100CBCF1000F03D091F802C04CEA050518
:1012A00091F800C0BCF1000F31D0146800202BE091
:1012B0004FF0010C0CFA00F3B1F800C00CEA030681
:1012C0009E4220D183004FF00F0C0CFA03F7BC4371
:1012D00005FA03FC4CEA040491F803C0BCF1280FA2
:1012E00006D14FF0010C0CFA00FCC2F814C00AE061
:1012F00091F803C0BCF1480F05D14FF0010C0CFA76
:1013000000FCC2F810C0401C0828D1D31460B1F80A
:1013100000C0BCF1FF0F34DD546800202EE000F166
:10132000080C4FF0010808FA0CF3B1F800C00CEA01
:1013300003069E4221D183004FF00F0C0CFA03F7F5
:10134000BC4305FA03FC4CEA040491F803C0BCF169
:10135000280F05D100F1080C08FA0CF8C2F8148027
:1013600091F803C0BCF1480F07D100F1080C4FF011
:10137000010808FA0CF8C2F81080401C0828CED3E7
:101380005460BDE8F0814FF6FF7101800221817049
:101390000421C17070470246002093680B400BB1D6
:1013A000012000E0002070470146886880B2704745
:1013B00002460020D3680B400BB1012000E0002062
:1013C00070470146C86880B270470161704741614B
:1013D00070470AB1016100E041617047C160704728
:1013E0004FF480320A43826181618261826982693D
:1013F000704702460020434B18684FF68073184030
:1014000040EA021008433F4B186070473E49C861EC
:101410007047F0B50A46002300240021002500F0A3
:101420000046B6F1004F02D1364EF16901E0354E6B
:101430007168C0F3034583B200F44016B6F5401F4F
:1014400008D121F070612F4E766826F070662D4F1E
:101450007E6012E000F48016B6F5801F06D10326E8
:1014600006FA05F4A14341F0706106E0460D36012D
:1014700003FA06F6B14341F0706122B1460D360120
:1014800003FA06F6314300F00046B6F1004F02D1F0
:101490001C4EF16101E01B4E7160F0BD30B50022C1
:1014A0008B071C0F0F2303FA04F2164B08338C1022
:1014B00053F824309343134C08348D1044F82530EE
:1014C00023468C1053F824308C07240F00FA04F4C0
:1014D00023430C4C08348D1044F8253030BD0A49A4
:1014E000DC3108607047000000080140000C01403A
:1014F000001001400014014000180140001C014090
:10150000002001400000014000002042DF48006848
:1015100040F00100DD49086008464068DC490840A9
:10152000DA49486008460068DA490840D749086047
:101530000846006820F4802008600846406820F4CF
:10154000FE0048604FF41F0088607047CF4909686B
:1015500021F48031CD4A11601146096821F48021BF
:101560001160B0F5803F03D0B0F5802F0ED106E0BA
:10157000C649096841F48031C44A116007E0C34993
:10158000096841F4A021C14A116000E000BF00BF1A
:10159000704710B501460022002300204A11012A9D
:1015A00002D1BA4C236806E0022A02D1B74C236A62
:1015B00001E0B64C636A01F01F02012494401C4014
:1015C0000CB1012000E0002010BD38B500200090D3
:1015D0000024002500BF3120FFF7DBFF05460098FF
:1015E000401C00900098B0F5A06F01D0002DF2D003
:1015F0003120FFF7CEFF08B1012400E0002420468F
:1016000038BD01460020A14A106820F0F80040EAE9
:10161000C10010607047A049086070470246002072
:101620009A4B586820F47C1042EA01031843974B08
:101630005860704798490866704701460020934AF1
:10164000506820F003000843506070478F4840689E
:1016500000F00C007047014600208C4A506820F0D2
:10166000F00008435060704701460020874A5068E8
:1016700020F4E06008435060704701460020834A30
:10168000506820F4605040EAC1005060704729B1B2
:101690007E4A527A02437D4B5A7204E07B4A527A68
:1016A00082437A4B5A7270477B49D8310860704741
:1016B00001460020754A506820F4404008435060BD
:1016C00070470021714A20321170704A82F8201050
:1016D000012802D004280AD104E001216B4A2032FB
:1016E000117005E00521694A2032117000E000BF49
:1016F00000BF70476949086070476449096A01433F
:10170000624A11627047654944390860704730B5D4
:1017100000210022002400235C4D6D6805F00C01BF
:1017200021B1042905D0082923D105E05C4D0560CD
:1017300022E05B4D05601FE0544D6D6805F47012AA
:10174000524D6D6805F48034022505EB92421CB9B8
:10175000544D554305600BE04C4D6D6805F4003564
:101760001DB1504D5543056002E04D4D5543056098
:1017700002E04B4D056000BF00BF444D6D6805F0B1
:10178000F0010909484D6B5C0568DD4045603F4D3F
:101790006D6805F4E061090A434D6B5C4568DD4006
:1017A00085603A4D6D6805F46051C90A3E4D6B5C29
:1017B0004568DD40C560354D6D6805F44041890BD5
:1017C0003A4D6B5CC568B5FBF3F5056130BD29B1D9
:1017D0002E4A526902432D4B5A6104E02B4A52694A
:1017E00082432A4B5A61704729B1284A92690243C1
:1017F000264B9A6104E0254A92698243234B9A6101
:10180000704729B1214AD2690243204BDA6104E0D2
:101810001E4AD26982431D4BDA61704729B11B4AC7
:10182000D2680243194BDA6004E0184AD268824356
:10183000164BDA60704729B1144A12690243134B00
:101840001A6104E0114A12698243104B1A61704711
:1018500012494039086070470F49C86470470B4906
:10186000C87170470948406A40F080700749486273
:10187000704701460020054A92680A400AB10120DB
:1018800000E0002070470149887270470010024054
:101890000000FFF8FFFFF6FE0000424280044242D3
:1018A00000127A0000093D0082030020920300200C
:1018B00010B50446FB48844209D101218803FFF793
:1018C000ADFF00214FF48040FFF7A8FF32E0F6485B
:1018D000844209D101214804FFF7ADFF00214FF4F4
:1018E0000030FFF7A8FF25E0F048844209D101212C
:1018F0008804FFF7A0FF00214FF48020FFF79BFF33
:1019000018E0EB48844209D10121C804FFF793FF96
:1019100000214FF40020FFF78EFF0BE0E5488442E2
:1019200008D101210805FFF786FF00214FF4801040
:10193000FFF781FF10BD2DE9F04786B005460E4642
:101940000024A24600BFA1460027B08900B100BF15
:101950002F462C8A4CF6FF700440F08804432C82FA
:10196000AC894EF6F3100440B08831890843718980
:1019700008430443AC81AC8A4FF6FF400440B08971
:101980000443AC8201A8FFF7C2FEC648874202D1D9
:10199000DDF810A001E0DDF80CA0A88900F40040FB
:1019A00040B10AEBCA0000EB0A1031684900B0FBF5
:1019B000F1F807E00AEBCA0000EB0A103168890071
:1019C000B0FBF1F86420B8FBF0F0040120096421B9
:1019D00001FB1089A88900F4004040B1322000EBDF
:1019E000C900B0FBF1F000F00700044308E032202A
:1019F00000EB09106421B0FBF1F000F00F0004438C
:101A00002C8106B0BDE8F0874FF41651016000212B
:101A10008180C18001810C21418100218181704739
:101A200010B502460020108A4FF2FF0318400B88C1
:101A30004C8823438C882343CC882343184310824B
:101A400010BD0021018041808180C180704721B19B
:101A5000828942F40052828104E082894DF6FF734C
:101A60001A4082817047F0B5034600240026002505
:101A7000002040F66A17B94200D100BF1846C1F3F2
:101A8000421401F01F06012707FA06F5012C01D1C7
:101A90000C3004E0022C01D1103000E014301AB1F7
:101AA00007682F43076002E00768AF430760F0BD97
:101AB0001AB1838A0B43838202E0838A8B43838239
:101AC0007047028A4FF6F0731A400282028A0A4374
:101AD0000282704782894FF2FF731A4082818289A5
:101AE0000A438281704721B1828942F002028281D9
:101AF00004E082894FF6FD731A4082817047028AA2
:101B00004FF6DF731A400282028A0A43028270474C
:101B100021B1028A42F48042028204E0028A4BF63A
:101B2000FF731A4002827047C1F308028280704737
:101B300001468888C0F308007047818941F001019F
:101B400081817047028BD2B20283028B42EA01226A
:101B500002837047028B02F47F420283028B0A43A6
:101B60000283704721B1828A42F02002828204E01F
:101B7000828A4FF6DF731A408282704721B1828ACF
:101B800042F01002828204E0828A4FF6EF731A401C
:101B90008282704721B1828A42F00802828204E088
:101BA000828A4FF6F7731A408282704721B1828988
:101BB00042F40042828103E08289C2F30E028281F4
:101BC000704721B1828A42F40062828204E0828AF4
:101BD0004FF2FF731A4082827047828A4FF6FB737E
:101BE0001A408282828A0A438282704721B1828AA5
:101BF00042F00202828204E0828A4FF6FD731A40AC
:101C00008282704702460020B1F5007F00D100BFFC
:101C100013880B400BB1012000E00020704701F455
:101C20000072B2F5007F00D100BFCA430280704746
:101C300070B50246002400230025002040F66A16F5
:101C4000B14200D100BFC1F3421501F01F030126CC
:101C500006FA03F3012D02D19689334006E0022DE6
:101C600002D1168A334001E0968A33400C120126D5
:101C700006FA04F41688344013B10CB1012000E0D8
:101C8000002070BD10B50022002340F66A14A14266
:101C900000D100BF0A1201249440A3B2DC430480A7
:101CA00010BD0000003801400044004000480040E2
:101CB000004C00400050004070477047704770472C
:101CC0007047754600F02CF8AE460500694653464D
:101CD00020F00700854618B020B5FFF7E9F9BDE808
:101CE00020404FF000064FF000074FF000084FF083
:101CF000000B21F00701AC46ACE8C009ACE8C00914
:101D0000ACE8C009ACE8C0098D46704710B5044680
:101D1000AFF300802046BDE81040FEF770BA000027
:101D2000004870476004002021F00042A2F1605298
:101D3000B2F5801F01F0004328BFD2F17F6C0BD9B0
:101D40005FEA001C43EAC20242EB507018BF7047C2
:101D500028BF20F001007047B2F5801FBCBF1846B5
:101D600070474FEA410C1CF5001F02D2084600F0F4
:101D700006BB70B500F0B2F800000089FFF7F6BFAF
:101D80004FF00040A0F580007047000010B591EAC8
:101D9000030F48BF83F0004300F1FC80841A71EB0D
:101DA000030C05D2121943EB0C03001B61EB0C0171
:101DB000DFF824E14FEA1154A4EB135C1EEA430F51
:101DC00018BF9EEA445F73D023EA0E03DCF1200EB5
:101DD00021EA045143F4801332D322FA0CFE10EBB3
:101DE0000E0023FA0CFE41EB0E01CCF1200E03FA9B
:101DF0000EFE10EB0E0051F10001B1F5801FCCF189
:101E0000200E32D201EB045112FA0EF2BDE810405E
:101E100058BF7047401C38BF5FEA420218BF704786
:101E2000002814BF20F0010041F100014FEA4103F6
:101E300013F5001F38BF7047A1F1C04100F09CB8F6
:101E4000012A43EB0302ACF1200CDCF11F0E32BF80
:101E50004FF0000E23FA0CF310EB030041EB04519A
:101E6000B4EB115FD0D0A1EB045101F5801149080A
:101E70005FEA300001EB04510ED350F1000038BF8F
:101E800012FA0EFE08D1BDE81040C9E7401C38BF69
:101E90005FEA4202CAD1C3E7BDE810404FEA4103FE
:101EA00013F5001F38BF7047A1F1C04100F064B8BE
:101EB0009EEA445F08D011EA5E0FBDE8104004BFFF
:101EC00001F0004100207047BDE8104070B500F0FF
:101ED00005F800BF64FBBE3E0000E0FF0EF1020EFD
:101EE0002EF0030E5EF8046B364205D4012A43EB54
:101EF000030515F5001F12D8012841EB010C1CF554
:101F0000001F0CD80ED14FEAD17C15F5001F0CEB49
:101F10004C0C0CF1020C08BF4CEBD37C04E04FF0EE
:101F2000080C01E04FEAD37C0CEB4C0526FA05F6D1
:101F300006F00706B6F1040C06D20EEB860CBDE8DF
:101F400070404CF0010C6047DFE80CF0090B020216
:101F50004FF000414FF00000A1F5002170BD19467F
:101F60001046012851EB010418BFD4F5001484BFBA
:101F7000002001F0004170BD0808A0F500114FEAF3
:101F80003101704710B591EA030F48BF83F0004359
:101F90003FF504AF841A71EB030C07D212198CF0D1
:101FA000004C43EB0C03001B61EB0C01DFF8A4E1D8
:101FB0004FEA1154A4EB135C1EEA430F18BF9EEACC
:101FC000445F00F0B08023EA6E03524221EA0451DC
:101FD000C3EB6E0338BF5B1EDCF1200E25D322FA63
:101FE0000CFE10EB0E0043FA0CFE41EB0E01CCF19F
:101FF000200E03FA0EFE10EB0E0051F10001CCF1A1
:10200000200E29D412FA0EF201EB0451BDE8104063
:1020100058BF7047401C1CBFB2F1004F70470028EA
:102020000CBF491C20F00100704712EB020E43EB7D
:10203000030218BF4FF0010E4EEA4202ACF1200C31
:10204000DCF11E0E54D943FA0CFE10EB0E0051F1D8
:10205000FF31CCF11E0ED5D50EF1010E12FA0EFE97
:10206000404141EB010101EB445C5FEA5C5C10D94B
:1020700010EBDE7001EB045138BFBEF1004FBDE83C
:10208000104018BF704700280CBF491C20F0010009
:10209000704730D24FEAD42C11F5001124F40064BB
:1020A0001BD0B1FA81F20B3AA41AA41ED2F120037C
:1020B000914030FA03F31943904001EBCC71002CAE
:1020C00001EB0451BDE81040A8BF704701F1C041C9
:1020D0004FF0000001F000417047B0FA80F310FAB1
:1020E00003F100D110BDE41A173C4805C90AE4E722
:1020F00001EB045110BD491001EB0451BDE8104043
:102100004FEA300002E04FF0000170474A0008BF7C
:102110000042F8D0B2F5001F28BF704701F000411F
:102120004FF0000070479EEA445F07D011EA5E0F4F
:10213000BDE8104004BF002100207047BDE81040FA
:1021400070B5FFF7CBFE00BF40DFF63E83F00041E5
:10215000104670470000E0FF43004FEAD30C4FEAFF
:102160003C0C43401FBF40070CF1605113F0FE4F81
:1021700070471CF0006F03D100200CF00041704745
:102180000CF0004343EA507010B540EACC0000F078
:10219000B0F800BF000000924FEA0001FFF7ECBE6C
:1021A0004FF000414FF00000A1F500217047000002
:1021B000C10DD1F19E0206DB4FEA002343F000433C
:1021C00023FA02F07047004207D54FEA4001B1F10F
:1021D000FE4F02D24FF00000704710B500F089F8B2
:1021E00049922480002070476FEA20007047000069
:1021F0004FF47F0C1CEAD0121EBF1CEAD11392EAE6
:102200000C0F93EA0C0F00F0478090EA010F48BFD3
:1022100042F480724FF0004C4CEA00204CEA01215D
:1022200002EB0302A0FB0113A2F50002002918BF74
:1022300043F001035B0028BF4FEA330342EB224225
:102240005FEA132C4CEBC2502EBFBCEB436FB2F5D0
:102250007C0F70474FEA036CBCF1004F08BF20F0C1
:102260000100B2F57C0F38BF70470BD582F0FF023A
:1022700012F5803FC8BF704700F1C040D8BF00F0E2
:102280000040704700F5000C5FEA4C0C48BF7047F7
:10229000B0F1C04000F073B890EA010F0CEAD1131E
:1022A00048BF42F48072624538BF634504D280EA79
:1022B000010000F00040704710B500F01AF800BFB0
:1022C0008900013E00F007B800F009B85FEA410C50
:1022D0005FEA1C6C08D080EA010000F050B85FEAA9
:1022E000400C5FEA1C6CF6D14FF00040A0F5800076
:1022F00070470EF1020E2EF0030E5EF8044B2442DE
:1023000004D44FEA4102B2F17F4F11D84FEA4003A3
:10231000B3F17F4F0CD80ED14FEAD07CB2F17F4F92
:102320000CEB4C0C0CF1020C08BF4CEBD17C04E024
:102330004FF0080C01E04FEAD17C0CEB4C0324FA7F
:1023400003F404F00704B4F1040C06D20EEB840C81
:10235000BDE810404CF0010C6047DFE80CF00708C6
:1023600002024FF00040A0F5800010BD0846420078
:1023700018BFD2F1807288BF00F0004010BDFF216D
:1023800041EAD050C0057047000000000000000086
:102390000000000000000000000000080808080815
:1023A000080800001818000000486C241200000003
:1023B00000000000000000000000002424247F1220
:1023C00012127F12121200000000081C2A2A0A0CA6
:1023D0001828282A2A1C080800000022251515158F
:1023E0002A585454542200000000000C1212120A01
:1023F00076252911916E00000006060403000000F6
:102400000000000000000000004020101008080834
:1024100008080810102040000002040808101010DE
:1024200010101008080402000000000008086B1CCF
:102430001C6B0808000000000000000008080808E5
:102440007F080808080000000000000000000000ED
:102450000000000006060403000000000000000069
:10246000FE0000000000000000000000000000006E
:102470000000000006060000000080404020201000
:10248000100808040402020000000018244242421E
:102490004242424224180000000000080E080808CA
:1024A00008080808083E00000000003C42424220A4
:1024B00020100804427E00000000003C4242201828
:1024C00020404042221C000000000020302824242C
:1024D00022227E20207800000000007E0202021AE4
:1024E00026404042221C0000000000382402021A4C
:1024F00026424242241800000000007E22221010D2
:1025000008080808080800000000003C4242422475
:1025100018244242423C000000000018244242427B
:1025200064584040241C00000000000000001818FF
:102530000000000018180000000000000000000863
:1025400000000000000808040000004020100804FB
:1025500002040810204000000000000000007F007E
:1025600000007F00000000000000000204081020AE
:1025700040201008040200000000003C4242464097
:1025800020101000181800000000001C225A555599
:1025900055552D42221C0000000000080818141494
:1025A000243C224242E700000000001F2222221E9B
:1025B00022424242221F00000000007C42420101F0
:1025C00001010142221C00000000001F2242424281
:1025D00042424242221F00000000003F4212121EEF
:1025E00012120242423F00000000003F4212121E3F
:1025F00012120202020700000000003C2222010128
:1026000001712122221C0000000000E742424242E8
:102610007E42424242E700000000003E08080808EF
:1026200008080808083E00000000007C1010101088
:10263000101010101010110F0000007722120A0E57
:102640000A12122222770000000000070202020292
:1026500002020202427F0000000000773636363662
:102660002A2A2A2A2A6B0000000000E346464A4A2A
:1026700052525262624700000000001C2241414158
:1026800041414141221C00000000003F42424242C1
:102690003E020202020700000000001C22414141EC
:1026A00041414D53321C60000000003F4242423E17
:1026B0001212222242C700000000007C42420204A3
:1026C00018204042423E00000000007F49080808F0
:1026D00008080808081C0000000000E742424242C7
:1026E00042424242423C0000000000E742422224B3
:1026F00024141418080800000000006B49494949D7
:102700005555362222220000000000E742242418FA
:102710001818242442E70000000000772222141435
:1027200008080808081C00000000007E2120101086
:1027300008040442423F000000780808080808081E
:1027400008080808080878000000020204040808C5
:102750000810102020204040001E101010101010F3
:102760001010101010101E0000384400000000006F
:102770000000000000000000000000000000000059
:1027800000000000000000FF00060800000000003C
:102790000000000000000000000000000000003CFD
:1027A0004278444242FC0000000000030202021A88
:1027B00026424242261A00000000000000000038B5
:1027C00044020202443800000000006040404078AB
:1027D0004442424264D80000000000000000003C77
:1027E000427E0202423C0000000000F08808087EA1
:1027F00008080808083E0000000000000000007CF7
:1028000022221C023C42423C000000030202023A27
:102810004642424242E700000000000C0C00000E5D
:1028200008080808083E00000000003030000038AA
:10283000202020202020221E00000003020202721D
:10284000120A1612227700000000000E080808087D
:1028500008080808083E0000000000000000007F93
:102860009292929292B70000000000000000003B9C
:102870004642424242E70000000000000000003CE7
:1028800042424242423C0000000000000000001BA7
:1028900026424242221E020700000000000000788B
:1028A00044424242447840E00000000000000077CB
:1028B0004C040404041F0000000000000000007C21
:1028C00042023C40423E0000000000000008083E7A
:1028D000080808080830000000000000000000633D
:1028E0004242424262DC000000000000000000E7BB
:1028F000422424140808000000000000000000EB3F
:1029000049495555222200000000000000000076D1
:1029100024181818246E000000000000000000E7D2
:102920004224241418080807000000000000007E5C
:1029300022100808447E000000C020202020201023
:10294000202020202020C000101010101010101087
:1029500010101010101010100006080808080810B9
:1029600008080808080806000C32C2000000000031
:102970000000000000000000FFFFFFFFFFFFFFFF5F
:10298000FFFFFFFFFFFFFFFFFFFFFFFFFFFFFFFF57
:10299000FFFFFFFFBEF77DEFBAD6B6B5F39CB2944A
:1029A000B39CB29434A5F7BDFBDE7DEFFFFFFFFFC4
:1029B000FFFFFFFFFFFFFFFFFFFFFFFFFFFFFFFF27
:1029C000FFFFFFFFFFFFFFFFFFFFFFFFFFFFFFFF17
:1029D000FFFFFFFFFFFFFFFFFFFFFFFFFFFFFFFF07
:1029E000BEF7FBDEF39CCB5AC7390421821042109C
:1029F0004210410883184529C7390C6375AD3CE77F
:102A0000BEF7FFFFFFFFFFFFFFFFFFFFFFFFFFFF1F
:102A1000FFFFFFFFFFFFFFFFFFFFFFFFFFFFFFFFC6
:102A2000FFFFFFFFFFFFFFFFFFFFFFFFFFFF3CE791
:102A3000B2940842C3188210042145298631863198
:102A4000863186314529042182104108C318084285
:102A5000F39C3CE7FFFFFFFFFFFFFFFFFFFFFFFFD0
:102A6000FFFFFFFFFFFFFFFFFFFFFFFFFFFFFFFF76
:102A7000FFFFFFFFFFFFFFFFFFFFFFFFFBDE0C631A
:102A8000C318C3184529C7390842084208420842FA
:102A900008420842C739C7398631863104214108C6
:102AA0008210CB5ABAD6FFFFFFFFFFFFFFFFFFFFE9
:102AB000FFFFFFFFFFFFFFFFFFFFFFFFFFFFFFFF26
:102AC000FFFFFFFFFFFFFFFFFFFFFBDECB5A821080
:102AD0004529C73908420842094A494A494A494AE8
:102AE000494A494A0842C739C739C7398631452951
:102AF00083180000C84138C6FFFFFFFFFFFFFFFF3C
:102B0000FFFFFFFFFFFFFFFFFFFFFFFFFFFFFFFFD5
:102B1000FFFFFFFFFFFFFFFF7DEF8E738210452950
:102B2000C7390842094A8A523084CF7B8A52494ABF
:102B30004A52494ACB5ACF7B0C630842C739863187
:102B40004529C3180000494ABAD6FFFFFFFFFFFF1F
:102B5000FFFFFFFFFFFFFFFFFFFFFFFFFFFFFFFF85
:102B6000FFFFFFFFFFFFFFFFF39CC3180421C739DE
:102B70000842494A494A72947DEF7DEFB2944A5225
:102B8000494A8A5275ADBEF7BAD64D6BC739C739B7
:102B900086314529C3184108CF7B7CE7FFFFFFFF43
:102BA000FFFFFFFFFFFFFFFFFFFFFFFFFFFFFFFF35
:102BB000FFFFFFFFFFFFBAD608428210C739084265
:102BC000494A494A8E73FBDEFFFFBEF7BAD68E73C1
:102BD000084230843CE77DEFFFFFB6B5494AC7396C
:102BE00086314529042141084529B6B5FFFFFFFF7D
:102BF000FFFFFFFFFFFFFFFFFFFFFFFFFFFFFFFFE5
:102C0000FFFFFFFFBEF7718C410845290842494A82
:102C1000494A4A52B294BEF7BEF7B294CF7BCF7BFB
:102C2000494AB6B5F39C0C6338C6BAD60C638739EB
:102C3000C73986314529C318410830847DEFFFFF2D
:102C4000FFFFFFFFFFFFFFFFFFFFFFFFFFFFFFFF94
:102C5000FFFFFFFF3CE7CB5A4108C7390842494A0A
:102C60004A528A52F39CFFFF7DEFC739C3180C63A9
:102C7000CB5AB6B5B294CB5A75ADFAD64D6B8739EF
:102C8000C73986314529042141088A5279CEFFFF90
:102C9000FFFFFFFFFFFFFFFFFFFFFFFFFFFFFFFF44
:102CA000FFFFFFFF38C686310421C841494A494A1F
:102CB0004A52494AB18CBEF7BEF7B294CF7BCF7B64
:102CC000494A74A57DEF7CE7BEF779CE0C63C7391E
:102CD000C7398631452904218210452975ADBEF7D3
:102CE000FFFFFFFFFFFFFFFFFFFFFFFFFFFFFFFFF4
:102CF000FFFFFFFF34A5821086310842494A494A46
:102D00008A52494A4D6BBAD6FFFFFFFF79CE0D6359
:102D1000C739CF7B7DEFFFFFFFFF75AD08428631DE
:102D2000C739863145294529C318C318B2947DEFA8
:102D3000FFFFFFFFFFFFFFFFFFFFFFFFFFFFFFFFA3
:102D4000FFFFBEF7B28C4108C7390842494A494AD9
:102D50008A528A524A4AD07B7AC67BBE906BC93966
:102D60008831C939B384BBC6F8B5CC5A8631C73966
:102D7000C739863145294529C420410830843CE7BC
:102D8000FFFFFFFFFFFFFFFFFFFFFFFFFFFFFFFF53
:102D9000FFFF3CE78A4AC310C7390842494A494AFB
:102DA0004A4A4A42093A084A096B497BC67A05836E
:102DB0004683C57AC672097B485A8731882188299B
:102DC0008631863145294529042141084A4ABAD627
:102DD000FFFFFFFFFFFFFFFFFFFFFFFFFFFFFFFF03
:102DE000FFFFF7C582500541C7290842494A4A42B8
:102DF000494A097B889BC6B321D4A0DCE1E461ED9C
:102E000061ED21EDA0E420DC80CB43ABC482065A07
:102E10004721462945290429041982108218F39C68
:102E20007DEFFFFFFFFFFFFFFFFFFFFFFFFFFFFF44
:102E30007DEF4D9300A082B8C7310932494A867AA6
:102E400043C36BEDF4F6EBFD20FD20FD60FDA0FD1E
:102E5000A0FD60FD60FD20FDE0FCA0FC60F4C1DB96
:102E6000839AC54945290419C42082380050CB6A89
:102E7000BAD6FFFFFFFFFFFFFFFFFFFFFFFFFFFFD0
:102E8000FBEE04A100C000F0C3A0C8414942059B6D
:102E900020FCA4FC69FDE8FD63FD20FD60FD60FDF4
:102EA00060FD20FD20FDE0FCE0FCA0FC60FC20FCBF
:102EB00041D3C5494519C438826841880070495AD0
:102EC00079CEFFFFFFFFFFFFFFFFFFFFFFFFFFFFC9
:102ED000FBF682C000D086C146F141C845798952CF
:102EE0008862866AC67AC4BBE1FC60FD60FDA0FD15
:102EF000A0FD60FD60FDE0FC60E403938472446A21
:102F0000C5414529C35841A8409800B000600C6BEA
:102F100079CEFFFFFFFFFFFFFFFFFFFFFFFF7DEF0A
:102F2000CE83828800F8C4D80CF38AFA82E882B093
:102F30004569C7510842083A865A839BA2BC22CDF4
:102F400021CDA1C422B4C47A063A86294529053187
:102F5000C450419000C000A800A000A800304A4A18
:102F6000BAD6FFFFFFFFFFFFFFFFFFFF7DEF8E736E
:102F7000C318053982A800F8C3F84DFB4DFBC7F90B
:102F8000C3F082D8C3B00481456146518649864961
:102F9000464145414541454105490461829041B062
:102FA00000D000C800A800A800B8415882108210C4
:102FB000B294BEF7FFFFFFFFFFFFBEF7CF7B82108B
:102FC000042186298641049940E841F886F9CBFA24
:102FD00049FA82F800F800F000E841D841D041C039
:102FE00041C041C041C041C800D000E000E000D86D
:102FF00000D000B800A841888248821082100000EA
:10300000452979CEFFFFFFFFBEF7F39C8210C3185E
:1030100045298631C731307CF3DC86E100F000F8C9
:1030200041F841F800F800F800F800F800F800F85E
:1030300000F800F800F800F800E800E000E000D830
:1030400000C841A08A9A0C630411821082104108C2
:1030500000004D6B7DEFFFFFFBDE0842421045296B
:1030600086318631494A38BEFFFF38D686A900C866
:1030700000E000F000F800F800F800F800F800F8B0
:1030800000F800F800F000F000E800E000D0C3987D
:103090008A8AB2A4BAC6F7B508424108821041082C
:1030A00000004529F7BDFFFF718C41080421452927
:1030B000863186310C633CE7FFFF79D646B900E0E4
:1030C00042C882A882B041D882E882F041E841E853
:1030D00041E841F041E841D804C108924D8B34A544
:1030E000FBC6FBD6BACE3CE73084C3184108410882
:1030F00000004108CF7B7DEF494A000004214529AB
:10310000463186313084FFFFFFF7F7DD09DA83F8B7
:1031100001F042C08298499AF3B4F3CC71BC8EBBE3
:103120008EBB30BC71BCF3BCB6BDFBCEBEE77DE749
:103130003BDFBAD679CEFBDE75AD8631410841085A
:1031400000000000494AFBDE042141080421452912
:1031500045298739B294FFFFBEF734DD0CEB09FA3D
:1031600000F001D800D88BD27DE7FFFFFFFFFFFF03
:10317000FFFFFFFFFFFFFFFFFFFFBEFF7DEFFBDE57
:10318000FBDEBAD679CEBAD678C6C7390000410878
:1031900000000000C73979CE00008210C318042156
:1031A00005298631B39CFFFFFFF775DDC7E9C7F935
:1031B00001F801F000E849E2FBEEFFFFFFFFFFFF2F
:1031C000FFFFFFFFFFFFFFFFFFFFBEF77DEFFBDE0F
:1031D000FBDEBAD679CEBAD6B9CE084200000000DE
:1031E00000000000C73938C6000082108210042198
:1031F000042145293084FFFFFFFF38DEC4D000F0F2
:1032000001F800F800F008D2FBE6FFFFFFFFFFFF28
:10321000FFFFFFFFFFFFFFFFFFFFBEF77DEFFBDEBE
:10322000BAD679CE79CEBAD679CEC7394108000060
:1032300000000000863138C600000000C318CB5AD9
:103240008631C318CB5A7DEFFFFF7DEFCFBBC3B0F4
:1032500041D041D082B84DB37DE7FFFFFFFFFFFFB4
:10326000FFFFFFFFFFFFFFFFBEF7BEF73DEFFBDEF7
:10327000BAD679CE79CEFAD6F7BD042186310421AB
:1032800000000000863138C68631C318CB5A75ADB0
:10329000CF7B41088631F7BDFFFFFFFFBEEF74B55E
:1032A000309C309C72A4BBD6FFFFFFFFFFFFFFFFE7
:1032B000FFFFFFFFFFFFFFFFBEF77DEF3CE7FBDEF9
:1032C000BAD679CE79CE3CE7718C81080C63CF7B7E
:1032D000821000008A5238C675AD718CB6B53CE7D5
:1032E000FBDEC7390000CF73FFFFFFFFFFFFFFFFCB
:1032F000FFFFFFFFFFFFFFFFFFFFFFFFFFFFFFFFDE
:10330000FFFFFFFFFFFFBEF77DEF7DEF3BDFFAD64C
:1033100079CE79CEFBDEB9CEC739C420718CBAD64E
:10332000718CCB5AB294BAD6FFFF7DEF7DEFFFFFD1
:10333000FFFFB6B54629051975A5FFFFFFFFFFFF83
:10334000FFFFFFFFFFFFFFFFFFFFFFFFFFFFFFFF8D
:10335000FFFFFFFFFFFFBEF77DEF3CE7FBDEBAD6C6
:1033600079CEBAD6FCDE4E6342080C63F7BDBEF7D9
:10337000FFFFFBDEFBDEBEF7FFFFFFFFFFFFFFFFF0
:10338000FFFFFFFFF49C04210521B6A5FFFFFFFF0F
:10339000FFFFFFFFFFFFFFFFFFFFFFFFFFFFFFFF3D
:1033A000FFFFBEF7BEF77DEF3CE7FBDEBAD679CE76
:1033B000FBDEBBD6D17383188639349DBDEFFFFF8A
:1033C000FFFFFFFFFFFFFFFFFFFFFFFFFFFFFFFF0D
:1033D000BEFF35D6EBCC43B340510519F58CBEEF9B
:1033E000FFFFFFFFFFFFFFFFFFFFFFFFFFFFBEF736
:1033F000BEF77DEF7DEF3CE7FBDEBADEBAD63CDF01
:103400003ABE4F63824940A323B4CC833ABEFFFF48
:10341000FFFFFFFFFFFFFFFFFFFFFFFFFFFFBFF704
:10342000B5BD829220F4A0FC60E4408284418F6BA1
:1034300077AD3DE7FFFFFFFFFEFFBEF7BEF7BEF72C
:103440007DEF7DEF3CE7FBDEFBDE3DE7BBCE369D4F
:103450000B6B416A60C420FE60F5008BC76A38C6FA
:10346000BEF7FFFFFFFFFFFFFFFFFFFFFFFF7DEF47
:103470004B7B80B2A0FCA0FCE0FCE0FCC0CBC18A8E
:1034800045624D6BB394F7BD3DDFFFF7FFFFBEF71D
:103490007DEF7DEF7DE73DDFBAC675A58D7B847A34
:1034A00040B3E0ECE0FDE0FD60F520E5A0D40A6B60
:1034B000FBDEFFFFFFFFFFFFFFFFFFFFFFFF7DEFD3
:1034C000CC9340EB60FCA0FCE0FC20FD60FD20F50F
:1034D000A0D4C0BB429B458B6B9CAE9C718CB394BB
:1034E000339D34A5F2A4F0B4CA9B049B40BB20E4F6
:1034F00020FDA0FDA0FDE0FDE0FDE0FD20C4885A18
:1035000038BEFFFFFFFFFFFFFFFFFFFFFFFFFFFFD3
:1035100078D646AB40DB20F460FCA0FCE0FC60FD0C
:10352000A0FD60FD20F5A0DCC0B3C05186290D636D
:103530008F7B0D5BC741018200C3C0E360FCA0FC30
:10354000E0FCE0FC60F560F520E5809B866230845D
:1035500079CEFFFFFFFFFFFFFFFFFFFFFFFFFFFF32
:10356000FFFF38C62D9C059343A382B3C2BBC2BBE9
:1035700022B482A34293C37A85620B637184B6B589
:1035800079CE79C6B5AD70944A8B06830493049BBB
:10359000439B439B4393048308738D73B39479CE09
:1035A0007DEFFFFFFFFFFFFFFFFFFFFFFFFFFFFFBD
:1035B000FFFFFFFF3CDF38BE75B533A533A5F39C95
:1035C000F39CF39CF394F39C35A5F8BDFBDEBEF7AA
:1035D000FFFFFFFFFFFF7EEFBBD6F8BDB6AD75ADB9
:1035E00034A5339D349D35A5B7AD79C63CE7BEF70C
:1035F000FFFFFFFFFFFFFFFF18360008000000205D
:10360000980300006C010008D837000898030020D8
:1036100028070000C80100081184A24A049009018B
:10362000020304060708092A8004FA0104080D1A97
:103630001080010CF0FFFF0F308001040419246A90
:10364000070C09124809100401131A011914FFFF8D
:10365000011A03082904E90C3381812A0304261C7A
:10366000FCFFFF3F1A400B5AC0282AC00C49041B1C
:10367000FFFF4C22411A0468230E711B07815A1464
:10368000010760100B010E1898011C04E0011819C5
:1036900027F11A08C4231F304A0C046809100C30A3
:1036A000FE3F0C30041069041BC00C281E0D303086
:1036B000060E049C0C3010044B18860410120806E9
:1036C0000D300C860D3006EE0F3002FC0D30015B24
:1036D0000CF040193C2A0F081A109ED1299019CBE2
:1036E0004908890417E0FFFF0360C00913040916A5
:1036F0001C59181A010429441A08045A100419F80C
:10370000130138041780FF1F2603C0FFFF071A802C
:1037100004293D326032181A0C135A030419A41CF0
:10372000800108045E1CFCFFFF3F100928041AFCFE
:103730000432E062405A80026DFC1F841002290CA2
:1037400069184DF80F080804128023FF7F290C49DF
:103750000E2D8410A22045280FFE3F0220F22702E2
:10376000200220FA2F2221022809122912290A2ECA
:1037700002201AC95E9908165080408040195213E1
:10378000FE1F120812042C02800162697829021AB5
:10379000A0A518161008B8080F0908090808BF08DE
:1037A00008091C092C080A78CA1179012A04023C6C
:1037B000C87F3F08180BA83F18210C110B12080AEC
:1037C0000E06120A8A1164602D0102030404200906
:0837D0000607080902040608BF
:0400000508000131BD
:00000001FF
