:020000040800F2
:10000000B00B002045010008F10400080F020008B1
:10001000ED0400087D030008650A000800000000E8
:100020000000000000000000000000005906000869
:100030008103000800000000970100084507000840
:100040005F0100085F0100085F0100085F01000810
:100050005F0100085F0100085F0100085F01000800
:100060005F0100085F0100085F0100085F010008F0
:100070005F0100085F0100085F0100085F010008E0
:100080005F0100085F0100085F0100085F010008D0
:100090005F0100085F0100085F0100085F010008C0
:1000A0005F0100085F0100085F0100085F010008B0
:1000B0005F0100085F0100085F0100085F010008A0
:1000C0005F0100085F0100085F0100085F01000890
:1000D0005F010008590800085F0100085F0100087F
:1000E0005F0100085F0100085F0100085F01000870
:1000F0005F0100085F0100085F0100085F01000860
:100100005F0100085F0100085F0100085F0100084F
:100110005F0100085F0100085F0100085F0100083F
:100120005F0100085F0100085F0100085F0100082F
:10013000DFF80CD000F0EEF8004800473903000863
:10014000B00B00200648804706480047FEE7FEE760
:10015000FEE7FEE7FEE7FEE7FEE7FEE7FEE7FEE777
:10016000F907000831010008EFF3108072B67047FC
:1001700080F310887047334A1368012B04D04FF086
:1001800001031360304A1060304A116030484FF06C
:10019000805101607047EFF3108272B62948016800
:1001A00091B14FF0000101602748016829B1EFF3D8
:1001B000098121E9F00F0068016024490968096894
:1001C000B1E8F00F81F3098882F310884EF0040E35
:1001D00070471E4908601C494FF00000086019492B
:1001E0004FF0010008601B484FF47F01D0F8002059
:1001F00041EA0201016016484FF080510160164843
:100200000068006880F3088861B662B670471EF027
:10021000040F0CBFEFF30880EFF3098020E9F00F23
:1002200040F804ED1EF0040F0CBF80F3088880F343
:10023000098800B501F090FF5DF804EB4EF0040E64
:1002400070470000480000204000002044000020CB
:1002500004ED00E020ED00E008ED00E040EA0103DD
:100260009B0703D009E008C9121F08C0042AFAD26C
:1002700003E011F8013B00F8013B521EF9D2704730
:10028000D2B201E000F8012B491EFBD270470022D8
:10029000F6E710B513460A4604461946FFF7F0FF85
:1002A000204610BD421E12F8013F002BFBD111F871
:1002B000013B02F8013B002BF9D1704710B5044611
:1002C00004E00B7800F8013B03B1491C521EF8D240
:1002D000204610BD421C10F8011B0029FBD1801ADA
:1002E0007047034611F8012B00F8012B002AF9D1C1
:1002F0001846704730B505460020034600E05B1CF9
:10030000934205D2EC5CC85C201A01D1002CF6D1D6
:1003100030BD0000064C074D06E0E06840F00103E8
:1003200094E8070098471034AC42F6D3FFF704FF77
:10033000703900089039000810B503F077F80020F4
:1003400010BD000008B50121082000F00BF94FF4A2
:100350008070ADF8000010208DF8030003208DF8A8
:1003600002006946044800F00CF84FF4807102481E
:1003700000F092F808BD0000000C014000BFFEE74D
:1003800070472DE9F0410246002500260020002399
:100390000024002791F803C00CF00F0591F803C06A
:1003A0000CF0100CBCF1000F03D091F802C04CEA25
:1003B000050591F800C0BCF1000F31D01468002091
:1003C0002BE04FF0010C0CFA00F3B1F800C00CEA7E
:1003D00003069E4220D183004FF00F0C0CFA03F766
:1003E000BC4305FA03FC4CEA040491F803C0BCF1D9
:1003F000280F06D14FF0010C0CFA00FCC2F814C013
:100400000AE091F803C0BCF1480F05D14FF0010C90
:100410000CFA00FCC2F810C0401C0828D1D31460AC
:10042000B1F800C0BCF1FF0F34DD546800202EE0AD
:1004300000F1080C4FF0010808FA0CF3B1F800C005
:100440000CEA03069E4221D183004FF00F0C0CFAF8
:1004500003F7BC4305FA03FC4CEA040491F803C01B
:10046000BCF1280F05D100F1080C08FA0CF8C2F80D
:10047000148091F803C0BCF1480F07D100F1080CBB
:100480004FF0010808FA0CF8C2F81080401C082848
:10049000CED35460BDE8F08141617047016170477F
:1004A00008B50121482000F05DF82020ADF80000DB
:1004B00010208DF8030003208DF8020069460948DA
:1004C000FFF75FFF20210748FFF7E8FF2020ADF886
:1004D000000069460448FFF754FF20210248FFF757
:1004E000DDFF08BD000C01400018014000BFFEE721
:1004F0007047000070B5002100230F22C47804B3B8
:10050000154C246804F4E064C4F5E064210AC1F1E8
:100510000403CA40447804FA03F184781440214368
:1005200009010E4C0678A155047804F01F0501243A
:10053000AC4005786D11AD0005F1E025C5F800412E
:1005400009E0047804F01F050124AC40044D06784E
:10055000761145F8264070BD0CED00E000E400E0A7
:1005600080E100E029B1064A92690243044B9A6196
:1005700004E0034A92698243014B9A61704700008C
:100580000010024030B500210022002400232D4D30
:100590006D6805F00C0121B1042905D0082923D18B
:1005A00005E0294D056022E0274D05601FE0254D3F
:1005B0006D6805F47012234D6D6805F480340225D2
:1005C00005EB92421CB9214D554305600BE01D4DD2
:1005D0006D6805F400351DB11C4D5543056002E002
:1005E000194D5543056002E0174D056000BF00BF7F
:1005F000144D6D6805F0F0010909154D6B5C056837
:10060000DD4045600F4D6D6805F4E061090A104D4D
:100610006B5C4568DD4085600A4D6D6805F460518E
:10062000C90A0B4D6B5C4568DD40C560054D6D68C2
:1006300005F44041890B074D6B5CC568B5FBF3F5CC
:10064000056130BD0010024000127A0000093D0033
:100650001400002024000020704710B500F002F8BC
:1006600010BD00000CB500200190009033480068D8
:1006700040F480303149086000BF3048006800F421
:10068000003000900198401C0190009818B9019822
:10069000B0F5A06FF1D12948006800F4003010B126
:1006A0000120009001E0002000900098012843D133
:1006B0002348006840F0100021490860084600689F
:1006C00020F0030008600846006840F0020008605F
:1006D0001A4840681949486008464068486008461A
:1006E000406840F4806048600846406820F47C1010
:1006F00048600846406840F4E810486008460068D2
:1007000040F08070086000BF0C48006800F0007086
:100710000028F9D00948406820F0030007494860E4
:100720000846406840F00200486000BF0348406847
:1007300000F00C000828F9D10CBD000000100240A8
:100740000020024010B501F031FE02F0A1FB01F0E3
:100750003DFE10BD10B5002100200022214B5B683A
:1007600003F00C0121B1042906D0082928D107E0A3
:100770001D4B1E4C236027E01B4B1C4C236023E0C9
:10078000184B5B6803F47010164B5B6803F48032FF
:10079000022303EB904022B9154B4343134C2360D3
:1007A0000DE0104B5B6803F4003323B1104B43435F
:1007B0000E4C236003E00C4B43430C4C236003E0DE
:1007C000094B0A4C236000BF00BF064B5B68C3F3B4
:1007D0000313084CE15C054B1B68CB40034C2360C2
:1007E00010BD00000010024000127A00000000203E
:1007F00000093D000400002010B51348006840F0D7
:1008000001001149086008464068104908400E4937
:100810004860084600680E4908400B4908600846D1
:10082000006820F4802008600846406820F4FE003C
:1008300048604FF41F008860FFF70FFF4FF0006023
:100840000449086010BD0000001002400000FFF8DD
:10085000FFFFF6FE08ED00E010B54FF0FF3401F0A9
:10086000A5FD2021124800F035F8E8B140F22551ED
:100870000F4800F03CF8B8B111E04FF0FF342021F0
:100880000B4800F027F818B10948001D0088C4B2D1
:10089000601C00B904E0E1B2064801F072FFECE729
:1008A00000BF054802F041F801F090FD10BD0000C6
:1008B00000380140700700207C07002021B18289A8
:1008C00042F40052828104E082894DF6FF731A409F
:1008D0008281704702460020B1F5007F00D100BF41
:1008E00013880B400BB1012000E00020704770B569
:1008F0000246002400230025002040F66A16B1427B
:1009000000D100BFC1F3421501F01F03012606FA12
:1009100003F3012D02D19689334006E0022D02D166
:10092000168A334001E0968A33400C12012606FAFB
:1009300004F41688344013B10CB1012000E000200B
:1009400070BDF0B50346002400260025002040F6C7
:100950006A17B94200D100BF1846C1F3421401F032
:100960001F06012707FA06F5012C01D10C3004E01F
:10097000022C01D1103000E014301AB107682F4367
:10098000076002E00768AF430760F0BD2DE9F0475C
:1009900086B005460E460024A24600BFA1460027A9
:1009A000B08900B100BF2F462C8A4CF6FF7004407E
:1009B000F08804432C82AC894EF6F3100440B088D2
:1009C00031890843718908430443AC81AC8A4FF6EE
:1009D000FF400440B0890443AC8201A8FFF7D2FD78
:1009E0001F48874202D1DDF810A001E0DDF80CA01D
:1009F000A88900F4004040B10AEBCA0000EB0A10DD
:100A000031684900B0FBF1F807E00AEBCA0000EBDF
:100A10000A1031688900B0FBF1F86420B8FBF0F0EF
:100A200004012009642101FB1089A88900F4004019
:100A300040B1322000EBC900B0FBF1F000F007003C
:100A4000044308E0322000EB09106421B0FBF1F010
:100A500000F00F0004432C8106B0BDE8F0870000D1
:100A60000038014000BFFEE70146481EB0F1807F1C
:100A700001D301207047481E4FF0E0225061FF2053
:100A8000044A107000204FF0E022906107201061AE
:100A90000020EFE723ED00E0014609B90020704790
:100AA000C8B220B1C8B20E4A105C401CF7E701F48E
:100AB0007F4028B10A48C1F30722805C0930EEE785
:100AC00001F47F0028B10648C1F30742805C113071
:100AD000E5E7034800EB116000781930DFE700001C
:100AE0008537000802E008C8121F08C1002AFAD1A1
:100AF00070477047002001E001C1121F002AFBD19E
:100B00007047000003490868884201D001207047FF
:100B10000020FCE7A80000202DE9F04389B006463C
:100B200088469146002400E0641C305D202804D0F3
:100B3000305D092801D04445F6D324B94FF0FF3089
:100B400009B0BDE8F0832146304601F097F805462C
:100B500015B94FF0FF30F3E7202101A8FFF797FB0D
:100B600001AA4146304601F0F3F8074617B94FF0A5
:100B7000FF30E5E701A93846A847C9F80000002082
:100B8000DEE700002DE9FC5F04468B4615461E4655
:100B9000DDE90C9ADDE90E7804F114004060006094
:100BA00000BF1C346560A660C4F80C90C4F810A0A7
:100BB0002321D4E9030201F0E3FCD4E9033C6344BC
:100BC0001A1F0F4BD4E9010101F0CAFB2060A77680
:100BD00067760020E061C4F82080C4F8248060615A
:100BE00020766065A0651C3C00902346054A21469E
:100BF000019004F1440002F0CDF90020BDE8FC9F13
:100C00006D2B0008C92D00082DE9F04704460E465B
:100C100017469846DDF8209084F80990607A20F015
:100C200001006072E66127620020A062C4F824809F
:100C3000002506E004F1140101EBC50001F03CFCC5
:100C40006D1C012DF6DBBDE8F08710B502460020D3
:100C500001460EE002F1140303EBC100D0E90043AA
:100C60006360D0E9003423604060006000BF481C2E
:100C700001460129EEDB10BD10B520A001F0FEFBFE
:100C80002148017821A001F0F9FB1F48007800F00D
:100C9000010010B123A001F0F1FB1B48007800F027
:100CA000020010B122A001F0E9FB1748007800F023
:100CB000040010B121A001F0E1FB1348007800F01E
:100CC000080010B121A001F0D9FB0F48007800F016
:100CD000100010B120A001F0D1FB0B48007800F00B
:100CE000800030B108480F3001681DA001F0C6FB3C
:100CF00002E01FA001F0C2FB10BD0000627573206E
:100D00006661756C743A0A0029ED00E05343425F56
:100D1000434653525F424653523A30782530325858
:100D20002000000049425553455252200000000067
:100D3000505245434953455252200000494D5052AC
:100D4000454349534552522000000000554E53542C
:100D50004B4552522000000053544B455252200044
:100D60005343422D3E424641523A253038580A00FC
:100D70000A00000070B504460D4600F09FFC0020FC
:100D800070BD000010B51448006890F82100C0F351
:100D9000400020B9002011490870084610BD1048D5
:100DA000006838B180220E4801680C48FFF786FAC7
:100DB0000A48F3E700F0CAFF20B10AA10748FFF78D
:100DC00090FA03E009A10548FFF78BFA09A103484F
:100DD000FFF768FA0148E1E738000020AC03002083
:100DE0003C0000206D7368200000000066696E738F
:100DF000682000003E00000010B501F07DF910BD34
:100E00000549096891F8211060F34101024A12680E
:100E100082F821107047000038000020024A10605C
:100E2000024A116070470000280000202C000020BA
:100E30007FB5002514491548FFF7F0FF1448154900
:100E40000860154C0A2006214FF40072134BCDE9BF
:100E50000032CDE902100023114A12A1204601F010
:100E600011FF054600231A4610A10A48006801F048
:100E700049FD0120FFF7C4FF1CB115B9204601F060
:100E80006BFF002004B070BD703900080039000805
:100E90003403002038000020BC0000203401002072
:100EA000B50E0008747368656C6C00007368727826
:100EB00000000000E948006890F8210020F00100DF
:100EC000401CE649096881F82100FFF75BFF0546F1
:100ED00001F0D4FAC1E1FFF78FFF0446002C00DADD
:100EE000BBE11B2C05D10120DC49096881F82000F9
:100EF000B3E1DA48006890F8200001280DD15B2C9E
:100F000005D10220D549096881F82000A5E100201B
:100F1000D249096881F8200045E0D048006890F87F
:100F2000200002283FD10020CC49096881F8200028
:100F3000412C00D191E1422C00D18EE1442C11D101
:100F4000C6480068B0F8740058B1C5A001F096FA20
:100F5000C2480068B0F87400401EC0490968A1F892
:100F600074007AE1432C1ED1BC480068B0F87400CC
:100F7000BA490968B1F87210884213DAB7480068B4
:100F8000B0F87420B54800682230815CB5A001F04B
:100F900075FAB2480068B0F87400401CAF4909689F
:100FA000A1F8740059E10CB1FF2C00D155E1092CD6
:100FB0001FD1002503E0AAA001F060FA6D1CA7482C
:100FC0000068B0F87400A842F5DCA448006822303C
:100FD00002F042FAA14800682230FFF77BF980B2A4
:100FE0009E490968A1F872009C490968A1F874003B
:100FF00033E17F2C01D0082C6ED198480068B0F8FE
:10100000740000B929E195480068B0F87200401EEC
:1010100092490968A1F8720090480068B0F874001D
:10102000401E8E490968A1F874008C480068B0F829
:1010300072008A490968B1F8741088423FDD874B15
:101040001B68B3F87230854E3668B6F874609A1B28
:10105000824B1B68B3F874305B1C804E36682236B6
:1010600099197E4B1B68B3F874607C4B1B68223364
:10107000F01801F064FA002278480068B0F87210A5
:10108000764800682230425474480068B0F87420F2
:10109000724800682230111873A001F0EFF96F4810
:1010A0000068B0F8745003E06DA001F0E7F96D1C22
:1010B0006A480068B0F87200A842F5DA0BE06CA04C
:1010C00001F0DCF9002165480068B0F8722063483F
:1010D000006822308154C0E00D2C01D00A2C2BD1A5
:1010E00000F034FE012812D15C48006890F821001D
:1010F00000F0010010B15FA001F0C0F9574800688E
:10110000B0F8721055480068223000F081FDFFF7FA
:1011100039FE054601F0B2F95021504800682230EE
:10112000FFF7B5F800204D490968A1F872004B4956
:101130000968A1F8740090E048480068B0F87200AF
:10114000502804DB002045490968A1F87200434893
:101150000068B0F8740041490968B1F8721088421B
:1011600045DA3E4B1B68B3F872303C4E3668B6F831
:1011700074609A1B394B1B68B3F87460374B1B685B
:101180002233F118354B1B68B3F874305B1C334EB7
:1011900036682236981901F0D2F930480068B0F864
:1011A00074202E480068223084542C48006890F83F
:1011B000210000F0010050B128480068B0F8742008
:1011C00026480068223011182BA001F057F9234857
:1011D0000068B0F8745003E021A001F04FF96D1CD5
:1011E0001E480068B0F87200A842F5DC12E01B4807
:1011F0000068B0F8722019480068223084541748FB
:10120000006890F8210000F0010018B1214615A0F7
:1012100001F034F9002411480068B0F87200401C55
:101220000E490968A1F872000C480068B0F8740013
:10123000401C0A490968A1F8740008480068B0F821
:101240007200502808DB002004490968A1F87200E8
:1012500002490968A1F8740000BF3CE6380000208C
:101260000800000025630000082573202008000006
:10127000082008000A0000002573000010B514487B
:10128000006800F0020010B112A001F0F7F8104859
:10129000006800F0804088B10D48C01E007808B199
:1012A000FFF7EAFC0A48001F007808B100F0ECFBE9
:1012B0000748801E008808B102F098F904480068C9
:1012C00000F0004010B109A001F0D8F810BD0000F6
:1012D0002CED00E06661696C656420766563746F6F
:1012E000722066657463680A0000000064656275B8
:1012F00067206576656E740A0000000010B502A0D4
:1013000001F0BCF8002010BD48656C6C6F20525491
:101310002D546872656164210A00000010B50CA0AC
:1013200001F0ACF80F4804680CE002220EA120681E
:10133000FEF7E0FF00B904E00CA0216801F09EF880
:1013400000BF08340A4800688442EED3002010BD74
:101350002D2D46756E6374696F6E204C6973743AF7
:101360000A000000280000205F5F000025730A00CB
:101370002C0000202DE9F04704460D4616461F4676
:10138000284601F037F9814609F10408C4F80080C5
:1013900025726660E76000202061BDE8F0872DE9D6
:1013A000F84F07460C464FF0000A00202061E06825
:1013B00008B1207A10B90020BDE8F88FD4F8008079
:1013C0001FB945464FF0010A00E03D46FEF7CCFE4E
:1013D0000090BAF1000F0ED1A5F10C0B9BF808009C
:1013E00020F08000217A884204D00098FEF7C0FEE9
:1013F0000020E1E700BF0026D4F804900BE02D6840
:10140000454501D1002507E0761C49F8045BE068FA
:10141000B04200D100E0F2E700BF0098FEF7A8FE5E
:1014200026612846C8E700002DE9F04F91B000275B
:101430000FF2D409082304AA05210CA8FFF79AFF8C
:101440004FF008084A46414631A001F017F84046DF
:1014500000F0F6FC37A001F011F800BF0CA93846E7
:10146000FFF79DFF0746002545E004A850F825003A
:10147000A0F10C06FEF778FE8346307A20F080005B
:101480009DF83810884203D05846FEF771FE31E0CF
:101490005846FEF76DFE344604F1140001F024F8BE
:1014A000B8B904F1140001F037F88246208C618C41
:1014B00023460822CDE9010A0091414624A000F00C
:1014C000DDFF04F1140001F0E3FF27A000F0D6FFD8
:1014D0000FE004F1140001F01FF88246208C618CAB
:1014E00023460822CDE9010A009141461FA000F0E1
:1014F000C5FF00BF6D1C1098A842B6DC002FADD10F
:10150000002011B0BDE8F08F6D61696C626F7800EA
:10151000252D2A2E7320656E7472792073697A6581
:101520002073757370656E64207468726561640AF7
:1015300000000000202D2D2D2D20202D2D2D2D20C3
:101540002D2D2D2D2D2D2D2D2D2D2D2D2D2D0A001B
:10155000252D2A2E2A73202530346420202530346E
:10156000642025643A0000000A000000252D2A2E80
:101570002A732025303464202025303464202564EB
:101580000A0000002DE9F04F8FB000270FF2CC09C0
:10159000082302AA02210AA8FFF7ECFE4FF0080870
:1015A0004A46414630A000F069FF404600F048FC42
:1015B00034A000F063FF00BF0AA93846FFF7EFFE32
:1015C0000746002541E002A850F82500A0F10C06CE
:1015D000FEF7CAFD8346307A20F080009DF8301077
:1015E000884203D05846FEF7C3FD2DE05846FEF76B
:1015F000BFFD344604F1140000F076FFA8B904F1F1
:10160000140000F089FF8246A08B23460822414641
:10161000CDE9000A21A000F031FF04F1140001F02F
:1016200037FF17A000F02AFF0DE004F1140000F0CE
:1016300073FF8246A08B234608224146CDE9000A6B
:101640001AA000F01BFF00BF6D1C0E98A842BADC68
:10165000002FB1D100200FB0BDE8F08F73656D6130
:1016600070686F7265000000252D2A2E7320762089
:10167000202073757370656E642074687265616490
:101680000A000000202D2D2D202D2D2D2D2D2D2D4E
:101690002D2D2D2D2D2D2D0A00000000252D2A2E5B
:1016A0002A7320253033642025643A00252D2A2E04
:1016B0002A7320253033642025640A002DE9F04F79
:1016C000AFB04FF000090FF21C1B082321AA012123
:1016D00029A8FFF74FFE4FF0080A5A4651464348E3
:1016E00000F0CCFE504600F0ABFB41A000F0C6FE7F
:1016F00000BF29A94846FFF752FE81464FF0000877
:1017000065E021A850F82800A0F10C05FEF72CFD9B
:101710002E90287A20F080009DF8AC10884203D0EB
:101720002E98FEF725FD50E07822294603A8FEF703
:1017300095FD2E98FEF71CFD2C4694F835002346A7
:101740000822514600903AA000F098FE94F8340028
:1017500000F00F06012E03D138A000F08FFE15E037
:10176000022E03D138A000F089FE0FE01EB939A087
:1017700000F084FE0AE0042E03D139A000F07EFEC2
:1017800004E0032E02D139A000F078FEA76A00E041
:101790007F1C38782328FBD0D4E90A10791A401A24
:1017A00064214843E16AB0FBF1F00290216B206CA8
:1017B000CDE90001E369A06AC01AE36AC1181A46BC
:1017C0002DA0029B00F05AFE00BF08F101082D98E1
:1017D000404596DCB9F1000F8BD100202FB0BDE859
:1017E000F08F00007468726561640000A83800081A
:1017F000202D2D2D20202D2D2D2D2D2D2D202D2D4D
:101800002D2D2D2D2D2D2D2D202D2D2D2D2D2D2D15
:101810002D2D2D20202D2D2D2D2D2D20202D2D2D2C
:101820002D2D2D2D2D2D2D202D2D2D0A00000000CC
:10183000252D2A2E2A73202533642000207265610D
:1018400064792020000000002073757370656E6459
:101850000000000020696E69742020200000000054
:1018600020636C6F73652020000000002072756E8D
:101870006E696E67000000002030782530387820CF
:1018800030782530387820202020253032642525F6
:1018900020202030782530387820253033640A0025
:1018A0002DE9F04790B000270FF2B409082303AAEE
:1018B0000A210BA8FFF75EFD4FF008084A46414693
:1018C00029A000F0DBFD404600F0BAFA30A000F09D
:1018D000D5FD00BF0BA93846FFF761FD074600267E
:1018E0002DE003A850F82600A0F10C04FEF73CFC04
:1018F0008246207A20F080009DF83410884203D080
:101900005046FEF735FC19E05046FEF731FC2546FF
:10191000D5E909012B460822CDE90001414625A061
:1019200000F0ACFD687A00F0010018B127A000F0CB
:10193000A5FD02E028A000F0A1FD00BF761C0F98D5
:10194000B042CEDC002FC5D101F09CFA04462146FE
:1019500025A000F093FD002010B0BDE8F087000046
:1019600074696D6572000000252D2A2E7320207089
:101970006572696F64696320202074696D656F7595
:101980007420202020202020666C61670A0000005F
:10199000202D2D2D2D2D2D2D2D2D2D202D2D2D2D91
:1019A0002D2D2D2D2D2D202D2D2D2D2D2D2D2D2D74
:1019B0002D2D0A00252D2A2E2A7320307825303827
:1019C0007820307825303878200000006163746911
:1019D00076617465640A00006465616374697661A8
:1019E0007465640A0000000063757272656E74208D
:1019F0007469636B3A3078253038780A000000004B
:101A0000FEF74EFDFEF79EFC01201749086064209A
:101A100001F052F900201549C1F8A0014FF47A7085
:101A200001F04AF91EE001200F490C3908604FF41B
:101A30007A7001F041F900200C49C1F894014FF48B
:101A40007A7001F039F90120094908604FF47A7081
:101A500001F032F900200749C1F894014FF47A707F
:101A600001F02AF9DFE70000A08121420080214235
:101A7000940123420000234210B5044600F0E8FA26
:101A8000FFF7BEFF10BD000010B51CA000F0F6FC73
:101A90001F4801781FA000F0F1FC1D48007800F0FD
:101AA000010010B121A000F0E9FC1948007800F015
:101AB000020010B120A000F0E1FC1548007800F011
:101AC000080010B11FA000F0D9FC1148007800F008
:101AD000100010B11EA000F0D1FC0D48007800F0FD
:101AE000800030B10A480C3001681CA000F0C6FC30
:101AF00002E01EA000F0C2FC10BD00006D656D206C
:101B00006D616E616765206661756C743A0A0000EC
:101B100028ED00E05343425F434653525F4D465326
:101B2000523A307825303258200000004941434372
:101B300056494F4C200000004441434356494F4C06
:101B4000200000004D554E53544B4552522000008A
:101B50004D53544B45525220000000005343422D38
:101B60003E4D4D41523A253038580A000A000000D7
:101B70002DE9F04781460026002799F8000028B992
:101B80000021084600F0A8F8BDE8F0871B4804686B
:101B900027E006221AA12068FEF7ACFB00B11FE087
:101BA000206800F106084846FEF794FB824652463C
:101BB00041464846FEF79EFB88B926B94746384657
:101BC000FEF788FB06464146384601F08CFC054688
:101BD000B54200DA2E4641460BA000F04FFC00BF94
:101BE00008340A4800688442D3D327B132463946C4
:101BF000484600F052FF00BFC6E700002800002062
:101C00005F5F636D645F000025730A002C00002095
:101C100038B504460D4601E0641C6D1E207820286E
:101C2000FAD020780928F7D00DB9002038BD6A46CF
:101C300029462046FEF770FF08B90098F6E72046CF
:101C400000E0401C0178202902D001780029F8D159
:101C500000210170214603A000F010FC4FF0FF307E
:101C6000E4E7000025733A20636F6D6D616E6420B8
:101C70006E6F7420666F756E642E0A002DE9F04158
:101C800006460D4600271048046815E006220FA1FD
:101C90002068FEF72FFB00B10DE02168881D2A4661
:101CA0003146FEF727FB28B9A81D2168085C08B952
:101CB000676805E000BF0834064800688442E5D341
:101CC00000BF3846BDE8F081280000205F5F636DEB
:101CD000645F00002C00002070B505460E460EA083
:101CE00000F0CCFB134804680DE0062212A1206826
:101CF000FEF700FB00B105E02068811D10A000F098
:101D0000BDFB00BF08340F4800688442EDD30EA02D
:101D100000F0B4FB002070BD52542D546872656110
:101D200064207368656C6C20636F6D6D616E6473A5
:101D30003A0A0000280000205F5F636D645F0000C6
:101D4000257320002C0000200A00000001207047AD
:101D50002DE9F04782460E4690465446002500275E
:101D600055E003E000202070641C6D1C20782028C2
:101D700002D02078092801D1B542F3D3082F12D31D
:101D800026A000F07BFB4FF0000906E058F8291070
:101D90002AA000F073FB09F10109B945F6D326A08A
:101DA00000F06CFB35E0B54200D332E02078222809
:101DB0001CD1641C6D1C48F827407F1C09E020786A
:101DC0005C2804D16078222801D1641C6D1C641C3D
:101DD0006D1C2078222801D0B542F0D3B54200D343
:101DE00017E000202070641C6D1C10E048F82740AC
:101DF0007F1C01E0641C6D1C2078202804D0207812
:101E0000092801D0B542F5D3B54200D301E0B5426F
:101E1000A7D300BF3846BDE8F0870000546F6F209D
:101E20006D616E7920617267732021205765206F84
:101E30006E6C79205573653A0A0000002573200006
:101E400010B5044602E004A000F018FB201EA4F127
:101E50000104F8D110BD00002D0000002DE9F04F65
:101E600086B00D469C46DDE9106401960F9B04F098
:101E70004008B8F1000F02D0DFF8708101E0DFF810
:101E80007081CDF8008004F01008B8F1000F01D087
:101E900024F0010404F00108B8F1000F02D04FF063
:101EA000300801E04FF02008C246002704F0020885
:101EB000B8F1000F11D0002A02DA2D2752420CE0AF
:101EC00004F00408B8F1000F01D02B2705E004F05E
:101ED0000808B8F1000F00D02027002142B94FF0C8
:101EE000300B8846491C0DF1080909F808B01DE0BF
:101EF0001AE0E146B9F10A0F08D14FF00A0BB2FB24
:101F0000FBFE0BFB1E28B2FBFBF202E002F00F0807
:101F1000120900BFDDF8009019F808B08846491C86
:101F20000DF1080909F808B0002AE2D1B14200DD3C
:101F30000E469B1B04F01108B8F1000F10D117B129
:101F4000002B00DD5B1E06E0A84203D24FF0200804
:101F500080F80080401CB3F10008A3F10103F3DC1A
:101F600027B1A84200D207705B1E401C04F0100885
:101F7000B8F1000F0AD104E0A84201D280F800A015
:101F8000401CB3F10008A3F10103F5DC06E0A84210
:101F900003D24FF0300880F80080401CB046761E17
:101FA0008845F4DC08E0A84205D20DF1080818F8CD
:101FB000018080F80080401CB1F10008A1F101010E
:101FC00004DDDDF80480B8F1000FECD106E0A84292
:101FD00003D24FF0200880F80080401CB3F10008C5
:101FE000A3F10103F3DC06B0BDE8F08F96380008DA
:101FF000853800087FB50A4C14200221CA01094B1C
:10200000CDE90032CDE902100023074A07A120469E
:1020100000F038FE0546204600F09EFE7FBD000021
:102020003005002030040020791A00086D61696EC7
:102030000000000010B5044C02E020688047241D19
:1020400002488442F9D310BDF0380008F438000883
:1020500010B5044C02E020688047241D02488442E9
:10206000F9D310BDF4380008FC38000810B5FEF7AD
:102070007BF8044604480088401C00B202490880EE
:102080002046FEF775F810BD9800002010B5FEF749
:102090006BF804460C480088401E00B20A490880CC
:1020A0000846B0F9000000280ADC0020088020461D
:1020B000FEF75EF80548006828B100F08FFB02E0EB
:1020C0002046FEF755F810BD980000209C00002027
:1020D00010B5FEF73FFB074800684FF47A71B0FB7C
:1020E000F1F42046FEF7C0FCFFF7A4FF01F00CFA64
:1020F00010BD00000000002008B50020009004E0A2
:102100004FF0FF31054800F02DFC6946044800F00F
:10211000F4FA0128F4D19DF8000008BD7C070020E6
:10212000700700202DE9F0410546002400260D2708
:10213000284600F0A9FC064600BF09E0285D0A28F1
:1021400002D1384601F044FA285D01F041FA641CDE
:10215000B442F3D3BDE8F08170B505462C1D30487C
:10216000006838B128462E4909688847064606B9EE
:1021700070BD00BF2BA0E16B00F080F92DA0216A9B
:1021800000F07CF92FA0616A00F078F931A0A16A13
:1021900000F074F933A0E16A00F070F935A021680D
:1021A00000F06CF937A0616800F068F939A0A16807
:1021B00000F064F93BA0E16800F060F93DA02169FE
:1021C00000F05CF93FA0616900F058F941A0A169F5
:1021D00000F054F943A0E16900F050F945A0216BEB
:1021E00000F04CF947A0616B00F048F949A0A16BE1
:1021F00000F044F9287800F0040048B100F084FDB4
:102200000646314647A000F039F9FFF757FA02E0D9
:102210004CA000F033F9FFF731F800BFFEE70000F3
:102220004C0000207073723A203078253038780ADC
:10223000000000007230303A203078253038780ABB
:10224000000000007230313A203078253038780AAA
:10225000000000007230323A203078253038780A99
:10226000000000007230333A203078253038780A88
:10227000000000007230343A203078253038780A77
:10228000000000007230353A203078253038780A66
:10229000000000007230363A203078253038780A55
:1022A000000000007230373A203078253038780A44
:1022B000000000007230383A203078253038780A33
:1022C000000000007230393A203078253038780A22
:1022D000000000007231303A203078253038780A1A
:1022E000000000007231313A203078253038780A09
:1022F000000000007231323A203078253038780AF8
:1023000000000000206C723A203078253038780ABE
:10231000000000002070633A203078253038780AB9
:102320000000000068617264206661756C74206F43
:102330006E207468726561643A2025730D0A0D0A77
:102340000000000068617264206661756C74206F23
:102350006E2068616E646C65720D0A0D0A000000E3
:10236000F0B504460D461646301D20F007004038F3
:102370000146002203E00C4F41F82270521C102A43
:10238000F9D30D624FF0000CC1F824C0C1F828C089
:10239000C1F82CC0C1F830C04B638C634FF0807C17
:1023A000C1F83CC0F0BD0000EFBEADDE10B5FDF7DA
:1023B000DBFE044604480078401C034908702046B0
:1023C000FDF7D6FE10BD00005400002010B5FDF74B
:1023D000CBFE044604480078401E0349087020469E
:1023E000FDF7C6FE10BD00005400002070B5044685
:1023F0002068A0F11405284600F068FC002070BD9C
:102400002DE9F04105460C469046204600F0BAFC06
:10241000B8F1000F03D0B8F1010F23D105E004F1AA
:102420001401284600F059F81CE02E680FE0A6F1D0
:10243000140794F8350097F83510884206DA04F14D
:10244000140107F1140000F048F802E03668AE42CB
:10245000EDD100BFAE4204D104F11401284600F0D2
:102460003CF800BF00BF0020BDE8F08110B5044675
:1024700004F1140000F01AF8002010BD0FB438B5B4
:1024800005A800907F210848009B049A00F02EFECA
:1024900004467F2C00D97F240348FFF743FE002029
:1024A000009038BC5DF814FBA0060020406000607E
:1024B000704740600060704740600060704702688D
:1024C000516002680A6001604860704702685160AC
:1024D00002680A60016048607047426811604268A3
:1024E0004A6041600860704701460868884201D12F
:1024F000012070470020FCE701460868884201D1AE
:10250000012070470020FCE701460868884201D19D
:10251000012070470020FCE7014600200A4601E048
:102520001268401C13688B42FAD17047D0E9002131
:102530005160D0E90012116040600060704770B5D2
:102540000C46014623468B4210D29D188D420DD970
:102550001144134405E05D1E2B462E784D1E29467E
:102560002E70151EA2F10102F5D108E003E013F868
:10257000015B01F8015B151EA2F10102F7D170BDEC
:10258000F0B50C460546E6B2042A15D300F0030761
:1025900097B9014646EA062343EA034304E008C12B
:1025A00008C108C108C1103A102AF8D201E008C1D8
:1025B000121F042AFBD20D4601E005F8016B171E1D
:1025C000A2F10102F9D1F0BD70B5044600202072DD
:1025D000FDF7CAFD054604F10C00D0E90021516069
:1025E000D0E9001211604060006000BF2846FDF78E
:1025F000BFFD70BD024600210AE0074800EB011054
:102600000078904203D1044800EB01107047491C48
:102610000429F2DB0020F9E7580000202DE9F047FB
:1026200004460D46904600262846FFF7E3FF07467E
:10263000FFF71CFD7E6802E0A6F10C003668381D2D
:102640008642F9D1FFF722FD45F080002072082272
:102650004146204600F021FAFDF786FD8146381DEF
:1026600004F10C010268516002680A600160486070
:1026700000BF4846FDF77CFDBDE8F0870146087ABB
:1026800000F0800008B1012070470020FCE70146FF
:1026900000BF88884008CA88B0EB520F0BD1087978
:1026A00000F001008A7902F00102904201D100207D
:1026B00002E0012000E0022020B1012804D002281D
:1026C00005D105E000207047B1F90800FBE700BF25
:1026D000C88840088A88B0EB520F05DDC8884008DA
:1026E0008A88A0EB5200EEE788884008CA88A0EBF1
:1026F0005200B1F90820101AE5E710B503460C4660
:102700001846FFF7C4FF08B9002010BD9988186863
:1027100000EB510000782070B3F90800401E998842
:10272000B0EB510F0BD11879C043998860F30001C9
:1027300099800021988861F34F00988007E098887D
:10274000012101EB5000998860F34F01998001202D
:10275000DBE710B50024838864F34F035C089BB269
:1027600064F3000383800024C38864F34F035C0890
:102770009BB264F30003C380016022F00303038172
:1027800010BD10B503460C461846FFF780FFB3F99D
:102790000810081A00D110BDD988186800EB510044
:1027A0000470B3F90800401ED988B0EB510F0BD16B
:1027B0009879C043D98860F30001D9800021D88876
:1027C00061F34F00D88007E0D888012101EB500069
:1027D000D98860F34F01D9800120DCE72DE9F04171
:1027E000FDF7C2FC07461848008838BB1748006848
:1027F000FEF752F9461E164850F83600A0F11404B0
:1028000014480068844218D013490E7011480568B6
:1028100004601248007850B904F11C0105F11C0055
:10282000FDF7A9FC3846FDF7A3FCBDE8F08104F1F3
:102830001C0105F11C00FDF79EFC00BF3846FDF7AA
:1028400097FC00BFF1E7000098000020A4000020E2
:10285000200700209C000020A00000205400002041
:1028600070B50446FDF780FC054614F8340F20F0DF
:102870000F0040F0010020706278343C0A4B03EBFB
:10288000C20004F114014268116042684A6041606C
:10289000086000BF0549A06B096808430349086048
:1028A0002846FDF765FC70BD20070020A40000202D
:1028B00070B50446FDF758FC054604F11400D0E954
:1028C00000215160D0E9001211604060006000BF3B
:1028D00094F83510094A02EBC1000168814201D128
:1028E000012100E0002129B10548A16B006888435F
:1028F000034908602846FDF73BFC70BD2007002017
:10290000A40000202DE9F04104460D4616461F465E
:102910002A4602212046FFF781FE2046FFF7A6FD4A
:10292000A68367720020BDE8F08170B504460025DB
:10293000FDF71AFC064604F11400FFF7DDFD28B987
:1029400004F11400FFF752FD012502E0A08B401CAA
:10295000A0833046FDF70CFC012D01D1FFF73EFFAF
:10296000002070BD73B50546FDF7FEFB0646A88B3B
:10297000002806DDA88B401EA8833046FDF7F8FB33
:1029800028E0019828B93046FDF7F2FB6FF001000E
:102990007CBD00F0B9F90446002020636A7A214624
:1029A00005F11400FFF72CFD0198002809DD01AAAC
:1029B000002104F1440000F0C1FA04F1440000F0E9
:1029C00001FB3046FDF7D4FBFFF708FF206B08B191
:1029D000206BDDE70020DBE708B509A0FFF74EFD1F
:1029E0000AA0FFF74BFD12A0032301221946009015
:1029F00012A0FFF743FD19A0FFF740FD08BD00003E
:102A00000A205C207C202F0A000000002D20525458
:102A1000202D2020202020546872656164204F7092
:102A200065726174696E672053797374656D0A000D
:102A30004E6F76203137203230323000202F207C0C
:102A4000205C202020202025642E25642E25642053
:102A50006275696C642025730A00000020323030F2
:102A600036202D203230313920436F7079726967FA
:102A700068742062792072742D74687265616420B4
:102A80007465616D0A00000001460A4600E0521CB0
:102A900010780028FBD1501A704770B50346A2B1D8
:102AA00018460C4600BF14F8016B00F8016B3EB9E4
:102AB00002E0002500F8015B551E2A1EF9D102E054
:102AC000551E2A1EEFD100BF00BF184670BD000082
:102AD00010B500200B490880002405E00A4901EBED
:102AE000C400FFF7E6FC641C082CF7DB072007494D
:102AF0000870002006490860064908600648FFF78C
:102B0000D8FC10BD9800002020070020A000002065
:102B10009C000020A4000020A800002070B50848F8
:102B20000068FDF7B9FF451E064850F83500A0F1D2
:102B300014040548046004F11C00FDF74AFB70BD55
:102B4000A4000020200700209C00002010B50024D5
:102B500005E0044901EBC400FFF7AEFC641C002C47
:102B6000F7D010BDB00000207047000070B51248CB
:102B70000468FDF7F9FA05462046FFF799FE0420A0
:102B800084F8340004F1440000F0F4F92046FFF723
:102B900075FD012805D1206F18B92046FFF714FDF7
:102BA00004E004F114010548FFF789FC2846FDF70D
:102BB000DFFAFFF713FE70BD9C000020A800002084
:102BC00001E000F001F8FCE770B534E0FDF7CCFA65
:102BD0000546FDF797FF30B31A480068A0F11404CA
:102BE00004F11400D0E900215160D0E90012116015
:102BF0004060006000BFFFF739FA206F10B1204637
:102C0000216F88472046FFF739FD012808D120466B
:102C1000FFF7DAFCFFF73AFA2846FDF7A9FA70BD8C
:102C2000FFF734FA03E02846FDF7A2FAF7E7284653
:102C3000FDF79EFA00BFFDF765FF0028C6D100BF73
:102C4000EDE70000A80000201FB52020072180220A
:102C5000074BCDE90032CDE902100023054A06A159
:102C6000074800F00FF8064800F076F81FBD000096
:102C700020060020C12B00087469646C6500000008
:102C8000A80500202DE9FF5F05460C4616461F46A5
:102C9000DDE910ABDDE90E89224601212846FFF768
:102CA000BDFC3B463246214628468DE8000FFDF725
:102CB00069FF04B0BDE8F09F70B50446204600F0FF
:102CC000C5F80546284600F025F870BD70B50446E5
:102CD00094F8340000F00F00022802D04FF0FF30CB
:102CE00070BDFDF741FA054604F11400FFF71EFC24
:102CF00004F1440000F0E2F92846FDF739FA2046D5
:102D0000FFF7AEFD0020EBE70148006870470000C8
:102D10009C00002031B5FDF727FA05460D480468F0
:102D2000204600F02FF86A46002104F1440000F02C
:102D300005F904F1440000F045F92846FDF718FABA
:102D4000FFF74CFD206B801C08B900202063002099
:102D500038BD00009C00002010B504463434A07833
:102D600060706178012088406060022004F83409B6
:102D70002046FFF7ABFFFFF7C7FF08B1FFF72EFDB7
:102D8000002010BD70B5044694F8340000F00F0028
:102D9000012802D04FF0FF3070BDFDF7E5F9054680
:102DA00094F8340020F00F0040F0020084F8340062
:102DB0002046FFF77DFD04F1440000F07FF928462E
:102DC000FDF7D6F90020E7E770B5044625466FF019
:102DD0000100286305F11400FFF7A8FB2846FFF760
:102DE0003FFDFFF7FBFC70BD70B5FDF7BDF9054673
:102DF0001448046894F8340000F00F0001281CD136
:102E0000D4E90510814218D004F11400FFF78EFBBD
:102E100094F835200C4B03EBC20004F11401426816
:102E2000116042684A604160086000BF2846FDF7B3
:102E30009FF9FFF7D3FC002070BD2846FDF798F9F5
:102E40000020F9E79C00002020070020014600290F
:102E500002DA4FF0FF3014E04FF47A7291FBF2F295
:102E60004FF47A7302FB03F01A4691FBF2F302FB74
:102E700013124FF47A735A4302F2E73292FBF3F2E1
:102E8000104470470148006870470000500000205F
:102E900010B50A480068401C08490860FFF734FF75
:102EA0000446206C401E2064206C18B9E06B20643E
:102EB000FFF79AFF00F004F810BD0000500000205A
:102EC00070B5FFF7DFFF0546FDF74EF9064628E02F
:102ED00019480068A0F11404A06A281A6FF0004194
:102EE00088421DD22046FDF7B0FED4E9071088477E
:102EF000FFF7C8FF0546607A00F0020058B1607A1B
:102F000000F0010038B1607A20F0010060722046C4
:102F100000F058F805E0607A20F00100607200E0EF
:102F200004E00548FFF7F0FA0028D1D000BF304692
:102F3000FDF71EF970BD0000B0000020034649B146
:102F4000012904D0022908D0032910D10AE0586AC7
:102F500010600CE01068586209E0587A20F0020016
:102F6000587204E0587A40F00200587200BF00BF67
:102F70000020704770B50446FDF7F6F80546204678
:102F8000FDF763FE2846FDF7F3F82046FFF71CFB2C
:102F9000002070BD2DE9F84307460C4615461E4635
:102FA000DDE9088922460A213846FFF737FB434608
:102FB000324629463846CDF80090FDF725FEBDE89B
:102FC000F88300002DE9F8430546FDF7CDF880466B
:102FD0002846FDF73AFE687A20F001006872404604
:102FE000FDF7C6F8FFF74EFF696A0844A862FDF7CF
:102FF000BBF880462F4F009700242AE019E05DF8C7
:1030000024201168142202EBC402881A826AAB6A77
:10301000D21A00D108E0826AAB6AD21A6FF000437C
:103020009A4200D20CE000BF5DF8240000684DF821
:1030300024005DF8240007EBC40149688842DED112
:1030400000BF2CB15DF824000830611C4DF8210050
:10305000641C002CD2D018480068401C1649086037
:103060000846066805F114010098FFF72FFA0224BC
:1030700012E006F0030060B9C4F1010305F1140287
:1030800002EBC301C4F101025DF82200FFF71EFA52
:1030900000E003E0B608641C012CEAD900BF687A9E
:1030A00040F0010068724046FDF762F80020BDE87C
:1030B000F8830000B0000020B800002070B504467E
:1030C000607A00F0010010B94FF0FF3070BDFDF7DD
:1030D0004BF805462046FDF7B8FD2846FDF748F8B1
:1030E000607A20F0010060720020EFE72DE9FF4FC9
:1030F00089B0804644460A9808EB0006464504D24B
:103100004FF0FF36A6EB08000A906FE10B980078AD
:10311000252806D0B44202D20B9800782070641C97
:1031200061E1002526E00B98401C0B900B9800787D
:103130002D2802D145F010051CE00B9800782B28B3
:1031400002D145F0040515E00B980078202802D143
:1031500045F008050EE00B980078232802D145F0D1
:10316000200507E00B980078302802D145F00105D2
:1031700000E000E0D7E700BF4FF0FF370B98007882
:1031800030380A2804D20BA800F09AF907460EE05E
:103190000B9800782A280AD10B98401C0B900C98A9
:1031A00080C80C90002F02DA7F4245F010054FF0E6
:1031B000FF390B9800782E281CD10B98401C0B90DF
:1031C0000B98007830380A2804D20BA800F078F960
:1031D00081460AE00B9800782A2806D10B98401CFB
:1031E0000B900C9850F8049B0C90B9F1000F01DA89
:1031F0004FF00009002004900B980078682803D055
:103200000B9800786C2805D10B98007804900B98E7
:10321000401C0B900A2005900B9800786F2875D001
:103220000CDC632813D004DC252870D058286FD11B
:103230008DE064286DD06928F9D18FE070286AD0BC
:10324000732825D0752878D07828F0D182E005F051
:10325000100040B904E0B44201D220202070641C68
:10326000781E071EF7DC0C9810F8041B0C90C8B2EF
:103270000790B44201D207982070641C04E0B44265
:1032800001D220202070641C781E071EF7DCAAE003
:103290000C98006806900C98001D0C90069808B9D0
:1032A0005CA006900698FFF7EFFB8346B9F1000F8C
:1032B00002DDCB4500DDCB4605F0100048B904E047
:1032C000B44201D220202070641C38467F1E58452D
:1032D000F6DC002008900BE0B44202D20698007899
:1032E0002070641C0698401C06900898401C0890AA
:1032F00008985845F0DB04E0B44201D22020207049
:10330000641C38467F1E5845F6DC6CE01CE015E076
:1033100028E022E0FFE7781C10B9082745F00105F6
:10332000CDE9007902950C9804C8102331460C9021
:103330002046FEF793FD044655E012E0B44201D268
:1033400025202070641C4EE0082005901DE045F00B
:10335000400500BF1020059017E000BF45F00205B2
:1033600000BF12E0B44201D225202070641C0B98EB
:10337000007830B1B44202D20B9800782070641CFF
:1033800002E00B98401E0B902DE000BF04986C28C3
:1033900007D10C9850F804AB0C9005F00200B8B1BE
:1033A00016E0049868280BD10C9830F8041B1FFA1B
:1033B00081FA0C9005F0020050B10FFA8AFA07E08A
:1033C0000C9850F804AB0C9005F0020000B100BF5F
:1033D000CDE900790295524631462046059BFEF71D
:1033E0003DFD044600BF0B98401C0B900B980078E5
:1033F00000287FF48BAE0A9838B1B44202D2002084
:10340000207002E0002006F8010CA4EB08000DB0CB
:10341000BDE8F08F284E554C4C2900000020704725
:1034200000207047002070470020704710B5FCF75F
:103430009BFEFEF74DFEFFF7CFFAFFF787FBFFF786
:1034400047FBFEF7D7FDFFF78FFBFFF7FDFBFFF70D
:1034500065FB002010BD000070B5044609A0FFF711
:103460000DF8FEF773FC012802D12046FEF780FB21
:10347000FDF788FC05462246294603A0FEF7FEFF1D
:1034800070BD00000A0000002573257300000000D5
:1034900070B5044625680CE0A5F11406314606A077
:1034A000FEF7ECFF2868A04202D004A0FEF7E6FF7A
:1034B0002D68A542F0D170BD257300002F000000DB
:1034C0000146002009E00B685A1C0A601A7800EBDC
:1034D000800302EB4302A2F130000A681278303A0E
:1034E0000A2AF0D3704710B503461A4601E0521C71
:1034F000491C107828B1087818B110780C78A042CF
:10350000F5D0D01A10BD00001CB51022274928485C
:10351000FFF71FF900231A4626A12948FFF7F2F901
:10352000012144F20400FDF71DF84FF40070ADF8DE
:10353000040003208DF8060018208DF8070001A96B
:103540002048FCF71EFF4FF48060ADF80400042013
:103550008DF8070001A91B48FCF713FF25208DF803
:10356000000003208DF801008DF8020001208DF885
:1035700003006846FCF7BEFF4FF4E13012490860D3
:1035800000208880C880088188810C2048810F48ED
:10359000FDF7FCF9012240F225510C48FDF7D1F965
:1035A00001210A48FDF78AF91CBD000060070020D0
:1035B000700700207368656C6C5F72780000000013
:1035C0007C070020000801409C07002000380140D3
:1035D00000BF0549098801F040010029F9D00249DE
:1035E000091D0880704700000038014010B51EA07A
:1035F000FEF744FF2048018820A0FEF73FFF1E4849
:10360000008800F0010010B122A0FEF737FF1A4831
:10361000008800F0020010B121A0FEF72FFF16482D
:10362000008800F0040010B120A0FEF727FF124828
:10363000008800F0080010B11EA0FEF71FFF0E4822
:10364000008800F4807010B11CA0FEF717FF0A4834
:10365000008800F4007010B11BA0FEF70FFF05A05A
:10366000FEF70CFF10BD0000757361676520666191
:10367000756C743A0A0000002AED00E05343425F83
:10368000434653525F554653523A307825303258AC
:1036900020000000554E444546494E5354522000E8
:1036A000494E56535441544520000000494E56504F
:1036B000432000004E4F435020000000554E414C27
:1036C00049474E454420000044495642595A455204
:1036D0004F20000010B5FFF77FF9002010BD68658E
:1036E0006C6C6F0076657273696F6E005F5F636DFF
:1036F000645F76657273696F6E006C6973745F7472
:103700006872656164005F5F636D645F6C697374A8
:103710005F746872656164006C6973745F73656D72
:10372000005F5F636D645F6C6973745F73656D00E8
:103730006C6973745F6D61696C626F78005F5F6361
:103740006D645F6C6973745F6D61696C626F780042
:103750006C6973745F74696D6572005F5F636D643B
:103760005F6C6973745F74696D6572006C69737402
:10377000005F5F636D645F68656C70005F5F636DC1
:10378000645F70730000000100020001000300018B
:10379000000200010004000100020001000300011A
:1037A0000002000100050001000200010003000109
:1037B00000020001000400010002000100030001FA
:1037C00000020001000600010002000100030001E8
:1037D00000020001000400010002000100030001DA
:1037E00000020001000500010002000100030001C9
:1037F00000020001000400010002000100030001BA
:1038000000020001000700010002000100030001A6
:103810000002000100040001000200010003000199
:103820000002000100050001000200010003000188
:103830000002000100040001000200010003000179
:103840000002000100060001000200010003000167
:103850000002000100040001000200010003000159
:103860000002000100050001000200010003000148
:103870000002000100040001000200010003000139
:1038800000020001003031323334353637383961C7
:103890006263646566003031323334353637383927
:1038A0004142434445460000252D2A2E7320707264
:1038B0006920207374617475732020202020207388
:1038C000702020202020737461636B2073697A65F7
:1038D000206D61782075736564206C656674207452
:1038E00069636B20206572726F720A0029340008C8
:1038F000213400081D340008310E0008253400086A
:10390000DE360008FD120008E4360008D53600084F
:10391000EC360008D5360008FA360008BD16000857
:1039200006370008BD16000818370008851500087E
:1039300021370008851500083037000829140008D1
:103940003D3700082914000850370008A118000866
:103950005B370008A11800086C3700081D13000829
:1039600071370008D91C00087C370008750D000865
:103970009039000800000020BC000000E40A0008A4
:103980004C3A0008BC000020F40A0000F40A0008C9
:1039900000A24A040000000000000000010203042D
:1039A00006070809000000000102030401020304E5
:1039B00006070809020406080000000000000000D5
:1039C00000000000000000000000000000000000F7
:1039D00000000000000000000000000000000000E7
:1039E0000000000000000000010000005C0000205A
:1039F0005C00002078000000020000006C00002045
:103A00006C00002020000000050000007C00002069
:103A10007C000020300000000A0000008C00002024
:103A20008C0000202C0000000000000000000000BE
:103A30000000000000000000000000000000000086
:0C3A40000000000000000000000000007A
:0400000508000145A9
:00000001FF
