:1029CF00312E34342054465420535049004C434444
:0B29DF005F573A004C43445F483A0049
:1019FB009000021219CA0000000012210474FFFFAC
:101A0B00FE1228B874FF900075F0A3F090000B74D1
:101A1B0020F0A374F8F0A3E4F0FBFDFC7F1CFE1296
:101A2B00225D90000B7420F0A374F8F0A3E4F07B1C
:101A3B0001FDFC7F3CFE12225D90000B7420F0A395
:101A4B0074F8F0A3E4F07B02FDFC7F5CFE12225DD8
:101A5B0090000B7410F0A374F8F0A3E4F0FB7D2856
:101A6B00FC7F14FE12225D90000B7410F0A374F82F
:101A7B00F0A3E4F07B017D28FC7F24FE12225D9015
:101A8B00000B7410F0A374F8F0A3E4F07B027D2834
:101A9B00FC7F34FE12225D90000B7410F0A374F8DF
:101AAB00F0A3E4F07B037D28FC7F44FE12225D90C3
:101ABB00000B7410F0A374F8F0A3E4F07B047D2802
:101ACB00FC7F54FE12225D90000B7410F0A374F88F
:101ADB00F0A3E4F07B057D28FC7F64FE12225D9071
:101AEB00000B7410F0A374F8F0A3E4F07B067D28D0
:101AFB00FC7F74FE12225D7BFF7A2979CF90000D5B
:101B0B0074F8F0A3E4F07D3CFCFFFE12266190001C
:101B1B0002E0FCA3E0FDA3E0FEA3E0FF90000A12AD
:101B2B0019BE90000E7405F0A374F8F0A3E4F07DD9
:101B3B003CFC7F68FE122375900002E0FCA3E0FDE5
:101B4B00A3E0FEA3E0FF7B0A7AD77923783C12153A
:101B5B00DA9000021219BE7FE87E031229EA74FFA5
:101B6B00FFFE1228B87BFF7A2979DC90000D74F800
:101B7B00F0A3E4F0FDFC7F0AFE12266190000C74CA
:101B8B0003F0A374F8F0A3E4F07BA0FAFDFC7F460E
:101B9B00FE12248C7BFF7A2979E390000D74F8F008
:101BAB00A3E4F07D14FC7F0AFE12266190000C74F6
:101BBB0002F0A374F8F0A3E4F07B50FA7D14FC7FE1
:101BCB0046FE12248CE4900000F0900000E0FFC36E
:101BDB0094045026EF75F028A4FFAEF02427FBE405
:101BEB003EFA90000CE4F0A3744FF07D287C0012B9
:101BFB00290E900000E004F080D07FE87E031229CC
:0B1C0B00EA74FFFFFE1228B8021A174F
:1000030000000000000000000080000000800100EC
:1000130000800100008001000080010000800100D9
:100023001080010CF0FFFF0F3080010430800104C9
:1000330030800104308001043080010430800104E9
:100043003080010430800104F0FFFF073080010499
:100053003080010400800100008001000080010065
:100063000080010000800100008001000080010089
:1000730000800100008001000080000000000000FB
:1000830000000000000000000000000000018001EB
:1000930000FFFF01000380010003800100FFFF0157
:1000A300000380010003800100FFFF010081810044
:1000B300000003000000031CFCFFFF3F00004000A2
:1000C3000003C00100FFFF010003C0000003C000E4
:1000D3000003C00000FFFF00000141000004010015
:1000E300000E710000078101800101076000010E0D
:1000F3001898011C04E0011800C000000000000073
:10010300000000000000000000000008F0FFFF1FD7
:100113003000000C3000000C3000100C30FE3F0C9F
:100123003004000C3000000C3000000C3000000CD8
:100133003000C00CF0FFFF0D3030060E3030060CDF
:100143003010060C3010060C3010060C3018860CDC
:100153003018860C3008060D300C860D3006EE0F75
:100163003002FC0D3001000CF000000C3000000CDC
:10017300F0FFFF0F3000000C10000004000000002F
:10018300000000000000000000C0000000C00100EB
:1001930000C0000000C0000000C0000000C000005C
:1001A300E0FFFF0360C0000360C0000360C0000302
:1001B30060C0000360C0000360C00003E0FFFF03F2
:1001C30060C0000360C0000360C0000360C00003A0
:1001D30060C00003E0FFFF0360C0000160C00000D7
:1001E30000C0000800C0001000C0001000C00018CC
:1001F30000C001380080FF1F000000000000000065
:1002030000000000000000000000000000000003E8
:10021300C0FFFF07000080070000C000000060006F
:100223000000180000000C000080030000800300A1
:1002330000800100008001080080011CFCFFFF3FDB
:1002430000800100008001000080010000800100A7
:100253000080010000800100008001000080010097
:100263000080010000800100008001000080010087
:1002730000FC010000E0000000400000000000005E
:10028300000000000000000000000000000000006B
:1002930000000008080808080808000018180000F3
:1002A30000486C2412000000000000000000000061
:1002B3000000002424247F1212127F121212000065
:1002C3000000081C2A2A0A0C1828282A2A1C0808B5
:1002D30000000022251515152A58545454220000F5
:1002E3000000000C1212120A76252911916E0000EB
:1002F30000060604030000000000000000000000E8
:1003030000402010100808080808081010204000BA
:10031300000204080810101010101008080402004E
:100323000000000008086B1C1C6B0808000000009C
:1003330000000000080808087F08080808000000FB
:100343000000000000000000000000000606040397
:100353000000000000000000FE000000000000009C
:10036300000000000000000000000000060600007E
:1003730000008040402020101008080404020200FE
:100383000000001824424242424242422418000024
:10039300000000080E08080808080808083E0000C6
:1003A3000000003C4242422020100804427E00002C
:1003B3000000003C4242201820404042221C000022
:1003C300000000203028242422227E2020780000F0
:1003D3000000007E0202021A26404042221C000056
:1003E300000000382402021A264242422418000068
:1003F3000000007E222210100808080808080000E8
:100403000000003C4242422418244242423C000085
:10041300000000182442424264584040241C00005B
:100423000000000000001818000000001818000069
:10043300000000000000000800000000000808049D
:1004430000000040201008040204081020400000AF
:100453000000000000007F0000007F00000000009B
:1004630000000002040810204020100804020000CD
:100473000000003C424246402010100018180000C3
:100483000000001C225A555555552D42221C0000D0
:100493000000000808181414243C224242E700001C
:1004A3000000001F2222221E22424242221F00007D
:1004B3000000007C4242010101010142221C0000B4
:1004C3000000001F2242424242424242221F0000D9
:1004D3000000003F4212121E12120242423F00006D
:1004E3000000003F4212121E121202020207000015
:1004F3000000003C2222010101712122221C000084
:10050300000000E7424242427E42424242E700008C
:100513000000003E0808080808080808083E000014
:100523000000007C10101010101010101010110F8C
:100533000000007722120A0E0A121222227700000C
:10054300000000070202020202020202427F0000D0
:1005530000000077363636362A2A2A2A2A6B00000C
:10056300000000E346464A4A525252626247000084
:100573000000001C2241414141414141221C000035
:100583000000003F424242423E02020202070000D4
:100593000000001C2241414141414D53321C600087
:1005A3000000003F4242423E1212222242C7000094
:1005B3000000007C4242020418204042423E0000F8
:1005C3000000007F4908080808080808081C000004
:1005D300000000E74242424242424242423C0000A3
:1005E300000000E7424222242414141808080000E3
:1005F3000000006B49494949555536222222000023
:10060300000000E7422424181818242442E70000BD
:10061300000000772222141408080808081C0000B0
:100623000000007E2120101008040442423F000015
:100633000078080808080808080808080808780067
:100643000000020204040808081010202020404083
:10065300001E1010101010101010101010101E009B
:10066300003844000000000000000000000000000B
:10067300000000000000000000000000000000FF78
:100683000006080000000000000000000000000059
:10069300000000000000003C4278444242FC00009D
:1006A300000000030202021A26424242261A0000F8
:1006B3000000000000000038440202024438000039
:1006C30000000060404040784442424264D8000049
:1006D300000000000000003C427E0202423C000099
:1006E300000000F08808087E08080808083E00009B
:1006F300000000000000007C22221C023C42423C1D
:10070300000000030202023A4642424242E700006E
:100713000000000C0C00000E08080808083E00004A
:100723000000003030000038202020202020221E2E
:100733000000000302020272120A1612227700005E
:100743000000000E0808080808080808083E000012
:10075300000000000000007F9292929292B7000086
:10076300000000000000003B4642424242E7000016
:10077300000000000000003C42424242423C0000B4
:10078300000000000000001B26424242221E020716
:10079300000000000000007844424242447840E0F8
:1007A30000000000000000774C040404041F000054
:1007B300000000000000007C42023C40423E00007A
:1007C300000000000008083E080808080830000080
:1007D30000000000000000634242424262DC00006D
:1007E30000000000000000E7422424140808000071
:1007F30000000000000000EB49495555222200008B
:10080300000000000000007624181818246E000071
:1008130000000000000000E7422424141808080721
:10082300000000000000007E22100808447E000043
:1008330000C0202020202010202020202020C000C5
:1008430010101010101010101010101010101010A5
:100853000006080808080810080808080808060021
:100863000C32C20000000000000000000000000085
:100873008000800080008000FC1F8410841084109E
:1008830084108410FC1F841080008000800080008E
:10089300F80F0808F80F0808F80F8000FF7F000022
:1008A300F80F08080808F80F80008410A220400001
:1008B3000000FE3F0220F22702200220FA2F22210D
:1008C30022212221122912290A2E0220FE3F022070
:1008D300800080008000FC1F841084108410FC1FA3
:1008E300841084108410FC1F845080408040007F5B
:1008F3000000FE1F00080004000280018000FF7F4B
:10090300800080008000800080008000A000400004
:100913001008B8080F0908090808BF0808091C09C6
:100923002C080A78CA0F09080808080808080808E4
:10093300080408040804C87F3F0408040804A83F07
:1009430018210C110B12080A0804080A8A116460A2
:10095300FFFFFFFFFFFFFFFFFFFFFFFFFFFFFFFFA4
:10096300FFFFFFFFFFFFFFFFFFFFFFFFBEF77DEF6F
:10097300BAD6B6B5F39CB294B39CB29434A5F7BD82
:10098300FBDE7DEFFFFFFFFFFFFFFFFFFFFFFFFF2B
:10099300FFFFFFFFFFFFFFFFFFFFFFFFFFFFFFFF64
:1009A300FFFFFFFFFFFFFFFFFFFFFFFFFFFFFFFF54
:1009B300FFFFFFFFFFFFFFFFBEF7FBDEF39CCB5AFA
:1009C300C739042182104210421041088318452977
:1009D300C7390C6375AD3CE7BEF7FFFFFFFFFFFFB1
:1009E300FFFFFFFFFFFFFFFFFFFFFFFFFFFFFFFF14
:1009F300FFFFFFFFFFFFFFFFFFFFFFFFFFFFFFFF04
:100A0300FFFFFFFFFFFF3CE7B2940842C3188210C9
:100A130004214529863186318631863145290421D1
:100A230082104108C3180842F39C3CE7FFFFFFFF15
:100A3300FFFFFFFFFFFFFFFFFFFFFFFFFFFFFFFFC3
:100A4300FFFFFFFFFFFFFFFFFFFFFFFFFFFFFFFFB3
:100A5300FFFFFFFFFBDE0C63C318C3184529C7392B
:100A6300084208420842084208420842C739C739C7
:100A730086318631042141088210CB5ABAD6FFFF52
:100A8300FFFFFFFFFFFFFFFFFFFFFFFFFFFFFFFF73
:100A9300FFFFFFFFFFFFFFFFFFFFFFFFFFFFFFFF63
:100AA300FFFFFBDECB5A82104529C73908420842B3
:100AB300094A494A494A494A494A494A0842C739B7
:100AC300C739C7398631452983180000C84138C65C
:100AD300FFFFFFFFFFFFFFFFFFFFFFFFFFFFFFFF23
:100AE300FFFFFFFFFFFFFFFFFFFFFFFFFFFFFFFF13
:100AF3007DEF8E7382104529C7390842094A8A520D
:100B03003084CF7B8A52494A4A52494ACB5ACF7BD7
:100B13000C630842C73986314529C3180000494A86
:100B2300BAD6FFFFFFFFFFFFFFFFFFFFFFFFFFFF40
:100B3300FFFFFFFFFFFFFFFFFFFFFFFFFFFFFFFFC2
:100B4300F39CC3180421C7390842494A494A72949D
:100B53007DEF7DEFB2944A52494A8A5275ADBEF792
:100B6300BAD64D6BC739C73986314529C3184108F1
:100B7300CF7B7CE7FFFFFFFFFFFFFFFFFFFFFFFFD1
:100B8300FFFFFFFFFFFFFFFFFFFFFFFFFFFFBAD6E0
:100B930008428210C7390842494A494A8E73FBDE2C
:100BA300FFFFBEF7BAD68E73084230843CE77DEF71
:100BB300FFFFB6B5494AC7398631452904214108A3
:100BC3004529B6B5FFFFFFFFFFFFFFFFFFFFFFFF55
:100BD300FFFFFFFFFFFFFFFFFFFFFFFFBEF7718C6C
:100BE300410845290842494A494A4A52B294BEF744
:100BF300BEF7B294CF7BCF7B494AB6B5F39C0C6367
:100C030038C6BAD60C638739C73986314529C31824
:100C1300410830847DEFFFFFFFFFFFFFFFFFFFFF72
:100C2300FFFFFFFFFFFFFFFFFFFFFFFF3CE7CB5A85
:100C33004108C7390842494A4A528A52F39CFFFF86
:100C43007DEFC739C3180C63CB5AB6B5B294CB5AF0
:100C530075ADFAD64D6B8739C739863145290421DD
:100C630041088A5279CEFFFFFFFFFFFFFFFFFFFF1F
:100C7300FFFFFFFFFFFFFFFFFFFFFFFF38C68631C8
:100C83000421C841494A494A4A52494AB18CBEF7EC
:100C9300BEF7B294CF7BCF7B494A74A57DEF7CE747
:100CA300BEF779CE0C63C739C7398631452904218C
:100CB3008210452975ADBEF7FFFFFFFFFFFFFFFF62
:100CC300FFFFFFFFFFFFFFFFFFFFFFFF34A58210C2
:100CD30086310842494A494A8A52494A4D6BBAD633
:100CE300FFFFFFFF79CE0D63C739CF7B7DEFFFFF9A
:100CF300FFFF75AD08428631C7398631452945293D
:100D0300C318C318B2947DEFFFFFFFFFFFFFFFFF80
:100D1300FFFFFFFFFFFFFFFFFFFFBEF7B28C41089E
:100D2300C7390842494A494A8A528A524A4AD07BB9
:100D33007AC67BBE906BC9398831C939B384BBC6C7
:100D4300F8B5CC5A8631C739C73986314529452983
:100D5300C420410830843CE7FFFFFFFFFFFFFFFF94
:100D6300FFFFFFFFFFFFFFFFFFFF3CE78A4AC310C0
:100D7300C7390842494A494A4A4A4A42093A084A4B
:100D8300096B497BC67A05834683C57AC672097B9C
:100D9300485A873188218829863186314529452952
:100DA300042141084A4ABAD6FFFFFFFFFFFFFFFFB6
:100DB300FFFFFFFFFFFFFFFFFFFFF7C58250054166
:100DC300C7290842494A4A42494A097B889BC6B314
:100DD30021D4A0DCE1E461ED61ED21EDA0E420DCB0
:100DE30080CB43ABC482065A4721462945290429AF
:100DF300041982108218F39C7DEFFFFFFFFFFFFFB2
:100E0300FFFFFFFFFFFFFFFF7DEF4D9300A082B8C1
:100E1300C7310932494A867A43C36BEDF4F6EBFDD9
:100E230020FD20FD60FDA0FDA0FD60FD60FD20FD17
:100E3300E0FCA0FC60F4C1DB839AC5494529041991
:100E4300C42082380050CB6ABAD6FFFFFFFFFFFFF2
:100E5300FFFFFFFFFFFFFFFFFBEE04A100C000F059
:100E6300C3A0C8414942059B20FCA4FC69FDE8FDE1
:100E730063FD20FD60FD60FD60FD20FD20FDE0FCC5
:100E8300E0FCA0FC60FC20FC41D3C5494519C438F3
:100E9300826841880070495A79CEFFFFFFFFFFFF48
:100EA300FFFFFFFFFFFFFFFFFBF682C000D086C1FD
:100EB30046F141C8457989528862866AC67AC4BBBD
:100EC300E1FC60FD60FDA0FDA0FD60FD60FDE0FCB8
:100ED30060E403938472446AC5414529C35841A819
:100EE300409800B000600C6B79CEFFFFFFFFFFFF5F
:100EF300FFFFFFFFFFFF7DEFCE83828800F8C4D89A
:100F03000CF38AFA82E882B04569C7510842083A6D
:100F1300865A839BA2BC22CD21CDA1C422B4C47A1C
:100F2300063A862945290531C450419000C000A8DE
:100F330000A000A800304A4ABAD6FFFFFFFFFFFF18
:100F4300FFFFFFFF7DEF8E73C318053982A800F8FA
:100F5300C3F84DFB4DFBC7F9C3F082D8C3B004817E
:100F6300456146518649864946414541454145418A
:100F730005490461829041B000D000C800A800A8D0
:100F830000B8415882108210B294BEF7FFFFFFFFF2
:100F9300FFFFBEF7CF7B8210042186298641049987
:100FA30040E841F886F9CBFA49FA82F800F800F0F4
:100FB30000E841D841D041C041C041C041C041C80F
:100FC30000D000E000E000D800D000B800A84188BD
:100FD3008248821082100000452979CEFFFFFFFF6F
:100FE300BEF7F39C8210C31845298631C731307C84
:100FF300F3DC86E100F000F841F841F800F800F86E
:1010030000F800F800F800F800F800F800F800F81D
:1010130000E800E000E000D800C841A08A9A0C6311
:10102300041182108210410800004D6B7DEFFFFF19
:10103300FBDE08424210452986318631494A38BED3
:10104300FFFF38D686A900C800E000F000F800F8DA
:1010530000F800F800F800F800F800F800F000F0DD
:1010630000E800E000D0C3988A8AB2A4BAC6F7B5F4
:10107300084241088210410800004529F7BDFFFFDF
:10108300718C410804214529863186310C633CE784
:10109300FFFF79D646B900E042C882A882B041D8A2
:1010A30082E882F041E841E841E841F041E841D873
:1010B30004C108924D8B34A5FBC6FBD6BACE3CE7E0
:1010C3003084C3184108410800004108CF7B7DEFFD
:1010D300494A000004214529463186313084FFFF07
:1010E300FFF7F7DD09DA83F801F042C08298499AE5
:1010F300F3B4F3CC71BC8EBB8EBB30BC71BCF3BC00
:10110300B6BDFBCEBEE77DE73BDFBAD679CEFBDECD
:1011130075AD86314108410800000000494AFBDEF5
:10112300042141080421452945298739B294FFFF49
:10113300BEF734DD0CEB09FA00F001D800D88BD2EE
:101143007DE7FFFFFFFFFFFFFFFFFFFFFFFFFFFF46
:10115300FFFFBEFF7DEFFBDEFBDEBAD679CEBAD64C
:1011630078C6C7390000410800000000C73979CEAE
:1011730000008210C318042105298631B39CFFFFA8
:10118300FFF775DDC7E9C7F901F801F000E849E2A7
:10119300FBEEFFFFFFFFFFFFFFFFFFFFFFFFFFFF71
:1011A300FFFFBEF77DEFFBDEFBDEBAD679CEBAD604
:1011B300B9CE08420000000000000000C73938C65D
:1011C3000000821082100421042145293084FFFF8E
:1011D300FFFF38DEC4D000F001F800F800F008D2B9
:1011E300FBE6FFFFFFFFFFFFFFFFFFFFFFFFFFFF29
:1011F300FFFFBEF77DEFFBDEBAD679CE79CEBAD646
:1012030079CEC7394108000000000000863138C696
:1012130000000000C318CB5A8631C318CB5A7DEFA8
:10122300FFFF7DEFCFBBC3B041D041D082B84DB3F8
:101233007DE7FFFFFFFFFFFFFFFFFFFFFFFFFFFF55
:10124300BEF7BEF73DEFFBDEBAD679CE79CEFAD63E
:10125300F7BD04218631042100000000863138C621
:101263008631C318CB5A75ADCF7B41088631F7BDA4
:10127300FFFFFFFFBEEF74B5309C309C72A4BBD65A
:10128300FFFFFFFFFFFFFFFFFFFFFFFFFFFFFFFF6B
:10129300BEF77DEF3CE7FBDEBAD679CE79CE3CE7ED
:1012A300718C81080C63CF7B821000008A5238C690
:1012B30075AD718CB6B53CE7FBDEC7390000CF7363
:1012C300FFFFFFFFFFFFFFFFFFFFFFFFFFFFFFFF2B
:1012D300FFFFFFFFFFFFFFFFFFFFFFFFFFFFBEF764
:1012E3007DEF7DEF3BDFFAD679CE79CEFBDEB9CE4B
:1012F300C739C420718CBAD6718CCB5AB294BAD682
:10130300FFFF7DEF7DEFFFFFFFFFB6B54629051910
:1013130075A5FFFFFFFFFFFFFFFFFFFFFFFFFFFFBE
:10132300FFFFFFFFFFFFFFFFFFFFFFFFFFFFBEF713
:101333007DEF3CE7FBDEBAD679CEBAD6FCDE4E6350
:1013430042080C63F7BDBEF7FFFFFBDEFBDEBEF713
:10135300FFFFFFFFFFFFFFFFFFFFFFFFF49C0421E1
:101363000521B6A5FFFFFFFFFFFFFFFFFFFFFFFF05
:10137300FFFFFFFFFFFFFFFFFFFFBEF7BEF77DEF9E
:101383003CE7FBDEBAD679CEFBDEBBD6D17383183E
:101393008639349DBDEFFFFFFFFFFFFFFFFFFFFF18
:1013A300FFFFFFFFFFFFFFFFBEFF35D6EBCC43B3CD
:1013B30040510519F58CBEEFFFFFFFFFFFFFFFFF55
:1013C300FFFFFFFFFFFFBEF7BEF77DEF7DEF3CE7BB
:1013D300FBDEBADEBAD63CDF3ABE4F63824940A396
:1013E30023B4CC833ABEFFFFFFFFFFFFFFFFFFFFE6
:1013F300FFFFFFFFFFFFBFF7B5BD829220F4A0FC04
:1014030060E4408284418F6B77AD3DE7FFFFFFFFD0
:10141300FEFFBEF7BEF7BEF77DEF7DEF3CE7FBDED9
:10142300FBDE3DE7BBCE369D0B6B416A60C420FEFD
:1014330060F5008BC76A38C6BEF7FFFFFFFFFFFFEB
:10144300FFFFFFFFFFFF7DEF4B7B80B2A0FCA0FC03
:10145300E0FCE0FCC0CBC18A45624D6BB394F7BDA1
:101463003DDFFFF7FFFFBEF77DEF7DEF7DE73DDF5C
:10147300BAC675A58D7B847A40B3E0ECE0FDE0FD50
:1014830060F520E5A0D40A6BFBDEFFFFFFFFFFFF43
:10149300FFFFFFFFFFFF7DEFCC9340EB60FCA0FC61
:1014A300E0FC20FD60FD20F5A0D4C0BB429B458B32
:1014B3006B9CAE9C718CB394339D34A5F2A4F0B4B1
:1014C300CA9B049B40BB20E420FDA0FDA0FDE0FDE2
:1014D300E0FDE0FD20C4885A38BEFFFFFFFFFFFF99
:1014E300FFFFFFFFFFFFFFFF78D646AB40DB20F493
:1014F30060FCA0FCE0FC60FDA0FD60FD20F5A0DC2D
:10150300C0B3C05186290D638F7B0D5BC741018238
:1015130000C3C0E360FCA0FCE0FCE0FC60F560F508
:1015230020E5809B8662308479CEFFFFFFFFFFFFBB
:10153300FFFFFFFFFFFFFFFFFFFF38C62D9C059353
:1015430043A382B3C2BBC2BB22B482A34293C37A76
:1015530085620B637184B6B579CE79C6B5AD7094E7
:101563004A8B06830493049B439B439B43930483CB
:1015730008738D73B39479CE7DEFFFFFFFFFFFFFF9
:10158300FFFFFFFFFFFFFFFFFFFFFFFF3CDF38BE53
:1015930075B533A533A5F39CF39CF39CF394F39CAB
:1015A30035A5F8BDFBDEBEF7FFFFFFFFFFFF7EEFB4
:1015B300BBD6F8BDB6AD75AD34A5339D349D35A509
:1015C300B7AD79C63CE7BEF7FFFFFFFFFFFFFFFFA5
:1029EA00EF4E60157D087C07ED1DAA0470011C4A94
:0929FA0070F6EF1F70EA1E80E781
:012A030022B0
:1029B100C294E4FEC290EF30E704D2918002C2914A
:0D29C100D290EF25E0FF0EEEB408E9D294AD
:0129CE0022E6
:0F2A1900122A397F05122A287F3A122A287F3A7B
:052A2800D2930229B168
:052A0400E0FEA3E0FF6D
:102A0900AD07AC06D293ECFF1229B1AF050229B18B
:052A3900C2930229B167
:10285E00900028EEF0A3EFF0A3ECF0A3EDF07F2AAA
:10286E00122A39900029E02401FF900028E034005C
:10287E00FE122A09EB2401FFE43AFE122A097F2BED
:10288E00122A3990002BE0241AFF90002AE034001F
:10289E00FE122A0990002FE0241AFF90002EE03439
:0A28AE0000FE122A097F2C022A39CD
:10210400C2927F147E001229EAD2927F147E0012BA
:1021140029EAD2957F11122A397F647E001229EAB6
:102124007F21122A397FB1122A197FB2122A197F0C
:10213400B3122A19122A1C7FB4122A397F03122AD5
:10214400287FC0122A397F62122A287F02122A2885
:102154007F04122A287FC1122A397FC0122A287FBD
:10216400C2122A397F0D122A28E4FF122A287FC3BB
:10217400122A397F8D122A287F6A122A287FC412D4
:102184002A397F8D122A287FEE122A287FC5122A27
:10219400397F0E122A287FE0122A397F10122A284A
:1021A4007F0E122A287F02122A287F03122A287FF0
:1021B4000E122A287F07122A287F02122A287F0754
:1021C400122A287F0A122A287F12122A287F27120D
:1021D4002A287F37122A28E4FF122A287F0D122A80
:1021E400287F0E122A287F10122A287FE1122A390A
:1021F4007F10122A287F0E122A287F03122A287F92
:1022040003122A287F0F122A287F06122A287F0207
:10221400122A287F08122A287F0A122A287F1312DA
:102224002A287F26122A287F36122A28E4FF122A17
:10223400287F0D122A287F0E122A287F10122A289E
:102244007F3A122A397F05122A287F36122A397FCB
:0922540078122A287F29022A3998
:0828B80090000FEEF0A3EFF019
:1028C00090002EE4F0A3744FF07B9F7A00E4FDFCAF
:1028D000FFFE12285EE4900011F0A3F0E4FBFA90F2
:1028E000000F122A040BBB00010AEB64504A70EF80
:1028F000900012E004F07006900011E004F0C39024
:0D2900000012E094A0900011E0940040CF80
:01290D0022A7
:10225D00900006EEF0A3EFF0A3ECF0A3EDF0A3EBEE
:01226D00F080
:10226E00A3E0FFB4100E90001074FFF0A37408F0FA
:10227E00A37473F0EFB4200E90001074FFF0A374EB
:10228E0000F0A37403F0900008E0FCA3E0FD9000C2
:10229E000BE0F9FF7E00900006E0FAA3E02FFFEEC0
:1022AE003ACF24FFFBEF34FFFAE9FFA3E0F8A3E0F7
:1022BE002FFFEE38CF24FFCF34FF90002EF0A3EF88
:1022CE00F0900006E0FEA3E0FF12285E90000BE007
:1022DE00F5F0A4AEF07803CEC313CE13D8F9900068
:1022EE0013F0E0FF90000AE08FF0A4FF900011E5DC
:1022FE00F08FF012187DE490000FF0900013E0FFC5
:10230E0090000FE0C39F505EE490000EF090000E20
:10231E00E0FFC39408503D900010E0FBA3E0FAA349
:10232E00E0F9121852FD7C0074017E00A8070880A7
:10233E0005C333CE33CED8F9FFEE5CFEEF5D4E60B3
:10234E000590000C8003900075122A0490000EE098
:10235E0004F080B9900011E475F00112187D900020
:06236E000FE004F0809571
:012374002246
:1027FE00900061FEE0FCA3E0FDC390005DE09DFD56
:0E280E0090005CE09C90005FFCE0FAA3E0FB11
:10281C00900022EEF0A3EFF0900026EAF0A3EBF08C
:10282C00900024ECF0A3EDF0900022E0FAA3E0FB82
:10283C00FFAE02C007A3E0FFA3E090002ECFF0A3F1
:10284C00EFF0D00712285E900026E0FEA3E0FF0216
:02285C002A0947
:10279D0090006FEEF0A3EFF0900073EAF0A3EBF072
:1027AD00900071ECF0A3EDF090006FE0FAA3E0FB68
:1027BD0024FFFFEA34FFFEC006C007ED24FFFDEC49
:1027CD0034FFFCEB2401FBE43AFAA3E0FEA3E02482
:1027DD0001FFE43E900054F0A3EFF0900073E0FF92
:1027ED00A3E0900056CFF0A3EFF0D007D00602275C
:0127FD001CBF
:10271C0090004EEEF0A3EFF0A3ECF0A3EDF0A3EAE3
:04272C00F0A3EBF03B
:10273000C007A3E0FFA3E090002ECFF0A3EFF0D0FE
:102740000712285E900050E0FFA3E0900058CFF001
:10275000A3EFF0900054E0FEA3E0FFD3900059E017
:102760009F900058E09E503490004EE0FEA3E0FBA6
:10277000AA06C3900053E09B900052E09A400D904F
:102780000056122A040BBB00010A80E6900059E0B3
:0C27900004F070BF900058E004F080B727
:01279C00221A
:0E1C1600900030EEF0A3EFF0A3ECF0A3EDF0A1
:101C2400E490003CF0A3F0A3F0A3F0900030E0FEB9
:101C3400A3E0FFC3EB9FFFEA9E900040F0A3EFF008
:101C4400900032E0FAA3E0FBC3900037E09BFE90E3
:101C54000036E09A900042F0A3CEF0900030E0FF0E
:101C6400A3E090004ACFF0A3EFF0A3EAF0A3EBF0D7
:101C7400900040E0FEA3E0FFD39400EE64809480E3
:101C8400400A900046E4F0A304F08021EF4E70086F
:101C9400900046F0A3F0801574FF900046F0A3F086
:101CA400C3E49FFFE49E900040F0A3EFF090004255
:101CB400E0FEA3E0FFD39400EE64809480400A9099
:101CC4000048E4F0A304F08027EF4E700890004829
:101CD400F0A3F0801B74FF900048F0A3F090004044
:101CE400E0FEA3E0FFC3E49FFFE49EA3F0A3EFF0B4
:101CF400900042E0FEA3E0FF900040E0FCA3E0FD82
:101D0400D39FEE6480F8EC6480989000444007EC24
:101D1400F0A3EDF08005EEF0A3EFF0E490003AF0CC
:101D2400A3F0900045E02401FF900044E03400FE5D
:101D3400C390003BE09F90003AE09E4003021E09DE
:101D440090004AE0FEA3E0FFA3E0FCA3E0FD9000C6
:101D540038122817900040E0FEA3E0FF90003DE019
:101D64002FF090003CE03EF0900042E0FEA3E0FF44
:101D740090003FE02FF090003EE03EF0900044E001
:101D8400FEA3E0FF90003CE0FCA3E0FDD39FEE64E3
:101D940080F8EC6480984020ED9FFFEC9E90003C1E
:101DA400F0A3EFF0900046E0FEA3E0FF90004BE0CC
:101DB4002FF090004AE03EF0900044E0FEA3E0FFE4
:101DC40090003EE0FCA3E0FDD39FEE6480F8EC6459
:101DD40080984020ED9FFFEC9E90003EF0A3EFF032
:101DE400900048E0FEA3E0FF90004DE02FF090004B
:101DF4004CE03EF090003BE004F0700690003AE0C6
:051E040004F0021D26A0
:011E090022B6
:10257B00900069EAF0A3EBF0900065EEF0A3EFF0AA
:10258B00A3ECF0A3EDF0C007A3E0FAA3E0FB9000EF
:10259B0067E0FFA3E0900036CFF0A3EFF090006D63
:1025AB00E0FFA3E0900038CFF0A3EFF0D007121CB0
:1025BB0016900065E0FAA3E0FBFFAE02C007A3E0B4
:1025CB00FCA3E0FD90006BE0FFA3E0900036CFF0A2
:1025DB00A3EFF090006DE0FFA3E0900038CFF0A3E5
:1025EB00EFF0D007121C1690006BE0FCA3E0FD90FF
:1025FB000069E0FAA3E0FBA3E0FFA3E0900036CF75
:10260B00F0A3EFF090006DE0FFA3E0900038CFF067
:10261B00A3EFF0900065E0FEA3E0FF121C16900004
:10262B0069E0FAA3E0FBFFAE02C007900067E0FC95
:10263B00A3E0FD90006BE0FFA3E0900036CFF0A38A
:10264B00EFF090006DE0FFA3E0900038CFF0A3EF28
:06265B00F0D007021C167E
:101E0A0090005AEEF0A3EFF0A3ECF0A3EDF0A903D3
:101E1A00E4900061F0A3F0E9FFA3E4F0A3EFF090EF
:101E2A000063E0FEA3E0FFD3900062E09FEE6480CF
:101E3A00F8900061E06480984003021FA5C39000F7
:101E4A005BE09FFF90005AE09E1227FE900063E03D
:101E5A00FEA3E0FF90005BE02FFF90005AE03E12E5
:101E6A0027FE900061E0FEA3E0FFC390005BE09FC5
:101E7A00FF90005AE09EFE900063E0FCA3E0FD9014
:101E8A00005DE02DFD90005CE03C1228139000619B
:101E9A00E0FEA3E0FFC390005BE09FFF90005AE0E2
:101EAA009E900063122801900063E0FEA3E0FF9079
:101EBA00005BE02FFF90005AE03EFE900061E0FCDC
:101ECA00A3E0FD90005DE02DFD90005CE03C12284F
:101EDA0013900061E0FEA3E0FF90005BE02FFF900B
:101EEA00005AE03EFE900063122802900061E0FE74
:101EFA00A3E0FF90005BE02FFF90005AE03EFE90C7
:101F0A000063E0FCA3E0FD90005DE02DFD90005C25
:101F1A00E03C122813900063E0FEA3E0FFC39000A8
:101F2A005BE09FFF90005AE09EFE900061E0FCA3F8
:101F3A00E0FD90005DE02DFD90005CE03C1228136E
:101F4A00900062E004F07006900061E004F09000F6
:101F5A0063E0FCA3E0FDFFAE0412186BAA06AB0710
:101F6A00900061E0FCA3E0FDFFAE0412186BEF2BBA
:101F7A00FDEE3AFCE9F5F0A4FFD3ED9FE5F06480AD
:101F8A00F8EC6480985003021E29900064E024FF54
:0B1F9A00F0900063E034FFF0021E290D
:011FA5002219
:101FA600900018ECF0A3EDF0A3EBF0900016EEF025
:031FB600A3EFF0A6
:101FB900900020EEF0A3EFF0D39490EE940040034C
:101FC900022103900018E0FCA3E0FD9440EC94008A
:101FD900400302210390001AE024E0F0900016E08B
:101FE900FAA3E0FFAE02C006C0072407FBE43AFAF1
:101FF900A3E0FEA3E0240FFFE43E90002EF0A3EF40
:10200900F0D007D00612285E90001BE06003022082
:1020190097F990001AE075F010A4FFE97C002FFFF2
:10202900EC35F0FE74832FF58274023EF583E49358
:1020390090001EF0E4A3F090001EE030E00590004F
:102049001C8003900075122A0490001EE0C313F04F
:10205900900017E004F07006900016E004F090007C
:102069001FE004F0E0C3940840CD900020E0FFA3F6
:10207900E0900016CFF0A3EFF0900019E004F070A3
:1020890006900018E004F009E96410708522E4F96B
:1020990090001AE075F010A4FFE97C002FFFEC35E1
:1020A900F0FE74832FF58274023EF583E493900069
:1020B9001EF0E4A3F090001FE0FFC3940850359090
:1020C900001EE030E021900017E02FFF900016E09D
:1020D9003400FEE9FD900019E02DFD900018E03470
:1020E9000090001C12281690001EE0C313F0A3E014
:0A20F90004F080C109E9641070963C
:0121030022B9
:10266100900006EEF0A3EFF0A3ECF0A3EDF0A3EBE6
:10267100F0A3EAF0A3E9F090000AE0FBA3E0FAA3DB
:10268100E0F9121852700302271BD3900007E0945F
:1026910090900006E094004012E4F0A3F09000094D
:1026A100E02410F0900008E03400F0D3900009E03D
:1026B1009440900008E094004011E4900006F0A3DB
:1026C100F0A3F0A3F0FF7EF81228B8900008E0FC18
:1026D100A3E0FDA3E0FBA3E0FAA3E0F9121852FB8B
:1026E100E490001BF090000DE0FFA3E090001CCFF0
:1026F100F0A3EFF0900006E0FEA3E0FF121FA6900A
:102701000007E02408F0900006E03400F090000B90
:0B271100E475F00112187D022678220A
:07296100C3EF9E14FD7F0A85
:08296800900016EFF0A3EDF062
:10297000A31219CA00000001900017E0FF14F0EF45
:102980006020A3E0F8A3E0F9A3E0FAA3E0FB900045
:1029900016E0FFE4FCFDFE1218939000181219BE19
:1029A00080D6900018E0FCA3E0FDA3E0FEA3E0FFCA
:0129B0002204
:10248C00900006EEF0A3EFF0A3ECF0A3EDF0A3EABE
:04249C00F0A3EBF0CE
:1024A000E4900011F090000FF090000CE0FF90001D
:1024B0000FE0FEC39F400302257A122961A804A9F8
:1024C00005AA06AB0790000AE0FEA3E0FFE4FCFDCE
:1024D00012191EE47B0AFAF9F812191E900010EB8B
:1024E000F0A3E0704C90000CE014FF90000FE0FEB1
:1024F000C39F503DA3E07033EE75F008A4FF900039
:1025000007E02FFF900006E035F0FE900008E0FCA9
:10251000A3E0FDE490001BF090000DE0FBA3E09031
:10252000001CCBF0A3EBF07B2080439000117401E2
:10253000F090000FE075F008A4FF900007E02FFF77
:10254000900006E035F0FEC007900008E0FCA3E034
:10255000FD900010E02430FBE490001BF090000D93
:10256000E0FFA3E090001CCFF0A3EFF0D007121F14
:0A257000A690000FE004F00224A979
:01257A00223E
:0E237500900006EEF0A3EFF0A3ECF0A3EDF065
:10238300E4900013F0FFFE7DC87C4290000AE0F861
:10239300A3E0F9A3E0FAA3E0FB1216CB1217D19046
:1023A3000014EEF0A3EFF0E4900011F090000EE0C3
:1023B300FF900011E0FEC39F400302248B122961AA
:1023C300A804A905AA06AB07900014E0FEA3E0FF4A
:1023D300E4FCFD12191EE47B0AFAF9F812191E90A7
:1023E3000012EBF090000EE0FF24FEFE900011E0DF
:1023F3006E704CEF24FEFFE434FFFEEF7803C3332B
:10240300CE33CED8F9FF900007E02FFF900006E00F
:102413003EFE900008E0FCA3E0FDE490001BF0907A
:10242300000FE0FBA3E090001CCBF0A3EBF07B2EAE
:10243300121FA6900011E004F090000EE004F0904B
:102443000011E075F008A4FF900007E02FFF900053
:1024530006E035F0FEC007900008E0FCA3E0FD9025
:102463000012E02430FBE490001BF090000FE0FF2B
:10247300A3E090001CCFF0A3EFF0D007121FA690AB
:082483000011E004F00223AF98
:01248B00222E
:10290E00C00790000CE0FFA3E090002ECFF0A3EFE5
:10291E00F0D00712285EE4FDFCED25E0FFEC33FE5F
:10292E0074542FF58274093EF583E493FF122A281E
:10293E00ED25E0FFEC33FE74532FF58274093EF55E
:10294E0083E493FF122A280DBD00010CBC06CABDFC
:02295E0040C770
:012960002254
:1015D30002183DE86480F8E933E83360110460F0F1
:1015E300ED33EC337009E8FCE9FDEAFEEBFF22047E
:1015F30060DED3EB9FEA9EE99DE8C2E78CF0C2F779
:1016030095F0400CE8CCF8E9CDF9EACEFAEBCFFB44
:1016130012180885D0F05804700320D5B3E804707D
:10162300075002B2D502184792D5EC0460F7E4CC18
:10163300C0E0C398F8603B94186008400DD0E0FB0D
:1016430002181FE4FBFAC9FC8028E830E406E4C969
:10165300FBE4CAFCE830E305E4C9CACBFCE8540761
:101663006010F8C3E913F9EA13FAEB13FBEC13FC6C
:10167300D8F130F52FC3E49CFCEF9BFFEE9AFEED0F
:1016830099FDD0E0FBEF4E4D4C701222DB030218A4
:1016930044EC2CFCEF33FFEE33FEED33FDED30E78E
:1016A300EB02181FEF2BFFEE3AFEED39FDD0E0FB06
:1016B30050130BBB0003021847ED13FDEE13FEEFAF
:0816C30013FFEC13FC02181FD9
:1016CB00EC4D6011E8497017ED33EC3304600DE419
:1016DB00FCFFFEFD22E933E8330470F802183D12DB
:1016EB00180858046009E4CC2481500628500902DC
:1016FB001847284003021844C0E0EB4A7044B980F5
:10170B0006D0E0FB021833EF4E701CBD8008EBFFD8
:10171B00EAFEE9FD80EBE98DF0A4FEE5F00217B4DB
:10172B00E9CDF9EAFEEBFFEF89F0A4FCE5F0CE89F9
:10173B00F0A42EFFE435F0CD89F0A42DFEE435F0B6
:10174B008067EF4E7005BD80D780C3EF8BF0A4ACE4
:10175B00F0EE8BF0A42CFCE435F0F8EF8AF0A42C1F
:10176B00E5F038FCE433CB8DF0A42CFCE5F03BF832
:10177B00EE8AF0A42CFCE5F038F8E433CF89F0A422
:10178B002CFCE5F038CF3400CE89F0A42FFFE5F028
:10179B003EFEE433C98DF0A42EFEE5F039CD8AF080
:1017AB00A42FFFE5F03EFEE43DFD33D0E0FB5007F8
:1017BB000BBB000F021847EC2CFCEF33FFEE33FE94
:0617CB00ED33FD02181FC2
:1017D100EDD2E7CD33EC3392D524814006E4FFFE10
:1017E100FDFC22FCE4CFCECDCC24E0501174FF806F
:1017F100EDC3CC13CCCD13CDCE13CECF13CF04700C
:07180100F030D5DE0219B042
:10180800E9D2E7C933E833F892D5EDD2E7CD33EC26
:0718180033FC5002B2D5229F
:10181F00EC30E7100FBF000C0EBE00080DBD00042A
:10182F000BEB6014A2D5EB13FCED92E7FD2274FFD6
:10183F00FCFDFEFF22E480F8A2D574FF13FC7D802F
:03184F00E480EF43
:03000000022A2DA4
:0C2A2D00787FE4F6D8FD7581070219FBE4
:10185200BB010689828A83E0225002E722BBFE0294
:09186200E32289828A83E49322C7
:10186B00EF8DF0A4A8F0CF8CF0A428CE8DF0A42E91
:02187B00FE224B
:10187D00C5F0F8A3E028F0C5F0F8E58215827002F6
:06188D001583E038F02293
:10189300E88FF0A4CC8BF0A42CFCE98EF0A42CFCF4
:1018A3008AF0EDA42CFCEA8EF0A4CDA8F08BF0A472
:1018B3002DCC3825F0FDE98FF0A42CCD35F0FCEBD1
:1018C3008EF0A4FEA9F0EB8FF0A4CFC5F02ECD3996
:0F18D300FEE43CFCEAA42DCE35F0FDE43CFC2203
:1018E20075F008758200EF2FFFEE33FECD33CDCCBD
:1018F20033CCC58233C5829BED9AEC99E582984040
:101902000CF582EE9BFEED9AFDEC99FC0FD5F0D61C
:10191200E4CEFBE4CDFAE4CCF9A88222B800C1B946
:101922000059BA002DEC8BF084CFCECDFCE5F0CB84
:10193200F97818EF2FFFEE33FEED33FDEC33FCEBBD
:1019420033FB10D703994004EB99FB0FD8E5E4F978
:10195200FA227818EF2FFFEE33FEED33FDEC33FC65
:10196200C933C910D7059BE99A4007EC9BFCE99A59
:10197200F90FD8E0E4C9FAE4CCFB2275F010EF2F9E
:10198200FFEE33FEED33FDCC33CCC833C810D7079E
:101992009BEC9AE899400AED9BFDEC9AFCE899F8D9
:0E19A2000FD5F0DAE4CDFBE4CCFAE4C8F9226C
:0E19B000C3E49FFFE49EFEE49DFDE49CFC2248
:0C19BE00ECF0A3EDF0A3EEF0A3EFF0229C
:1019CA00A8828583F0D083D0821219E11219E1121C
:1019DA0019E11219E1E473E493A3C583C5F0C58341
:1019EA00C8C582C8F0A3C583C5F0C583C8C582C867
:0119FA0022CA
:00000001FF
