:020000040800F2
:10000000780700209D010008AB150008270F0008A5
:10001000A9150008F3040008A51600080000000058
:10002000000000000000000000000000CF150008E4
:10003000F504000800000000CD150008D1150008E7
:10004000B7010008B7010008B7010008B7010008B0
:10005000B7010008B7010008B7010008B7010008A0
:10006000B7010008B7010008B7010008B701000890
:10007000B7010008B7010008B7010008B701000880
:10008000B7010008B7010008B7010008B701000870
:10009000B7010008B7010008B7010008B701000860
:1000A000B7010008B7010008B7010008B701000850
:1000B000B7010008B7010008B7010008B701000840
:1000C000B7010008B7010008B7010008B701000830
:1000D000B7010008B7010008B7010008B701000820
:1000E000B7010008B7010008B7010008B701000810
:1000F000B7010008B7010008B7010008B701000800
:10010000000000000000000000000000B70100082F
:10011000B7010008B7010008B7010008B7010008DF
:10012000B7010008B7010008B7010008B7010008CF
:10013000B7010008B701000800000000000000003F
:10014000B7010008B7010008B7010008000000006F
:10015000000000000000000000000000000000009F
:100160000000000000000000B7010008B70100080F
:10017000B7010008000000000000000000000000BF
:1001800000000000B7010008DFF80CD000F074F99F
:1001900000480047C5160008780700200648804739
:1001A00006480047FEE7FEE7FEE7FEE7FEE7FEE75C
:1001B000FEE7FEE7FEE7FEE73D16000889010008BE
:1001C0002DE9FE4F804681EA0300C00F0C460090E7
:1001D00021F0004123F00045B8EB0200A94105D20F
:1001E0004046214690461C460B46024623F00040FE
:1001F000104347D0270DC7F30A00C3F30A510290FA
:10020000401A019040286BDAC3F3130040F4801BBE
:100210000098924620B10023D2EB030A63EB0B0B4C
:1002200001985946C0F14002504600F096F8064643
:100230000D4650465946019A00F0AEF810EB080002
:100240006141002487EA115284EAE7731A4340D0DF
:10025000009A62B3019A012A4FEA075215DC001B8B
:1002600061EB02014FF0004202EA0752CDE9004281
:10027000001C41F5801132462B4600F0AEF803B069
:10028000BDE8F08F40462146F9E7001B61EB020113
:10029000001C41F5801300185B412018A2F50017DF
:1002A00047EB030140EAD570B6196D4111E06D08C6
:1002B0004FEA360645EAC0754FEA0752001B61EB6C
:1002C0000201001C41F5801149084FEA3000001975
:1002D000514132462B4603B0BDE8F04F00F06EB8F6
:1002E0000098012240000023D0EB020263EBE07390
:1002F000009821464FEAE074B8EB000061EB04017E
:10030000E9E783F000435BE781F0004158E70EB571
:1003100040F2334102910021CDE900110A460B461B
:1003200000F05BF803B000BDC1F30A5210B5C1F391
:10033000130140F2FF3341F480119A4201DA0020A8
:1003400010BD40F233439A42A2F2334203DC5242E0
:1003500000F012F810BD904010BD202A04DB203AB6
:1003600000FA02F1002070479140C2F1200320FA08
:1003700003F3194390407047202A04DB203A21FA06
:1003800002F00021704721FA02F3D040C2F12002AE
:100390009140084319467047202A06DBCB17203AC4
:1003A00041FA02F043EAE07306E041FA02F3D0407A
:1003B000C2F12002914008431946704710B5141E3F
:1003C00073F1000408DA401C41F1000192185B410E
:1003D0001A4301D120F0010010BD2DE9F04D9246E5
:1003E0009B4611B1B1FA81F202E0B0FA80F22032FC
:1003F0009046FFF7B2FF04460F4640EA0A0041EA82
:100400000B0153465A46084313D0114653EA0100E4
:1004100019D0C8F140025046FFF7AEFF05460E4620
:10042000504659464246FFF798FF084305D0012041
:1004300004E020463946BDE8F08D0020054346EA39
:10044000E0762C4337430A986305E40AA0EB0800E2
:100450000022FD0A44EA47540A3002D50020014632
:10046000E9E7010510196941DDE90845001969410D
:10047000BDE8F04DA2E70000064C074D06E0E0683D
:1004800040F0010394E8070098471034AC42F6D3DB
:10049000FFF77EFE142B0008342B000870B58C1873
:1004A00010F8015B15F0070301D110F8013B2A1188
:1004B00006D110F8012B03E010F8016B01F8016B75
:1004C0005B1EF9D12B0705D40023521E0DD401F871
:1004D000013BFAE710F8013BCB1A921C03E013F83A
:1004E000015B01F8015B521EF9D5A142D8D300206F
:1004F00070BDFEE77047000070B5044600F0D8F804
:100500000546601C02D004480078044400F0D0F88E
:10051000401BA042FAD370BD680300202DE9F84FBC
:10052000DFF864B100234FF0010C4FF0030A4FF0E5
:100530000F090BF1040EA0E00CFA03F6324072D062
:100540004C68022C01D0122C0ED1DC0800EB840880
:10055000D8F820405D07EF0E09FA07F5AC430D69A6
:10056000BD402543C8F8205007685D0091F804801D
:100570000AFA05F408F00308A74308FA05F848EA60
:100580000708C0F800804F68012F05D0022F03D064
:10059000112F01D0122F11D18768D1F80C80A743F9
:1005A00008FA05F848EA0708C0F808804768B74322
:1005B0000E79C6F300169E403E434660C668A643C9
:1005C0008C68AC403443C4604C68E40054D52F4C74
:1005D000A56945F00105A561A46923F0030504F0B0
:1005E000010400942A4C2E19B4689D072F0F09FAB4
:1005F00007F5AC43B0F1904F04D0264DA84203D18B
:10060000012512E0002510E0234DA84201D102256A
:100610000BE0224DA84201D1032506E0204DA8425F
:1006200002D1042501E027E00525BD402543B56042
:10063000DBF800405D464E689443F60300D5144352
:100640002C60DEF8004075464E689443B60300D532
:1006500014432C600C4D08352C684E689443F60208
:1006600000D514432C60084D0C352C684E6894431B
:10067000B60200D514432C605B1C0A6832FA03F4FE
:100680007FF45AAFBDE8F88F00040140001002402B
:10069000000001400004004800080048000C004829
:1006A000001000480AB18161704781627047000004
:1006B0000148806870470000680300200248816894
:1006C000027811448160704768030020074810B524
:1006D000016841F010010160032000F04BF8002098
:1006E00000F006F800F024F8002010BD00200240C1
:1006F00070B50D4D04464FF47A712878B1FBF0F0D7
:100700000A490968B1FBF0F000F0F5FB48B9102C7C
:1007100007D200222146501E00F00CF800206C6029
:1007200070BD012070BD00006803002000000020A3
:1007300070470000F0B40E4B1B680C46C3F3022355
:10074000C3F10705042D00D90425191D072901D27D
:10075000002300E0DB1E012606FA05F1491E2140B8
:1007600099409E40761E16403143F0BC00F01EBFFB
:100770000CED00E0064900F0070208684FF6FF03A1
:10078000184040EA0220034A104308607047000006
:100790000CED00E00000FA052DE9F0470F460500DA
:1007A00069D04A4E306800F00700B84209D230687C
:1007B00020F0070038433060306800F00700B8428E
:1007C00059D12878424C800705D56068A96820F087
:1007D000F000084360602878C0073DD069680120B8
:1007E00001290DD0022923D05FF0020393FAA3F26E
:1007F000B2FA82F242F02002520904D0226803E0E9
:100800004FF40033F2E7626A93FAA3F3B3FA83F387
:1008100003F01F03984002422DD0606820F00300CF
:1008200008436060FFF744FF804641F288390CE0DE
:100830004FF00073DAE700BFFFF73AFFA0EB0801C3
:10084000494502D90320BDE8F0876068696800F077
:100850000C00B0EB810FEFD1306800F00700B84218
:100860000BD9306820F0070038433060306800F062
:100870000700B84201D00120E5E72878400705D5F8
:100880006068E96820F4E060084360602878000749
:1008900006D56068296920F4605040EAC1006060B4
:1008A00000F022F86168F02292FAA2F201F0F00161
:1008B000B2FA82F2D140074A515CC840064908604A
:1008C0000020FFF715FF0020BDE7000000200240D8
:1008D0000010024074180008000000200148006861
:1008E0007047000000000020144B10B55A681448EF
:1008F00002F00C0104291DD008291BD14FF47014FB
:1009000094FAA4F402F47011B4FA84F4E1400D4CAA
:10091000DB6A615C0F2494FAA4F403F00F03B4FAC9
:1009200084F4E340074C1034D203E35C03D5B0FBFE
:10093000F3F0484310BD0448484310BD0010024086
:1009400000127A00F42A000800093D002DE9F84F52
:10095000040071D02078FB4DC0074FF0010625D070
:1009600068687704C0F38100012807D06868C0F385
:10097000810002281BD16868C00318D597FAA7F038
:10098000B0FA80F040F02000400901D0286800E073
:10099000686A97FAA7F1B1FA81F101F01F0106FA2E
:1009A00001F1084265D060680028D2D061E060683B
:1009B000B0F5803F0BD010B1B0F5A02F17D028684C
:1009C00020F480302860286820F4802002E0286825
:1009D00040F480302860E86AA16820F00F000843E6
:1009E000E862606820B3FFF763FE80460AE028688B
:1009F00040F480202860EAE7FFF75AFEA0EB0800E9
:100A0000642872D897FAA7F0B0FA80F040F020007E
:100A1000400901D0286800E0686A97FAA7F1B1FAA6
:100A200081F101F01F0106FA01F10842E4D020E053
:100A3000FFF73EFE804607E0C7E000BFFFF738FE45
:100A4000A0EB08006428DCD897FAA7F0B0FA80F091
:100A500040F02000400901D0286800E0686A97FA59
:100A6000A7F1B1FA81F101F01F0106FA01F1084284
:100A7000E4D12078DFF8D08280074FF0000A4FF0F1
:100A8000020759D568684FF0F80B10F00C0F07D02B
:100A90006868C0F3810002281BD16868C00318D4BD
:100AA00097FAA7F0B0FA80F040F02000400901D09A
:100AB000286800E0686A97FAA7F1B1FA81F101F0BD
:100AC0001F0106FA01F108422BD0206901287CD1D0
:100AD00027E0206988B396FAA6F0B0FA80F048F8CB
:100AE0002060FFF7E5FD814606E055E1FFF7E0FDF8
:100AF000A0EB0900022884D897FAA7F0B0FA80F09A
:100B000040F02000400901D0286800E0686A97FAA8
:100B1000A7F1B1FA81F101F01F0106FA01F10842D3
:100B2000E4D028689BFAABF26169B2FA82F220F055
:100B3000F80091400843286025E0FFE796FAA6F107
:100B4000B1FA81F148F821A0FFF7B2FD814605E036
:100B5000FFF7AEFDA0EB09000228CCD897FAA7F06A
:100B6000B0FA80F040F02000400901D0286800E091
:100B7000686A97FAA7F1B1FA81F101F01F0106FA4C
:100B800001F10842E4D1207800076AD5A069A0B33A
:100B900096FAA6F0B0FA80F008EB8000C0F8806406
:100BA000FFF786FD814605E0FFF782FDA0EB090017
:100BB0000228A0D897FAA7F0B0FA80F040F06000C1
:100BC000B6EB501F02D128680CE077E197FAA7F046
:100BD000B0FA80F040F06000B7EB501F01D1286AF6
:100BE00000E0686A97FAA7F1B1FA81F101F01F01FC
:100BF00006FA01F21042D7D033E0FFE796FAA6F0EA
:100C0000B0FA80F008EB8000C0F880A4FFF750FD38
:100C1000814605E0FFF74CFDA0EB090002289CD8B7
:100C200097FAA7F0B0FA80F040F06000B6EB501FE2
:100C300001D128680BE097FAA7F0B0FA80F040F0F5
:100C40006000B7EB501F01D1286A00E0686A97FA8C
:100C5000A7F1B1FA81F101F01F0106FA01F2104289
:100C6000D8D12078400774D5E8694FF00009C0005A
:100C700009D4E86940F08050E861E8694FF0010963
:100C800000F08050009031480168C90512D4016815
:100C900041F480710160FFF70BFD834606E000BF61
:100CA000FFF706FDA0EB0B00642875D82748006805
:100CB000C005F5D5E06801280AD008B1052811D093
:100CC000286A20F001002862286A20F0040002E06F
:100CD000286A40F001002862E068C8B3FFF7E8FC2A
:100CE00083460DE0286A40F004002862F0E700BF68
:100CF000FFF7DEFCA0EB0B0141F2883081424BD8BC
:100D000097FAA7F0B0FA80F040F04000B6EB501F21
:100D100001D128680BE097FAA7F0B0FA80F040F014
:100D20004000B7EB501F01D1286A00E0686A97FACB
:100D3000A7F1B1FA81F101F01F0106FA01F21042A8
:100D4000D6D035E000100240000042420070004062
:100D500000E034E0FFF7ACFC834607E0FFF7A8FCB7
:100D6000A0EB0B0141F28830814215D897FAA7F029
:100D7000B0FA80F040F04000B6EB501F01D1286877
:100D80000CE097FAA7F0B0FA80F040F04000B7EB23
:100D9000501F02D1286A01E083E0686A97FAA7F140
:100DA000B1FA81F101F01F0106FA01F21042D5D12A
:100DB000B9F1000F03D0E86920F08050E861E069E4
:100DC00080B36968C1F38101022977D04FF0807147
:100DD0004F00022809D091FAA1F0B0FA80F048F84B
:100DE00020A0FFF765FC04465EE050468A4691FA73
:100DF000A1F1B1FA81F1C14648F82100FFF758FC92
:100E0000804605E0FFF754FCA0EB0800022848D814
:100E100097FAA7F0B0FA80F040F02000400902D025
:100E2000286801E056E0686A97FAA7F1B1FA81F103
:100E300001F01F0106FA01F10842E3D1D4E90810DC
:100E40000843696821F47411084368609AFAAAF0AB
:100E5000B0FA80F049F82060FFF72AFC044604E06D
:100E6000FFF726FC001B02281BD897FAA7F0B0FA60
:100E700080F040F02000400901D0286800E0686A56
:100E800097FAA7F1B1FA81F101F01F0106FA01F119
:100E90000842E5D01EE000BFFFF70AFC001B022855
:100EA00002D90320BDE8F88F97FAA7F0B0FA80F0D6
:100EB00040F02000400902D0286801E00CE0686A98
:100EC00097FAA7F1B1FA81F101F01F0106FA01F1D9
:100ED0000842E1D10020E5E70120E3E74FF0E021FF
:100EE0000428086903D020F004000861704740F02E
:100EF0000400FAE7704710B5401EB0F1807F01D3BF
:100F0000012010BD4FF0E02460610F21601700F058
:100F10004DFB0020A06107202061002010BD10B50E
:100F2000FFF7E8FF10BDFEE72DE9F04107461C463C
:100F300015460E462A2000F099F9781C00F076F943
:100F4000681C00F073F92B2000F090F906F11A00EC
:100F500000F06CF904F11A0000F068F9BDE8F04106
:100F60002C2000F083B970B5064600214F239F2244
:100F70000846FFF7D9FF00240025304600F056F957
:100F80006D1C502DF9D3641CA02CF5D370BD10B589
:100F900014460B460246FFF7C7FF2046BDE8104047
:100FA00000F044B92DE9F05F1C4688468146902840
:100FB0002CD80846B8F1400F28D8203AD6B200F114
:100FC0000F0309F1070241464846FFF7ADFF1E48EF
:100FD000002C4FF000041BD04FEA000B04EB06116D
:100FE00000251BF8017008EB040AF80705D05146EC
:100FF00009EB05000A9AFFF7CAFF6D1C7F08EDB2E6
:10100000082DF2D3641CE4B2102CE7D3BDE8F09FA6
:10101000DFF838804FEA000904EB0611002519F8C3
:101020000170F80701D00A9801E0D8F8000000F03C
:10103000FDF86D1C7F08EDB2082DF2D3641CE4B2FC
:10104000102CE9D3E2E70000841800080400002017
:101050002DE9F0471C46DDF820A01646102B02D0E3
:10106000202C02D002E0174D00E0174D0B19021999
:10107000521E5B1EFFF758FF14FB04F0C0F3C707B6
:1010800016FB0756DFF8409000254FF00108A9F144
:10109000040912E00024317808FA04F0014201D07A
:1010A000504601E0D9F8000000F0C0F8641CE4B23A
:1010B000082CF0D36D1CEDB2761CBD42EAD3BDE81E
:1010C000F087000088020020080000202DE9F84F7A
:1010D00000261D4691468A4607463446DDF828809C
:1010E00025E0281B401EC1B20A2000F0BBFBB9FB63
:1010F000F0F00A21B0FBF1F201FB120026B9691EE3
:101100008C4201DA40B101263030C2B207EBC40094
:101110000023CDF8008005E0002307EBC400202267
:10112000CDF800805146FFF73DFF641CE4B2AC42AD
:10113000D7D3BDE8F88F00002DE9F84FDFED1D0A89
:101140009846154620EE200A8A4681460024BCEEC9
:10115000C00A10EE107A29E0281B401EC1B20A20F6
:1011600000F080FBB7FBF0F00A21B0FBF1F201FBCD
:101170001206A81E84420DD109EBC50000232E22C1
:1011800051461038CDF80080FFF70CFF641C6D1C31
:10119000E4B2EDB23036F2B209EBC400002351469E
:1011A000CDF80080FFF7FEFE641CE4B2AC42D3D35E
:1011B000BDE8F88F0000C84270B5FFF7B5FE094DD5
:1011C00000244FF4C86600BF05EB4400407800F0EF
:1011D0003FF815F8140000F03BF8641CB442F3DB50
:1011E00070BD0000741E00082DE9F8431F46164626
:1011F0000D4604464FF4784813E0902C01D90024A2
:101200001035402D04D9002425464046FFF7ABFE9B
:1012100000973278002329462046FFF7C3FE0834A2
:10122000761C30780028E8D1BDE8F88310B5044674
:10123000012220210548FFF735FAC4F3072000F00A
:1012400023F8E0B2BDE8104000F01EB800040048EA
:1012500010B50446012220210348FFF723FA204657
:10126000BDE8104000F010B80004004810B5044676
:10127000002220210348FFF715FA2046BDE8104060
:1012800000F002B80004004870B505464FF09046E3
:10129000002210213046FFF705FA00240022202109
:1012A0003046FFF7FFF9280601D5012200E00022B1
:1012B00080213046FFF7F6F9012220213046FFF762
:1012C000F1F96806641C050EE4B2082CE6D330463A
:1012D000BDE8704001221021FFF7E4B92DE9F0418B
:1012E000AD4886B0416941F480014161416901F432
:1012F00080010591416941F400314161416901F486
:1013000000310591416941F480114161416901F465
:1013100080110591416941F480214161416901F4E5
:1013200080210591416941F4002141614069012416
:1013300000F400200590B020CDE9000403254FF013
:10134000904869464046CDE90245FFF7E7F820039B
:10135000CDE9000469469148CDE90245FFF7DEF882
:101360000420CDE900048E4F69463846CDE9024598
:10137000FFF7D4F84FF47876CDE90064CDE9024563
:10138000884C69462046FFF7C9F80122B021404643
:10139000FFF788F9012204213846FFF783F901227B
:1013A00031462046FFF77EF9002204213846FFF738
:1013B00079F9C820FFF7A0F8012204213846FFF789
:1013C00071F9C820FFF798F81120FFF74FFF64204C
:1013D000FFF792F82120FFF749FFB120FFF746FF02
:1013E0000520FFF735FF3A20FFF732FF3A20FFF7DD
:1013F0002FFFB220FFF73AFF0520FFF729FF3A2021
:10140000FFF726FF3A20FFF723FFB320FFF72EFF59
:101410000520FFF71DFF3A20FFF71AFF3A20FFF7DC
:1014200017FF0520FFF714FF3A20FFF711FF3A20BE
:10143000FFF70EFFB420FFF719FF0320FFF708FFA7
:10144000C020FFF713FF6220FFF702FF0220FFF723
:10145000FFFE0420FFF7FCFEC120FFF707FFC020BE
:10146000FFF7F6FEC220FFF701FF0D20FFF7F0FEA9
:101470000020FFF7EDFEC320FFF7F8FE8D20FFF7F9
:10148000E7FE6A20FFF7E4FEC420FFF7EFFE8D20A1
:10149000FFF7DEFEEE20FFF7DBFEC520FFF7E6FEDE
:1014A0000E20FFF7D5FEE020FFF7E0FE1020FFF74B
:1014B000CFFE0E20FFF7CCFE0220FFF7C9FE03206F
:1014C000FFF7C6FE0E20FFF7C3FE0720FFF7C0FEA2
:1014D0000220FFF7BDFE0720FFF7BAFE0A20FFF744
:1014E000B7FE1220FFF7B4FE2720FFF7B1FE37202A
:1014F000FFF7AEFE0020FFF7ABFE0D20FFF7A8FEC2
:101500000E20FFF7A5FE1020FFF7A2FEE120FFF757
:10151000ADFE1020FFF79CFE0E20FFF799FE032082
:10152000FFF796FE0320FFF793FE0F20FFF790FED4
:101530000620FFF78DFE0220FFF78AFE0820FFF746
:1015400087FE0A20FFF784FE1320FFF781FE262086
:10155000FFF77EFE3620FFF77BFE0020FFF778FEC8
:101560000D20FFF775FE0E20FFF772FE1020FFF72B
:101570006FFE3A20FFF77AFE0520FFF769FE36205E
:10158000FFF774FE7820FFF763FE2920FFF76EFE59
:1015900006B0BDE8F08100000010024000080048DD
:1015A000000C004800040048FEE770470907090ED8
:1015B000002806DA00F00F0000F1E02080F8141D8A
:1015C000704700F1E02080F80014704770477047C2
:1015D00010B5FFF773F8BDE81040FFF7A0BC30B5B9
:1015E0008FB001210804CDE90010002402940225E7
:1015F0000491CDE907504FF4E01009906846FFF7D9
:10160000A5F90F20CDE90A056802CDE90C400221B9
:101610000AA80E94FFF7C0F8FFF760F94FF47A714B
:10162000B0FBF1F0FFF767FC0420FFF757FC002246
:101630001146501EFFF77EF80FB030BD1448016808
:1016400041F4700101601348016841F0010101603B
:101650004168114A114041600168104A114001601F
:10166000016821F480210160416821F4FE0141609C
:10167000C16A21F00F01C162016B094A1140016387
:10168000002181600249C003803908607047000072
:1016900088ED00E0001002400CC07FF8FFFFF6FE6E
:1016A000CCFC00FFFEE702E008C8121F08C1002AB8
:1016B000FAD170477047002001E001C1121F002AD3
:1016C000FBD170472DED028B82B00025FEF7FEFFA7
:1016D000FFF785FFFFF702FE4FF6FF742046FFF786
:1016E00042FC544800224FF4805104605248FEF7F7
:1016F000D9FF4FF478499FED518B2727A0464FF42F
:101700007A7600224C46202311461C20CDF800900A
:10171000FFF79EFC2023012200213C200094FFF7CC
:1017200097FC2023022200215C200094FFF790FC0C
:1017300010230022282114200094FFF789FC102395
:101740000122282124200094FFF782FC102302228A
:10175000282134200094FFF77BFC1023032228214A
:1017600044200094FFF774FC102304222821542005
:101770000094FFF76DFC10230522282164200094BB
:10178000FFF766FC10230622282174200094FFF73F
:101790005FFC23462BA23C210020FFF725FD00EE35
:1017A000105A23460522B8EE400A3C216820FFF774
:1017B000C3FC2846FEF7ABFD53EC182BFEF700FDEB
:1017C000FEF7B2FDC5B23046FEF796FE4046FFF783
:1017D000CAFB23461FA200210A20FFF705FD0323B1
:1017E000A022002146200094FFF770FC23461BA294
:1017F00014210A20FFF7F8FC02235022142146206E
:101800000094FFF763FC002404EB840007EBC002A4
:1018100004EB8400C0004F232821FFF7CDFC641C9B
:10182000E4B2042CF0D33046FEF766FE4046FFF7E4
:101830009AFB66E704000020000800487B14AE47CE
:10184000E17A843F302E3936205446542053504993
:10185000000000004C43445F573A00004C43445F93
:10186000483A00000246012000E05043491EC9B238
:10187000FBD27047000000000000000001020304DA
:10188000060708090000000000000000000000003A
:101890000000000000000008080808080808000010
:1018A0001818000000486C2412000000000000001E
:1018B000000000000000002424247F1212127F1276
:1018C000121200000000081C2A2A0A0C1828282AD4
:1018D0002A1C080800000022251515152A58545402
:1018E000542200000000000C1212120A7625291161
:1018F000916E0000000606040300000000000000D6
:101900000000000000402010100808080808081017
:1019100010204000000204080810101010101008D9
:10192000080402000000000008086B1C1C6B08087B
:101930000000000000000000080808087F080808F0
:10194000080000000000000000000000000000008F
:10195000060604030000000000000000FE00000076
:101960000000000000000000000000000000000077
:1019700006060000000080404020201010080804E7
:101980000402020000000018244242424242424245
:1019900024180000000000080E08080808080808BD
:1019A000083E00000000003C424242202010080493
:1019B000427E00000000003C42422018204040428D
:1019C000221C0000000000203028242422227E2037
:1019D000207800000000007E0202021A26404042E9
:1019E000221C0000000000382402021A2642424253
:1019F000241800000000007E2222101008080808A9
:101A0000080800000000003C4242422418244242E0
:101A1000423C00000000001824424242645840400A
:101A2000241C000000000000000018180000000046
:101A3000181800000000000000000008000000006E
:101A400000080804000000402010080402040810E8
:101A5000204000000000000000007F0000007F0028
:101A600000000000000000020408102040201008C0
:101A7000040200000000003C4242464020101000DA
:101A8000181800000000001C225A555555552D42CB
:101A9000221C00000000000808181414243C2242F4
:101AA00042E700000000001F2222221E2242424282
:101AB000221F00000000007C42420101010101429E
:101AC000221C00000000001F2242424242424242C9
:101AD000221F00000000003F4212121E121202429A
:101AE000423F00000000003F4212121E121202028A
:101AF000020700000000003C2222010101712122A6
:101B0000221C0000000000E7424242427E42424264
:101B100042E700000000003E08080808080808081E
:101B2000083E00000000007C101010101010101073
:101B30001010110F0000007722120A0E0A12122252
:101B400022770000000000070202020202020202E5
:101B5000427F000000000077363636362A2A2A2ACD
:101B60002A6B0000000000E346464A4A5252526285
:101B7000624700000000001C2241414141414141B7
:101B8000221C00000000003F424242423E0202028C
:101B9000020700000000001C2241414141414D5319
:101BA000321C60000000003F4242423E12122222DC
:101BB00042C700000000007C42420204182040425C
:101BC000423E00000000007F490808080808080895
:101BD000081C0000000000E74242424242424242EA
:101BE000423C0000000000E7424222242414141862
:101BF000080800000000006B494949495555362244
:101C000022220000000000E742242418181824248F
:101C100042E7000000000077222214140808080898
:101C2000081C00000000007E21201010080404425F
:101C3000423F00000078080808080808080808085B
:101C400008087800000002020404080808101020A8
:101C500020204040001E1010101010101010101006
:101C600010101E00003844000000000000000000BA
:101C70000000000000000000000000000000000064
:101C8000000000FF00060800000000000000000047
:101C900000000000000000000000003C42784442C8
:101CA00042FC0000000000030202021A26424242E7
:101CB000261A000000000000000000384402020262
:101CC00044380000000000604040407844424242F6
:101CD00064D80000000000000000003C427E0202C8
:101CE000423C0000000000F08808087E0808080850
:101CF000083E0000000000000000007C22221C02C0
:101D00003C42423C000000030202023A4642424288
:101D100042E700000000000C0C00000E0808080854
:101D2000083E000000000030300000382020202055
:101D30002020221E0000000302020272120A161264
:101D4000227700000000000E0808080808080808AC
:101D5000083E0000000000000000007F9292929276
:101D600092B70000000000000000003B46424242E3
:101D700042E70000000000000000003C42424242F6
:101D8000423C0000000000000000001B26424242CE
:101D9000221E020700000000000000784442424278
:101DA000447840E000000000000000774C04040488
:101DB000041F0000000000000000007C42023C40C4
:101DC000423E0000000000000008083E0808080825
:101DD0000830000000000000000000634242424260
:101DE00062DC000000000000000000E74224241430
:101DF0000808000000000000000000EB49495555AC
:101E000022220000000000000000007624181818AC
:101E1000246E000000000000000000E742242414AB
:101E200018080807000000000000007E22100808C3
:101E3000447E000000C020202020201020202020F0
:101E40002020C000101010101010101010101010D2
:101E500010101010000608080808081008080808E4
:101E6000080806000C32C20000000000000000005C
:101E700000000000FFFFFFFFFFFFFFFFFFFFFFFF6E
:101E8000FFFFFFFFFFFFFFFFFFFFFFFFFFFFFFFF62
:101E9000BEF77DEFBAD6B6B5F39CB294B39CB294BC
:101EA00034A5F7BDFBDE7DEFFFFFFFFFFFFFFFFF68
:101EB000FFFFFFFFFFFFFFFFFFFFFFFFFFFFFFFF32
:101EC000FFFFFFFFFFFFFFFFFFFFFFFFFFFFFFFF22
:101ED000FFFFFFFFFFFFFFFFFFFFFFFFBEF7FBDE80
:101EE000F39CCB5AC739042182104210421041089A
:101EF00083184529C7390C6375AD3CE7BEF7FFFF72
:101F0000FFFFFFFFFFFFFFFFFFFFFFFFFFFFFFFFE1
:101F1000FFFFFFFFFFFFFFFFFFFFFFFFFFFFFFFFD1
:101F2000FFFFFFFFFFFFFFFFFFFF3CE7B294084208
:101F3000C3188210042145298631863186318631C5
:101F40004529042182104108C3180842F39C3CE74C
:101F5000FFFFFFFFFFFFFFFFFFFFFFFFFFFFFFFF91
:101F6000FFFFFFFFFFFFFFFFFFFFFFFFFFFFFFFF81
:101F7000FFFFFFFFFFFFFFFFFBDE0C63C318C3186B
:101F80004529C73908420842084208420842084227
:101F9000C739C73986318631042141088210CB5AAE
:101FA000BAD6FFFFFFFFFFFFFFFFFFFFFFFFFFFFAF
:101FB000FFFFFFFFFFFFFFFFFFFFFFFFFFFFFFFF31
:101FC000FFFFFFFFFFFFFBDECB5A82104529C73919
:101FD00008420842094A494A494A494A494A494A3B
:101FE0000842C739C739C7398631452983180000E7
:101FF000C84138C6FFFFFFFFFFFFFFFFFFFFFFFFE6
:10200000FFFFFFFFFFFFFFFFFFFFFFFFFFFFFFFFE0
:10201000FFFFFFFF7DEF8E7382104529C73908420D
:10202000094A8A523084CF7B8A52494A4A52494AE5
:10203000CB5ACF7B0C630842C73986314529C31878
:102040000000494ABAD6FFFFFFFFFFFFFFFFFFFF77
:10205000FFFFFFFFFFFFFFFFFFFFFFFFFFFFFFFF90
:10206000FFFFFFFFF39CC3180421C7390842494A08
:10207000494A72947DEF7DEFB2944A52494A8A529E
:1020800075ADBEF7BAD64D6BC739C739863145290C
:10209000C3184108CF7B7CE7FFFFFFFFFFFFFFFF77
:1020A000FFFFFFFFFFFFFFFFFFFFFFFFFFFFFFFF40
:1020B000FFFFBAD608428210C7390842494A494A46
:1020C0008E73FBDEFFFFBEF7BAD68E7308423084F4
:1020D0003CE77DEFFFFFB6B5494AC7398631452950
:1020E000042141084529B6B5FFFFFFFFFFFFFFFFB1
:1020F000FFFFFFFFFFFFFFFFFFFFFFFFFFFFFFFFF0
:10210000BEF7718C410845290842494A494A4A525A
:10211000B294BEF7BEF7B294CF7BCF7B494AB6B537
:10212000F39C0C6338C6BAD60C638739C73986313D
:102130004529C318410830847DEFFFFFFFFFFFFFF3
:10214000FFFFFFFFFFFFFFFFFFFFFFFFFFFFFFFF9F
:102150003CE7CB5A4108C7390842494A4A528A5299
:10216000F39CFFFF7DEFC739C3180C63CB5AB6B59C
:10217000B294CB5A75ADFAD64D6B8739C7398631D3
:102180004529042141088A5279CEFFFFFFFFFFFF56
:10219000FFFFFFFFFFFFFFFFFFFFFFFFFFFFFFFF4F
:1021A00038C686310421C841494A494A4A52494AF7
:1021B000B18CBEF7BEF7B294CF7BCF7B494A74A5F2
:1021C0007DEF7CE7BEF779CE0C63C739C73986311E
:1021D000452904218210452975ADBEF7FFFFFFFF99
:1021E000FFFFFFFFFFFFFFFFFFFFFFFFFFFFFFFFFF
:1021F00034A5821086310842494A494A8A52494ADE
:102200004D6BBAD6FFFFFFFF79CE0D63C739CF7B89
:102210007DEFFFFFFFFF75AD08428631C73986317C
:1022200045294529C318C318B2947DEFFFFFFFFF6E
:10223000FFFFFFFFFFFFFFFFFFFFFFFFFFFFBEF7F7
:10224000B28C4108C7390842494A494A8A528A52DF
:102250004A4AD07B7AC67BBE906BC9398831C9396E
:10226000B384BBC6F8B5CC5A8631C739C739863175
:1022700045294529C420410830843CE7FFFFFFFF82
:10228000FFFFFFFFFFFFFFFFFFFFFFFFFFFF3CE739
:102290008A4AC310C7390842494A494A4A4A4A4207
:1022A000093A084A096B497BC67A05834683C57A91
:1022B000C672097B485A8731882188298631863140
:1022C00045294529042141084A4ABAD6FFFFFFFFA4
:1022D000FFFFFFFFFFFFFFFFFFFFFFFFFFFFF7C550
:1022E00082500541C7290842494A4A42494A097B66
:1022F000889BC6B321D4A0DCE1E461ED61ED21ED62
:10230000A0E420DC80CB43ABC482065A4721462997
:1023100045290429041982108218F39C7DEFFFFFE0
:10232000FFFFFFFFFFFFFFFFFFFFFFFF7DEF4D936D
:1023300000A082B8C7310932494A867A43C36BED9F
:10234000F4F6EBFD20FD20FD60FDA0FDA0FD60FD8D
:1023500060FD20FDE0FCA0FC60F4C1DB839AC54970
:1023600045290419C42082380050CB6ABAD6FFFF31
:10237000FFFFFFFFFFFFFFFFFFFFFFFFFBEE04A1DB
:1023800000C000F0C3A0C8414942059B20FCA4FC4A
:1023900069FDE8FD63FD20FD60FD60FD60FD20FD41
:1023A00020FDE0FCE0FCA0FC60FC20FC41D3C54922
:1023B0004519C438826841880070495A79CEFFFFB8
:1023C000FFFFFFFFFFFFFFFFFFFFFFFFFBF682C0E6
:1023D00000D086C146F141C8457989528862866A33
:1023E000C67AC4BBE1FC60FD60FDA0FDA0FD60FD00
:1023F00060FDE0FC60E403938472446AC5414529B2
:10240000C35841A8409800B000600C6B79CEFFFF24
:10241000FFFFFFFFFFFFFFFFFFFF7DEFCE838288FF
:1024200000F8C4D80CF38AFA82E882B04569C75133
:102430000842083A865A839BA2BC22CD21CDA1C472
:1024400022B4C47A063A862945290531C450419000
:1024500000C000A800A000A800304A4ABAD6FFFF7A
:10246000FFFFFFFFFFFFFFFF7DEF8E73C3180539EE
:1024700082A800F8C3F84DFB4DFBC7F9C3F082D822
:10248000C3B004814561465186498649464145416C
:102490004541454105490461829041B000D000C8E2
:1024A00000A800A800B8415882108210B294BEF76C
:1024B000FFFFFFFFFFFFBEF7CF7B821004218629BD
:1024C0008641049940E841F886F9CBFA49FA82F846
:1024D00000F800F000E841D841D041C041C041C0FF
:1024E00041C041C800D000E000E000D800D000B8F2
:1024F00000A841888248821082100000452979CEC8
:10250000FFFFFFFFBEF7F39C8210C31845298631F9
:10251000C731307CF3DC86E100F000F841F841F887
:1025200000F800F800F800F800F800F800F800F8EB
:1025300000F800F800E800E000E000D800C841A082
:102540008A9A0C63041182108210410800004D6BBE
:102550007DEFFFFFFBDE08424210452986318631C0
:10256000494A38BEFFFF38D686A900C800E000F00F
:1025700000F800F800F800F800F800F800F800F89B
:1025800000F000F000E800E000D0C3988A8AB2A40E
:10259000BAC6F7B508424108821041080000452933
:1025A000F7BDFFFF718C4108042145298631863132
:1025B0000C633CE7FFFF79D646B900E042C882A829
:1025C00082B041D882E882F041E841E841E841F038
:1025D00041E841D804C108924D8B34A5FBC6FBD617
:1025E000BACE3CE73084C3184108410800004108D6
:1025F000CF7B7DEF494A00000421452946318631D1
:102600003084FFFFFFF7F7DD09DA83F801F042C0FD
:102610008298499AF3B4F3CC71BC8EBB8EBB30BCAC
:1026200071BCF3BCB6BDFBCEBEE77DE73BDFBAD6DF
:1026300079CEFBDE75AD863141084108000000000F
:10264000494AFBDE042141080421452945298739EF
:10265000B294FFFFBEF734DD0CEB09FA00F001D8AD
:1026600000D88BD27DE7FFFFFFFFFFFFFFFFFFFFDB
:10267000FFFFFFFFFFFFBEFF7DEFFBDEFBDEBAD6F5
:1026800079CEBAD678C6C7390000410800000000EC
:10269000C73979CE00008210C3180421052986317C
:1026A000B39CFFFFFFF775DDC7E9C7F901F801F03B
:1026B00000E849E2FBEEFFFFFFFFFFFFFFFFFFFF28
:1026C000FFFFFFFFFFFFBEF77DEFFBDEFBDEBAD6AD
:1026D00079CEBAD6B9CE0842000000000000000052
:1026E000C73938C600008210821004210421452910
:1026F0003084FFFFFFFF38DEC4D000F001F800F89F
:1027000000F008D2FBE6FFFFFFFFFFFFFFFFFFFF28
:10271000FFFFFFFFFFFFBEF77DEFFBDEBAD679CEEE
:1027200079CEBAD679CEC739410800000000000042
:10273000863138C600000000C318CB5A8631C31852
:10274000CB5A7DEFFFFF7DEFCFBBC3B041D041D06F
:1027500082B84DB37DE7FFFFFFFFFFFFFFFFFFFFE5
:10276000FFFFFFFFBEF7BEF73DEFFBDEBAD679CE27
:1027700079CEFAD6F7BD042186310421000000008D
:10278000863138C68631C318CB5A75ADCF7B410828
:102790008631F7BDFFFFFFFFBEEF74B5309C309C64
:1027A00072A4BBD6FFFFFFFFFFFFFFFFFFFFFFFF8E
:1027B000FFFFFFFFBEF77DEF3CE7FBDEBAD679CE29
:1027C00079CE3CE7718C81080C63CF7B82100000CE
:1027D0008A5238C675AD718CB6B53CE7FBDEC73999
:1027E0000000CF73FFFFFFFFFFFFFFFFFFFFFFFFB3
:1027F000FFFFFFFFFFFFFFFFFFFFFFFFFFFFFFFFE9
:10280000FFFFBEF77DEF7DEF3BDFFAD679CE79CEC5
:10281000FBDEB9CEC739C420718CBAD6718CCB5AC5
:10282000B294BAD6FFFF7DEF7DEFFFFFFFFFB6B595
:102830004629051975A5FFFFFFFFFFFFFFFFFFFFFB
:10284000FFFFFFFFFFFFFFFFFFFFFFFFFFFFFFFF98
:10285000FFFFBEF77DEF3CE7FBDEBAD679CEBAD6F6
:10286000FCDE4E6342080C63F7BDBEF7FFFFFBDEE4
:10287000FBDEBEF7FFFFFFFFFFFFFFFFFFFFFFFFD6
:10288000F49C04210521B6A5FFFFFFFFFFFFFFFF1A
:10289000FFFFFFFFFFFFFFFFFFFFFFFFFFFFBEF791
:1028A000BEF77DEF3CE7FBDEBAD679CEFBDEBBD6CA
:1028B000D17383188639349DBDEFFFFFFFFFFFFF03
:1028C000FFFFFFFFFFFFFFFFFFFFFFFFBEFF35D64C
:1028D000EBCC43B340510519F58CBEEFFFFFFFFF72
:1028E000FFFFFFFFFFFFFFFFFFFFBEF7BEF77DEF1C
:1028F0007DEF3CE7FBDEBADEBAD63CDF3ABE4F6383
:10290000824940A323B4CC833ABEFFFFFFFFFFFF01
:10291000FFFFFFFFFFFFFFFFFFFFBFF7B5BD829285
:1029200020F4A0FC60E4408284418F6B77AD3DE7EA
:10293000FFFFFFFFFEFFBEF7BEF7BEF77DEF7DEFA7
:102940003CE7FBDEFBDE3DE7BBCE369D0B6B416A11
:1029500060C420FE60F5008BC76A38C6BEF7FFFF73
:10296000FFFFFFFFFFFFFFFFFFFF7DEF4B7B80B20D
:10297000A0FCA0FCE0FCE0FCC0CBC18A45624D6B32
:10298000B394F7BD3DDFFFF7FFFFBEF77DEF7DEFAF
:102990007DE73DDFBAC675A58D7B847A40B3E0EC58
:1029A000E0FDE0FD60F520E5A0D40A6BFBDEFFFF53
:1029B000FFFFFFFFFFFFFFFFFFFF7DEFCC9340EB2B
:1029C00060FCA0FCE0FC20FD60FD20F5A0D4C0BBB5
:1029D000429B458B6B9CAE9C718CB394339D34A50C
:1029E000F2A4F0B4CA9B049B40BB20E420FDA0FDF0
:1029F000A0FDE0FDE0FDE0FD20C4885A38BEFFFFE9
:102A0000FFFFFFFFFFFFFFFFFFFFFFFF78D646AB93
:102A100040DB20F460FCA0FCE0FC60FDA0FD60FD5C
:102A200020F5A0DCC0B3C05186290D638F7B0D5B00
:102A3000C741018200C3C0E360FCA0FCE0FCE0FCF5
:102A400060F560F520E5809B8662308479CEFFFFDB
:102A5000FFFFFFFFFFFFFFFFFFFFFFFFFFFF38C686
:102A60002D9C059343A382B3C2BBC2BB22B482A3F5
:102A70004293C37A85620B637184B6B579CE79C609
:102A8000B5AD70944A8B06830493049B439B439B90
:102A90004393048308738D73B39479CE7DEFFFFF66
:102AA000FFFFFFFFFFFFFFFFFFFFFFFFFFFFFFFF36
:102AB0003CDF38BE75B533A533A5F39CF39CF39C7E
:102AC000F394F39C35A5F8BDFBDEBEF7FFFFFFFFD7
:102AD000FFFF7EEFBBD6F8BDB6AD75AD34A5339D17
:102AE000349D35A5B7AD79C63CE7BEF7FFFFFFFFC4
:102AF000FFFFFFFF02030405060708090A0B0C0D80
:102B00000E0F10100102030405060708090A0B0C3A
:102B10000D0E0F10342B000800000020740300007D
:102B20009C040008DC2C000874030020040400004E
:102B3000B616000811E3127A2A8004FA0104080D7F
:102B40001A1080010CF0FFFF0F30800104041924DB
:102B50006A070C09124809100401131A011914FF1D
:102B6000FF011A03082904E90C3381812A03042692
:102B70001CFCFFFF3F1A400B5AC0282AC00C490416
:102B80001BFFFF4C22411A0468230E711B07815A58
:102B900014010760100B010E1898011C04E00118C5
:102BA0001927F11A08C4231F304A0C046809100CB5
:102BB00030FE3F0C30041069041BC00C281E0D3081
:102BC00030060E049C0C3010044B188604101208BA
:102BD000060D300C860D3006EE0F3002FC0D300174
:102BE0005B0CF040193C2A0F081A109ED12990194D
:102BF000CB4908890417E0FFFF0360C009130409EB
:102C0000161C59181A010429441A08045A100419E8
:102C1000F8130138041780FF1F2603C0FFFF071AAF
:102C20008004293D326032181A0C135A030419A487
:102C30001C800108045E1CFCFFFF3F100928041AD9
:102C4000FC0432E062405A80026DFC1F84100229AD
:102C50000C69184DF80F080804128023FF7F290C17
:102C6000490E2D8410A22045280FFE3F0220F22796
:102C700002200220FA2F2221022809122912290AF1
:102C80002E02201AC95E99081650804080401952C1
:102C900013FE1F120812042C0280016269782902B7
:102CA0001AA0A518161008B8080F0908090808BFC7
:102CB0000808091C092C080A78CA1179012A04029B
:102CC0003CC87F3F08180BA83F18210C110B1208B5
:0C2CD0000A0E1E0A8A116460EE117210D8
:040000050800018965
:00000001FF
