:020000040800F2
:100000007007002009010008A11C0008371600082D
:100010009D1C00086B050008791E00080000000008
:100020000000000000000000000000008D1D00081E
:100030006F05000800000000DD1C00088F1D00088F
:100040002301000823010008230100082301000800
:1000500023010008230100082301000823010008F0
:1000600023010008230100082301000823010008E0
:1000700023010008230100082301000823010008D0
:1000800023010008230100082301000823010008C0
:1000900023010008230100082301000823010008B0
:1000A00000000000230100082301000823010008CC
:1000B0002301000823010008230100082301000890
:1000C0002301000823010008230100082301000880
:1000D0002301000823010008230100082301000870
:1000E0002301000823010008230100082301000860
:1000F00023010008DFF80CD000F0EAF900480047BF
:100100009D1E0008700700200648804706480047EB
:10011000FEE7FEE7FEE7FEE7FEE7FEE7FEE7FEE7B7
:10012000FEE7FEE7151E0008F500000880EA010260
:1001300010B502F00043400022D04A001FD0010E4B
:1001400001EB1261C0F35600C2F3560240F4000006
:1001500042F40002A0FB022000047F39140400D006
:10016000401C50EA124001D44000491EC2B20C06A5
:1001700004EBD010401C4008802A02D003E000208D
:1001800010BD20F00100002900DA0020184310BD46
:100190002DE9FE4F804681EA0300C00F0C46009017
:1001A00021F0004123F00045B8EB0200A94105D23F
:1001B0004046214690461C460B46024623F000402E
:1001C000104347D0270DC7F30A00C3F30A5102902A
:1001D000401A019040286BDAC3F3130040F4801BEF
:1001E0000098924620B10023D2EB030A63EB0B0B7D
:1001F00001985946C0F14002504600F0B3F8064657
:100200000D4650465946019A00F0BBF810EB080025
:100210006141002487EA115284EAE7731A4340D00F
:10022000009A62B3019A012A4FEA075215DC001BBB
:1002300061EB02014FF0004202EA0752CDE90042B1
:10024000001C41F5801132462B4600F0F2F803B055
:10025000BDE8F08F40462146F9E7001B61EB020143
:10026000001C41F5801300185B412018A2F500170F
:1002700047EB030140EAD570B6196D4111E06D08F6
:100280004FEA360645EAC0754FEA0752001B61EB9C
:100290000201001C41F5801149084FEA30000019A5
:1002A000514132462B4603B0BDE8F04F00F0B2B8E2
:1002B0000098012240000023D0EB020263EBE073C0
:1002C000009821464FEAE074B8EB000061EB0401AE
:1002D000E9E783F000435BE781F0004158E720F055
:1002E0000040C10DC0F3160040F400007F2901DA80
:1002F00000207047962903DCC1F19601C840704781
:1003000096398840704700F0004230F000400AD033
:10031000C10D01F56071C0F3160042EA0151C20837
:1003200040071143704700200146704701F0004329
:1003300030B421F0004150EA010206D00A0DA2F5C6
:100340006072C1F31301002A02DC30BC0020704748
:10035000440F44EAC104C100E01830BC00EBC250B5
:1003600000F021B8202A04DB203A00FA02F1002034
:1003700070479140C2F1200320FA03F319439040E3
:100380007047202A06DBCB17203A41FA02F043EAF5
:10039000E07306E041FA02F3D040C2F1200291403E
:1003A0000843194670470029A8BF7047401C490000
:1003B00008BF20F00100704710B4B0FA80FC00FACA
:1003C0000CF050EA010404BF10BC704749B1CCF1F5
:1003D000200421FA04F411FA0CF118BF0121214381
:1003E0000843A3EB0C01CB1D4FEA00614FEA10203C
:1003F00042BF002010BC704700EBC35010440029DE
:10040000A4BF10BC7047401C490008BF20F0010089
:1004100010BC704710B5141E73F1000408DA401CBC
:1004200041F1000192185B411A4301D120F0010013
:1004300010BD2DE9F04D92469B4611B1B1FA81F203
:1004400002E0B0FA80F220329046FFF78BFF0446BC
:100450000F4640EA0A0041EA0B0153465A46084358
:1004600013D0114653EA010019D0C8F1400250469A
:1004700000F040F805460E46504659464246FFF702
:1004800071FF084305D0012004E020463946BDE84D
:10049000F08D0020054346EAE0762C4337430A9866
:1004A0006305E40AA0EB08000022FD0A44EA475471
:1004B0000A3002D500200146E9E70105101969411B
:1004C000DDE9084500196941BDE8F04DA2E70000EB
:1004D000064C074D06E0E06840F0010394E8070091
:1004E00098471034AC42F6D3FFF708FE18330008E3
:1004F00038330008202A04DB203A21FA02F00021D8
:10050000704721FA02F3D040C2F120029140084323
:100510001946704770B58C1810F8015B15F0070389
:1005200001D110F8013B2A1106D110F8012B03E08C
:1005300010F8016B01F8016B5B1EF9D12B0705D494
:100540000023521E0DD401F8013BFAE710F8013BDD
:10055000CB1A921C03E013F8015B01F8015B521EF9
:10056000F9D5A142D8D3002070BD00BFFEE7704787
:1005700031B5002400F0F8F8044600BF00F0F4F8AC
:10058000001B00998842F9D338BD000078B50346B6
:10059000002200240020CAE0012696400D6805EAEA
:1005A0000604002C71D04D68022D02D04D68122D2A
:1005B00013D1D60803F1200555F826005507EE0E95
:1005C0000F25B540A8435607F60E0D69B5402843E0
:1005D000D60803F1200545F82600186856000325C3
:1005E000B540A8430D7905F003055600B5402843F2
:1005F00018604D68012D08D04D68022D05D04D685A
:10060000112D02D04D68122D13D198685600032584
:10061000B540A8435600CD68B54028439860586857
:1006200001259540A8430D79C5F300159540284351
:100630005860D86856000325B540A84356008D6819
:10064000B5402843D8604D6805F08055B5F1805F0E
:100650006CD100BF394D2D6845F00105374E35602E
:1006600035462D6805F00105009500BF00BF344DEB
:10067000960855F8260095072E0F0F25B540A8437C
:10068000304DAB4202D1002515E04FE02E4DAB427C
:1006900001D101250FE02D4DAB4201D102250AE029
:1006A0002B4DAB4201D1032505E02A4DAB4201D1D0
:1006B000042500E005259607360FB5402843204D58
:1006C000960845F82600244D2868A0434D6805F497
:1006D0008035B5F5803F00D120431F4D28602D1D8A
:1006E0002868A0434D6805F40035B5F5003F00D1FA
:1006F0002043194D2D1D28602D1D2868A0434D68ED
:1007000005F48015B5F5801F00D12043124D083542
:1007100028602D1D2868A0434D6805F40015B5F527
:10072000001F00D120430C4D0C352860521C0D6871
:10073000D540002D7FF430AF78BD00002038024056
:10074000080001400000024000040240000802408E
:10075000000C024000100240000401400AB1816117
:1007600001E00B0483617047014800687047000096
:100770006803002002480068401C01490860704777
:100780006803002010B5032000F05CF8002000F0A2
:1007900005F800F017F8002010BD000070B5044601
:1007A000074800684FF47A71B0FBF1F5284600F075
:1007B00024FF00222146501E00F005F8002070BDE5
:1007C0000000002070472DE9F05F80460D46164678
:1007D000002701F067FA074639462A46334601F0FA
:1007E0000700C0F1070ABAF1040F02D94FF0040A5A
:1007F00001E0C0F1070AD14600F1040ABAF1070F7F
:1008000002D24FF0000A01E0A0F1030AD4464FF0F3
:10081000010A0AFA09FAAAF1010A0AEA020A0AFA1C
:100820000CFA4FF0010B0BFA0CFBABF1010B0BEACE
:10083000030B4AEA0B042146404601F03BFABDE8AF
:10084000F09F000000BF00F00702064B19684FF64A
:10085000FF031940044B0B4343EA0221014B19608B
:1008600000BF70470CED00E00000FA0570B50446CB
:100870000D460026B348006800F00100A84218D2D7
:1008800000BF012D05D1AF48006840F00400AD491C
:100890000860AC48006820F001002843A9490860BE
:1008A00000BF0846006800F00100A84201D0012006
:1008B00070BD207800F00200022807D1A24800682D
:1008C00020F0F000A16808439F490860207800F0FC
:1008D000010000287BD06068022821D1202001037C
:1008E00091FAA1F1B1FA81F108430121B1EB601F46
:1008F00003D195480838006802E093482C3000681E
:1009000020210A0392FAA2F2B2FA82F2114301F014
:100910001F0201219140084000286CD10120C7E747
:100920006068032820D12020010591FAA1F1B1FAD5
:1009300081F108430121B1EB601F03D182480838DF
:10094000006802E080482C30006820210A0592FAF5
:10095000A2F2B2FA82F2114301F01F02012191408A
:100960000840A8BB0120A3E76068012820D120200F
:10097000022191FAA1F1B1FA81F108430121B1EB11
:10098000601F03D170480838006802E06E482C30C0
:1009900000682021022292FAA2F2B2FA82F21143F6
:1009A00001F01F0201219140084088B901207FE732
:1009B0002020010191FAA1F1B1FA81F1084301214E
:1009C000B1EB601F05D160480838006804E069E0B9
:1009D00011E05D482C30006820210A0192FAA2F251
:1009E000B2FA82F2114301F01F0201219140084046
:1009F00008B901205CE75448006820F003006168F2
:100A0000084351490860FFF7AFFE064660680228B8
:100A100010D108E0FFF7A8FE801B41F28831884220
:100A200001D9032044E74848006800F00C0008287A
:100A3000F0D137E06068032810D108E0FFF794FE9A
:100A4000801B41F28831884201D9032030E73E48BB
:100A5000006800F00C000C28F0D123E06068012849
:100A600010D108E0FFF780FE801B41F288318842F8
:100A700001D903201CE73448006800F00C0004286A
:100A8000F0D10FE008E0FFF76FFE801B41F28831E4
:100A9000884201D903200BE72B48006800F00C00C6
:100AA0000028F0D12748006800F00100A84218D9BA
:100AB00000BF012D05D12348006840F00400214902
:100AC00008602048006820F0010028431D490860A4
:100AD00000BF0846006800F00100A84201D00120D4
:100AE000E6E6207800F00400042807D116480068E4
:100AF00020F4E060E168084313490860207800F0C2
:100B00000800082808D11048006820F460502169C6
:100B100040EAC1000C49086000F022F80A4909685F
:100B200001F0F001F02292FAA2F2B2FA82F2D14080
:100B3000064A515CC840064908600020FFF72EFEB7
:100B40000020B5E6003C0240083802408F20000833
:100B500000000020014800687047000000000020ED
:100B6000F0B5002100230024002200250020254E9E
:100B7000316801F00C067EB3042E04D0082E04D098
:100B80000C2E2AD103E020483AE0204838E001F456
:100B900070164FF4701797FAA7F7B7FA87F7FE4069
:100BA0001B4FBB5D01F440064FF4400797FAA7F7CF
:100BB000B7FA87F7FE40741C124E366806F480368A
:100BC00026B1124E5E43B6FBF4F203E00E4E5E43D6
:100BD000B6FBF4F2104613E000E000BF094E361FEA
:100BE000366806F460464FF4604797FAA7F7B7FAFD
:100BF00087F726FA07F56E1C0127B740F80300BFF8
:100C000000BFF0BD083802400024F40000366E0139
:100C100086200008F8B504460025207800F0010081
:100C2000002879D0F748006800F00C0008280CD0A4
:100C3000F448006800F00C000C282BD1F148006843
:100C400000F48030B0F5803F24D12020010391FAD8
:100C5000A1F1B1FA81F108430121B1EB601F03D189
:100C6000E8480838006802E0E6482C300068202197
:100C70000A0392FAA2F2B2FA82F2114301F01F02C1
:100C80000121914008400028CBD06068002843D162
:100C90000120F8BD00BF6068012808D1D948083894
:100CA000006840F48030D749083908602DE060685A
:100CB00068B9D4480838006820F48030D149083930
:100CC00008600846006820F4802008601DE0606825
:100CD00005280DD1CB480838006840F48020C94968
:100CE000083908600846006840F4803008600CE06D
:100CF000C4480838006820F48030C24908390860C8
:100D00000846006820F48020086000BF606860B377
:100D1000FFF72AFD054607E052E0FFF725FD401BDF
:100D2000642801D90320B4E72020010391FAA1F13E
:100D3000B1FA81F108430121B1EB601F03D1B14841
:100D40000838006802E0AF482C30006820210A0310
:100D500092FAA2F2B2FA82F2114301F01F020121CB
:100D6000914008400028D8D02AE0FFF7FDFC054656
:100D700006E0FFF7F9FC401B642801D9032088E74F
:100D80002020010391FAA1F1B1FA81F10843012178
:100D9000B1EB601F03D19B480838006802E0994816
:100DA0002C30006820210A0392FAA2F2B2FA82F2F1
:100DB000114301F01F020121914008400028D8D1C1
:100DC000207800F00200022845D18E48006800F02B
:100DD0000C0004280AD08B48006800F00C000C2896
:100DE0003BD18848006800F48030A8BB2020022155
:100DF00091FAA1F1B1FA81F108430121B1EB601F31
:100E000003D180480838006802E07E482C30006832
:100E10002021022292FAA2F2B2FA82F2114301F0E8
:100E20001F0201219140084020B1E068012801D053
:100E300001202EE77348001F006820F4F8504FF49B
:100E4000F85292FAA2F2B2FA82F221699140084372
:100E50006C49091F08607DE0FFE7E068F0B30120FE
:100E600090FAA0F1B1FA81F1674A42F82100FFF748
:100E70007BFC054606E0FFF777FC401B022801D902
:100E8000032006E72020022191FAA1F1B1FA81F1B5
:100E900008430121B1EB601F03D15A4808380068AC
:100EA00002E058482C3000682021022292FAA2F277
:100EB000B2FA82F2114301F01F0201219140084071
:100EC0000028D8D04F48001F006820F4F8504FF495
:100ED000F85292FAA2F2B2FA82F200E006E0216938
:100EE000914008434749091F086033E00020012171
:100EF00091FAA1F1B1FA81F1434A42F82100FFF7DA
:100F000033FC054606E0FFF72FFC401B022801D901
:100F10000320BEE62020022191FAA1F1B1FA81F16D
:100F200008430121B1EB601F03D13648083800683F
:100F300002E034482C3000682021022292FAA2F20A
:100F4000B2FA82F2114301F01F02012191400840E0
:100F50000028D8D1207800F01000102873D129483B
:100F6000006800F00C0000286ED12020010191FAE9
:100F7000A1F1B1FA81F108430121B1EB601F03D166
:100F800020480838006802E01E482C300068202104
:100F90000A0192FAA2F2B2FA82F2114301F01F02A0
:100FA00001219140084018B1A06908B9012070E6FC
:100FB0001449091F206A096801F46041884225D953
:100FC000206A00F08DFE08B1012062E60D48001F86
:100FD000006820F46040216A08430A49091F08603C
:100FE0000846006820F07F404FF07F4292FAA2F25C
:100FF000B2FA82F2E169914008430249091F086090
:1010000023E000000838024000004742FC48006826
:1010100020F46040216A0843F949086008460068E6
:1010200020F07F404FF07F4292FAA2F2B2FA82F2B1
:10103000E16991400843F2490860206A00F050FEDF
:1010400018B1012025E6A5E01FE04FF4604191FAB8
:10105000A1F1B1FA81F1206AC840401C0121814010
:10106000C803E749091D096801F0F001F02292FA6E
:10107000A2F2B2FA82F2D140E24A515CC840E2499F
:1010800008600020FFF78AFB84E0A069F0B301202C
:10109000010291FAA1F1B1FA81F1DC4A42F8210092
:1010A000FFF762FB054606E0FFF75EFB401B0228E8
:1010B00001D90320EDE52020010191FAA1F1B1FA57
:1010C00081F108430121B1EB601F03D1CC48001F1F
:1010D000006802E0CA483030006820210A0192FA14
:1010E000A2F2B2FA82F2114301F01F0201219140F3
:1010F00008400028D8D0C248006820F46040216A27
:101100000843BF4908600846006800E00DE020F091
:101110007F404FF07F4292FAA2F2B2FA82F2E16986
:1011200091400843B649086034E000204FF48071D4
:1011300091FAA1F1B1FA81F1B44A42F82100FFF726
:1011400013FB054606E0FFF70FFB401B022801D901
:1011500003209EE52020010191FAA1F1B1FA81F16D
:1011600008430121B1EB601F03D1A548001F0068AF
:1011700002E0A3483030006820210A0192FAA2F26E
:10118000B2FA82F2114301F01F020121914008409E
:101190000028D8D1207800F0080008286ED16069B6
:1011A000A8B3012090FAA0F1B1FA81F1974A02EBBD
:1011B0008101C1F88006FFF7D7FA054606E0FFF780
:1011C000D3FA401B022801D9032062E54020022106
:1011D00091FAA1F1B1FA81F108430121B1EB601F4D
:1011E00003D18748001F006802E08548303000685E
:1011F0004021022292FAA2F2B2FA82F2114301F0E5
:101200001F020121914008400028D8D036E0FFE7B6
:101210000021012090FAA0F0B0FA80F07B4A02EBA6
:101220008000C0F88016FFF79FFA054606E0FFF73A
:101230009BFA401B022801D903202AE54020022105
:1012400091FAA1F1B1FA81F108430121B1EB601FDC
:1012500003D16B48001F006802E069483030006825
:101260004021022292FAA2F2B2FA82F2114301F074
:101270001F020121914008400028D8D1207800F0B9
:101280000400042875D100265D482030006800F075
:10129000805080B900BF5A482030006840F080502C
:1012A0005749203108600846006800F080500090DF
:1012B00000BF00BF01265648006800F48070B0B936
:1012C0005348006840F4807051490860FFF74CFAB9
:1012D000054606E0FFF748FA401B642801D90320C1
:1012E000D7E44B48006800F480700028F2D000BFBB
:1012F000A068012808D142483030006840F480706E
:101300003F49303108602DE0A06868B93C48303072
:10131000006820F480703A4930310860084600685F
:1013200020F4806008601DE0A06805280DD13448D5
:101330003030006840F48060314930310860084640
:10134000006840F4807008600CE02D483030006880
:1013500020F480702A49303108600846006820F483
:101360008060086000BFA06870B3FFF7FDF9054614
:1013700009E06AE0FFF7F8F9401B41F28831884242
:1013800001D9032085E44020C10091FAA1F1B1FA0E
:1013900081F108430121B1EB601F03D11848001F00
:1013A000006802E01648303000684021CA0092FA16
:1013B000A2F2B2FA82F2114301F01F020121914020
:1013C00008400028D6D035E0FFF7CEF9054608E002
:1013D000FFF7CAF9401B41F28831884201D9032046
:1013E00057E44020C10091FAA1F1B1FA81F108431C
:1013F0000121B1EB601F0DD10148001F00680BE017
:10140000043802408F2000080000002000004742FE
:10141000007000406C4800684021CA0092FAA2F2B5
:10142000B2FA82F2114301F01F02012191400840FB
:101430000028CDD1012E07D163481038006820F074
:10144000805061491039086000BF606AF0B35E489F
:101450002C38006800F00C000C287AD0606A022852
:1014600079D100204FF0807191FAA1F1B1FA81F1A8
:10147000564A42F82100FFF777F9054606E0FFF7E4
:1014800073F9401B022801D9032002E42020010542
:1014900091FAA1F1B1FA81F108430121B1EB601F8A
:1014A00003D149483438006801E0474800682021EA
:1014B0000A0592FAA2F2B2FA82F2114301F01F0277
:1014C0000121914008400028D9D100E07AE0D4E918
:1014D0000A010843216B08433B492C39096821F470
:1014E0007D01084338492C3908600120010691FA32
:1014F000A1F1B1FA81F1354A42F82100FFF734F940
:10150000054606E0FFF730F9401B022801D9032009
:1015100009E42020010591FAA1F1B1FA81F1084313
:101520000121B1EB601F03D127483438006801E086
:101530002548006820210A0592FAA2F2B2FA82F246
:10154000114301F01F020121914008400028D9D029
:1015500038E035E0FFE700214FF0807090FAA0F00E
:10156000B0FA80F0194A42F82010FFF7FDF805465E
:1015700006E0FFF7F9F8401B022801D9032058E4E0
:101580002020010591FAA1F1B1FA81F1084301216E
:10159000B1EB601F03D10C483438006801E00A4801
:1015A000006820210A0592FAA2F2B2FA82F21143EF
:1015B00001F01F020121914008400028D9D101E02B
:1015C000012036E4002034E4343802400000474271
:1015D000042808D14FF0E021096941F004014FF0DF
:1015E000E022116107E04FF0E021096921F00401D8
:1015F0004FF0E02211617047704770B504462546F0
:10160000681EB0F1807F01D301200FE0681E4FF00B
:10161000E02148610F214FF0FF3000F04BFB00202C
:101620004FF0E021886107200861002070BD10B5EF
:10163000FFF7E2FF10BD00BFFEE72DE9F0410446D1
:101640000D4616461F462A2000F0CEF9601C00F019
:10165000ABF9701C00F0A8F92B2000F0C5F905F1DA
:101660001A0000F0A1F907F11A0000F09DF92C20F2
:1016700000F0BAF9BDE8F08170B506464F239F220D
:1016800000210846FFF7D9FF002408E0002503E009
:10169000304600F089F96D1C502DF9D3641CA02C44
:1016A000F4D370BD70B504460D4616462B4622464F
:1016B00029462046FFF7C1FF304600F075F970BD9E
:1016C0002DE9F84F05460F4616469A46DDF828B034
:1016D0000095902D01D8402F01D9BDE8F88FA6F1D3
:1016E0002000C6B207F10F03EA1D39462846FFF76E
:1016F000A4FFBAF1000F25D1002420E004EB06106E
:10170000214911F800904FF0000811E009F00100A4
:1017100018B1584600F048F903E01C48006800F092
:1017200043F94FEA69096D1C08F1010000F0FF0858
:10173000B8F1080FEADB009D7F1C601CC4B2102CBE
:10174000DCDB1FE000241BE004EB06100E4911F85F
:1017500000904FF000080EE009F0010028B139199F
:1017600005EB08005A46FFF79DFF4FEA690908F1AB
:10177000010000F0FF08B8F1080FEDDB601CC4B2F7
:10178000102CE1DB00BFA8E7A720000864030020BD
:101790002DE9F05F81468A4693461C46102C00D105
:1017A000194D202C00D1194D0AEB0400431E09EB02
:1017B0000400421E51464846FFF73FFF04FB04F079
:1017C000C11700EB5171C1F3C7080BFB0855002787
:1017D00015E000260EE028780121B140084018B13C
:1017E0000A9800F0E1F803E00948006800F0DCF82E
:1017F000701CC6B2082EEEDB6D1C781CC7B24745C4
:10180000E7DBBDE8F09F0000840200200400002018
:10181000640300202DE9F84F06468A4690461D468F
:10182000DDF828904FF0000B00242FE0281B401E0D
:10183000C1B20A2000F01CFCB8FBF0F00A21B0FB9A
:10184000F1F201FB1207BBF1000F10D1681EA0429C
:101850000DDD57B9082101FB046000232022514609
:10186000CDF80090FFF72CFF0EE04FF0010B07F1D1
:101870003001CAB2082101FB046000235146CDF8B3
:101880000090FFF71DFF00BF601CC4B2AC42CDDB6F
:10189000BDE8F88F2DE9FC5F06468A4617461C46D0
:1018A000DDF83080002001901D493846FEF73EFCEF
:1018B0000090FEF714FD834600252CE0601B401EBF
:1018C000C1B20A2000F0D4FBBBFBF0F00A21B0FB50
:1018D000F1F201FB1209A01EA8420ED1A11E08229E
:1018E00002FB016000232E225146CDF80080FFF755
:1018F000E7FE681CC5B2601CC4B209F13001CAB26F
:10190000082101FB056000235146CDF80080FFF758
:10191000D7FE681CC5B2A542D0DBBDE8FC9F000025
:101920000000C8422DE9F04105460E46174698468C
:1019300043463A4631462846FFF77FFE00240CE036
:10194000012101EB4401074A505C00F03FF80549D2
:1019500011F8140000F03AF8641CB4F5C86FEFDB1E
:10196000BDE8F08197260008F8B505460E461446F6
:101970001F4615E0902D01D900251036402E06D9BE
:101980000020054606464FF47840FFF775FE0097A5
:101990002278002331462846FFF792FE0835641C62
:1019A00020780028E6D1F8BD10B5044601220821B0
:1019B0000548FEF7D3FEC4F3072000F023F8E0B299
:1019C00000F020F810BD00000000024010B50446F1
:1019D000012208210348FEF7C1FE204600F012F85C
:1019E00010BD00000000024010B50446002208218E
:1019F0000348FEF7B3FE204600F004F810BD0000D7
:101A00000000024070B50446002210211448FEF781
:101A1000A5FE00251BE0002201211148FEF79EFED5
:101A200004F0800028B1012202210D48FEF796FE45
:101A300004E0002202210A48FEF790FE012211462E
:101A40000748FEF78BFE6006040E681CC5B2082D21
:101A5000E1DB012210210248FEF780FE70BD00008C
:101A60000000024000B587B000BF8A48006840F01F
:101A70000100884908600846006800F001000190F4
:101A800000BF00BF48F2FF000290012003900490C5
:101A90000220059002A98048FEF778FD012248F255
:101AA000FF017D48FEF75AFE002204217A48FEF726
:101AB00055FEC820FEF75CFD012204217648FEF7A2
:101AC0004DFEC820FEF754FD1120FFF78DFF642066
:101AD000FEF74EFD2120FFF787FFB120FFF784FFBF
:101AE0000520FFF773FF3A20FFF770FF3A20FFF75A
:101AF0006DFFB220FFF778FF0520FFF767FF3A2060
:101B0000FFF764FF3A20FFF761FFB320FFF76CFF98
:101B10000520FFF75BFF3A20FFF758FF3A20FFF759
:101B200055FF0520FFF752FF3A20FFF74FFF3A20FD
:101B3000FFF74CFFB420FFF757FF0320FFF746FFE6
:101B4000C020FFF751FF6220FFF740FF0220FFF7A0
:101B50003DFF0420FFF73AFFC120FFF745FFC020FB
:101B6000FFF734FFC220FFF73FFF0D20FFF72EFFE6
:101B70000020FFF72BFFC320FFF736FF8D20FFF774
:101B800025FF6A20FFF722FFC420FFF72DFF8D20DD
:101B9000FFF71CFFEE20FFF719FFC520FFF724FF1A
:101BA0000E20FFF713FFE020FFF71EFF1020FFF7C6
:101BB0000DFF0E20FFF70AFF0220FFF707FF0320AB
:101BC000FFF704FF0E20FFF701FF0720FFF7FEFEDF
:101BD0000220FFF7FBFE0720FFF7F8FE0A20FFF7C1
:101BE000F5FE1220FFF7F2FE2720FFF7EFFE372069
:101BF000FFF7ECFE0020FFF7E9FE0D20FFF7E6FE01
:101C00000E20FFF7E3FE1020FFF7E0FEE120FFF7D4
:101C1000EBFE1020FFF7DAFE0E20FFF7D7FE0320C1
:101C2000FFF7D4FE0320FFF7D1FE0F20FFF7CEFE13
:101C30000620FFF7CBFE0220FFF7C8FE0820FFF7C3
:101C4000C5FE0A20FFF7C2FE1320FFF7BFFE2620C5
:101C5000FFF7BCFE3620FFF7B9FE0020FFF7B6FE07
:101C60000D20FFF7B3FE0E20FFF7B0FE1020FFF7A8
:101C7000ADFE3A20FFF7B8FE0520FFF7A7FE36209D
:101C8000FFF7B2FE7820FFF7A1FE2920FFF7ACFE98
:101C900007B000BD1C3802400000024000BFFEE754
:101CA0007047000002480068C0F30220704700003F
:101CB0000CED00E010B5002807DA0A07140E054AFB
:101CC00000F00F031B1FD45403E00A07130E024A4F
:101CD000135410BD18ED00E000E400E07047000070
:101CE00018B50246002300212548006800F0F000E6
:101CF00050BB23481C30006800F0805020B12148C0
:101D0000006800F4C05318E000BF1D481C30006894
:101D100040F080501A4C1C3420602046006800F0CF
:101D20008050009000BF00BF1648006800F4C05308
:101D30002046006820F080502060B3F5C05F03D1DA
:101D4000B2F5404F00D1012100BF012905D10E4855
:101D5000006840F004000C4C20600B48006820F044
:101D600001000843084C206000BF2046006800F0D6
:101D70000100884201D0012018BD0020FCE70000CE
:101D80000838024000700040003C0240704710B527
:101D9000FEF7F0FCFFF74BFC10BD000010B592B051
:101DA0001B48006820F4C05040F4006018490860E7
:101DB00002200590012008901020099002200E902A
:101DC00000210F9110914105119105A8FEF722FF06
:101DD0000F200090032001900020029003900490B7
:101DE00001216846FEF742FDFEF7B4FE4FF47A711A
:101DF000B0FBF1F42046FFF700FC0420FFF7E8FBFE
:101E000000221146501EFEF7DEFC12B010BD00008D
:101E1000007000401448006840F480701249086067
:101E2000114808300068114908400F49083108601E
:101E30000D4800680E4908400B49086008460068D4
:101E400020F48020086008480830006820F47D00F5
:101E50000549083108600020091D08604FF0006046
:101E60000449086070470000003802400CC0FF8839
:101E7000FEFFFEEE08ED00E000BFFEE702E008C84E
:101E8000121F08C1002AFAD170477047002001E0F4
:101E900001C1121F002AFBD17047000008B54FF0A6
:101EA0000009FEF76FFCFFF779FFFFF7DBFD4FF648
:101EB000FF70FFF7E1FB4FF6FF70614908600022F9
:101EC0004FF400415F48FEF749FCB7E04FF478401B
:101ED00020230022114600901C20FFF759FC4FF4EC
:101EE000784020230122002100903C20FFF750FC85
:101EF0004FF4784020230222002100905C20FFF75D
:101F000047FC4FF478401023002228210090142031
:101F1000FFF73EFC4FF47840102301222821009067
:101F20002420FFF735FC4FF47840102302222821AB
:101F300000903420FFF72CFC4FF47840102303224C
:101F4000282100904420FFF723FC4FF47840102311
:101F50000422282100905420FFF71AFC4FF4784007
:101F600010230522282100906420FFF711FC4FF474
:101F7000784010230622282100907420FFF708FCE7
:101F80004FF4784330A23C210020FFF7EDFC4FF4E2
:101F9000784005234A463C2100906820FFF77AFCF0
:101FA0004846FEF7B0F907462B4A2C4BFEF7F0F8EF
:101FB0000546FEF7BBF981464FF47A70FEF7D8FA72
:101FC0004FF6FF70FFF758FB4FF4784324A200212F
:101FD0000A20FFF7C9FC4FF478400323A022002118
:101FE00000904620FFF716FC4FF478431EA2142100
:101FF0000A20FFF7B9FC4FF4784002235022142145
:1020000000904620FFF706FC00240DE004EB84015D
:10201000272303EBC10204EB8401C8004F232821CE
:10202000FFF780FC601CC4B2042CEFDB4FF47A7025
:10203000FEF79EFA4FF6FF70FFF71EFB46E7000023
:102040006403002000000240302E393620544654EC
:1020500020535049000000007B14AE47E17A843FD2
:102060004C43445F573A00004C43445F483A0000F9
:1020700010B50246012000E050430B1EA1F10104FF
:10208000E1B2F9D110BD030406080C10182030008D
:102090000000000000000001020304060708090018
:1020A0000000000102030400000000000000000026
:1020B00000000000000000000000080808080808F0
:1020C0000800001818000000486C241200000000EE
:1020D000000000000000000000002424247F1212F1
:1020E000127F12121200000000081C2A2A0A0C1883
:1020F00028282A2A1C080800000022251515152A60
:10210000585454542200000000000C1212120A7697
:10211000252911916E00000006060403000000004E
:10212000000000000000000040201010080808080F
:1021300008081010204000000204080810101010B9
:10214000101008080402000000000008086B1C1CA6
:102150006B08080000000000000000080808087F65
:10216000080808080000000000000000000000004F
:10217000000000060604030000000000000000FE4E
:10218000000000000000000000000000000000004F
:1021900000000006060000000080404020201010D3
:1021A00008080404020200000000182442424242CF
:1021B00042424224180000000000080E08080808E7
:1021C000080808083E00000000003C42424220206F
:1021D000100804427E00000000003C42422018200B
:1021E000404042221C00000000002030282424220D
:1021F000227E20207800000000007E0202021A26C3
:10220000404042221C0000000000382402021A262E
:10221000424242241800000000007E2222101008D2
:10222000080808080800000000003C424242241848
:10223000244242423C000000000018244242426412
:10224000584040241C000000000000000018180046
:102250000000001818000000000000000000080046
:1022600000000000080804000000402010080402DC
:10227000040810204000000000000000007F000063
:10228000007F000000000000000002040810204051
:10229000201008040200000000003C42424640209A
:1022A000101000181800000000001C225A55555547
:1022B000552D42221C0000000000080818141424A8
:1022C0003C224242E700000000001F2222221E2280
:1022D000424242221F00000000007C4242010101F4
:1022E000010142221C00000000001F224242424223
:1022F000424242221F00000000003F4212121E1202
:10230000120242423F00000000003F4212121E1221
:10231000120202020700000000003C22220101011B
:10232000712122221C0000000000E7424242427E4E
:1023300042424242E700000000003E080808080848
:10234000080808083E00000000007C101010101063
:102350001010101010110F0000007722120A0E0A40
:10236000121222227700000000000702020202027D
:10237000020202427F000000000077363636362A1D
:102380002A2A2A2A6B0000000000E346464A4A52E5
:10239000525262624700000000001C22414141414C
:1023A000414141221C00000000003F424242423EA7
:1023B000020202020700000000001C2241414141CC
:1023C000414D53321C60000000003F4242423E1229
:1023D00012222242C700000000007C424202041880
:1023E000204042423E00000000007F4908080808E3
:1023F000080808081C0000000000E7424242424270
:10240000424242423C0000000000E74242222424B3
:10241000141418080800000000006B494949495588
:1024200055362222220000000000E742242418181A
:1024300018242442E7000000000077222214140828
:10244000080808081C00000000007E212010100869
:10245000040442423F000000780808080808080801
:1024600008080808087800000002020404080808A8
:1024700010102020204040001E10101010101010CE
:1024800010101010101E0000384400000000000062
:10249000000000000000000000000000000000003C
:1024A000000000000000FF0006080000000000001F
:1024B00000000000000000000000000000003C429E
:1024C00078444242FC0000000000030202021A2687
:1024D000424242261A00000000000000000038447A
:1024E000020202443800000000006040404078448E
:1024F00042424264D80000000000000000003C425C
:102500007E0202423C0000000000F08808087E08BD
:10251000080808083E0000000000000000007C22BF
:10252000221C023C42423C000000030202023A46E6
:1025300042424242E700000000000C0C00000E087E
:10254000080808083E000000000030300000382075
:102550002020202020221E0000000302020272120E
:102560000A1612227700000000000E08080808086A
:10257000080808083E0000000000000000007F92EC
:1025800092929292B70000000000000000003B46CB
:1025900042424242E70000000000000000003C42CE
:1025A000424242423C0000000000000000001B26A6
:1025B000424242221E020700000000000000784450
:1025C000424242447840E000000000000000774CA6
:1025D000040404041F0000000000000000007C420E
:1025E000023C40423E0000000000000008083E0897
:1025F00008080808300000000000000000006342E6
:1026000042424262DC000000000000000000E7429D
:102610002424140808000000000000000000EB491A
:1026200049555522220000000000000000007624D9
:10263000181818246E000000000000000000E74297
:1026400024241418080807000000000000007E225F
:10265000100808447E000000C02020202020102008
:102660002020202020C0001010101010101010107A
:1026700010101010101010000608080808081008A4
:10268000080808080806000C32C20000000000001C
:1026900000000000000000FFFFFFFFFFFFFFFFFF43
:1026A000FFFFFFFFFFFFFFFFFFFFFFFFFFFFFFFF3A
:1026B000FFFFFFBEF77DEFBAD6B6B5F39CB294B379
:1026C0009CB29434A5F7BDFBDE7DEFFFFFFFFFFF5B
:1026D000FFFFFFFFFFFFFFFFFFFFFFFFFFFFFFFF0A
:1026E000FFFFFFFFFFFFFFFFFFFFFFFFFFFFFFFFFA
:1026F000FFFFFFFFFFFFFFFFFFFFFFFFFFFFFFBE2B
:10270000F7FBDEF39CCB5AC73904218210421042FA
:1027100010410883184529C7390C6375AD3CE7BEE5
:10272000F7FFFFFFFFFFFFFFFFFFFFFFFFFFFFFFC1
:10273000FFFFFFFFFFFFFFFFFFFFFFFFFFFFFFFFA9
:10274000FFFFFFFFFFFFFFFFFFFFFFFFFF3CE7B2C1
:10275000940842C3188210042145298631863186A7
:102760003186314529042182104108C3180842F3FB
:102770009C3CE7FFFFFFFFFFFFFFFFFFFFFFFFFFA7
:10278000FFFFFFFFFFFFFFFFFFFFFFFFFFFFFFFF59
:10279000FFFFFFFFFFFFFFFFFFFFFFFBDE0C63C339
:1027A00018C3184529C73908420842084208420898
:1027B000420842C739C7398631863104214108822F
:1027C00010CB5ABAD6FFFFFFFFFFFFFFFFFFFFFF4F
:1027D000FFFFFFFFFFFFFFFFFFFFFFFFFFFFFFFF09
:1027E000FFFFFFFFFFFFFFFFFFFBDECB5A8210451D
:1027F00029C73908420842094A494A494A494A49C7
:102800004A494A0842C739C739C7398631452983F9
:10281000180000C84138C6FFFFFFFFFFFFFFFFFFA2
:10282000FFFFFFFFFFFFFFFFFFFFFFFFFFFFFFFFB8
:10283000FFFFFFFFFFFFFF7DEF8E7382104529C76B
:10284000390842094A8A523084CF7B8A52494A4A1F
:1028500052494ACB5ACF7B0C630842C7398631456F
:1028600029C3180000494ABAD6FFFFFFFFFFFFFF48
:10287000FFFFFFFFFFFFFFFFFFFFFFFFFFFFFFFF68
:10288000FFFFFFFFFFFFFFF39CC3180421C73908B8
:1028900042494A494A72947DEF7DEFB2944A5249C7
:1028A0004A8A5275ADBEF7BAD64D6BC739C739865D
:1028B000314529C3184108CF7B7CE7FFFFFFFFFFAD
:1028C000FFFFFFFFFFFFFFFFFFFFFFFFFFFFFFFF18
:1028D000FFFFFFFFFFBAD608428210C739084249FE
:1028E0004A494A8E73FBDEFFFFBEF7BAD68E7308E5
:1028F0004230843CE77DEFFFFFB6B5494AC73986D1
:10290000314529042141084529B6B5FFFFFFFFFFE6
:10291000FFFFFFFFFFFFFFFFFFFFFFFFFFFFFFFFC7
:10292000FFFFFFBEF7718C410845290842494A491B
:102930004A4A52B294BEF7BEF7B294CF7BCF7B49DE
:102940004AB6B5F39C0C6338C6BAD60C638739C750
:102950003986314529C318410830847DEFFFFFFFD8
:10296000FFFFFFFFFFFFFFFFFFFFFFFFFFFFFFFF77
:10297000FFFFFF3CE7CB5A4108C7390842494A4AA2
:10298000528A52F39CFFFF7DEFC739C3180C63CB0B
:102990005AB6B5B294CB5A75ADFAD64D6B8739C7D6
:1029A0003986314529042141088A5279CEFFFFFF3B
:1029B000FFFFFFFFFFFFFFFFFFFFFFFFFFFFFFFF27
:1029C000FFFFFF38C686310421C841494A494A4AB7
:1029D00052494AB18CBEF7BEF7B294CF7BCF7B4948
:1029E0004A74A57DEF7CE7BEF779CE0C63C739C783
:1029F000398631452904218210452975ADBEF7FF7E
:102A0000FFFFFFFFFFFFFFFFFFFFFFFFFFFFFFFFD6
:102A1000FFFFFF34A5821086310842494A494A8A9D
:102A200052494A4D6BBAD6FFFFFFFF79CE0D63C7FF
:102A300039CF7B7DEFFFFFFFFF75AD08428631C7C1
:102A400039863145294529C318C318B2947DEFFF53
:102A5000FFFFFFFFFFFFFFFFFFFFFFFFFFFFFFFF86
:102A6000FFBEF7B28C4108C7390842494A494A8A31
:102A7000528A524A4AD07B7AC67BBE906BC939884B
:102A800031C939B384BBC6F8B5CC5A8631C739C70A
:102A900039863145294529C420410830843CE7FF67
:102AA000FFFFFFFFFFFFFFFFFFFFFFFFFFFFFFFF36
:102AB000FF3CE78A4AC310C7390842494A494A4A93
:102AC0004A4A42093A084A096B497BC67A05834655
:102AD00083C57AC672097B485A873188218829863E
:102AE00031863145294529042141084A4ABAD6FF91
:102AF000FFFFFFFFFFFFFFFFFFFFFFFFFFFFFFFFE6
:102B0000FFF7C582500541C7290842494A4A424950
:102B10004A097B889BC6B321D4A0DCE1E461ED6166
:102B2000ED21EDA0E420DC80CB43ABC482065A4704
:102B300021462945290429041982108218F39C7D15
:102B4000EFFFFFFFFFFFFFFFFFFFFFFFFFFFFF7D27
:102B5000EF4D9300A082B8C7310932494A867A43C3
:102B6000C36BEDF4F6EBFD20FD20FD60FDA0FDA0A4
:102B7000FD60FD60FD20FDE0FCA0FC60F4C1DB8396
:102B80009AC54945290419C42082380050CB6ABA35
:102B9000D6FFFFFFFFFFFFFFFFFFFFFFFFFFFFFB72
:102BA000EE04A100C000F0C3A0C8414942059B202B
:102BB000FCA4FC69FDE8FD63FD20FD60FD60FD6097
:102BC000FD20FD20FDE0FCE0FCA0FC60FC20FC41C1
:102BD000D3C5494519C438826841880070495A797B
:102BE000CEFFFFFFFFFFFFFFFFFFFFFFFFFFFFFB2A
:102BF000F682C000D086C146F141C8457989528825
:102C000062866AC67AC4BBE1FC60FD60FDA0FDA0DF
:102C1000FD60FD60FDE0FC60E403938472446AC5DE
:102C2000414529C35841A8409800B000600C6B7919
:102C3000CEFFFFFFFFFFFFFFFFFFFFFFFF7DEFCE98
:102C400083828800F8C4D80CF38AFA82E882B045FF
:102C500069C7510842083A865A839BA2BC22CD21FB
:102C6000CDA1C422B4C47A063A862945290531C4C7
:102C700050419000C000A800A000A800304A4ABA05
:102C8000D6FFFFFFFFFFFFFFFFFFFF7DEF8E73C348
:102C900018053982A800F8C3F84DFB4DFBC7F9C3EE
:102CA000F082D8C3B00481456146518649864946C1
:102CB0004145414541454105490461829041B0008B
:102CC000D000C800A800A800B8415882108210B2F5
:102CD00094BEF7FFFFFFFFFFFFBEF7CF7B8210041C
:102CE0002186298641049940E841F886F9CBFA49C2
:102CF000FA82F800F800F000E841D841D041C04124
:102D0000C041C041C041C800D000E000E000D80090
:102D1000D000B800A8418882488210821000004587
:102D20002979CEFFFFFFFFBEF7F39C8210C3184541
:102D3000298631C731307CF3DC86E100F000F841B0
:102D4000F841F800F800F800F800F800F800F80082
:102D5000F800F800F800F800E800E000E000D80013
:102D6000C841A08A9A0C63041182108210410800A5
:102D7000004D6B7DEFFFFFFBDE08424210452986C8
:102D8000318631494A38BEFFFF38D686A900C800CF
:102D9000E000F000F800F800F800F800F800F80093
:102DA000F800F800F000F000E800E000D0C3988AD6
:102DB0008AB2A4BAC6F7B508424108821041080099
:102DC000004529F7BDFFFF718C4108042145298684
:102DD0003186310C633CE7FFFF79D646B900E0420B
:102DE000C882A882B041D882E882F041E841E84137
:102DF000E841F041E841D804C108924D8B34A5FB6D
:102E0000C6FBD6BACE3CE73084C31841084108005F
:102E1000004108CF7B7DEF494A0000042145294647
:102E20003186313084FFFFFFF7F7DD09DA83F801DF
:102E3000F042C08298499AF3B4F3CC71BC8EBB8E39
:102E4000BB30BC71BCF3BCB6BDFBCEBEE77DE73B7F
:102E5000DFBAD679CEFBDE75AD8631410841080078
:102E6000000000494AFBDE042141080421452945B0
:102E7000298739B294FFFFBEF734DD0CEB09FA0065
:102E8000F001D800D88BD27DE7FFFFFFFFFFFFFFE7
:102E9000FFFFFFFFFFFFFFFFFFBEFF7DEFFBDEFB3E
:102EA000DEBAD679CEBAD678C6C739000041080056
:102EB000000000C73979CE00008210C31804210534
:102EC000298631B39CFFFFFFF775DDC7E9C7F9011C
:102ED000F801F000E849E2FBEEFFFFFFFFFFFFFF14
:102EE000FFFFFFFFFFFFFFFFFFBEF77DEFFBDEFBF6
:102EF000DEBAD679CEBAD6B9CE08420000000000BC
:102F0000000000C73938C600008210821004210476
:102F10002145293084FFFFFFFF38DEC4D000F001D7
:102F2000F800F800F008D2FBE6FFFFFFFFFFFFFF0D
:102F3000FFFFFFFFFFFFFFFFFFBEF77DEFFBDEBAE6
:102F4000D679CE79CEBAD679CEC7394108000000FD
:102F5000000000863138C600000000C318CB5A8636
:102F600031C318CB5A7DEFFFFF7DEFCFBBC3B0411C
:102F7000D041D082B84DB37DE7FFFFFFFFFFFFFFD9
:102F8000FFFFFFFFFFFFFFBEF7BEF73DEFFBDEBA1F
:102F9000D679CE79CEFAD6F7BD0421863104210048
:102FA000000000863138C68631C318CB5A75ADCFC4
:102FB0007B41088631F7BDFFFFFFFFBEEF74B530E0
:102FC0009C309C72A4BBD6FFFFFFFFFFFFFFFFFFFB
:102FD000FFFFFFFFFFFFFFBEF77DEF3CE7FBDEBA21
:102FE000D679CE79CE3CE7718C81080C63CF7B8299
:102FF0001000008A5238C675AD718CB6B53CE7FB3F
:10300000DEC7390000CF73FFFFFFFFFFFFFFFFFFA9
:10301000FFFFFFFFFFFFFFFFFFFFFFFFFFFFFFFFC0
:10302000FFFFFFFFFFBEF77DEF7DEF3BDFFAD679B5
:10303000CE79CEFBDEB9CEC739C420718CBAD67139
:103040008CCB5AB294BAD6FFFF7DEF7DEFFFFFFF26
:10305000FFB6B54629051975A5FFFFFFFFFFFFFF66
:10306000FFFFFFFFFFFFFFFFFFFFFFFFFFFFFFFF70
:10307000FFFFFFFFFFBEF77DEF3CE7FBDEBAD6792F
:10308000CEBAD6FCDE4E6342080C63F7BDBEF7FF36
:10309000FFFBDEFBDEBEF7FFFFFFFFFFFFFFFFFFD3
:1030A000FFFFFFF49C04210521B6A5FFFFFFFFFFF2
:1030B000FFFFFFFFFFFFFFFFFFFFFFFFFFFFFFFF20
:1030C000FFBEF7BEF77DEF3CE7FBDEBAD679CEFB5D
:1030D000DEBBD6D17383188639349DBDEFFFFFFF69
:1030E000FFFFFFFFFFFFFFFFFFFFFFFFFFFFFFBE31
:1030F000FF35D6EBCC43B340510519F58CBEEFFF3D
:10310000FFFFFFFFFFFFFFFFFFFFFFFFFFBEF7BE59
:10311000F77DEF7DEF3CE7FBDEBADEBAD63CDF3A67
:10312000BE4F63824940A323B4CC833ABEFFFFFF66
:10313000FFFFFFFFFFFFFFFFFFFFFFFFFFBFF7B531
:10314000BD829220F4A0FC60E4408284418F6B77C2
:10315000AD3DE7FFFFFFFFFEFFBEF7BEF7BEF77D09
:10316000EF7DEF3CE7FBDEFBDE3DE7BBCE369D0BA4
:103170006B416A60C420FE60F5008BC76A38C6BE2A
:10318000F7FFFFFFFFFFFFFFFFFFFFFFFF7DEF4B9D
:103190007B80B2A0FCA0FCE0FCE0FCC0CBC18A4577
:1031A000624D6BB394F7BD3DDFFFF7FFFFBEF77DC8
:1031B000EF7DEF7DE73DDFBAC675A58D7B847A4054
:1031C000B3E0ECE0FDE0FD60F520E5A0D40A6BFB88
:1031D000DEFFFFFFFFFFFFFFFFFFFFFFFF7DEFCCE5
:1031E0009340EB60FCA0FCE0FC20FD60FD20F5A01E
:1031F000D4C0BB429B458B6B9CAE9C718CB394330B
:103200009D34A5F2A4F0B4CA9B049B40BB20E420EB
:10321000FDA0FDA0FDE0FDE0FDE0FD20C4885A38E2
:10322000BEFFFFFFFFFFFFFFFFFFFFFFFFFFFF7876
:10323000D646AB40DB20F460FCA0FCE0FC60FDA0C7
:10324000FD60FD20F5A0DCC0B3C05186290D638F61
:103250007B0D5BC741018200C3C0E360FCA0FCE0C2
:10326000FCE0FC60F560F520E5809B8662308479A7
:10327000CEFFFFFFFFFFFFFFFFFFFFFFFFFFFFFF8F
:10328000FF38C62D9C059343A382B3C2BBC2BB22A9
:10329000B482A34293C37A85620B637184B6B57915
:1032A000CE79C6B5AD70944A8B06830493049B43D4
:1032B0009B439B4393048308738D73B39479CE7DB2
:1032C000EFFFFFFFFFFFFFFFFFFFFFFFFFFFFFFF1E
:1032D000FFFFFF3CDF38BE75B533A533A5F39CF384
:1032E0009CF39CF394F39C35A5F8BDFBDEBEF7FF81
:1032F000FFFFFFFFFF7EEFBBD6F8BDB6AD75AD3467
:10330000A5339D349D35A5B7AD79C63CE7BEF7FF23
:10331000FFFFFFFFFFFFFF00383300080000002021
:103320006C03000014050008DC3400086C03002066
:10333000040400008C1E0008A468FF1F2A8004FA01
:103340000104080D1A1080010CF0FFFF0F308001FE
:10335000040419246A070C09124809100401131AFD
:10336000011914FFFF011A03082904E90C338181B4
:103370002A0304261CFCFFFF3F1A400B5AC0282AD0
:10338000C00C49041BFFFF4C22411A0468230E7134
:103390001B07815A14010760100B010E1898011CBD
:1033A00004E001181927F11A08C4231F304A0C043D
:1033B0006809100C30FE3F0C30041069041BC00C6F
:1033C000281E0D3030060E049C0C3010044B18865D
:1033D00004101208060D300C860D3006EE0F300278
:1033E000FC0D30015B0CF040193C2A0F081A109EAE
:1033F000D1299019CB4908890417E0FFFF0360C069
:1034000009130409161C59181A010429441A08043E
:103410005A100419F8130138041780FF1F2603C03F
:10342000FFFF071A8004293D326032181A0C135A24
:10343000030419A41C800108045E1CFCFFFF3F105C
:103440000928041AFC0432E062405A80026DFC1F15
:10345000841002290C69184DF80F08080412802303
:10346000FF7F290C490E2D8410A22045280FFE3F16
:103470000220F22702200220FA2F2221022809121C
:103480002912290A2E02201AC95E99081650804076
:103490008040195213FE1F120812042C0280016290
:1034A000697829021AA0A518161008B8080F09088B
:1034B000090808BF0808091C092C080A78CA1179EC
:1034C000012A04023CC87F3F08180BA83F18210CB2
:0C34D000110B12080A0E860A8A116460B3
:04000005080000F5FA
:00000001FF
