:020000040800F2
:1000000070070020D5000008DD130008490E000825
:1000100000000000000000000000000000000000E0
:10002000000000000000000000000000991400081B
:100030000000000000000000251400089B140008C8
:10004000E7000008E7000008E7000008E7000008F4
:10005000E7000008E7000008E7000008E7000008E4
:10006000E7000008E7000008E7000008E7000008D4
:10007000E7000008E700000800000000E7000008B3
:1000800000000000E7000008000000000000000081
:10009000E700000800000000E7000008E700000893
:1000A000E7000008E7000008E7000008E700000894
:1000B000E7000008E7000008E7000008E700000884
:1000C0000348854600F022FA00480047BD150008A5
:1000D000700700200448804704480047FEE7FEE719
:1000E000FEE7FEE7FEE7FEE71D150008C100000879
:1000F00030B50B46014600202022012409E00D46C0
:10010000D5409D4205D31D469540491B2546954047
:1001100040191546521E002DF1DC30BD024670B567
:100120004A40D30FDB0740002DD04A002AD0010EF1
:10013000140E000212020919400A520A8418E5013D
:1001400004465443000A120A2E045043A4194219CB
:10015000200CC543AA18120C0125AD03521C5219DC
:1001600012047F39240400D0521C104301D44000F3
:10017000491EC2B20C06C0092018401C4008802A43
:1001800002D003E0002070BD40084000002900DAE2
:100190000020184370BD0000F0B5074608465840DF
:1001A00087B0C00F049048000E4659004008490827
:1001B000BC1A884105D2384631461E4617460B46C2
:1001C00002465800400810434CD0300D03904005C3
:1001D0005900400D490D0590401A0290402872DAEE
:1001E00018030121000B09050843019004980092AF
:1001F000002805D0019952420020884100920190C8
:10020000029840210A1A0199009800F0BBF80546AF
:100210000C466B4607CB00F0C5F8C0197141039A34
:100220000E0D0023D71756401A467A40164344D085
:10023000049A002A2DD0029A012A039A15DC12058D
:10024000C01A914101263605001C7141D20F059E4E
:10025000D2070093019202962A46234600F003F942
:1002600007B0F0BD38463146FAE71605224A0F4678
:10027000B218C01AB74101210905001C4F410018EE
:100280007F41114618187941E20F10436D196441FE
:1002900013E0E2076D0815436408C2071443039A8C
:1002A00001261205C01A91413605001C7141CE0786
:1002B000400830434908C01851412A46234600F0FF
:1002C000C5F8CDE7FFE7049801224000C117121AD4
:1002D00000238B4104983146C417381AA141EEE738
:1002E00030B40124E407634030BC55E730B4012446
:1002F000E407614030BC4FE70000E0FF41004002EE
:100300000122400AD205090E80187F2901DA002057
:100310007047962903DC9622511AC84070479639D7
:1003200088407047C20FD207400040080BD0C10D73
:100330000723DB01C91840020905400A1143C2081E
:10034000400711437047002001467047CB0FDB0781
:10035000490010B5490802460A4307D00A0D072490
:100360000903E401090B121B002A01DC002010BD67
:10037000C900440F0C43C100E018D205801800F0FA
:1003800024F810BD10B5202A04DB0146203A914024
:10039000002010BD914020239C1A0346E3401943DE
:1003A000904010BD10B5202A06DBCB170846203A36
:1003B0001041C1170B4306E00B461341D0402024E7
:1003C000A21A91400843194610BD002904DA401CC6
:1003D000490001D140084000704770B40024050C6A
:1003E00005D11024000402D1002921D01124050ECA
:1003F00001D100020834050F01D10001241D850F31
:1004000001D18000A41C002801DB4000641C0029ED
:1004100008D020252E1B0D46F540A14000D001211B
:100420002943084301061B1B000ADB1D02D50020DF
:1004300070BC7047DB05181880180029F8DA401CDA
:100440004900F5D170BC40084000704710B5002B42
:1004500008DA0024401C614192185B411A4301D123
:100460004008400010BDF0B51FB482B005460C0036
:1004700003D0084601F07CF802E001F079F8203062
:100480000246009021462846FFF77CFF049B059A10
:1004900004460F4618431143084314D0184610432E
:1004A0001BD0009840210A1A1846059900F040F820
:1004B00005460E46009A05990498FFF763FF084326
:1004C00005D0012004E02046394607B0F0BD0020E9
:1004D000C11705430E432C43374300990E9863051B
:1004E000401A7905E40A00220C43FD0A0A3002D5BD
:1004F00000200146E9E70105101969410C9C0D9D9A
:1005000000196941FFF7A2FFDFE70000064C012553
:10051000064E05E0E36807CC2B430C3C98471034AB
:10052000B442F7D3FFF7D0FDE0290008002A000805
:1005300010B5202A04DB0846203AD040002110BD27
:100540000B46D340D0402024A21A914008431946BC
:1005500010BD70B58C180578401C6B075B0F01D17E
:100560000378401C2A1106D10278401C03E006786B
:100570000E70401C491C5B1EF9D12B0705D40023CB
:10058000521E0DD40B70491CFAE70378401CCB1A9D
:10059000921C03E01D780D70491C5B1C521EF9D59E
:1005A000A142D8D3002070BD31B500F0CBF804468D
:1005B00000F0C8F80099001B8842F9D338BD00004C
:1005C000F8B500230124A2E027469F403A4070D0AE
:1005D0004D68022D01D0122D14D1DD08AD002D186B
:1005E00000952D6A5E07AC46F50E0F26AE46AE406E
:1005F0006546B543AC460E697546AE4065462E432A
:10060000009D2E624D68012D05D0022D03D0112DC5
:1006100001D0122D16D185680326AC465D00AE468A
:10062000AE406546B543AC46CE687546AE406546BD
:100630002E43866046680D79BE43ED06ED0F9D4062
:100640003543456006685F000325BD40AE46AE43B6
:100650000D79B446AE07B60FBE4065462E43066020
:10066000C6687546AE438D68BD403543C5604D686C
:10067000ED004BD5294D6E6B26436E639E08284DC9
:10068000B6007519AC46AD689E07360F0F27B74008
:10069000BD4305273F07B84201D1002715E0214F90
:1006A000B84201D1012710E01F4FB84202D1022702
:1006B0000BE02BE01D4FB84201D1032705E01C4F92
:1006C000B84201D1052700E00627B7402F43654611
:1006D000AF60184D2E684F689643FF0300D5164350
:1006E0002E606E684F689643BF0300D516436E6058
:1006F000AE684F689643FF0200D51643AE60EE68C1
:100700004F689643BF0200D51643EE605B1C0A6833
:100710001546DD4000D057E7F8BD0000001002404C
:10072000000001400004005000080050000C005080
:10073000001C005000040140002A01D08161704774
:100740008162704701480068704700006403002020
:1007500002480168491C01607047000064030020E2
:1007600010B506480168402211430160002000F0E6
:1007700007F800F019F8002010BD0000002002402A
:1007800010B5044607487D21C9000068FFF7B0FC9A
:1007900000F03EFB00222146501E00F006F800202B
:1007A00010BD000068030020704710B500F018FE6F
:1007B00010BD0000F8B5054653480E460068C00756
:1007C000C00FB0420AD2504801684908490031437D
:1007D00001600068C007C00FB0426FD128784B4C51
:1007E000800705D5E068F0218843A9680843E060E8
:1007F0002878C00752D06868022817D0032818D07C
:100800002168012818D08905002957DAE16889088C
:1008100089000143E160FFF795FF696807460229F7
:1008200012D003291CD0012926D033E02168890386
:10083000EAE721688901E7E74907E5E7FFF782FF73
:10084000C11B3348814223D8E0680007800F02288B
:10085000F4D123E0FFF776FFC11B2D48814217D862
:10086000E0680007800F0328F4D117E0FFF76AFF64
:10087000C11B274881420BD8E0680007800F012880
:10088000F4D10BE0FFF75EFFC11B2148814201D983
:100890000320F8BDE0680007800FF3D11A48016813
:1008A000C907C90FB1420BD9016849084900314352
:1008B00001600068C007C00FB04201D00120F8BD40
:1008C0002878400706D5E068072109028843E968CF
:1008D0000843E0602878000707D5E0680721C902CF
:1008E00088432969C9000843E06000F01DF8E16809
:1008F000084A0906090F515CC840074908600020F2
:10090000FFF73EFF0020F8BD00200240001002402B
:1009100088130000C429000868030020014800680B
:10092000704700006803002010B5184AD1680C20F9
:10093000084004280BD0082810D00C2810D050688C
:100940000004410F0120C003491C884010BD1068FD
:10095000C00601D50E4810BD0E4810BD0E4810BD92
:1009600088020E4B000F185C0902D368890F491CDE
:10097000DB0301D5084A05E01268D20601D5044A16
:1009800000E0044A5043FFF7B3FB10BD00100240E3
:1009900000093D000024F40000127A00D429000868
:1009A000F8B504460078FE4DC0074AD0E868000755
:1009B000800F022807D0E8680007800F032809D1BC
:1009C000E868C00306D5286880033AD56068002827
:1009D00073D036E0012062680004824203D12968A6
:1009E0000143296011E0052301211B0489049A4277
:1009F0002A6802D10A432A60F1E782432A602A6802
:100A000002400092286888432860606800280CD063
:100A1000FFF798FE064604E0FFF794FE801B64286B
:100A20007ED828688003F7D50BE0FFF78BFE0646DB
:100A300004E0FFF787FE801B6428F1D82868800354
:100A4000F7D42078800741D5E8681F270007800F7A
:100A50003F02012807D0E8680007800F032809D16A
:100A6000E868C00306D42868400717D5E068012865
:100A700023D113E0E068002817D0296809229143A8
:100A800001432960FFF75EFE064604E0FFF75AFEC9
:100A9000801B0228C4D828684007F7D568682169F8
:100AA000B84309020843686010E028684008400025
:100AB0002860FFF747FE064605E095E0FFF742FE97
:100AC000801B0228ACD828684007F7D42078C006DD
:100AD00072D5E868B34E0007800F0AD0E06900289D
:100AE0002868B1495AD008432860FFF72BFE074613
:100AF00044E02868800502D5E069002874D0606A67
:100B000069683140884212D900F08EFC0028AFD1CC
:100B10006868616AB043084368606868000200E082
:100B2000DCE0218C000A0906084368600FE0696870
:100B3000B143014369606868218C0002000A09061C
:100B400008436860606A00F06FFC002890D1606A1A
:100B5000410B0120C003491C8840E96809060A0FBF
:100B60009249895CC840924908600020FFF708FE5E
:100B700022E0FFF7E7FDC01B02288BD8286880051C
:100B8000F7D56868616AB043084368606868218C7B
:100B90000002000A0906084368600DE088432860E7
:100BA000FFF7D0FD064604E0FFF7CCFD801B0228CE
:100BB00088D828688005F7D420787E4E000723D592
:100BC00060690028306910D0012108433061FFF7C7
:100BD000B9FD074604E0FFF7B5FDC01B02287DD82C
:100BE00030698007F7D50FE001E14008400030612F
:100BF000FFF7A8FD074604E0FFF7A4FDC01B02288D
:100C00006CD830698007F7D42078400760D5A86B8E
:100C10000027C00005D4A86B012109070843A86379
:100C2000012765480168C90511D40168821511437F
:100C30000160FFF787FD009005E0FFF783FD009955
:100C4000401A64284AD85C480068C005F5D5564863
:100C5000A268824203D131690143316111E001216F
:100C60008902002A07D005231B029A4203D1326968
:100C70000A433261EFE73269824332613069884367
:100C80003061A06800280ED0FFF75CFD009006E000
:100C9000FFF758FD0099411A484881421ED8306933
:100CA0008005F5D50DE0FFF74DFD009006E0FFF75C
:100CB00049FD0099411A414881420FD830698005A9
:100CC000F5D4002F04D0A96B012000078143A9634C
:100CD0002078800630D53A48421400E080E0A169CF
:100CE000002916D0AB6801210B43AB606B6B0B4343
:100CF0006B63016A11430162FFF724FD064604E0BD
:100D0000FFF720FD801B02286AD8A8688007F7D566
:100D100012E0A96849084900A960016A914301628B
:100D2000FFF710FD064604E0FFF70CFD801B0228CC
:100D300056D8A8688007F7D4A06A002855D0E9687B
:100D40000907890F032952D0012636060228286890
:100D500005D0B0432860FFF7F5FC044642E0B043FD
:100D60002860FFF7EFFC074604E0FFF7EBFCC01B31
:100D7000022835D828688001F7D4216BE06AEA6838
:100D80000843616BFD231B049A4311430843E86049
:100D9000286830432860FFF7D5FC044617E00000C0
:100DA0000010024000E0000000010000C42900081B
:100DB00068030020401002400070004088130000CB
:100DC00000000140FFF7BEFC001B022808D828687D
:100DD0008001F7D509E0FFF7B5FC001B022801D917
:100DE0000320F8BD28688001F5D40020F8BD01205B
:100DF000F8BD0000042204490428086902D0904389
:100E0000086170471043FBE700E000E07047000016
:100E1000094910B5401E884201D9012010BD074C78
:100E200060610321081F00F0DBFA0020A0610720A9
:100E30002061002010BD0000FFFFFF0000E000E087
:100E400010B5FFF7E3FF10BDFEE7F8B507461C46F7
:100E500015460E462A2000F076F9781C00F057F966
:100E6000681C00F054F92B2000F06DF930461A3060
:100E700000F04DF920461A3000F049F92C2000F01E
:100E800062F9F8BD70B5064600214F239F2208463F
:100E9000FFF7DBFF00240025304600F038F96D1C19
:100EA000502DF9D3641CA02CF5D370BD10B5144699
:100EB0000B460246FFF7C9FF204600F028F910BD97
:100EC000FFB583B003981C460E46902826D8402EC6
:100ED00024D8203AD5B233460F33C21D3146FFF72E
:100EE000B4FF002C1CD00024290101910198002599
:100EF00001191748475C30190090F80705D003988E
:100F00000C9A40190099FFF7D1FF6D1C7F08EDB2D4
:100F1000082DF2D3641CE4B2102CE7D307B0F0BD67
:100F200000242F010A483919465C0025F00701D03A
:100F30000C9801E00748006800F0E9F86D1C76089D
:100F4000EDB2082DF2D3641CE4B2102CEAD3E5E72D
:100F50005417000800000020F8B51C461646102B58
:100F600002D0202C02D002E0134D00E0134D0B19EB
:100F70000219521E5B1EFFF768FF64436005070EEF
:100F80007E437619002513E0002431780120A0402B
:100F9000014201D0069802E00848001F006800F0F6
:100FA000B6F8641CE4B2082CEFD36D1CEDB2761CCD
:100FB000BD42E9D3F8BD00008402002004000020F7
:100FC000FFB5002681B01D460746344627E0281BA2
:100FD000401EC1B20A2000F0B3FB01460398FFF7A0
:100FE00087F80A21FFF784F8002E05D1681E844295
:100FF00002DA002908D001260A9830310090E0007A
:10100000C019CAB2002305E00A980090E000C01998
:10101000002320220299FFF753FF641CE4B2AC4284
:10102000D5D305B0F0BD0000FFB5074683B01D461F
:101030001B491046FFF772F8FFF760F90024019092
:101040002AE0281B401EC1B20A2000F079FB0146AD
:101050000198FFF74DF80A21FFF74AF8A81E0E463F
:1010600084420DD10C980090E800C01900232E2274
:1010700010380499FFF724FF641C6D1CE4B2EDB234
:101080000C9800903036E000F2B2C01900230499A9
:10109000FFF716FF641CE4B2AC42D2D307B0F0BD38
:1010A0000000C842F8B5FFF7D0FE0024074D19270D
:1010B000BF0166007019407800F039F8A85D00F0B3
:1010C00036F8641CBC42F4DBF8BD0000441D000887
:1010D000F8B51F4616460D46044614E0902C01D97B
:1010E00000241035402D05D900241F202546C002BC
:1010F000FFF7C8FE00973278002329462046FFF705
:10110000DFFE0834761C30780028E7D1F8BD10B532
:1011100004460520012208210007FFF70DFB2004EB
:10112000000E00F01CF8E0B200F019F810BD10B588
:1011300004460520012208210007FFF7FDFA20469A
:1011400000F00DF810BD10B504460520002208215E
:101150000007FFF7F1FA204600F001F810BD70B566
:10116000052605463607002210213046FFF7E4FA2F
:101170000024002201213046FFF7DEFA280601D5BF
:10118000012200E0002202213046FFF7D5FA0122B9
:1011900011463046FFF7D0FA6806641C050EE4B22B
:1011A000082CE6D3012210213046FFF7C5FA70BDA6
:1011B00030B5884987B0CA6A01200243CA62C96A49
:1011C000854C014001900290009402200525059174
:1011D0002D07039069462846FFF7F2F901222146C0
:1011E0002846FFF7A9FA002204212846FFF7A4FAAF
:1011F000C820FFF7D9F9012204212846FFF79CFAFD
:10120000C820FFF7D1F91120FFF79DFF6420FFF7F9
:10121000CBF92120FFF797FFB120FFF794FF0520BE
:10122000FFF785FF3A20FFF782FF3A20FFF77FFFA5
:10123000B220FFF788FF0520FFF779FF3A20FFF77C
:1012400076FF3A20FFF773FFB320FFF77CFF0520FE
:10125000FFF76DFF3A20FFF76AFF3A20FFF767FFBD
:101260000520FFF764FF3A20FFF761FF3A20FFF700
:101270005EFFB420FFF767FF0320FFF758FFC02091
:10128000FFF761FF6220FFF752FF0220FFF74FFFD9
:101290000420FFF74CFFC120FFF755FFC020FFF7E8
:1012A00046FFC220FFF74FFF0D20FFF740FF002051
:1012B000FFF73DFFC320FFF746FF8D20FFF737FF05
:1012C0006A20FFF734FFC420FFF73DFF8D20FFF7B2
:1012D0002EFFEE20FFF72BFFC520FFF734FF0E2077
:1012E000FFF725FFE020FFF72EFF1020FFF71FFF7D
:1012F0000E20FFF71CFF0220FFF719FF0320FFF766
:1013000016FF0E20FFF713FF0720FFF710FF022044
:10131000FFF70DFF0720FFF70AFF0A20FFF707FF7F
:101320001220FFF704FF2720FFF701FF3720FFF708
:10133000FEFE0020FFF7FBFE0D20FFF7F8FE0E205B
:10134000FFF7F5FE1020FFF7F2FEE120FFF7FBFEAE
:101350001020FFF7ECFE0E20FFF7E9FE0320FFF759
:10136000E6FE0320FFF7E3FE0F20FFF7E0FE062076
:10137000FFF7DDFE0220FFF7DAFE0820FFF7D7FEB9
:101380000A20FFF7D4FE1320FFF7D1FE2620FFF737
:10139000CEFE3620FFF7CBFE0020FFF7C8FE0D2063
:1013A000FFF7C5FE0E20FFF7C2FE1020FFF7BFFEBD
:1013B0003A20FFF7C8FE0520FFF7B9FE3620FFF7F9
:1013C000C2FE7820FFF7B3FE2920FFF7BCFE07B06E
:1013D00030BD000000100240FF8000007047000098
:1013E0008307FF22DB0E9A408907090E99400028E7
:1013F0000BDA0007000F0838830808489B0018180C
:10140000C36993430B43C3617047830804489B003F
:101410001B181868904308431860704700ED00E0FF
:1014200000E400E07047000070B517490023CA6867
:101430001206120F18D18A6B154CD500134A02D52B
:101440001268224009E08E6B01252D072E438E6322
:1014500012688E6B2240AE438E63A24204D10321F8
:101460008903884200D101230A48016849084900DC
:10147000194301600068C007C00F984201D00120E5
:1014800070BD002070BD00000010024000700040E0
:101490000018000000200240704710B5FFF758F90F
:1014A000FFF7CEFC10BD000010B51B4894B00168DA
:1014B0000322D2029143C2148918016002200090D5
:1014C00001210A90039140040C9000011021002496
:1014D0000D900B9404916846FFF762FA0F200E906E
:1014E00003200F9010941194012112940EA8FFF77D
:1014F00061F9FFF713FA7D21C900FEF7F9FDFFF747
:1015000087FC0420FFF776FC00221146501EFFF7EF
:101510004CF914B010BD0000007000401048016884
:10152000821511430160C1680E4A1140C160016813
:101530000D4A1140016081684908490081600168D5
:101540000122920491430160C168FD22120491437B
:10155000C160002101610549C00388607047000037
:10156000001002400C40FF88F6FFF6FE00ED00E0A0
:101570002021020C01D010211046020A01D0104691
:101580000839020901D01046091F820801D010460F
:10159000891E420801D0881E7047081A704702E071
:1015A00008C8121F08C1002AFAD1704770470020EE
:1015B00001E001C1121F002AFBD1704708B50026C7
:1015C000FFF7CEF8FFF770FFFFF7F2FD504D28460A
:1015D000FFF758FC4F480121056005200022C90390
:1015E0000007FFF7A9F87D27FF001F24E40200226F
:1015F000202311461C200094FFF7AEFC202301227B
:1016000000213C200094FFF7A7FC202302220021A8
:101610005C200094FFF7A0FC102300222821142056
:101620000094FFF799FC1023012228212420009424
:10163000FFF792FC10230222282134200094FFF7A8
:101640008BFC10230322282144200094FFF784FC04
:1016500010230422282154200094FFF77DFC10233E
:101660000522282164200094FFF776FC102306222F
:10167000282174200094FFF76FFC234626A23C210A
:101680000020FFF725FD052332463C216820009409
:10169000FFF7CAFC3046FEF745FE234A234BFEF710
:1016A0007BFDFEF753FE06463846FEF77DFF2846D3
:1016B000FFF7E8FB23461EA200210A20FFF708FDE2
:1016C0000323A022002146200094FFF779FC234643
:1016D00019A214210A20FFF7FBFC02235022142137
:1016E00046200094FFF76CFC002420462821484344
:1016F000024627324F23FFF7D5FC641CE4B2042CCA
:10170000F3D33846FEF750FF2846FFF7BBFB6CE7E4
:10171000FFFF000000000020302E393620544654D0
:1017200020535049000000007B14AE47E17A843F0B
:101730004C43445F573A00004C43445F483A000032
:101740000246012000E050430B46491EC9B2002B5F
:10175000F9D1704700000000000000000000000008
:101760000000000000000008080808080808000041
:101770001818000000486C2412000000000000004F
:10178000000000000000002424247F1212127F12A7
:10179000121200000000081C2A2A0A0C1828282A05
:1017A0002A1C080800000022251515152A58545433
:1017B000542200000000000C1212120A7625291192
:1017C000916E000000060604030000000000000007
:1017D0000000000000402010100808080808081049
:1017E000102040000002040808101010101010080B
:1017F000080402000000000008086B1C1C6B0808AD
:101800000000000000000000080808087F08080821
:1018100008000000000000000000000000000000C0
:10182000060604030000000000000000FE000000A7
:1018300000000000000000000000000000000000A8
:101840000606000000008040402020101008080418
:101850000402020000000018244242424242424276
:1018600024180000000000080E08080808080808EE
:10187000083E00000000003C4242422020100804C4
:10188000427E00000000003C4242201820404042BE
:10189000221C0000000000203028242422227E2068
:1018A000207800000000007E0202021A264040421A
:1018B000221C0000000000382402021A2642424284
:1018C000241800000000007E2222101008080808DA
:1018D000080800000000003C424242241824424212
:1018E000423C00000000001824424242645840403C
:1018F000241C000000000000000018180000000078
:10190000181800000000000000000008000000009F
:101910000008080400000040201008040204081019
:10192000204000000000000000007F0000007F0059
:1019300000000000000000020408102040201008F1
:10194000040200000000003C42424640201010000B
:10195000181800000000001C225A555555552D42FC
:10196000221C00000000000808181414243C224225
:1019700042E700000000001F2222221E22424242B3
:10198000221F00000000007C4242010101010142CF
:10199000221C00000000001F2242424242424242FA
:1019A000221F00000000003F4212121E12120242CB
:1019B000423F00000000003F4212121E12120202BB
:1019C000020700000000003C2222010101712122D7
:1019D000221C0000000000E7424242427E42424296
:1019E00042E700000000003E080808080808080850
:1019F000083E00000000007C1010101010101010A5
:101A00001010110F0000007722120A0E0A12122283
:101A10002277000000000007020202020202020216
:101A2000427F000000000077363636362A2A2A2AFE
:101A30002A6B0000000000E346464A4A52525262B6
:101A4000624700000000001C2241414141414141E8
:101A5000221C00000000003F424242423E020202BD
:101A6000020700000000001C2241414141414D534A
:101A7000321C60000000003F4242423E121222220D
:101A800042C700000000007C42420204182040428D
:101A9000423E00000000007F4908080808080808C6
:101AA000081C0000000000E742424242424242421B
:101AB000423C0000000000E7424222242414141893
:101AC000080800000000006B494949495555362275
:101AD00022220000000000E74224241818182424C1
:101AE00042E70000000000772222141408080808CA
:101AF000081C00000000007E212010100804044291
:101B0000423F00000078080808080808080808088C
:101B100008087800000002020404080808101020D9
:101B200020204040001E1010101010101010101037
:101B300010101E00003844000000000000000000EB
:101B40000000000000000000000000000000000095
:101B5000000000FF00060800000000000000000078
:101B600000000000000000000000003C42784442F9
:101B700042FC0000000000030202021A2642424218
:101B8000261A000000000000000000384402020293
:101B90004438000000000060404040784442424227
:101BA00064D80000000000000000003C427E0202F9
:101BB000423C0000000000F08808087E0808080881
:101BC000083E0000000000000000007C22221C02F1
:101BD0003C42423C000000030202023A46424242BA
:101BE00042E700000000000C0C00000E0808080886
:101BF000083E000000000030300000382020202087
:101C00002020221E0000000302020272120A161295
:101C1000227700000000000E0808080808080808DD
:101C2000083E0000000000000000007F92929292A7
:101C300092B70000000000000000003B4642424214
:101C400042E70000000000000000003C4242424227
:101C5000423C0000000000000000001B26424242FF
:101C6000221E0207000000000000007844424242A9
:101C7000447840E000000000000000774C040404B9
:101C8000041F0000000000000000007C42023C40F5
:101C9000423E0000000000000008083E0808080856
:101CA0000830000000000000000000634242424291
:101CB00062DC000000000000000000E74224241461
:101CC0000808000000000000000000EB49495555DD
:101CD00022220000000000000000007624181818DE
:101CE000246E000000000000000000E742242414DD
:101CF00018080807000000000000007E22100808F5
:101D0000447E000000C02020202020102020202021
:101D10002020C00010101010101010101010101003
:101D20001010101000060808080808100808080815
:101D3000080806000C32C20000000000000000008D
:101D400000000000FFFFFFFFFFFFFFFFFFFFFFFF9F
:101D5000FFFFFFFFFFFFFFFFFFFFFFFFFFFFFFFF93
:101D6000BEF77DEFBAD6B6B5F39CB294B39CB294ED
:101D700034A5F7BDFBDE7DEFFFFFFFFFFFFFFFFF99
:101D8000FFFFFFFFFFFFFFFFFFFFFFFFFFFFFFFF63
:101D9000FFFFFFFFFFFFFFFFFFFFFFFFFFFFFFFF53
:101DA000FFFFFFFFFFFFFFFFFFFFFFFFBEF7FBDEB1
:101DB000F39CCB5AC73904218210421042104108CB
:101DC00083184529C7390C6375AD3CE7BEF7FFFFA3
:101DD000FFFFFFFFFFFFFFFFFFFFFFFFFFFFFFFF13
:101DE000FFFFFFFFFFFFFFFFFFFFFFFFFFFFFFFF03
:101DF000FFFFFFFFFFFFFFFFFFFF3CE7B29408423A
:101E0000C3188210042145298631863186318631F6
:101E10004529042182104108C3180842F39C3CE77D
:101E2000FFFFFFFFFFFFFFFFFFFFFFFFFFFFFFFFC2
:101E3000FFFFFFFFFFFFFFFFFFFFFFFFFFFFFFFFB2
:101E4000FFFFFFFFFFFFFFFFFBDE0C63C318C3189C
:101E50004529C73908420842084208420842084258
:101E6000C739C73986318631042141088210CB5ADF
:101E7000BAD6FFFFFFFFFFFFFFFFFFFFFFFFFFFFE0
:101E8000FFFFFFFFFFFFFFFFFFFFFFFFFFFFFFFF62
:101E9000FFFFFFFFFFFFFBDECB5A82104529C7394A
:101EA00008420842094A494A494A494A494A494A6C
:101EB0000842C739C739C739863145298318000018
:101EC000C84138C6FFFFFFFFFFFFFFFFFFFFFFFF17
:101ED000FFFFFFFFFFFFFFFFFFFFFFFFFFFFFFFF12
:101EE000FFFFFFFF7DEF8E7382104529C73908423F
:101EF000094A8A523084CF7B8A52494A4A52494A17
:101F0000CB5ACF7B0C630842C73986314529C318A9
:101F10000000494ABAD6FFFFFFFFFFFFFFFFFFFFA8
:101F2000FFFFFFFFFFFFFFFFFFFFFFFFFFFFFFFFC1
:101F3000FFFFFFFFF39CC3180421C7390842494A39
:101F4000494A72947DEF7DEFB2944A52494A8A52CF
:101F500075ADBEF7BAD64D6BC739C739863145293D
:101F6000C3184108CF7B7CE7FFFFFFFFFFFFFFFFA8
:101F7000FFFFFFFFFFFFFFFFFFFFFFFFFFFFFFFF71
:101F8000FFFFBAD608428210C7390842494A494A77
:101F90008E73FBDEFFFFBEF7BAD68E730842308425
:101FA0003CE77DEFFFFFB6B5494AC7398631452981
:101FB000042141084529B6B5FFFFFFFFFFFFFFFFE2
:101FC000FFFFFFFFFFFFFFFFFFFFFFFFFFFFFFFF21
:101FD000BEF7718C410845290842494A494A4A528C
:101FE000B294BEF7BEF7B294CF7BCF7B494AB6B569
:101FF000F39C0C6338C6BAD60C638739C73986316F
:102000004529C318410830847DEFFFFFFFFFFFFF24
:10201000FFFFFFFFFFFFFFFFFFFFFFFFFFFFFFFFD0
:102020003CE7CB5A4108C7390842494A4A528A52CA
:10203000F39CFFFF7DEFC739C3180C63CB5AB6B5CD
:10204000B294CB5A75ADFAD64D6B8739C739863104
:102050004529042141088A5279CEFFFFFFFFFFFF87
:10206000FFFFFFFFFFFFFFFFFFFFFFFFFFFFFFFF80
:1020700038C686310421C841494A494A4A52494A28
:10208000B18CBEF7BEF7B294CF7BCF7B494A74A523
:102090007DEF7CE7BEF779CE0C63C739C73986314F
:1020A000452904218210452975ADBEF7FFFFFFFFCA
:1020B000FFFFFFFFFFFFFFFFFFFFFFFFFFFFFFFF30
:1020C00034A5821086310842494A494A8A52494A0F
:1020D0004D6BBAD6FFFFFFFF79CE0D63C739CF7BBB
:1020E0007DEFFFFFFFFF75AD08428631C7398631AE
:1020F00045294529C318C318B2947DEFFFFFFFFFA0
:10210000FFFFFFFFFFFFFFFFFFFFFFFFFFFFBEF728
:10211000B28C4108C7390842494A494A8A528A5210
:102120004A4AD07B7AC67BBE906BC9398831C9399F
:10213000B384BBC6F8B5CC5A8631C739C7398631A6
:1021400045294529C420410830843CE7FFFFFFFFB3
:10215000FFFFFFFFFFFFFFFFFFFFFFFFFFFF3CE76A
:102160008A4AC310C7390842494A494A4A4A4A4238
:10217000093A084A096B497BC67A05834683C57AC2
:10218000C672097B485A8731882188298631863171
:1021900045294529042141084A4ABAD6FFFFFFFFD5
:1021A000FFFFFFFFFFFFFFFFFFFFFFFFFFFFF7C581
:1021B00082500541C7290842494A4A42494A097B97
:1021C000889BC6B321D4A0DCE1E461ED61ED21ED93
:1021D000A0E420DC80CB43ABC482065A47214629C9
:1021E00045290429041982108218F39C7DEFFFFF12
:1021F000FFFFFFFFFFFFFFFFFFFFFFFF7DEF4D939F
:1022000000A082B8C7310932494A867A43C36BEDD0
:10221000F4F6EBFD20FD20FD60FDA0FDA0FD60FDBE
:1022200060FD20FDE0FCA0FC60F4C1DB839AC549A1
:1022300045290419C42082380050CB6ABAD6FFFF62
:10224000FFFFFFFFFFFFFFFFFFFFFFFFFBEE04A10C
:1022500000C000F0C3A0C8414942059B20FCA4FC7B
:1022600069FDE8FD63FD20FD60FD60FD60FD20FD72
:1022700020FDE0FCE0FCA0FC60FC20FC41D3C54953
:102280004519C438826841880070495A79CEFFFFE9
:10229000FFFFFFFFFFFFFFFFFFFFFFFFFBF682C017
:1022A00000D086C146F141C8457989528862866A64
:1022B000C67AC4BBE1FC60FD60FDA0FDA0FD60FD31
:1022C00060FDE0FC60E403938472446AC5414529E3
:1022D000C35841A8409800B000600C6B79CEFFFF56
:1022E000FFFFFFFFFFFFFFFFFFFF7DEFCE83828831
:1022F00000F8C4D80CF38AFA82E882B04569C75165
:102300000842083A865A839BA2BC22CD21CDA1C4A3
:1023100022B4C47A063A862945290531C450419031
:1023200000C000A800A000A800304A4ABAD6FFFFAB
:10233000FFFFFFFFFFFFFFFF7DEF8E73C31805391F
:1023400082A800F8C3F84DFB4DFBC7F9C3F082D853
:10235000C3B004814561465186498649464145419D
:102360004541454105490461829041B000D000C813
:1023700000A800A800B8415882108210B294BEF79D
:10238000FFFFFFFFFFFFBEF7CF7B821004218629EE
:102390008641049940E841F886F9CBFA49FA82F877
:1023A00000F800F000E841D841D041C041C041C030
:1023B00041C041C800D000E000E000D800D000B823
:1023C00000A841888248821082100000452979CEF9
:1023D000FFFFFFFFBEF7F39C8210C318452986312B
:1023E000C731307CF3DC86E100F000F841F841F8B9
:1023F00000F800F800F800F800F800F800F800F81D
:1024000000F800F800E800E000E000D800C841A0B3
:102410008A9A0C63041182108210410800004D6BEF
:102420007DEFFFFFFBDE08424210452986318631F1
:10243000494A38BEFFFF38D686A900C800E000F040
:1024400000F800F800F800F800F800F800F800F8CC
:1024500000F000F000E800E000D0C3988A8AB2A43F
:10246000BAC6F7B508424108821041080000452964
:10247000F7BDFFFF718C4108042145298631863163
:102480000C633CE7FFFF79D646B900E042C882A85A
:1024900082B041D882E882F041E841E841E841F069
:1024A00041E841D804C108924D8B34A5FBC6FBD648
:1024B000BACE3CE73084C318410841080000410807
:1024C000CF7B7DEF494A0000042145294631863102
:1024D0003084FFFFFFF7F7DD09DA83F801F042C02F
:1024E0008298499AF3B4F3CC71BC8EBB8EBB30BCDE
:1024F00071BCF3BCB6BDFBCEBEE77DE73BDFBAD611
:1025000079CEFBDE75AD8631410841080000000040
:10251000494AFBDE04214108042145294529873920
:10252000B294FFFFBEF734DD0CEB09FA00F001D8DE
:1025300000D88BD27DE7FFFFFFFFFFFFFFFFFFFF0C
:10254000FFFFFFFFFFFFBEFF7DEFFBDEFBDEBAD626
:1025500079CEBAD678C6C73900004108000000001D
:10256000C73979CE00008210C318042105298631AD
:10257000B39CFFFFFFF775DDC7E9C7F901F801F06C
:1025800000E849E2FBEEFFFFFFFFFFFFFFFFFFFF59
:10259000FFFFFFFFFFFFBEF77DEFFBDEFBDEBAD6DE
:1025A00079CEBAD6B9CE0842000000000000000083
:1025B000C73938C600008210821004210421452941
:1025C0003084FFFFFFFF38DEC4D000F001F800F8D0
:1025D00000F008D2FBE6FFFFFFFFFFFFFFFFFFFF5A
:1025E000FFFFFFFFFFFFBEF77DEFFBDEBAD679CE20
:1025F00079CEBAD679CEC739410800000000000074
:10260000863138C600000000C318CB5A8631C31883
:10261000CB5A7DEFFFFF7DEFCFBBC3B041D041D0A0
:1026200082B84DB37DE7FFFFFFFFFFFFFFFFFFFF16
:10263000FFFFFFFFBEF7BEF73DEFFBDEBAD679CE58
:1026400079CEFAD6F7BD04218631042100000000BE
:10265000863138C68631C318CB5A75ADCF7B410859
:102660008631F7BDFFFFFFFFBEEF74B5309C309C95
:1026700072A4BBD6FFFFFFFFFFFFFFFFFFFFFFFFBF
:10268000FFFFFFFFBEF77DEF3CE7FBDEBAD679CE5A
:1026900079CE3CE7718C81080C63CF7B82100000FF
:1026A0008A5238C675AD718CB6B53CE7FBDEC739CA
:1026B0000000CF73FFFFFFFFFFFFFFFFFFFFFFFFE4
:1026C000FFFFFFFFFFFFFFFFFFFFFFFFFFFFFFFF1A
:1026D000FFFFBEF77DEF7DEF3BDFFAD679CE79CEF7
:1026E000FBDEB9CEC739C420718CBAD6718CCB5AF7
:1026F000B294BAD6FFFF7DEF7DEFFFFFFFFFB6B5C7
:102700004629051975A5FFFFFFFFFFFFFFFFFFFF2C
:10271000FFFFFFFFFFFFFFFFFFFFFFFFFFFFFFFFC9
:10272000FFFFBEF77DEF3CE7FBDEBAD679CEBAD627
:10273000FCDE4E6342080C63F7BDBEF7FFFFFBDE15
:10274000FBDEBEF7FFFFFFFFFFFFFFFFFFFFFFFF07
:10275000F49C04210521B6A5FFFFFFFFFFFFFFFF4B
:10276000FFFFFFFFFFFFFFFFFFFFFFFFFFFFBEF7C2
:10277000BEF77DEF3CE7FBDEBAD679CEFBDEBBD6FB
:10278000D17383188639349DBDEFFFFFFFFFFFFF34
:10279000FFFFFFFFFFFFFFFFFFFFFFFFBEFF35D67D
:1027A000EBCC43B340510519F58CBEEFFFFFFFFFA3
:1027B000FFFFFFFFFFFFFFFFFFFFBEF7BEF77DEF4D
:1027C0007DEF3CE7FBDEBADEBAD63CDF3ABE4F63B4
:1027D000824940A323B4CC833ABEFFFFFFFFFFFF33
:1027E000FFFFFFFFFFFFFFFFFFFFBFF7B5BD8292B7
:1027F00020F4A0FC60E4408284418F6B77AD3DE71C
:10280000FFFFFFFFFEFFBEF7BEF7BEF77DEF7DEFD8
:102810003CE7FBDEFBDE3DE7BBCE369D0B6B416A42
:1028200060C420FE60F5008BC76A38C6BEF7FFFFA4
:10283000FFFFFFFFFFFFFFFFFFFF7DEF4B7B80B23E
:10284000A0FCA0FCE0FCE0FCC0CBC18A45624D6B63
:10285000B394F7BD3DDFFFF7FFFFBEF77DEF7DEFE0
:102860007DE73DDFBAC675A58D7B847A40B3E0EC89
:10287000E0FDE0FD60F520E5A0D40A6BFBDEFFFF84
:10288000FFFFFFFFFFFFFFFFFFFF7DEFCC9340EB5C
:1028900060FCA0FCE0FC20FD60FD20F5A0D4C0BBE6
:1028A000429B458B6B9CAE9C718CB394339D34A53D
:1028B000F2A4F0B4CA9B049B40BB20E420FDA0FD21
:1028C000A0FDE0FDE0FDE0FD20C4885A38BEFFFF1A
:1028D000FFFFFFFFFFFFFFFFFFFFFFFF78D646ABC5
:1028E00040DB20F460FCA0FCE0FC60FDA0FD60FD8E
:1028F00020F5A0DCC0B3C05186290D638F7B0D5B32
:10290000C741018200C3C0E360FCA0FCE0FCE0FC26
:1029100060F560F520E5809B8662308479CEFFFF0C
:10292000FFFFFFFFFFFFFFFFFFFFFFFFFFFF38C6B7
:102930002D9C059343A382B3C2BBC2BB22B482A326
:102940004293C37A85620B637184B6B579CE79C63A
:10295000B5AD70944A8B06830493049B439B439BC1
:102960004393048308738D73B39479CE7DEFFFFF97
:10297000FFFFFFFFFFFFFFFFFFFFFFFFFFFFFFFF67
:102980003CDF38BE75B533A533A5F39CF39CF39CAF
:10299000F394F39C35A5F8BDFBDEBEF7FFFFFFFF08
:1029A000FFFF7EEFBBD6F8BDB6AD75AD34A5339D48
:1029B000349D35A5B7AD79C63CE7BEF7FFFFFFFFF5
:1029C000FFFFFFFF00000000000000000102030401
:1029D00006070809030406080C1018203000000040
:1029E000002A0008000000206C03000052050008C7
:1029F000A82B00086C03002004040000AE1500089A
:102A0000D12A8004FA0104080D1A1080010CF0FF8D
:102A1000FF0F308001040419246A070C09124809C9
:102A2000100401131A011914FFFF011A03082904E5
:102A3000E90C3381812A0304261CFCFFFF3F1A4066
:102A40000B5AC0282AC00C49041BFFFF4C22411A14
:102A50000468230E711B07815A14010760100B01D3
:102A60000E1898011C04E001181927F11A08C42354
:102A70001F304A0C046809100C30FE3F0C30041063
:102A800069041BC00C281E0D3030060E049C0C304F
:102A900010044B188604101208060D300C860D30F9
:102AA00006EE0F3002FC0D30015B0CF040193C2AA1
:102AB0000F081A109ED1299019CB4908890417E0F4
:102AC000FFFF0360C009130409161C59181A0104FA
:102AD00029441A08045A100419F8130138041780FD
:102AE000FF1F2603C0FFFF071A8004293D32603212
:102AF000181A0C135A030419A41C800108045E1C44
:102B0000FCFFFF3F100928041AFC0432E062405A1F
:102B100080026DFC1F841002290C69184DF80F0803
:102B20000804128023FF7F290C490E2D8410A22057
:102B300045280FFE3F0220F22702200220FA2F2212
:102B400021022809122912290A2E02201AC95E9987
:102B500008165080408040195213FE1F12081204BC
:102B60002C02800162697829021AA0A518161008A3
:102B7000B8080F0908090808BF0808091C092C082B
:102B80000A78CA1179012A04023CC87F3F08180B51
:102B9000A83F18210C110B12080A0E3E0A8A116474
:082BA00060E413841E00000034
:04000005080000C12E
:00000001FF
