:020000040800F2
:10000000C00A002041110008410400084304000810
:10001000470400084B0400084F04000800000000DB
:100020000000000000000000000000005304000871
:100030005504000800000000570400085904000897
:100040005B1100085B1100085B1100085B110008E0
:100050005B1100085B1100085B1100085B110008D0
:100060005B1100085B1100085B1100085B110008C0
:100070005B1100085B1100085B1100085B110008B0
:100080005B1100085B1100085B1100085B110008A0
:100090005B1100085B1100085B1100085B11000890
:1000A0005B1100085B1100085B1100085B11000880
:1000B0005B1100085B1100085B1100085B11000870
:1000C0005B1100085B1100085B1100085B11000860
:1000D0005B110008B51000085B1100085B110008F7
:1000E0005B1100085B1100085B1100085B11000840
:1000F0005B1100085B1100085B1100085B11000830
:100100005B1100085B1100085B1100085B1100081F
:100110005B1100085B1100085B1100085B1100080F
:100120005B1100085B1100085B1100085B110008FF
:100130005B1100085B1100085B1100085B110008EF
:100140005B1100085B1100085B1100085B110008DF
:100150005B1100085B1100085B1100085B110008CF
:100160005B1100085B1100085B1100085B110008BF
:100170005B1100085B1100085B1100085B110008AF
:100180005B1100085B11000800F002F800F05CF859
:100190000AA090E8000C82448344AAF10107DA45E2
:1001A00001D100F051F8AFF2090EBAE80F0013F0D8
:1001B000010F18BFFB1A43F001031847F035000088
:1001C000103600000A444FF0000C10F8013B13F009
:1001D000070408BF10F8014B1D1108BF10F8015BA0
:1001E000641E05D010F8016B641E01F8016BF9D193
:1001F00013F0080F1EBF10F8014BAD1C0C1B09D1EA
:100200006D1E58BF01F801CBFAD505E014F8016B5B
:1002100001F8016B6D1EF9D59142D6D370470000ED
:100220000023002400250026103A28BF78C1FBD8FF
:10023000520728BF30C148BF0B6070471FB502F09E
:1002400072F91FBD10B510BD01F0B1FE1146FFF7E8
:10025000F5FF00F009F801F0CFFE03B4FFF7F2FF5D
:1002600003BC00F0C7FE00002DED068B82B09FEDB1
:10027000680AB0EE408AA82000F03AFE00F063FA67
:100280004FF6FF7000F0A7FB4FF6FF706149086062
:10029000BDE04FF4784020230022114600901C203E
:1002A00000F0AFFB4FF478402023012200210090A2
:1002B0003C2000F0A6FB4FF47840202302220021CE
:1002C00000905C2000F09DFB4FF47840102300224A
:1002D00028210090142000F094FB4FF47840102364
:1002E000012228210090242000F08BFB4FF478405D
:1002F0001023022228210090342000F082FB4FF4CA
:1003000078401023032228210090442000F079FB3C
:100310004FF478401023042228210090542000F04C
:1003200070FB4FF4784010230522282100906420B0
:1003300000F067FB4FF4784010230622282100903C
:10034000742000F05EFB4FF4784333A23C21002080
:1003500000F0F1FC4FF478430522B0EE480A3C214E
:10036000682000F053FD18EE100A02F06BF841EC23
:100370001A0B9FED2D0B53EC102B01F07DFE41EC81
:10038000190B01F047FE08EE100A4FF47A7000F0E6
:1003900011FE4FF6FF7000F01EFB4FF4784324A2CD
:1003A00000210A2000F0C7FC4FF478400323A0226C
:1003B00000210090462000F0E9FC4FF478431EA293
:1003C00014210A2000F0B7FC4FF478400223502299
:1003D00014210090462000F0D9FC00240DE004EB2D
:1003E0008401272303EBC10204EB8401C8004F23DF
:1003F000282100F05BFD601CC4B2042CEFDB4FF43D
:100400007A7000F0D7FD4FF6FF7000F0E4FA40E795
:100410000000000074030020302E3936205446546A
:1004200020535049000000007B14AE47E17A843F1E
:100430004C43445F573A00004C43445F483A000045
:10044000704700BFFEE700BFFEE700BFFEE700BF4A
:10045000FEE7704770477047704700000CB50020FA
:10046000019000907648006840F48030744908603C
:1004700000BF7348006800F4003000900198401CF1
:100480000190009818B90198B0F5A04FF1D16C48CF
:10049000006800F4003010B10120009001E000205D
:1004A00000900098012846D165484030006840F02F
:1004B00080506349403108606248006840F4404021
:1004C000604908605E48083000685D49083108608E
:1004D0000846006840F4004008600846006840F4A0
:1004E000A05008605848091F0860081F006840F0C5
:1004F0008070091F086000BF5148006800F000705C
:100500000028F9D040F20570504908604C48083086
:10051000006820F003004A49083108600846006876
:1005200040F00200086000BF45480830006800F055
:100530000C000828F8D10CBD10B54548006840F4FF
:100540007000434908603E48006840F001003C49A3
:10055000086000203A4908310860394800683D4980
:100560000840374908603C48091D0860081F0068BA
:1005700020F48020091F0860002031490C310860F8
:10058000FFF76CFF4FF0006031498039086010BD03
:1005900070B500200022022300240221284D0835D6
:1005A0002D6805F00C0020B1042806D0082834D1AD
:1005B00007E02A4D2A4E356033E02A4D284E35603B
:1005C0002FE01F4D2D1D2D68C5F380541C4D2D1D92
:1005D0002D6805F03F0154B1224DB5FBF1F5184EE1
:1005E000361D3668C6F3881605FB06F209E01B4D7A
:1005F000B5FBF1F5124E361D3668C6F3881605FBBD
:1006000006F20F4D2D1D2D68C5F301456D1C6B00C5
:10061000B2FBF3F5124E356003E0104D104E35601D
:1006200000BF00BF064D08352D68C5F303150E4EFB
:10063000705D0B4D2D68C540094E356070BD0000E2
:10064000003802400070004008544007003C02405F
:1006500088ED00E0FFFFF6FE103000240024F400D7
:100660000000002000127A000400002070B504464B
:100670000221FA4800F0F8FE002519E04FF48051FD
:10068000F74800F0F1FE04F0800020B12021F3488B
:1006900000F0E8FE03E02021F04800F0E5FE4FF412
:1006A0008051EF4800F0DEFE6006040E681CC5B203
:1006B000082DE3DB0221E94800F0D4FE70BD10B53F
:1006C00004464FF40041E54800F0CCFE2046FFF719
:1006D000CDFF10BD10B504464FF40041DF4800F0D7
:1006E000C1FEC4F30720FFF7C1FFE0B2FFF7BEFF72
:1006F00010BD10B504464FF40041D84800F0B4FED8
:100700002046FFF7B3FF10BD2DE9F04104460D462A
:1007100016461F462A20FFF7ECFF601CFFF7DAFFA2
:10072000701CFFF7D7FF2B20FFF7E3FF05F11A003E
:10073000FFF7D0FF07F11A00FFF7CCFF2C20FFF7DF
:10074000D8FFBDE8F0811CB501215F2001F0ACF8B5
:1007500048F23200009001208DF8040000208DF84E
:10076000060003208DF8050001208DF8070069467A
:10077000BA4800F0FBFD48F23201B84800F072FEC2
:100780004FF4A060009001208DF8040000208DF847
:10079000060003208DF8050001208DF8070069464A
:1007A000B04800F0E3FD4FF4A061AE4800F05AFEFF
:1007B0004FF48050009001208DF8040000208DF847
:1007C000060003208DF8050001208DF8070069461A
:1007D000A34800F0CBFD4FF48051A14800F042FE49
:1007E00010219E4800F040FEC82000F0E3FB1021DD
:1007F0009A4800F037FEC82000F0DCFB4FF480710F
:10080000984800F02FFEC82000F0D4FB1120FFF71D
:1008100070FF642000F0CEFB2120FFF76AFFB120BB
:10082000FFF767FF0520FFF74AFF3A20FFF747FF72
:100830003A20FFF744FFB220FFF75BFF0520FFF7E8
:100840003EFF3A20FFF73BFF3A20FFF738FFB32087
:10085000FFF74FFF0520FFF732FF3A20FFF72FFF8A
:100860003A20FFF72CFF0520FFF729FF3A20FFF77A
:1008700026FF3A20FFF723FFB420FFF73AFF0320BB
:10088000FFF71DFFC020FFF734FF6220FFF717FFBF
:100890000220FFF714FF0420FFF711FFC120FFF72C
:1008A00028FFC020FFF70BFFC220FFF722FF0D201B
:1008B000FFF705FF0020FFF702FFC320FFF719FF36
:1008C0008D20FFF7FCFE6A20FFF7F9FEC420FFF73A
:1008D00010FF8D20FFF7F3FEEE20FFF7F0FEC5209E
:1008E000FFF707FF0E20FFF7EAFEE020FFF701FF0A
:1008F0001020FFF7E4FE0E20FFF7E1FE0220FFF7D5
:10090000DEFE0320FFF7DBFE0E20FFF7D8FE0720F8
:10091000FFF7D5FE0220FFF7D2FE0720FFF7CFFE3C
:100920000A20FFF7CCFE1220FFF7C9FE2720FFF7B1
:10093000C6FE3720FFF7C3FE0020FFF7C0FE0D20E4
:10094000FFF7BDFE0E20FFF7BAFE1020FFF7B7FE3F
:10095000E120FFF7CEFE1020FFF7B1FE0E20FFF7DB
:10096000AEFE0320FFF7ABFE0320FFF7A8FE0F202B
:10097000FFF7A5FE0620FFF7A2FE0220FFF79FFE6D
:100980000820FFF79CFE0A20FFF799FE1320FFF7CF
:1009900096FE2620FFF793FE3620FFF790FE0020FC
:1009A000FFF78DFE0D20FFF78AFE0E20FFF787FE72
:1009B0001020FFF784FE3A20FFF79BFE0520FFF78B
:1009C0007EFE3620FFF795FE7820FFF778FE29207F
:1009D000FFF78FFE1CBD70B506464F239F220021F6
:1009E0000846FFF791FE002408E0002503E03046AA
:1009F000FFF770FE6D1C502DF9D3641CA02CF4D3AE
:100A000070BD2DE9F05F81468A4693461C46102C46
:100A100000D1154D202C00D1144D0AEB0400431ECB
:100A200009EB0400421E51464846FFF76DFE04FBE9
:100A300004F0C11700EB5171C1F3C7080BFB085557
:100A4000002720E0002619E028780121B140084065
:100A500070B10A98FFF73EFE0EE00000000C024065
:100A600000180240001002409402002014000020F0
:100A7000FE480068FFF72EFE701CC6B2082EE3DBAE
:100A80006D1C781CC7B24745DCDBBDE8F09F70B534
:100A900004460D4616462B46224629462046FFF7B9
:100AA00033FE3046FFF716FE70BD2DE9F0470446D1
:100AB0000D4616461F46DDF820A03B463246294625
:100AC0002046FFF721FEA8460AE0A14604E0504672
:100AD000FFF700FE09F10109B145F8D908F1010855
:100AE000B845F2D9BDE8F087F8B504460D4616467C
:100AF000691E601E6B1C621C0096FFF7D6FFF8BDD6
:100B00002DE9FF4F85B081468A4600200390834639
:100B10000798A0EB09040898A0EB0A06CDF8089006
:100B2000CDF804A0002C01DD012705E00CB9002759
:100B300002E04FF0FF376442002E02DD4FF0010863
:100B400006E016B94FF0000802E04FF0FF386642A9
:100B5000B44201DD254600E03546002004901BE04C
:100B6000129ADDE90110FFF792FF039820440390E9
:100B7000B3440398A84205DD0398401B03900298F4
:100B800038440290AB4504DDABEB050B01984044C3
:100B900001900498401C0490691C04988842DFD39B
:100BA00009B0BDE8F08F2DE9F84305460E4617461B
:100BB0009846089C33463A46314628460094FFF74B
:100BC0009FFF43462A46314628460094FFF798FF88
:100BD00043463A46414628460094FFF791FF434674
:100BE0003A46314638460094FFF78AFFBDE8F8835D
:100BF0002DE9F04706460F469046994600254446A3
:100C000031E0791B301B4A46FFF741FF791B301951
:100C10004A46FFF73CFF3919701B4A46FFF737FF7A
:100C2000391B701B4A46FFF732FF791930194A46C3
:100C3000FFF72DFF391B70194A46FFF728FF3919B6
:100C400070194A46FFF723FF7919301B4A46FFF710
:100C50001EFF6D1C05FB05F004FB040108FB08F0FA
:100C6000814200DD641EA542CBDDBDE8F0872DE9A1
:100C7000F84F05460F4616469A46DDF828B000950F
:100C8000902D01D8402F01D9BDE8F88FA6F12000A2
:100C9000C6B207F10F03EA1D39462846FFF734FDB7
:100CA000BAF1000F25D1002420E004EB06107049B2
:100CB00011F800904FF0000811E009F0010018B1A0
:100CC0005846FFF707FD03E068480068FFF702FD9C
:100CD0004FEA69096D1C08F1010000F0FF08B8F146
:100CE000080FEADB009D7F1C601CC4B2102CDCDB0B
:100CF0001FE000241BE004EB06105D4911F8009092
:100D00004FF000080EE009F0010028B1391905EB99
:100D100008005A46FFF7BBFE4FEA690908F10100D7
:100D200000F0FF08B8F1080FEDDB601CC4B2102C16
:100D3000E1DB00BFA8E7F8B505460E4614461F469E
:100D400015E0902D01D900251036402E06D900203F
:100D5000054606464FF47840FFF73DFE009722789F
:100D6000002331462846FFF782FF0835641C2078AF
:100D70000028E6D1F8BD10B50246012000E050433E
:100D80000B1EA1F10104E1B2F9D110BD2DE9F84F1C
:100D900006468A4690461D46DDF828904FF0000B27
:100DA00000242FE0281B401EC1B20A20FFF7E3FFFA
:100DB000B8FBF0F00A21B0FBF1F201FB1207BBF126
:100DC000000F10D1681EA0420DDD57B9082101FBAC
:100DD0000460002320225146CDF80090FFF747FF22
:100DE0000EE04FF0010B07F13001CAB2082101FB00
:100DF000046000235146CDF80090FFF738FF00BF94
:100E0000601CC4B2AC42CDDBBDE8F88F2DE9F04FD9
:100E10002DED028B81B006468946B0EE408A14461D
:100E20001F464FF0000B9FED130A28EE000ABCEEA0
:100E3000C00A10EE10AA002531E0601B401EC1B2AE
:100E40000A20FFF798FFBAFBF0F00A21B0FBF1F29D
:100E500001FB1208A01EA84214D1A11E082202FB09
:100E6000016000232E224946009705E0740300200C
:100E70003A2500080000C842FFF7F9FE681CC5B219
:100E8000601CC4B208F13001CAB2082101FB056040
:100E9000002349460097FFF7EAFE681CC5B2A54249
:100EA000CBDB01B0BDEC028BBDE8F08F2DE9F0414A
:100EB00005460E461746984643463A46314628466A
:100EC000FFF722FC00240CE0012101EB4401074A5A
:100ED000505CFFF7F4FB054911F81400FFF7EFFB36
:100EE000641CB4F5C86FEFDBBDE8F0812A2B000865
:100EF00010B504466FF0040000F094F9E11704EB1C
:100F00005171C1F3C701394A11701046007800EBE6
:100F10004001C1EBC0104FF6FF7101EAC000344937
:100F2000088010BD0146314A12784A434FF0E02351
:100F30005A6100229A611A46126942F001021A614E
:100F400000BF4FF0E022106900F001021AB100F476
:100F50008032002AF5D04FF0E022126922F001021F
:100F60004FF0E0231A6100229A6170470146204A3F
:100F700012884A434FF0E0235A6100229A611A46D0
:100F8000126942F001021A6100BF4FF0E0221069BD
:100F900000F001021AB100F48032002AF5D04FF0BF
:100FA000E022126922F001024FF0E0231A610022D0
:100FB0009A61704770B504464FF4077094FBF0F0E7
:100FC000C6B24FF4077094FBF0F100FB114085B2FC
:100FD00005E04FF40770FFF7C9FF701EC6B2002E80
:100FE000F7D115B12846FFF7C1FF70BD7803002087
:100FF0007A030020014600BF704700BF4C4A1288A8
:1010000002F04002002AF9D0C2B2494B9A807047E0
:1010100010B588B004460121084600F045FC0121C6
:10102000102000F09BFC07220921424800F029FA19
:1010300007220A213F4800F024FA4FF4C0600690CE
:1010400002208DF81C008DF81D0000208DF81E0078
:1010500001208DF81F0006A9364800F087F9029498
:101060000020ADF80C00ADF80E00ADF81000ADF8A2
:1010700014000C20ADF8120002A92D4800F0CFFD9D
:1010800001212B4800F053FE012240F2255128484F
:1010900000F003FF25208DF8040003208DF80500E3
:1010A0008DF8060001208DF8070001A800F06DF80A
:1010B00008B010BD10B540F225511D4800F028FFC2
:1010C00010B31B4800F062FEC4B21B48008800F455
:1010D0000040C8B91848008800F4804060B10A2C6C
:1010E00003D000201449088020E01348008840F411
:1010F00000401149088019E00D2C06D10E480088E7
:1011000040F480400C49088010E00B480088C0F390
:101110000D000A490C5408480088401C0649088004
:1011200008460088C72801DD0020088010BD0000A7
:1011300000100140000002408003002094030020C2
:101140000948804709480047FEE7FEE7FEE7FEE75B
:10115000FEE7FEE7FEE7FEE7FEE7FEE70448054997
:10116000054A064B70470000390500088901000850
:10117000C0040020C00A0020C0060020C0060020D5
:1011800032490143324A1160704770B50021002393
:101190000F22C4781CB32E4C246804F4E064C4F518
:1011A000E064C4F30721C1F10404E3B20A414478C6
:1011B0009C40E1B28478144021430C07210E254C59
:1011C00005786155047804F01F050124AC400578CA
:1011D0006D11AD0005F1E025C5F8004109E0047886
:1011E00004F01F050124AC401B4D0678761145F82C
:1011F000264070BD194A0A400243154B1B1F1A6056
:10120000704739B1124A121D12680243104B1B1D60
:101210001A6006E00E4A121D126882430C4B1B1D19
:101220001A607047042808D14FF0E021096941F0A5
:1012300004014FF0E022116107E04FF0E02109695D
:1012400021F004014FF0E022116170470000FA051F
:101250000CED00E000E400E080E100E080FFFF1F13
:1012600010B504469848844208D10121084600F090
:1012700086FB0021012000F082FB76E09348844247
:1012800008D10121022000F07AFB0021022000F0A9
:1012900076FB6AE08E48844208D10121042000F0E8
:1012A0006EFB0021042000F06AFB5EE08948844266
:1012B00008D10121082000F062FB0021082000F085
:1012C0005EFB52E08448844208D10121102000F0E6
:1012D00056FB0021102000F052FB46E07F4884427C
:1012E00008D10121202000F04AFB0021202000F03D
:1012F00046FB3AE07A48844208D10121402000F0C0
:101300003EFB0021402000F03AFB2EE0754884426D
:1013100008D10121802000F032FB0021802000F064
:101320002EFB22E07048844208D10121801500F094
:1013300026FB0021A01500F022FB16E06B4884423A
:1013400008D10121401500F01AFB0021601500F0C2
:1013500016FB0AE06648844207D10121001500F01F
:101360000EFB0021201500F00AFB10BDF0B50A4667
:1013700000210023002400BF3DE0012505FA01F310
:10138000156805EA03049C4234D105684F00032622
:10139000BE40B543056015794E00B540066835433B
:1013A00005601579012D02D01579022D16D18568B9
:1013B0004F000326BE40B543856055794E00B540C9
:1013C000866835438560456801268E40B543456093
:1013D000456896798E40B6B235434560C5684F0082
:1013E0000326BE40B543C560D5794E00B540C668FA
:1013F0003543C560491C1029BFD3F0BD4FF6FF71BE
:1014000001600021017141718171C171704708B59E
:101410004FF480320092009A0A430092009AC2610F
:10142000C161009AC261C2690092C269009208BD9E
:101430000246002013690B400BB1012000E00020A0
:1014400070470146086980B2704702460020536920
:101450000B400BB1012000E00020704701464869B5
:1014600080B2704701837047418370470AB101839E
:1014700000E0418370474161704742694A404261E0
:101480007047F0B5002300244D07ED0E02FA05F376
:10149000CE1000F1200555F826504E07F70E0F2606
:1014A000BE40B543CF1000F1200646F82750CE10BD
:1014B00000F1200555F8265045EA0304CE1000F14E
:1014C000200545F82640F0BD00000240000402401F
:1014D00000080240000C02400010024000140240CC
:1014E00000180240001C024000200240002402407C
:1014F00000280240F948006840F00100F749086000
:101500000020F64908310860F4480068F4490840B2
:10151000F2490860F348091D0860F348EF49843137
:101520000860F0481038091D0860EC48006820F495
:101530008020EA4908600020E8490C310860E7494A
:101540008C31086070470021E44A921C11701146EA
:101550000870704710B501460022002300204A1190
:10156000012A02D1DD4C236808E0022A03D1DB4CBA
:101570007034236802E0D94C7434236801F01F02F0
:10158000012494401C400CB1012000E0002010BD5B
:1015900038B5002000900024002500BF3120FFF75F
:1015A000D9FF05460098401C00900098B0F5A04F68
:1015B00001D0002DF2D03120FFF7CCFF08B101247B
:1015C00000E00024204638BD01460020C34A1068D0
:1015D00020F0F80040EAC10010607047C34908607D
:1015E00070470021BD4A703211701170012802D07D
:1015F00004280AD104E00121B84A7032117005E0D4
:101600000521B64A7032117000E000BF00BF70477C
:10161000B7490860704770B5049C41EA82150126FD
:10162000C6EB530645EA0645054345EA0465AB4E5D
:10163000361D356070BDAD4908667047820142EACB
:101640000172A64B84331A607047A84988667047B8
:1016500010B5830143EA016343EA02739F4C883467
:10166000236010BDA14908677047A049C86470474E
:1016700002460020994B0833186820F0EC6042EADB
:1016800001031843954B0833186070470246002049
:10169000924B0833186820F0784042EA010318435F
:1016A0008E4B083318607047014600208B4A083281
:1016B000106820F003000843106070478748083026
:1016C000006800F00C00704701460020834A083291
:1016D000106820F0F00008431060704701460020B9
:1016E0007E4A0832106820F4E050084310607047CA
:1016F00001460020794A0832106820F4604040EA30
:10170000C10010607047F0B50021002200240225BE
:1017100000260223714F08373F6807F00C0121B102
:10172000042905D0082937D105E0724F076036E05B
:10173000714F076033E0694F3F1D3F68C7F3805624
:10174000664F3F1D3F6807F03F036EB16A4FB7FB1E
:10175000F3F7DFF888C10CF1040CDCF800C0CCF31F
:10176000881C07FB0CF40CE0624FB7FBF3F7DFF8C3
:101770006CC10CF1040CDCF800C0CCF3881C07FB36
:101780000CF4564F3F1D3F68C7F301477F1C7D0097
:10179000B4FBF5F7076002E0564F076000BF00BFDB
:1017A0004E4F08373F6807F0F0010909534F7A5C44
:1017B0000768D7404760494F08373F6807F4E05152
:1017C000890A4E4F7A5C4768D7408760434F083795
:1017D0003F6807F46041490B484F7A5C4768D7403F
:1017E000C760F0BD002100F44072B2F5407F0AD11D
:1017F0003A4A0832116821F4F811414A0240114373
:10180000364A08321160354A70321268C0F30B0351
:101810001A43324B70331A607047354944390860B7
:10182000704733494039086070473649086070474F
:1018300001460020294A8C32106820F01F004A1E01
:101840001043264A8C321060704701460020234A1C
:101850008C32106820F4F8504A1E40EA02201F4AD9
:101860008C3210607047014600201C4A8C32106890
:1018700020F4401008431060704701460020174ACA
:101880008C32106820F44000084310607047014615
:101890000020124A8C32106820F440300843106057
:1018A000704719490860704739B10C4A30321268E4
:1018B00002430A4B30331A6006E0084A303212689D
:1018C0008243064B30331A607047F9B1034A343211
:1018D00012680243014B34331A601CE000380240A6
:1018E000FFFFF6EA103000240030002000004742DD
:1018F000800E47420024F40000127A008203002088
:10190000FFFCFF0F5C014742E01147428F4A12681B
:1019100082438E4B1A60704739B18C4A121D12688F
:1019200002438A4B1B1D1A6006E0884A121D12688A
:101930008243864B1B1D1A60704739B1834A0C32B3
:1019400012680243814B0C331A6006E07F4A0C3266
:10195000126882437D4B0C331A60704739B17B4A61
:10196000103212680243794B10331A6006E0774A4E
:10197000103212688243754B10331A60704739B1C8
:10198000724A243A12680243704B243B1A6006E004
:101990006E4A243A126882436C4B243B1A607047AB
:1019A00039B16A4A203A12680243684B203B1A60F8
:1019B00006E0664A203A12688243644B203B1A6074
:1019C000704739B1614A1C3A126802435F4B1C3BB5
:1019D0001A6006E05D4A1C3A126882435B4B1C3B6E
:1019E0001A60704739B1594A143A12680243574B8A
:1019F000143B1A6006E0554A143A12688243534B6E
:101A0000143B1A60704739B1504A103A12680243C9
:101A10004E4B103B1A6006E04C4A103A1268824363
:101A20004A4B103B1A60704739B1484A1C32126861
:101A30000243464B1C331A6006E0444A1C321268CB
:101A40008243424B1C331A60704739B13F4A2032FF
:101A5000126802433D4B20331A6006E03B4A2032B5
:101A600012688243394B20331A60704739B1374AC4
:101A7000243212680243354B24331A6006E0334A9D
:101A8000243212688243314B24331A60704739B1D3
:101A90002E4A2C32126802432C4B2C331A6006E07B
:101AA0002A4A2C3212688243284B2C331A60704722
:101AB00039B1264A303212680243244B30331A605F
:101AC00006E0224A303212688243204B30331A60DB
:101AD0007047012808D11D493C31096841F00801CF
:101AE0001A4A3C32116007E018493C31096821F07C
:101AF0000801164A3C321160704739B1134A273A3F
:101B000012780243114B273B1A7006E00F4A273A1E
:101B1000127882430D4B273B1A7070470B484030B8
:101B2000006840F080700949403108607047014604
:101B30000020064A283A12680A400AB1012000E053
:101B40000020704701492639087070473438024038
:101B500010B50446FA48844208D101211020FFF74D
:101B600052FF00211020FFF74EFF57E0F548844256
:101B700009D101214804FFF735FF00214FF400305F
:101B8000FFF730FF4AE0F048844209D10121880480
:101B9000FFF728FF00214FF48020FFF723FF3DE0EF
:101BA000EA48844209D10121C804FFF71BFF002144
:101BB0004FF40020FFF716FF30E0E548844209D1DA
:101BC00001210805FFF70EFF00214FF48010FFF7F9
:101BD00009FF23E0DF48844208D101212020FFF7DC
:101BE00012FF00212020FFF70EFF17E0DA488442A1
:101BF00009D101218807FFF7F5FE00214FF0804051
:101C0000FFF7F0FE0AE0D548844207D101214005E4
:101C1000FFF7E8FE00216005FFF7E4FE10BD2DE9A7
:101C2000FF4705460E460024A14600BFA046B089E6
:101C300000B100BF2C8A24F44054F08804432C8265
:101C4000AC8941F20C608443B088318908437189C2
:101C500008430443AC81AC8A24F44074B089044343
:101C6000AC826846FFF74FFDB548854202D0B948BF
:101C7000854202D1DDF80C9001E0DDF80890A889DA
:101C800000F4004040B109EBC90000EB09103168D5
:101C90004900B0FBF1F707E009EBC90000EB0910C0
:101CA00031688900B0FBF1F76420B7FBF0F0040164
:101CB0002009642101FB1078A88900F4004040B19C
:101CC000322000EBC800B0FBF1F000F00700044345
:101CD00008E0322000EB08106421B0FBF1F000F0C6
:101CE0000F0004432C81BDE8FF874FF416510160BB
:101CF00000218180C18001810C21418100218181ED
:101D0000704710B502460020108A20F470600B88DE
:101D10004C8823438C882343CC8823431843108268
:101D200010BD0021018041808180C180704721B1B8
:101D3000828942F40052828104E082894DF6FF7369
:101D40001A4082817047028B02F47F420283028B29
:101D50000A430283704721B1828942F400428281A2
:101D600003E08289C2F30E028281704721B1828A28
:101D700042F40062828204E0828A4FF2FF731A40CA
:101D800082827047C1F308028280704701468888CA
:101D9000C0F308007047028A4FF6F0731A400282BF
:101DA000028A0A430282704721B1828942F002020C
:101DB000828104E082894FF6FD731A408281704768
:101DC00082894FF2FF731A40828182890A4382819D
:101DD0007047028A4FF6DF731A400282028A0A4372
:101DE0000282704721B1028A42F48042028204E0FA
:101DF000028A4BF6FF731A4002827047818941F0D4
:101E000001018181704721B1828A42F008028282F9
:101E100004E0828A4FF6F7731A4082827047028B81
:101E2000D2B20283028B42EA01220283704721B1BF
:101E3000828A42F02002828204E0828A4FF6DF73B7
:101E40001A408282704721B1828A42F01002828257
:101E500004E0828A4FF6EF731A4082827047828ACA
:101E60004FF6FB731A408282828A0A43828270474D
:101E700021B1828A42F00202828204E0828A4FF615
:101E8000FD731A40828270471AB1838A0B438382A2
:101E900002E0838A8B4383827047F0B503460024B7
:101EA00000260025002040F66A17B94200D100BF85
:101EB0001846C1F3421401F01F06012707FA06F580
:101EC000012C01D10C3004E0022C01D1103000E0D3
:101ED00014301AB107682F43076002E00768AF4368
:101EE0000760F0BD02460020B1F5007F00D100BFC1
:101EF00013880B400BB1012000E00020704701F473
:101F00000072B2F5007F00D100BFCA430280704763
:101F100070B50246002400230025002040F66A1612
:101F2000B14200D100BFC1F3421501F01F030126E9
:101F300006FA03F3012D13D19689334017E0000010
:101F4000001001400044004000480040004C0040A8
:101F5000005000400014014000780040007C004028
:101F6000022D02D1168A334001E0968A33400C12CA
:101F7000012606FA04F41688344013B10CB101208E
:101F800000E0002070BD10B50022002340F66A1466
:101F9000A14200D100BF0A1201249440A3B2DC4345
:101FA000048010BD70477047704770477047754692
:101FB00000F02CF8AE4605006946534620F00700B5
:101FC000854618B020B5FFF7C9F8BDE820404FF0AE
:101FD00000064FF000074FF000084FF0000B21F013
:101FE0000701AC46ACE8C009ACE8C009ACE8C009E0
:101FF000ACE8C0098D46704710B50446AFF30080C9
:102000002046BDE81040FEF728B9000000487047A0
:102010005C04002021F00042A2F16052B2F5801F62
:1020200001F0004328BFD2F17F6C0BD95FEA001C9E
:1020300043EAC20242EB507018BF704728BF20F03D
:1020400001007047B2F5801FBCBF184670474FEAC9
:10205000410C1CF5001F02D2084600F069BA70B5A9
:1020600000F0B2F800000089FFF7F6BF4FF0004023
:10207000A0F580007047000010B591EA030F48BF3B
:1020800083F0004300F1FC80841A71EB030C05D24D
:10209000121943EB0C03001B61EB0C01DFF824E188
:1020A0004FEA1154A4EB135C1EEA430F18BF9EEADB
:1020B000445F73D023EA0E03DCF1200E21EA0451C1
:1020C00043F4801332D322FA0CFE10EB0E0023FAF5
:1020D0000CFE41EB0E01CCF1200E03FA0EFE10EBCC
:1020E0000E0051F10001B1F5801FCCF1200E32D26B
:1020F00001EB045112FA0EF2BDE8104058BF7047D0
:10210000401C38BF5FEA420218BF7047002814BF66
:1021100020F0010041F100014FEA410313F5001FD7
:1021200038BF7047A1F1C04100F09CB8012A43EBD1
:102130000302ACF1200CDCF11F0E32BF4FF0000E99
:1021400023FA0CF310EB030041EB0451B4EB115FE5
:10215000D0D0A1EB045101F5801149085FEA3000AD
:1021600001EB04510ED350F1000038BF12FA0EFEFD
:1021700008D1BDE81040C9E7401C38BF5FEA420201
:10218000CAD1C3E7BDE810404FEA410313F5001F71
:1021900038BF7047A1F1C04100F064B89EEA445FC7
:1021A00008D011EA5E0FBDE8104004BF01F0004105
:1021B00000207047BDE8104070B500F005F800BF82
:1021C00064FBBE3E0000E0FF0EF1020E2EF0030E97
:1021D0005EF8046B364205D4012A43EB030515F57E
:1021E000001F12D8012841EB010C1CF5001F0CD870
:1021F0000ED14FEAD17C15F5001F0CEB4C0C0CF105
:10220000020C08BF4CEBD37C04E04FF0080C01E05B
:102210004FEAD37C0CEB4C0526FA05F606F00706D0
:10222000B6F1040C06D20EEB860CBDE870404CF003
:10223000010C6047DFE80CF0090B02024FF000418F
:102240004FF00000A1F5002170BD1946104601288D
:1022500051EB010418BFD4F5001484BF002001F035
:10226000004170BD0808A0F500114FEA3101704728
:1022700010B591EA030F48BF83F000433FF504AF68
:10228000841A71EB030C07D212198CF0004C43EB4B
:102290000C03001B61EB0C01DFF8A4E14FEA1154C1
:1022A000A4EB135C1EEA430F18BF9EEA445F00F0E4
:1022B000B08023EA6E03524221EA0451C3EB6E035D
:1022C00038BF5B1EDCF1200E25D322FA0CFE10EB8A
:1022D0000E0043FA0CFE41EB0E01CCF1200E03FA86
:1022E0000EFE10EB0E0051F10001CCF1200E29D4AE
:1022F00012FA0EF201EB0451BDE8104058BF7047CE
:10230000401C1CBFB2F1004F704700280CBF491C95
:1023100020F00100704712EB020E43EB030218BFDE
:102320004FF0010E4EEA4202ACF1200CDCF11E0E21
:1023300054D943FA0CFE10EB0E0051F1FF31CCF1F1
:102340001E0ED5D50EF1010E12FA0EFE404141EBE4
:10235000010101EB445C5FEA5C5C10D910EBDE70BC
:1023600001EB045138BFBEF1004FBDE8104018BF6B
:10237000704700280CBF491C20F00100704730D284
:102380004FEAD42C11F5001124F400641BD0B1FAEB
:1023900081F20B3AA41AA41ED2F12003914030FA24
:1023A00003F31943904001EBCC71002C01EB045175
:1023B000BDE81040A8BF704701F1C0414FF00000D8
:1023C00001F000417047B0FA80F310FA03F100D138
:1023D00010BDE41A173C4805C90AE4E701EB0451B3
:1023E00010BD491001EB0451BDE810404FEA300028
:1023F00002E04FF0000170474A0008BF0042F8D0E9
:10240000B2F5001F28BF704701F000414FF00000F7
:1024100070479EEA445F07D011EA5E0FBDE81040A6
:1024200004BF002100207047BDE8104070B5FFF7E1
:10243000CBFE00BF40DFF63E83F000411046704700
:102440000000E0FF43004FEAD30C4FEA3C0C43404E
:102450001FBF40070CF1605113F0FE4F70471CF096
:10246000006F03D100200CF0004170470CF00043D6
:1024700043EA507010B540EACC0000F00EF800BFFF
:10248000000000924FEA0001FFF7ECBE4FF0004160
:102490004FF00000A1F5002170470EF1020E2EF062
:1024A000030E5EF8044B244204D44FEA4102B2F119
:1024B0007F4F11D84FEA4003B3F17F4F0CD80ED1B4
:1024C0004FEAD07CB2F17F4F0CEB4C0C0CF1020CBC
:1024D00008BF4CEBD17C04E04FF0080C01E04FEA60
:1024E000D17C0CEB4C0324FA03F404F00704B4F1A0
:1024F000040C06D20EEB840CBDE810404CF0010C2D
:102500006047DFE80CF0070802024FF00040A0F53A
:10251000800010BD0846420018BFD2F1807288BF0B
:1025200000F0004010BD4FF04070E1EE100A70471F
:10253000FF2141EAD050C0057047000000000000B4
:102540000000000000000000000000000008080873
:102550000808080800001818000000486C24120041
:1025600000000000000000000000000000242424FF
:102570007F1212127F12121200000000081C2A2A79
:102580000A0C1828282A2A1C0808000000222515F1
:1025900015152A585454542200000000000C121241
:1025A000120A76252911916E000000060604030028
:1025B0000000000000000000000000402010100893
:1025C000080808080810102040000002040808103D
:1025D0001010101010080804020000000000080885
:1025E0006B1C1C6B080800000000000000000808BD
:1025F00008087F080808080000000000000000002C
:1026000000000000000006060403000000000000B7
:102610000000FE00000000000000000000000000BC
:10262000000000000000060600000000804040207E
:1026300020101008080404020200000000182442C0
:1026400042424242424224180000000000080E08A4
:10265000080808080808083E00000000003C424244
:10266000422020100804427E00000000003C42424C
:10267000201820404042221C00000000002030288A
:10268000242422227E20207800000000007E020206
:10269000021A26404042221C00000000003824029A
:1026A000021A26424242241800000000007E222224
:1026B000101008080808080800000000003C42420A
:1026C000422418244242423C0000000000182442E8
:1026D000424264584040241C0000000000000000FA
:1026E000181800000000181800000000000000008A
:1026F000000800000000000808040000004020104E
:10270000080402040810204000000000000000003F
:102710007F0000007F0000000000000000020408AD
:10272000102040201008040200000000003C42423B
:10273000464020101000181800000000001C225A0B
:10274000555555552D42221C000000000008081860
:102750001414243C224242E700000000001F222201
:10276000221E22424242221F00000000007C424200
:10277000010101010142221C00000000001F224251
:10278000424242424242221F00000000003F4212E9
:10279000121E12120242423F00000000003F42128D
:1027A000121E12120202020700000000003C222248
:1027B000010101712122221C0000000000E74242B9
:1027C00042427E42424242E700000000003E0808CA
:1027D000080808080808083E00000000007C1010E7
:1027E0001010101010101010110F0000007722129E
:1027F0000A0E0A12122222770000000000070202CD
:10280000020202020202427F000000000077363618
:1028100036362A2A2A2A2A6B0000000000E34646A0
:102820004A4A52525262624700000000001C224194
:10283000414141414141221C00000000003F424211
:1028400042423E020202020700000000001C224138
:10285000414141414D53321C60000000003F424263
:10286000423E1212222242C700000000007C424277
:10287000020418204042423E00000000007F490848
:10288000080808080808081C0000000000E7424289
:10289000424242424242423C0000000000E74242C3
:1028A000222424141418080800000000006B494971
:1028B00049495555362222220000000000E74224F3
:1028C00024181818242442E7000000000077222270
:1028D000141408080808081C00000000007E2120CD
:1028E000101008040442423F00000078080808085D
:1028F0000808080808080808780000000202040414
:1029000008080810102020204040001E1010101051
:1029100010101010101010101E000038440000009D
:1029200000000000000000000000000000000000A7
:10293000000000000000000000FF0006080000008A
:102940000000000000000000000000000000000087
:10295000003C4278444242FC0000000000030202B6
:10296000021A26424242261A00000000000000001F
:102970000038440202024438000000000060404079
:1029800040784442424264D8000000000000000049
:10299000003C427E0202423C0000000000F0880839
:1029A000087E08080808083E00000000000000003B
:1029B000007C22221C023C42423C00000003020236
:1029C000023A4642424242E700000000000C0C007E
:1029D000000E08080808083E000000000030300023
:1029E0000038202020202020221E000000030202A8
:1029F0000272120A1612227700000000000E080868
:102A0000080808080808083E000000000000000050
:102A1000007F9292929292B70000000000000000A6
:102A2000003B4642424242E7000000000000000036
:102A3000003C42424242423C0000000000000000D4
:102A4000001B26424242221E020700000000000036
:102A5000007844424242447840E000000000000018
:102A600000774C040404041F000000000000000074
:102A7000007C42023C40423E000000000000000892
:102A8000083E0808080808300000000000000000A8
:102A900000634242424262DC00000000000000008D
:102AA00000E7422424140808000000000000000091
:102AB00000EB4949555522220000000000000000AB
:102AC000007624181818246E000000000000000092
:102AD00000E7422424141808080700000000000042
:102AE000007E22100808447E000000C02020202024
:102AF0002010202020202020C000101010101010C6
:102B000010101010101010101010000608080808FF
:102B1000081008080808080806000C32C200000067
:102B200000000000000000000000FFFFFFFFFFFFAB
:102B3000FFFFFFFFFFFFFFFFFFFFFFFFFFFFFFFFA5
:102B4000FFFFFFFFFFFFFFFFBEF7FFFFDEFF38C6FF
:102B5000928C8E6B6E6B107C96AD3CE7FFFFFFFF97
:102B6000FFFFFFFFFFFFFFFFFFFFFFFFFFFFFFFF75
:102B7000FFFFFFFFFFFFFFFFFFFFFFFFFFFFFFFF65
:102B8000FFFFFFFFFFFFFFFFFFFFFFFFFFFFFFFF55
:102B9000FFFFFFFFFFFFFFFF5DEF159D4F636C42DF
:102BA0000A328829461925194521E8318E6B38C625
:102BB000FFFFFFFFFFFFFFFFFFFFFFFFFFFFFFFF25
:102BC000FFFFFFFFFFFFFFFFFFFFFFFFFFFFFFFF15
:102BD000FFFFFFFFFFFFFFFFFFFFFFFFFFFFFFFF05
:102BE000FFFFFFFFFFFF36A51053104B51530F4B54
:102BF0006C3AE93167212519E410A30862008308C3
:102C0000CB529AD6FFFFFFFFFFFFFFFFFFFFFFFF43
:102C1000FFFFFFFFFFFFFFFFFFFFFFFFFFFFFFFFC4
:102C2000FFFFFFFFFFFFFFFFFFFFFFFFFFFFFFFFB4
:102C3000FFFF3CE77063B363B87CF56311434D322B
:102C4000EA29882126190519051904110411E4102F
:102C50008300A308728CFFFFFFFFFFFFFFFFFFFF52
:102C6000FFFFFFFFFFFFFFFFFFFFFFFFFFFFFFFF74
:102C7000FFFFFFFFFFFFFFFFFFFFFFFFFFFFFFFF64
:102C8000DBDE4B3AF042356C544BB1322E2AEB214D
:102C9000A921671905190411041104110411041163
:102CA0000519E4104200AF73FFFFFFFFFFFFFFFFB6
:102CB000FFFFFFFFFFFFFFFFFFFFFFFFFFFFFFFF24
:102CC000FFFFFFFFFFFFFFFFFFFFFFFFFFFF5DEFC6
:102CD00009324C32104B8F324F2A2E2ACC198919C7
:102CE00089214719051904110411C410C4100411D5
:102CF00004110411E41042003184FFFFFFFFFFFFC5
:102D0000FFFFFFFFFFFFFFFFFFFFFFFFFFFFFFFFD3
:102D1000FFFFFFFFFFFFFFFFFFFFFFFFFFFFEC5283
:102D200047194C320B2AEC21EC210C22915BEE4A24
:102D3000061126190419E410E410A7296621A30836
:102D4000051904110411E4108200F7BDFFFFFFFF15
:102D5000FFFFFFFFFFFFFFFFFFFFFFFFFFFFFFFF83
:102D6000FFFFFFFFFFFFFFFFFFFFFFFF35A583080A
:102D7000882188218921AA218A216B42718CFFFF39
:102D8000728C83080411C4082942FBDE5DEFEC5A03
:102D900083080411041104118308E831DFFFFFFFE9
:102DA000FFFFFFFFFFFFFFFFFFFFFFFFFFFFFFFF33
:102DB000FFFFFFFFFFFFFFFFFFFFBEF7C731C4109C
:102DC0002519261947194719A8298A52284A55ADA5
:102DD000FFFFE831A30805194D6B4D6BFFFF7DEF39
:102DE0004521C410041104110411620076ADFFFFE7
:102DF000FFFFFFFFFFFFFFFFFFFFFFFFFFFFFFFFE3
:102E0000FFFFFFFFFFFFFFFFFFFF96B5620004110A
:102E1000041905110519C4088B4AB6B55DEFF7BD55
:102E2000FFFF8E6B62002942AA5A0842FFFFFFFF94
:102E3000CC528308041104110411A308AD52FFFF02
:102E4000FFFFFFFFFFFFFFFFFFFFFFFFFFFFFFFF92
:102E50001CE7FFFFFFFFFFFFFFFF4E63620004114F
:102E600004110411E41062008E63FFFFFFFFFFFFF7
:102E7000FFFFCF730100F39C2C6396B5FFFFFFFFAC
:102E80002D5B8300041104110411E41067213DEF50
:102E9000FFFFFFFFFFFFFFFFFFFFF8BDB7B59EEF8E
:102EA000CB52B394FFFFFFFFDFFFE831A30804110B
:102EB000041104110411A3084942FFF7FFF7FFFFB3
:102EC000FFFF6A4A01007284FFFFFFFFFFF7DFEF99
:102ED000093AA3080411041104110411051118BEC4
:102EE000FFFFFFFFFFFFFFFFFFFFF07B6200E83106
:102EF000C731410035A5FFFF5DEF4621C410041125
:102F0000041104110411E410A308769DFFF7FFFFDC
:102F1000B7ADA308A308C7319EE7FFF7FFF776A573
:102F2000A308E4100411041104110511051135A5BD
:102F3000FFFFFFFFFFFFFFFFFFFFDBDEA72983008F
:102F4000C410C410C4101CE79EEF0511E410041156
:102F50000411041104110419C408E510D16BD16BDC
:102F6000C5086400A50843002B32779DB38425195A
:102F7000C410041104110411041125192609359DEA
:102F8000FFFFFFFFFFFFFFFFFFFFFFFFAF736200C9
:102F90000419051982000D5B8E9B62100511041146
:102FA00004110419E41085000511C439815A407BCD
:102FB000229C43AC03A4839B82728249C218A40062
:102FC000C500E41004190411051947196711EC5ADA
:102FD000BEFFFFFFFFFFFFFFFFFFDFFFDBDEC410D1
:102FE000E41004110511A41801C08388E400051938
:102FF0000419C5084421438323D542FEE4FE27FF7C
:1030000007FFA4FE64FE03FEA3FDE2FC42EC83B3D3
:103010002462E510C40804192619A8198721009014
:10302000D3BCFFFFFFFFFFFFFFFFDFFFFFFF107CB1
:10303000420005190511832801D044F8A348E40093
:10304000C508445A02EDE2FD02FE66FE74FFB8FFB9
:1030500073FFE7F6A6F645F6A4F5C3FC62FCC2FCD6
:10306000C2FCE3CBC449061188198701A49001F87A
:10307000EC9AFFFFFFFFFFFFFFFFFFFFFFFFBEF721
:10308000E83183000509824001C023F885F0A34898
:10309000A400445A02FD23CCC2DC04FE28FE48F6FC
:1030A00046F624F6E4F564FDE3FC62FCC2FC02E4AF
:1030B00002DCE2FCA47A48016701C47824F802F833
:1030C00084B07DE7FFFFFFFFFFFFFFFFFFFFFFFF74
:1030D000DBDE2519A300C43802E022D844F8A6F8A4
:1030E000A4786300432183728339829B21F561FDBB
:1030F00022FDE2FCA2FC42FC42FC42FC22AB8341EA
:10310000C392045226012519A49844F823F802F822
:10311000A4D09EEFFFFFFFFFFFFFFFFFFFFFFFFFBA
:10312000FFFF9AD68729A50043B822F823E065F867
:10313000E8F807C983484200A30084006329A27A03
:1031400062B3A2CB62D302BB828A8339A400E500BA
:10315000E500E508C46064D844F824F823F802F8D0
:103160008388DBC6FFFFFFFFFFFFFFFFFFFFFFFFBF
:10317000FFFFFFFF3DE7505B083123E843F844F0D1
:1031800065F809F9ABF989D10689A348421802000C
:10319000420061008200620062008300A320C450EC
:1031A000A58885D865F844F844F823F823F803D0B7
:1031B0008210C7295DEFFFFFFFFFFFFFFFFFFFFF4B
:1031C000FFFFFFFFFFFFFFFF6C32A53802D823F897
:1031D00065F866F8A7F84AF90CFA4DFA4CEA0BD2F2
:1031E000A9B968B147A927B107B907D1E7E8C7F876
:1031F000A7F865F865F844F823F803F802D0A32887
:103200000509C408EC5AFFFFFFFFFFFFFFFFFFFFA8
:10321000FFFFFFFFFFFFFBDE0519C400A741E6C06B
:1032200003F886F8A7F887F886F8C7F829F98AF925
:10323000ABF9ABF98BF96AF929F908F9C7F8A6F8DF
:1032400086F865F864F823F802F006B12529E40051
:10325000E41025192519149DFFFFFFFFFFFFFFFF55
:10326000FFFFFFFFFFFF96AD620082083595BACEE3
:103270008BA244D025F887F8A7F8C7F8A7F887F8F5
:1032800086F886F886F887F8A7F8A7F8A6F885F8EC
:1032900065F864F824F064B80D93BBB6CF63830877
:1032A0000411E4106621493A5DEFFFFFFFFFFFFFC5
:1032B000FFFFFFFFFFFFD3944200E410BBCEFFFFF0
:1032C000BEE776B5CCAA07C145E045F846F866F8F2
:1032D00086F886F886F886F865F845F865F865E8B2
:1032E00044D043A8018882903CD7FFEF55958308CE
:1032F0000411041105194619B394FFFFFFFFFFFFE6
:10330000FFFFFFFFFFFFB394410086215DDFFFFF5A
:10331000FFFFFFFFDFE77AC6D3B44EB32AC268D1FE
:10332000E6E0A6E8A5E8A5E8E6D888C906A922A8A7
:1033300002A800A000C800D8F7E5FFE7F8ADC41068
:10334000E4100411E41005118B4AFFFFFFFFFFFF9B
:10335000FFFFFFFFFFFF55A54100A7295DDFFFF736
:10336000FFFFFFFFFFFFFFFFFFFFFFEF7DDFDBCE74
:1033700059CEF8CDD7CDF7C579CEFBBEABA203F0C1
:1033800045F842D043E800F072D4FFDF39AEE410D4
:10339000E4100411E41005118729FFFFFFFFFFFF70
:1033A000FFFFFFFFFFFF59CE830846211CD7FFF721
:1033B000FFFFFFFFFFFFFFFFFFFFFFFFFFFFFFFF1D
:1033C000FFFFFFFFFFFFFFFFFFFFFFEF8BBA04F8D8
:1033D00045F862E044F000F88EDBFFDFF8A5C4108A
:1033E000E410E4100411E4102519FFFFFFFFFFFFB4
:1033F000FFFFFFFFFFFFBEF78729830839B6FFF7FE
:10340000DFF7FFFFFFFFFFFFFFFFFFFFFFFFFFFFF4
:10341000FFFFFFFFFFFFFFFFFFFFBEE74ABA03F812
:1034200045F864F844F800F86EE3FFD7F48C83089D
:103430000411E410E410E4100519FFFFFFFFFFFF83
:10344000FFFFFFFFFFFFFFFFEF7300007284FFEF3E
:10345000BEEFDFFFFFFFFFFFFFFFFFFFFFFFFFFFED
:10346000FFFFFFFFFFFFFFFFFFFFDFE78BBA03F860
:1034700045F845F823F800F8D3D4FFD74E5B210078
:10348000293A55A58308C4102519FFFFFFFFFFFF48
:10349000FFFFFFFFFFFFFFFFFBDEA308E8319EDF1A
:1034A0009EE7BFEFFFFFFFFFFFFFFFFFFFFFFFFFF5
:1034B000FFFFFFFFFFFFFFFFFFFFFFF751BC02E031
:1034C00003F803F043E0ECC27ECFFCBE46212100AE
:1034D000D394FFFF518400008729FFFFFFFFFFFF08
:1034E000FFFFFFFFFFFFFFFFFFFF51840000F48C91
:1034F000FFEF9EE7BFEFDFFFFFFFFFFFFFFFFFFFD5
:10350000FFFFFFFFFFFFFFFFFFFFFFFF3DDF55BD99
:1035100052BC72BCB7B55DC7FFDFF06B0000093A63
:10352000BFF7FFFFFFFF149D55A5FFFFFFFFFFFF44
:10353000FFFFFFFFFFFFFFFFFFFFFFFFAC4AA408F5
:10354000BBBEDFE77EE7BEEFDFF7DFFFFFFFFFFF7A
:10355000FFFFFFFFFFFFFFFFFFFFDFFFDFF7FFEFD3
:10356000DFDFBFD79ED7DFDFD8A583082611DBD6E4
:10357000FFFFFFFFFFFFFFFFFFFFFFFFFFFFFFFF5B
:10358000FFFFFFFFFFFFFFFFFFFF79EE8BDC213125
:10359000A9213DCFBFDF7EDF9EE7BEEFBFEFDFF7A4
:1035A000DFF7DFF7DFF7DFF7BFEFBEEF9EE77EDF86
:1035B0005ED75ED7DFDF9AB626194208EDA3BFFFBC
:1035C000FFFFFFFFFFFFFFFFFFFFFFFFFFFFFFFF0B
:1035D000FFFFFFFFFFFFFFFF74DDC0DB00FE42EED9
:1035E000024289217BB6DFDF7ED77EDF7EDF9EE76A
:1035F0009EE79EE79EE79EE77EDF7EDF5DD75DD795
:103600009EDFFFE7F8A50711E31802C560FDE6D3CA
:10361000DBEEFFFFFFFFFFFFFFFFFFFFFFFFFFFFEF
:10362000FFFFFFFFFFFF9EF784BAC1FC42FE82FE50
:10363000A2FE8183452174745EC7DFDF7ED75ED72B
:103640005DD75ED75ED75DD75DD75ED79EDFFFE7DC
:103650003DC7F1638408425226E629FF86FEE0F367
:103660006AC3FFFFFFFFFFFFFFFFFFFFFFFFFFFF3B
:10367000FFFFFFFFFFFF18DEC1D2A2FD22FE42FEC8
:1036800042FE62FEE2D4416A494253743BA63EC701
:10369000BFD7BFD7BFD7BFDFBFD73EC71AA6F2631A
:1036A000A729824122B462FE83FEAAFE0FFF67FDB6
:1036B00063BA3CEFFFFFFFFFFFFFFFFFFFFFFFFFCE
:1036C000FFFFFFFFFFFF9AE680D221FDC2FDE2F57A
:1036D000C2F582F582FD62FD61DC219B846AE96AA4
:1036E0002C63AF6311746E632C63895A0452817A20
:1036F000C2CBE2FC62FD82FDC2FDC2FDE4FD24FD01
:1037000062CA1CE7FFFFFFFFFFFFFFFFFFFFFFFF96
:10371000FFFFFFFFFFFFFFFFB1CC81D2C0F3C1FC71
:1037200002FD02FDE2FCC2FCC2FC81FC80FBC0C9C0
:10373000A48135AD59CE719C218100DAA1FB82FCB8
:10374000A2FC82FCA2FC02FD22FDE2FC00FC60DA8D
:1037500090CCFFFFFFFFFFFFFFFFFFFFFFFFFFFF1B
:10376000FFFFFFFFFFFFFFFFFFFF59DE0DC406CB8A
:10377000E4D203DB03DBE3DAC3D2A4C209B3D2BCD5
:103780009EF7FFFFFFFFFFFFFBE60EB4A6BA83D252
:10379000E3E202EB22EB22E303DBE4D26AC3B6D519
:1037A000FFFFFFFFFFFFFFFFFFFF0000CC37000818
:1037B0000000002094030000C401000888390008BC
:1037C000940300202C0700002002000811847A03D3
:1037D0000A900901020304060708092A8004FA0175
:1037E00004080D1A1080010CF0FFFF0F3080010457
:1037F0000419246A070C09124809100401131A015C
:103800001914FFFF011A03082904E90C3381812AE6
:103810000304261CFCFFFF3F1A400B5AC0282AC095
:103820000C49041BFFFF4C22411A0468230E711B34
:1038300007815A14010760100B010E1898011C042F
:10384000E001181927F11A08C4231F304A0C046834
:1038500009100C30FE3F0C30041069041BC00C280A
:103860001E0D3030060E049C0C3010044B188604DC
:10387000101208060D300C860D3006EE0F3002FCDB
:103880000D30015B0CF040193C2A0F081A109ED134
:10389000299019CB4908890417E0FFFF0360C0098C
:1038A000130409161C59181A010429441A08045A49
:1038B000100419F8130138041780FF1F2603C0FFF6
:1038C000FF071A8004293D326032181A0C135A037C
:1038D0000419A41C800108045E1CFCFFFF3F1009B2
:1038E00028041AFC0432E062405A80026DFC1F84F6
:1038F0001002290C69184DF80F080804128023FFE4
:103900007F290C490E2D8410A22045280FFE3F026E
:1039100020F22702200220FA2F2221022809122950
:1039200012290A2E02201AC95E990816508040807A
:1039300040195213FE1F120812042C028001626902
:103940007829021AA0A518161008B8080F09080946
:103950000808BF0808091C092C080A78CA1179014F
:103960002A04023CC87F3F08180BA83F18210C11FD
:103970000B12080A0E06120A8A1164602D01020356
:083980000404250607080900F4
:040000050800018965
:00000001FF
